{
  "abi": [
    {
      "inputs": [],
      "stateMutability": "nonpayable",
      "type": "constructor"
    },
    {
      "anonymous": false,
      "inputs": [
        {
          "indexed": true,
          "internalType": "address",
          "name": "subscriber",
          "type": "address"
        },
        {
          "indexed": false,
          "internalType": "string",
          "name": "status",
          "type": "string"
        }
      ],
      "name": "Status",
      "type": "event"
    },
    {
      "anonymous": false,
      "inputs": [
        {
          "indexed": true,
          "internalType": "address",
          "name": "subscriber",
          "type": "address"
        },
        {
          "indexed": false,
          "internalType": "uint256",
          "name": "currentTimestamp",
          "type": "uint256"
        },
        {
          "indexed": false,
          "internalType": "uint256",
          "name": "newExpirationTimestamp",
          "type": "uint256"
        }
      ],
      "name": "SubscriptionRenewed",
      "type": "event"
    },
    {
      "anonymous": false,
      "inputs": [
        {
          "indexed": true,
          "internalType": "address",
          "name": "subscriber",
          "type": "address"
        }
      ],
      "name": "Unsubscribed",
      "type": "event"
    },
    {
      "inputs": [],
      "name": "EXPIRED",
      "outputs": [
        {
          "internalType": "uint32",
          "name": "",
          "type": "uint32"
        }
      ],
      "stateMutability": "view",
      "type": "function"
    },
    {
      "inputs": [],
      "name": "NEW",
      "outputs": [
        {
          "internalType": "uint32",
          "name": "",
          "type": "uint32"
        }
      ],
      "stateMutability": "view",
      "type": "function"
    },
    {
      "inputs": [],
      "name": "REQUIRES_RENEWAL",
      "outputs": [
        {
          "internalType": "uint32",
          "name": "",
          "type": "uint32"
        }
      ],
      "stateMutability": "view",
      "type": "function"
    },
    {
      "inputs": [],
      "name": "VALID",
      "outputs": [
        {
          "internalType": "uint32",
          "name": "",
          "type": "uint32"
        }
      ],
      "stateMutability": "view",
      "type": "function"
    },
    {
      "inputs": [
        {
          "internalType": "address",
          "name": "addressToValidate",
          "type": "address"
        }
      ],
      "name": "checkSubscriptionStatus",
      "outputs": [
        {
          "internalType": "uint32",
          "name": "",
          "type": "uint32"
        }
      ],
      "stateMutability": "nonpayable",
      "type": "function"
    },
    {
      "inputs": [],
      "name": "firstPaymentAmount",
      "outputs": [
        {
          "internalType": "uint256",
          "name": "",
          "type": "uint256"
        }
      ],
      "stateMutability": "view",
      "type": "function"
    },
    {
      "inputs": [],
      "name": "gracePeriod",
      "outputs": [
        {
          "internalType": "uint256",
          "name": "",
          "type": "uint256"
        }
      ],
      "stateMutability": "view",
      "type": "function"
    },
    {
      "inputs": [],
      "name": "owner",
      "outputs": [
        {
          "internalType": "address",
          "name": "",
          "type": "address"
        }
      ],
      "stateMutability": "view",
      "type": "function"
    },
    {
      "inputs": [],
      "name": "subscribe",
      "outputs": [],
      "stateMutability": "payable",
      "type": "function"
    },
    {
      "inputs": [
        {
          "internalType": "address",
          "name": "",
          "type": "address"
        }
      ],
      "name": "subscribers",
      "outputs": [
        {
          "internalType": "uint256",
          "name": "lastPaymentTimestamp",
          "type": "uint256"
        },
        {
          "internalType": "bool",
          "name": "isSubscribed",
          "type": "bool"
        }
      ],
      "stateMutability": "view",
      "type": "function"
    },
    {
      "inputs": [],
      "name": "subscriptionAmount",
      "outputs": [
        {
          "internalType": "uint256",
          "name": "",
          "type": "uint256"
        }
      ],
      "stateMutability": "view",
      "type": "function"
    },
    {
      "inputs": [],
      "name": "subscriptionDuration",
      "outputs": [
        {
          "internalType": "uint256",
          "name": "",
          "type": "uint256"
        }
      ],
      "stateMutability": "view",
      "type": "function"
    },
    {
      "inputs": [],
      "name": "unsubscribe",
      "outputs": [],
      "stateMutability": "nonpayable",
      "type": "function"
    },
    {
      "inputs": [],
      "name": "withdrawBalance",
      "outputs": [
        {
          "internalType": "uint256",
          "name": "",
          "type": "uint256"
        }
      ],
      "stateMutability": "view",
      "type": "function"
    },
    {
      "stateMutability": "payable",
      "type": "receive"
    }
  ],
  "devdoc": {
    "details": "A smart contract for handling subscription-based payments.",
    "kind": "dev",
    "methods": {
      "checkSubscriptionStatus(address)": {
        "details": "Checks the subscription status of a given address.",
        "params": {
          "addressToValidate": "The address to check the subscription status for."
        },
        "returns": {
          "_0": "uint32 The subscription status (VALID, REQUIRES_RENEWAL, EXPIRED, NEW)."
        }
      },
      "constructor": {
        "details": "Constructor that sets the owner to the address that deploys the contract."
      },
      "subscribe()": {
        "details": "Handles subscription payments. Validates the payment amount and updates subscriber details."
      },
      "unsubscribe()": {
        "details": "Handles unsubscription by resetting the subscriber's status."
      },
      "withdrawBalance()": {
        "details": "Returns the contract's current balance.",
        "returns": {
          "_0": "uint256 The contract's current balance."
        }
      }
    },
    "title": "Subscription",
    "version": 1
  },
  "evm": {
    "assembly": "    /* \"SubscriptionContract.sol\":190:5301  contract SubscriptionContract {... */\n  mstore(0x40, 0x80)\n    /* \"SubscriptionContract.sol\":334:346  0.0005 ether */\n  0x01c6bf52634000\n    /* \"SubscriptionContract.sol\":298:346  uint256 public subscriptionAmount = 0.0005 ether */\n  0x01\n  sstore\n    /* \"SubscriptionContract.sol\":433:444  0.001 ether */\n  0x038d7ea4c68000\n    /* \"SubscriptionContract.sol\":397:444  uint256 public firstPaymentAmount = 0.001 ether */\n  0x02\n  sstore\n    /* \"SubscriptionContract.sol\":543:551  182 days */\n  0xeff100\n    /* \"SubscriptionContract.sol\":505:551  uint256 public subscriptionDuration = 182 days */\n  0x03\n  sstore\n    /* \"SubscriptionContract.sol\":637:643  7 days */\n  0x093a80\n    /* \"SubscriptionContract.sol\":608:643  uint256 public gracePeriod = 7 days */\n  0x04\n  sstore\n    /* \"SubscriptionContract.sol\":1775:1826  constructor() {... */\n  callvalue\n  dup1\n  iszero\n  tag_1\n  jumpi\n  0x00\n  dup1\n  revert\ntag_1:\n  pop\n    /* \"SubscriptionContract.sol\":1800:1805  owner */\n  0x00\n    /* \"SubscriptionContract.sol\":1800:1818  owner = msg.sender */\n  dup1\n  sload\n  not(sub(shl(0xa0, 0x01), 0x01))\n  and\n    /* \"SubscriptionContract.sol\":1808:1818  msg.sender */\n  caller\n    /* \"SubscriptionContract.sol\":1800:1818  owner = msg.sender */\n  or\n  swap1\n  sstore\n    /* \"SubscriptionContract.sol\":190:5301  contract SubscriptionContract {... */\n  dataSize(sub_0)\n  dup1\n  dataOffset(sub_0)\n  0x00\n  codecopy\n  0x00\n  return\nstop\n\nsub_0: assembly {\n        /* \"SubscriptionContract.sol\":190:5301  contract SubscriptionContract {... */\n      mstore(0x40, 0x80)\n      jumpi(tag_1, lt(calldatasize, 0x04))\n      shr(0xe0, calldataload(0x00))\n      dup1\n      0x8da5cb5b\n      gt\n      tag_17\n      jumpi\n      dup1\n      0xa06db7dc\n      gt\n      tag_18\n      jumpi\n      dup1\n      0xa06db7dc\n      eq\n      tag_13\n      jumpi\n      dup1\n      0xbf3d5b54\n      eq\n      tag_14\n      jumpi\n      dup1\n      0xdcbe1b3c\n      eq\n      tag_15\n      jumpi\n      dup1\n      0xfcae4484\n      eq\n      tag_16\n      jumpi\n      0x00\n      dup1\n      revert\n    tag_18:\n      dup1\n      0x8da5cb5b\n      eq\n      tag_10\n      jumpi\n      dup1\n      0x8f449a05\n      eq\n      tag_11\n      jumpi\n      dup1\n      0x90fec1d4\n      eq\n      tag_12\n      jumpi\n      0x00\n      dup1\n      revert\n    tag_17:\n      dup1\n      0x54f8a8c2\n      gt\n      tag_19\n      jumpi\n      dup1\n      0x54f8a8c2\n      eq\n      tag_6\n      jumpi\n      dup1\n      0x5745ae28\n      eq\n      tag_7\n      jumpi\n      dup1\n      0x5fd8c710\n      eq\n      tag_8\n      jumpi\n      dup1\n      0x7a94a633\n      eq\n      tag_9\n      jumpi\n      0x00\n      dup1\n      revert\n    tag_19:\n      dup1\n      0x08601768\n      eq\n      tag_3\n      jumpi\n      dup1\n      0x2781b0eb\n      eq\n      tag_4\n      jumpi\n      dup1\n      0x414ac85b\n      eq\n      tag_5\n      jumpi\n      0x00\n      dup1\n      revert\n    tag_1:\n      jumpi(tag_2, calldatasize)\n      stop\n    tag_2:\n      0x00\n      dup1\n      revert\n        /* \"SubscriptionContract.sol\":965:995  uint32 constant public NEW = 3 */\n    tag_3:\n      callvalue\n      dup1\n      iszero\n      tag_22\n      jumpi\n      0x00\n      dup1\n      revert\n    tag_22:\n      pop\n      tag_23\n        /* \"SubscriptionContract.sol\":994:995  3 */\n      0x03\n        /* \"SubscriptionContract.sol\":965:995  uint32 constant public NEW = 3 */\n      dup2\n      jump\n    tag_23:\n      mload(0x40)\n        /* \"#utility.yul\":188:198   */\n      0xffffffff\n        /* \"#utility.yul\":176:199   */\n      swap1\n      swap2\n      and\n        /* \"#utility.yul\":158:200   */\n      dup2\n      mstore\n        /* \"#utility.yul\":146:148   */\n      0x20\n        /* \"#utility.yul\":131:149   */\n      add\n        /* \"SubscriptionContract.sol\":965:995  uint32 constant public NEW = 3 */\n    tag_25:\n      mload(0x40)\n      dup1\n      swap2\n      sub\n      swap1\n      return\n        /* \"SubscriptionContract.sol\":2087:3337  function checkSubscriptionStatus(address addressToValidate) public returns (uint32) {... */\n    tag_4:\n      callvalue\n      dup1\n      iszero\n      tag_27\n      jumpi\n      0x00\n      dup1\n      revert\n    tag_27:\n      pop\n      tag_23\n      tag_29\n      calldatasize\n      0x04\n      tag_30\n      jump\t// in\n    tag_29:\n      tag_31\n      jump\t// in\n        /* \"SubscriptionContract.sol\":892:926  uint32 constant public EXPIRED = 0 */\n    tag_5:\n      callvalue\n      dup1\n      iszero\n      tag_33\n      jumpi\n      0x00\n      dup1\n      revert\n    tag_33:\n      pop\n      tag_23\n        /* \"SubscriptionContract.sol\":925:926  0 */\n      0x00\n        /* \"SubscriptionContract.sol\":892:926  uint32 constant public EXPIRED = 0 */\n      dup2\n      jump\n        /* \"SubscriptionContract.sol\":298:346  uint256 public subscriptionAmount = 0.0005 ether */\n    tag_6:\n      callvalue\n      dup1\n      iszero\n      tag_37\n      jumpi\n      0x00\n      dup1\n      revert\n    tag_37:\n      pop\n      tag_38\n      sload(0x01)\n      dup2\n      jump\n    tag_38:\n      mload(0x40)\n        /* \"#utility.yul\":671:696   */\n      swap1\n      dup2\n      mstore\n        /* \"#utility.yul\":659:661   */\n      0x20\n        /* \"#utility.yul\":644:662   */\n      add\n        /* \"SubscriptionContract.sol\":298:346  uint256 public subscriptionAmount = 0.0005 ether */\n      tag_25\n        /* \"#utility.yul\":525:702   */\n      jump\n        /* \"SubscriptionContract.sol\":1144:1193  mapping(address => Subscriber) public subscribers */\n    tag_7:\n      callvalue\n      dup1\n      iszero\n      tag_42\n      jumpi\n      0x00\n      dup1\n      revert\n    tag_42:\n      pop\n      tag_43\n      tag_44\n      calldatasize\n      0x04\n      tag_30\n      jump\t// in\n    tag_44:\n      mstore(0x20, 0x05)\n      0x00\n      swap1\n      dup2\n      mstore\n      0x40\n      swap1\n      keccak256\n      dup1\n      sload\n      0x01\n      swap1\n      swap2\n      add\n      sload\n      0xff\n      and\n      dup3\n      jump\n    tag_43:\n      0x40\n      dup1\n      mload\n        /* \"#utility.yul\":875:900   */\n      swap3\n      dup4\n      mstore\n        /* \"#utility.yul\":943:957   */\n      swap1\n      iszero\n        /* \"#utility.yul\":936:958   */\n      iszero\n        /* \"#utility.yul\":931:933   */\n      0x20\n        /* \"#utility.yul\":916:934   */\n      dup4\n      add\n        /* \"#utility.yul\":909:959   */\n      mstore\n        /* \"#utility.yul\":848:866   */\n      add\n        /* \"SubscriptionContract.sol\":1144:1193  mapping(address => Subscriber) public subscribers */\n      tag_25\n        /* \"#utility.yul\":707:965   */\n      jump\n        /* \"SubscriptionContract.sol\":4736:4853  function withdrawBalance() external view onlyOwner returns (uint256) {... */\n    tag_8:\n      callvalue\n      dup1\n      iszero\n      tag_48\n      jumpi\n      0x00\n      dup1\n      revert\n    tag_48:\n      pop\n      tag_38\n      tag_50\n      jump\t// in\n        /* \"SubscriptionContract.sol\":505:551  uint256 public subscriptionDuration = 182 days */\n    tag_9:\n      callvalue\n      dup1\n      iszero\n      tag_52\n      jumpi\n      0x00\n      dup1\n      revert\n    tag_52:\n      pop\n      tag_38\n      sload(0x03)\n      dup2\n      jump\n        /* \"SubscriptionContract.sol\":227:247  address public owner */\n    tag_10:\n      callvalue\n      dup1\n      iszero\n      tag_56\n      jumpi\n      0x00\n      dup1\n      revert\n    tag_56:\n      pop\n      sload(0x00)\n      tag_57\n      swap1\n      sub(shl(0xa0, 0x01), 0x01)\n      and\n      dup2\n      jump\n    tag_57:\n      mload(0x40)\n      sub(shl(0xa0, 0x01), 0x01)\n        /* \"#utility.yul\":1134:1189   */\n      swap1\n      swap2\n      and\n        /* \"#utility.yul\":1116:1190   */\n      dup2\n      mstore\n        /* \"#utility.yul\":1104:1106   */\n      0x20\n        /* \"#utility.yul\":1089:1107   */\n      add\n        /* \"SubscriptionContract.sol\":227:247  address public owner */\n      tag_25\n        /* \"#utility.yul\":970:1196   */\n      jump\n        /* \"SubscriptionContract.sol\":3468:4601  function subscribe() external payable {... */\n    tag_11:\n      tag_61\n      tag_62\n      jump\t// in\n    tag_61:\n      stop\n        /* \"SubscriptionContract.sol\":397:444  uint256 public firstPaymentAmount = 0.001 ether */\n    tag_12:\n      callvalue\n      dup1\n      iszero\n      tag_63\n      jumpi\n      0x00\n      dup1\n      revert\n    tag_63:\n      pop\n      tag_38\n      sload(0x02)\n      dup2\n      jump\n        /* \"SubscriptionContract.sol\":608:643  uint256 public gracePeriod = 7 days */\n    tag_13:\n      callvalue\n      dup1\n      iszero\n      tag_67\n      jumpi\n      0x00\n      dup1\n      revert\n    tag_67:\n      pop\n      tag_38\n      sload(0x04)\n      dup2\n      jump\n        /* \"SubscriptionContract.sol\":790:833  uint32 constant public REQUIRES_RENEWAL = 2 */\n    tag_14:\n      callvalue\n      dup1\n      iszero\n      tag_71\n      jumpi\n      0x00\n      dup1\n      revert\n    tag_71:\n      pop\n      tag_23\n        /* \"SubscriptionContract.sol\":832:833  2 */\n      0x02\n        /* \"SubscriptionContract.sol\":790:833  uint32 constant public REQUIRES_RENEWAL = 2 */\n      dup2\n      jump\n        /* \"SubscriptionContract.sol\":700:732  uint32 constant public VALID = 1 */\n    tag_15:\n      callvalue\n      dup1\n      iszero\n      tag_75\n      jumpi\n      0x00\n      dup1\n      revert\n    tag_75:\n      pop\n      tag_23\n        /* \"SubscriptionContract.sol\":731:732  1 */\n      0x01\n        /* \"SubscriptionContract.sol\":700:732  uint32 constant public VALID = 1 */\n      dup2\n      jump\n        /* \"SubscriptionContract.sol\":4953:5103  function unsubscribe() external onlySubscribed {... */\n    tag_16:\n      callvalue\n      dup1\n      iszero\n      tag_79\n      jumpi\n      0x00\n      dup1\n      revert\n    tag_79:\n      pop\n      tag_61\n      tag_81\n      jump\t// in\n        /* \"SubscriptionContract.sol\":2087:3337  function checkSubscriptionStatus(address addressToValidate) public returns (uint32) {... */\n    tag_31:\n      sub(shl(0xa0, 0x01), 0x01)\n        /* \"SubscriptionContract.sol\":2214:2244  subscribers[addressToValidate] */\n      dup2\n      and\n        /* \"SubscriptionContract.sol\":2163:2169  uint32 */\n      0x00\n        /* \"SubscriptionContract.sol\":2214:2244  subscribers[addressToValidate] */\n      swap1\n      dup2\n      mstore\n        /* \"SubscriptionContract.sol\":2214:2225  subscribers */\n      0x05\n        /* \"SubscriptionContract.sol\":2214:2244  subscribers[addressToValidate] */\n      0x20\n      mstore\n      0x40\n      dup2\n      keccak256\n        /* \"SubscriptionContract.sol\":2259:2282  subscriber.isSubscribed */\n      0x01\n      dup2\n      add\n      sload\n      0xff\n      and\n        /* \"SubscriptionContract.sol\":2255:3330  if (subscriber.isSubscribed) {... */\n      iszero\n      tag_83\n      jumpi\n        /* \"SubscriptionContract.sol\":2396:2416  subscriptionDuration */\n      sload(0x03)\n        /* \"SubscriptionContract.sol\":2362:2393  subscriber.lastPaymentTimestamp */\n      dup2\n      sload\n        /* \"SubscriptionContract.sol\":2362:2416  subscriber.lastPaymentTimestamp + subscriptionDuration */\n      tag_84\n      swap2\n        /* \"SubscriptionContract.sol\":2396:2416  subscriptionDuration */\n      swap1\n        /* \"SubscriptionContract.sol\":2362:2416  subscriber.lastPaymentTimestamp + subscriptionDuration */\n      tag_85\n      jump\t// in\n    tag_84:\n        /* \"SubscriptionContract.sol\":2344:2359  block.timestamp */\n      timestamp\n        /* \"SubscriptionContract.sol\":2344:2416  block.timestamp < subscriber.lastPaymentTimestamp + subscriptionDuration */\n      lt\n        /* \"SubscriptionContract.sol\":2340:3182  if (block.timestamp < subscriber.lastPaymentTimestamp + subscriptionDuration) {... */\n      iszero\n      tag_86\n      jumpi\n        /* \"SubscriptionContract.sol\":2449:2466  addressToValidate */\n      dup3\n      sub(shl(0xa0, 0x01), 0x01)\n        /* \"SubscriptionContract.sol\":2442:2510  Status(addressToValidate, \"no need to renew, subscription is valid\") */\n      and\n      0xd9165940daabcb82f6d23bee40e26fa9e1611f552c3a3ee300a0e80879a9971b\n      mload(0x40)\n      tag_87\n      swap1\n        /* \"#utility.yul\":1630:1632   */\n      0x20\n        /* \"#utility.yul\":1612:1633   */\n      dup1\n      dup3\n      mstore\n        /* \"#utility.yul\":1669:1671   */\n      0x27\n        /* \"#utility.yul\":1649:1667   */\n      swap1\n      dup3\n      add\n        /* \"#utility.yul\":1642:1672   */\n      mstore\n        /* \"#utility.yul\":1708:1742   */\n      0x6e6f206e65656420746f2072656e65772c20737562736372697074696f6e2069\n        /* \"#utility.yul\":1703:1705   */\n      0x40\n        /* \"#utility.yul\":1688:1706   */\n      dup3\n      add\n        /* \"#utility.yul\":1681:1743   */\n      mstore\n        /* \"#utility.yul\":1779:1788   */\n      0x732076616c696400000000000000000000000000000000000000000000000000\n        /* \"#utility.yul\":1774:1776   */\n      0x60\n        /* \"#utility.yul\":1759:1777   */\n      dup3\n      add\n        /* \"#utility.yul\":1752:1789   */\n      mstore\n        /* \"#utility.yul\":1821:1824   */\n      0x80\n        /* \"#utility.yul\":1806:1825   */\n      add\n      swap1\n        /* \"#utility.yul\":1428:1831   */\n      jump\n        /* \"SubscriptionContract.sol\":2442:2510  Status(addressToValidate, \"no need to renew, subscription is valid\") */\n    tag_87:\n      mload(0x40)\n      dup1\n      swap2\n      sub\n      swap1\n      log2\n      pop\n        /* \"SubscriptionContract.sol\":731:732  1 */\n      0x01\n      swap3\n        /* \"SubscriptionContract.sol\":2087:3337  function checkSubscriptionStatus(address addressToValidate) public returns (uint32) {... */\n      swap2\n      pop\n      pop\n      jump\t// out\n        /* \"SubscriptionContract.sol\":2340:3182  if (block.timestamp < subscriber.lastPaymentTimestamp + subscriptionDuration) {... */\n    tag_86:\n        /* \"SubscriptionContract.sol\":2698:2709  gracePeriod */\n      sload(0x04)\n        /* \"SubscriptionContract.sol\":2675:2695  subscriptionDuration */\n      sload(0x03)\n        /* \"SubscriptionContract.sol\":2641:2672  subscriber.lastPaymentTimestamp */\n      dup3\n      sload\n        /* \"SubscriptionContract.sol\":2641:2695  subscriber.lastPaymentTimestamp + subscriptionDuration */\n      tag_90\n      swap2\n        /* \"SubscriptionContract.sol\":2675:2695  subscriptionDuration */\n      swap1\n        /* \"SubscriptionContract.sol\":2641:2695  subscriber.lastPaymentTimestamp + subscriptionDuration */\n      tag_85\n      jump\t// in\n    tag_90:\n        /* \"SubscriptionContract.sol\":2641:2709  subscriber.lastPaymentTimestamp + subscriptionDuration + gracePeriod */\n      tag_91\n      swap2\n      swap1\n      tag_85\n      jump\t// in\n    tag_91:\n        /* \"SubscriptionContract.sol\":2623:2638  block.timestamp */\n      timestamp\n        /* \"SubscriptionContract.sol\":2623:2709  block.timestamp > subscriber.lastPaymentTimestamp + subscriptionDuration + gracePeriod */\n      gt\n        /* \"SubscriptionContract.sol\":2619:3182  if (block.timestamp > subscriber.lastPaymentTimestamp + subscriptionDuration + gracePeriod) {... */\n      iszero\n      tag_92\n      jumpi\n      sub(shl(0xa0, 0x01), 0x01)\n        /* \"SubscriptionContract.sol\":2730:2760  subscribers[addressToValidate] */\n      dup4\n      and\n        /* \"SubscriptionContract.sol\":2776:2781  false */\n      0x00\n        /* \"SubscriptionContract.sol\":2730:2760  subscribers[addressToValidate] */\n      dup2\n      dup2\n      mstore\n        /* \"SubscriptionContract.sol\":2730:2741  subscribers */\n      0x05\n        /* \"SubscriptionContract.sol\":2730:2760  subscribers[addressToValidate] */\n      0x20\n      mstore\n      0x40\n      dup1\n      dup3\n      keccak256\n        /* \"SubscriptionContract.sol\":2730:2773  subscribers[addressToValidate].isSubscribed */\n      0x01\n      add\n        /* \"SubscriptionContract.sol\":2730:2781  subscribers[addressToValidate].isSubscribed = false */\n      dup1\n      sload\n      not(0xff)\n      and\n      swap1\n      sstore\n        /* \"SubscriptionContract.sol\":2805:2836  Unsubscribed(addressToValidate) */\n      mload\n      0xae563681ccc696fae58fe830f401bc9c043a43ddb9f7c2830b32c3c70d9966e7\n      swap2\n        /* \"SubscriptionContract.sol\":2776:2781  false */\n      swap1\n        /* \"SubscriptionContract.sol\":2805:2836  Unsubscribed(addressToValidate) */\n      log2\n        /* \"SubscriptionContract.sol\":2867:2884  addressToValidate */\n      dup3\n      sub(shl(0xa0, 0x01), 0x01)\n        /* \"SubscriptionContract.sol\":2860:2912  Status(addressToValidate, \"subscription is expired\") */\n      and\n      0xd9165940daabcb82f6d23bee40e26fa9e1611f552c3a3ee300a0e80879a9971b\n      mload(0x40)\n      tag_93\n      swap1\n        /* \"#utility.yul\":2038:2040   */\n      0x20\n        /* \"#utility.yul\":2020:2041   */\n      dup1\n      dup3\n      mstore\n        /* \"#utility.yul\":2077:2079   */\n      0x17\n        /* \"#utility.yul\":2057:2075   */\n      swap1\n      dup3\n      add\n        /* \"#utility.yul\":2050:2080   */\n      mstore\n        /* \"#utility.yul\":2116:2141   */\n      0x737562736372697074696f6e2069732065787069726564000000000000000000\n        /* \"#utility.yul\":2111:2113   */\n      0x40\n        /* \"#utility.yul\":2096:2114   */\n      dup3\n      add\n        /* \"#utility.yul\":2089:2142   */\n      mstore\n        /* \"#utility.yul\":2174:2176   */\n      0x60\n        /* \"#utility.yul\":2159:2177   */\n      add\n      swap1\n        /* \"#utility.yul\":1836:2183   */\n      jump\n        /* \"SubscriptionContract.sol\":2860:2912  Status(addressToValidate, \"subscription is expired\") */\n    tag_93:\n      mload(0x40)\n      dup1\n      swap2\n      sub\n      swap1\n      log2\n      pop\n        /* \"SubscriptionContract.sol\":925:926  0 */\n      0x00\n      swap3\n        /* \"SubscriptionContract.sol\":2087:3337  function checkSubscriptionStatus(address addressToValidate) public returns (uint32) {... */\n      swap2\n      pop\n      pop\n      jump\t// out\n        /* \"SubscriptionContract.sol\":2619:3182  if (block.timestamp > subscriber.lastPaymentTimestamp + subscriptionDuration + gracePeriod) {... */\n    tag_92:\n        /* \"SubscriptionContract.sol\":3065:3082  addressToValidate */\n      dup3\n      sub(shl(0xa0, 0x01), 0x01)\n        /* \"SubscriptionContract.sol\":3058:3124  Status(addressToValidate, \"within grace period, requires renewal\") */\n      and\n      0xd9165940daabcb82f6d23bee40e26fa9e1611f552c3a3ee300a0e80879a9971b\n      mload(0x40)\n      tag_96\n      swap1\n        /* \"#utility.yul\":2390:2392   */\n      0x20\n        /* \"#utility.yul\":2372:2393   */\n      dup1\n      dup3\n      mstore\n        /* \"#utility.yul\":2429:2431   */\n      0x25\n        /* \"#utility.yul\":2409:2427   */\n      swap1\n      dup3\n      add\n        /* \"#utility.yul\":2402:2432   */\n      mstore\n        /* \"#utility.yul\":2468:2502   */\n      0x77697468696e20677261636520706572696f642c207265717569726573207265\n        /* \"#utility.yul\":2463:2465   */\n      0x40\n        /* \"#utility.yul\":2448:2466   */\n      dup3\n      add\n        /* \"#utility.yul\":2441:2503   */\n      mstore\n        /* \"#utility.yul\":2539:2546   */\n      0x6e6577616c000000000000000000000000000000000000000000000000000000\n        /* \"#utility.yul\":2534:2536   */\n      0x60\n        /* \"#utility.yul\":2519:2537   */\n      dup3\n      add\n        /* \"#utility.yul\":2512:2547   */\n      mstore\n        /* \"#utility.yul\":2579:2582   */\n      0x80\n        /* \"#utility.yul\":2564:2583   */\n      add\n      swap1\n        /* \"#utility.yul\":2188:2589   */\n      jump\n        /* \"SubscriptionContract.sol\":3058:3124  Status(addressToValidate, \"within grace period, requires renewal\") */\n    tag_96:\n      mload(0x40)\n      dup1\n      swap2\n      sub\n      swap1\n      log2\n      pop\n        /* \"SubscriptionContract.sol\":832:833  2 */\n      0x02\n      swap3\n        /* \"SubscriptionContract.sol\":2087:3337  function checkSubscriptionStatus(address addressToValidate) public returns (uint32) {... */\n      swap2\n      pop\n      pop\n      jump\t// out\n        /* \"SubscriptionContract.sol\":2255:3330  if (subscriber.isSubscribed) {... */\n    tag_83:\n        /* \"SubscriptionContract.sol\":3257:3274  addressToValidate */\n      dup3\n      sub(shl(0xa0, 0x01), 0x01)\n        /* \"SubscriptionContract.sol\":3250:3293  Status(addressToValidate, \"not subscribed\") */\n      and\n      0xd9165940daabcb82f6d23bee40e26fa9e1611f552c3a3ee300a0e80879a9971b\n      mload(0x40)\n      tag_99\n      swap1\n        /* \"#utility.yul\":2796:2798   */\n      0x20\n        /* \"#utility.yul\":2778:2799   */\n      dup1\n      dup3\n      mstore\n        /* \"#utility.yul\":2835:2837   */\n      0x0e\n        /* \"#utility.yul\":2815:2833   */\n      swap1\n      dup3\n      add\n        /* \"#utility.yul\":2808:2838   */\n      mstore\n        /* \"#utility.yul\":2874:2890   */\n      0x6e6f742073756273637269626564000000000000000000000000000000000000\n        /* \"#utility.yul\":2869:2871   */\n      0x40\n        /* \"#utility.yul\":2854:2872   */\n      dup3\n      add\n        /* \"#utility.yul\":2847:2891   */\n      mstore\n        /* \"#utility.yul\":2923:2925   */\n      0x60\n        /* \"#utility.yul\":2908:2926   */\n      add\n      swap1\n        /* \"#utility.yul\":2594:2932   */\n      jump\n        /* \"SubscriptionContract.sol\":3250:3293  Status(addressToValidate, \"not subscribed\") */\n    tag_99:\n      mload(0x40)\n      dup1\n      swap2\n      sub\n      swap1\n      log2\n      pop\n        /* \"SubscriptionContract.sol\":994:995  3 */\n      0x03\n      swap3\n        /* \"SubscriptionContract.sol\":2087:3337  function checkSubscriptionStatus(address addressToValidate) public returns (uint32) {... */\n      swap2\n      pop\n      pop\n      jump\t// out\n        /* \"SubscriptionContract.sol\":4736:4853  function withdrawBalance() external view onlyOwner returns (uint256) {... */\n    tag_50:\n        /* \"SubscriptionContract.sol\":4796:4803  uint256 */\n      0x00\n        /* \"SubscriptionContract.sol\":1491:1496  owner */\n      dup1\n      sload\n      sub(shl(0xa0, 0x01), 0x01)\n      and\n        /* \"SubscriptionContract.sol\":1477:1487  msg.sender */\n      caller\n        /* \"SubscriptionContract.sol\":1477:1496  msg.sender == owner */\n      eq\n        /* \"SubscriptionContract.sol\":1469:1514  require(msg.sender == owner, \"Not the owner\") */\n      tag_102\n      jumpi\n      mload(0x40)\n      shl(0xe5, 0x461bcd)\n      dup2\n      mstore\n        /* \"#utility.yul\":3139:3141   */\n      0x20\n        /* \"SubscriptionContract.sol\":1469:1514  require(msg.sender == owner, \"Not the owner\") */\n      0x04\n      dup3\n      add\n        /* \"#utility.yul\":3121:3142   */\n      mstore\n        /* \"#utility.yul\":3178:3180   */\n      0x0d\n        /* \"#utility.yul\":3158:3176   */\n      0x24\n      dup3\n      add\n        /* \"#utility.yul\":3151:3181   */\n      mstore\n        /* \"#utility.yul\":3217:3232   */\n      0x4e6f7420746865206f776e657200000000000000000000000000000000000000\n        /* \"#utility.yul\":3197:3215   */\n      0x44\n      dup3\n      add\n        /* \"#utility.yul\":3190:3233   */\n      mstore\n        /* \"#utility.yul\":3250:3268   */\n      0x64\n      add\n        /* \"SubscriptionContract.sol\":1469:1514  require(msg.sender == owner, \"Not the owner\") */\n    tag_103:\n      mload(0x40)\n      dup1\n      swap2\n      sub\n      swap1\n      revert\n    tag_102:\n      pop\n        /* \"SubscriptionContract.sol\":4831:4836  owner */\n      and(sub(shl(0xa0, 0x01), 0x01), sload(0x00))\n        /* \"SubscriptionContract.sol\":4823:4845  payable(owner).balance */\n      balance\n        /* \"SubscriptionContract.sol\":4736:4853  function withdrawBalance() external view onlyOwner returns (uint256) {... */\n      swap1\n      jump\t// out\n        /* \"SubscriptionContract.sol\":3468:4601  function subscribe() external payable {... */\n    tag_62:\n        /* \"SubscriptionContract.sol\":3545:3555  msg.sender */\n      caller\n        /* \"SubscriptionContract.sol\":3517:3542  address subscriberAddress */\n      0x00\n        /* \"SubscriptionContract.sol\":3594:3636  checkSubscriptionStatus(subscriberAddress) */\n      tag_107\n        /* \"SubscriptionContract.sol\":3545:3555  msg.sender */\n      dup3\n        /* \"SubscriptionContract.sol\":3594:3617  checkSubscriptionStatus */\n      tag_31\n        /* \"SubscriptionContract.sol\":3594:3636  checkSubscriptionStatus(subscriberAddress) */\n      jump\t// in\n    tag_107:\n        /* \"SubscriptionContract.sol\":3566:3636  uint32 subscriptionStatus = checkSubscriptionStatus(subscriberAddress) */\n      swap1\n      pop\n        /* \"SubscriptionContract.sol\":3726:3755  subscriptionStatus == EXPIRED */\n      0xffffffff\n      dup2\n      and\n      iszero\n      dup1\n        /* \"SubscriptionContract.sol\":3726:3784  subscriptionStatus == EXPIRED || subscriptionStatus == NEW */\n      tag_108\n      jumpi\n      pop\n        /* \"SubscriptionContract.sol\":3759:3784  subscriptionStatus == NEW */\n      0xffffffff\n      dup2\n      and\n        /* \"SubscriptionContract.sol\":994:995  3 */\n      0x03\n        /* \"SubscriptionContract.sol\":3759:3784  subscriptionStatus == NEW */\n      eq\n        /* \"SubscriptionContract.sol\":3726:3784  subscriptionStatus == EXPIRED || subscriptionStatus == NEW */\n    tag_108:\n        /* \"SubscriptionContract.sol\":3722:4103  if (subscriptionStatus == EXPIRED || subscriptionStatus == NEW) {... */\n      iszero\n      tag_109\n      jumpi\n        /* \"SubscriptionContract.sol\":3822:3840  firstPaymentAmount */\n      sload(0x02)\n        /* \"SubscriptionContract.sol\":3809:3818  msg.value */\n      callvalue\n        /* \"SubscriptionContract.sol\":3809:3840  msg.value == firstPaymentAmount */\n      eq\n        /* \"SubscriptionContract.sol\":3801:3878  require(msg.value == firstPaymentAmount, \"Invalid first subscription amount\") */\n      tag_110\n      jumpi\n      mload(0x40)\n      shl(0xe5, 0x461bcd)\n      dup2\n      mstore\n        /* \"#utility.yul\":3481:3483   */\n      0x20\n        /* \"SubscriptionContract.sol\":3801:3878  require(msg.value == firstPaymentAmount, \"Invalid first subscription amount\") */\n      0x04\n      dup3\n      add\n        /* \"#utility.yul\":3463:3484   */\n      mstore\n        /* \"#utility.yul\":3520:3522   */\n      0x21\n        /* \"#utility.yul\":3500:3518   */\n      0x24\n      dup3\n      add\n        /* \"#utility.yul\":3493:3523   */\n      mstore\n        /* \"#utility.yul\":3559:3593   */\n      0x496e76616c696420666972737420737562736372697074696f6e20616d6f756e\n        /* \"#utility.yul\":3539:3557   */\n      0x44\n      dup3\n      add\n        /* \"#utility.yul\":3532:3594   */\n      mstore\n      shl(0xfa, 0x1d)\n        /* \"#utility.yul\":3610:3628   */\n      0x64\n      dup3\n      add\n        /* \"#utility.yul\":3603:3634   */\n      mstore\n        /* \"#utility.yul\":3651:3670   */\n      0x84\n      add\n        /* \"SubscriptionContract.sol\":3801:3878  require(msg.value == firstPaymentAmount, \"Invalid first subscription amount\") */\n      tag_103\n        /* \"#utility.yul\":3279:3676   */\n      jump\n        /* \"SubscriptionContract.sol\":3801:3878  require(msg.value == firstPaymentAmount, \"Invalid first subscription amount\") */\n    tag_110:\n        /* \"SubscriptionContract.sol\":3722:4103  if (subscriptionStatus == EXPIRED || subscriptionStatus == NEW) {... */\n      jump(tag_118)\n    tag_109:\n      not(0x01)\n        /* \"SubscriptionContract.sol\":3900:3938  subscriptionStatus == REQUIRES_RENEWAL */\n      0xffffffff\n      dup3\n      and\n      add\n        /* \"SubscriptionContract.sol\":3896:4103  if (subscriptionStatus == REQUIRES_RENEWAL) {... */\n      tag_114\n      jumpi\n        /* \"SubscriptionContract.sol\":3976:3994  subscriptionAmount */\n      sload(0x01)\n        /* \"SubscriptionContract.sol\":3963:3972  msg.value */\n      callvalue\n        /* \"SubscriptionContract.sol\":3963:3994  msg.value == subscriptionAmount */\n      eq\n        /* \"SubscriptionContract.sol\":3955:4021  require(msg.value == subscriptionAmount, \"Invalid renewal amount\") */\n      tag_110\n      jumpi\n      mload(0x40)\n      shl(0xe5, 0x461bcd)\n      dup2\n      mstore\n        /* \"#utility.yul\":3883:3885   */\n      0x20\n        /* \"SubscriptionContract.sol\":3955:4021  require(msg.value == subscriptionAmount, \"Invalid renewal amount\") */\n      0x04\n      dup3\n      add\n        /* \"#utility.yul\":3865:3886   */\n      mstore\n        /* \"#utility.yul\":3922:3924   */\n      0x16\n        /* \"#utility.yul\":3902:3920   */\n      0x24\n      dup3\n      add\n        /* \"#utility.yul\":3895:3925   */\n      mstore\n        /* \"#utility.yul\":3961:3985   */\n      0x496e76616c69642072656e6577616c20616d6f756e7400000000000000000000\n        /* \"#utility.yul\":3941:3959   */\n      0x44\n      dup3\n      add\n        /* \"#utility.yul\":3934:3986   */\n      mstore\n        /* \"#utility.yul\":4003:4021   */\n      0x64\n      add\n        /* \"SubscriptionContract.sol\":3955:4021  require(msg.value == subscriptionAmount, \"Invalid renewal amount\") */\n      tag_103\n        /* \"#utility.yul\":3681:4027   */\n      jump\n        /* \"SubscriptionContract.sol\":3896:4103  if (subscriptionStatus == REQUIRES_RENEWAL) {... */\n    tag_114:\n        /* \"SubscriptionContract.sol\":4054:4091  revert(\"Invalid subscription status\") */\n      mload(0x40)\n      shl(0xe5, 0x461bcd)\n      dup2\n      mstore\n        /* \"#utility.yul\":4234:4236   */\n      0x20\n        /* \"SubscriptionContract.sol\":4054:4091  revert(\"Invalid subscription status\") */\n      0x04\n      dup3\n      add\n        /* \"#utility.yul\":4216:4237   */\n      mstore\n        /* \"#utility.yul\":4273:4275   */\n      0x1b\n        /* \"#utility.yul\":4253:4271   */\n      0x24\n      dup3\n      add\n        /* \"#utility.yul\":4246:4276   */\n      mstore\n        /* \"#utility.yul\":4312:4341   */\n      0x496e76616c696420737562736372697074696f6e207374617475730000000000\n        /* \"#utility.yul\":4292:4310   */\n      0x44\n      dup3\n      add\n        /* \"#utility.yul\":4285:4342   */\n      mstore\n        /* \"#utility.yul\":4359:4377   */\n      0x64\n      add\n        /* \"SubscriptionContract.sol\":4054:4091  revert(\"Invalid subscription status\") */\n      tag_103\n        /* \"#utility.yul\":4032:4383   */\n      jump\n        /* \"SubscriptionContract.sol\":3896:4103  if (subscriptionStatus == REQUIRES_RENEWAL) {... */\n    tag_118:\n        /* \"SubscriptionContract.sol\":4165:4170  owner */\n      0x00\n      dup1\n      sload\n        /* \"SubscriptionContract.sol\":4157:4191  payable(owner).transfer(msg.value) */\n      mload(0x40)\n      sub(shl(0xa0, 0x01), 0x01)\n        /* \"SubscriptionContract.sol\":4165:4170  owner */\n      swap1\n      swap2\n      and\n      swap2\n        /* \"SubscriptionContract.sol\":4181:4190  msg.value */\n      callvalue\n        /* \"SubscriptionContract.sol\":4157:4191  payable(owner).transfer(msg.value) */\n      dup1\n      iszero\n      0x08fc\n      mul\n      swap3\n        /* \"SubscriptionContract.sol\":4181:4190  msg.value */\n      swap1\n      swap2\n        /* \"SubscriptionContract.sol\":4157:4191  payable(owner).transfer(msg.value) */\n      dup2\n        /* \"SubscriptionContract.sol\":4165:4170  owner */\n      dup2\n        /* \"SubscriptionContract.sol\":4157:4191  payable(owner).transfer(msg.value) */\n      dup2\n        /* \"SubscriptionContract.sol\":4181:4190  msg.value */\n      dup6\n        /* \"SubscriptionContract.sol\":4165:4170  owner */\n      dup9\n        /* \"SubscriptionContract.sol\":4157:4191  payable(owner).transfer(msg.value) */\n      dup9\n      call\n      swap4\n      pop\n      pop\n      pop\n      pop\n      iszero\n      dup1\n      iszero\n      tag_122\n      jumpi\n      returndatasize\n      0x00\n      dup1\n      returndatacopy\n      revert(0x00, returndatasize)\n    tag_122:\n      pop\n      sub(shl(0xa0, 0x01), 0x01)\n        /* \"SubscriptionContract.sol\":4242:4272  subscribers[subscriberAddress] */\n      dup3\n      and\n      0x00\n      dup2\n      dup2\n      mstore\n        /* \"SubscriptionContract.sol\":4242:4253  subscribers */\n      0x05\n        /* \"SubscriptionContract.sol\":4242:4272  subscribers[subscriberAddress] */\n      0x20\n      mstore\n      0x40\n      swap1\n      keccak256\n        /* \"SubscriptionContract.sol\":4296:4311  block.timestamp */\n      timestamp\n        /* \"SubscriptionContract.sol\":4242:4311  subscribers[subscriberAddress].lastPaymentTimestamp = block.timestamp */\n      dup1\n      dup3\n      sstore\n        /* \"SubscriptionContract.sol\":4368:4372  true */\n      0x01\n        /* \"SubscriptionContract.sol\":4322:4365  subscribers[subscriberAddress].isSubscribed */\n      swap2\n      dup3\n      add\n        /* \"SubscriptionContract.sol\":4322:4372  subscribers[subscriberAddress].isSubscribed = true */\n      dup1\n      sload\n      not(0xff)\n      and\n      swap1\n      swap3\n      or\n      swap1\n      swap2\n      sstore\n        /* \"SubscriptionContract.sol\":4496:4516  subscriptionDuration */\n      sload(0x03)\n        /* \"SubscriptionContract.sol\":4422:4517  SubscriptionRenewed(subscriberAddress, block.timestamp, block.timestamp + subscriptionDuration) */\n      0x0844521bd3c7295df35ca72576b1c04b6061d23891276d5c077cd73cbb3d31fc\n      swap2\n        /* \"SubscriptionContract.sol\":4296:4311  block.timestamp */\n      swap1\n        /* \"SubscriptionContract.sol\":4478:4516  block.timestamp + subscriptionDuration */\n      tag_123\n      swap1\n        /* \"SubscriptionContract.sol\":4296:4311  block.timestamp */\n      dup3\n        /* \"SubscriptionContract.sol\":4478:4516  block.timestamp + subscriptionDuration */\n      tag_85\n      jump\t// in\n    tag_123:\n        /* \"SubscriptionContract.sol\":4422:4517  SubscriptionRenewed(subscriberAddress, block.timestamp, block.timestamp + subscriptionDuration) */\n      0x40\n      dup1\n      mload\n        /* \"#utility.yul\":4562:4587   */\n      swap3\n      dup4\n      mstore\n        /* \"#utility.yul\":4618:4620   */\n      0x20\n        /* \"#utility.yul\":4603:4621   */\n      dup4\n      add\n        /* \"#utility.yul\":4596:4630   */\n      swap2\n      swap1\n      swap2\n      mstore\n        /* \"#utility.yul\":4535:4553   */\n      add\n        /* \"SubscriptionContract.sol\":4422:4517  SubscriptionRenewed(subscriberAddress, block.timestamp, block.timestamp + subscriptionDuration) */\n      mload(0x40)\n      dup1\n      swap2\n      sub\n      swap1\n      log2\n        /* \"SubscriptionContract.sol\":4540:4557  subscriberAddress */\n      dup2\n      sub(shl(0xa0, 0x01), 0x01)\n        /* \"SubscriptionContract.sol\":4533:4593  Status(subscriberAddress, \"Successfully subscribed/renewed\") */\n      and\n      0xd9165940daabcb82f6d23bee40e26fa9e1611f552c3a3ee300a0e80879a9971b\n      mload(0x40)\n      tag_126\n      swap1\n        /* \"#utility.yul\":4843:4845   */\n      0x20\n        /* \"#utility.yul\":4825:4846   */\n      dup1\n      dup3\n      mstore\n        /* \"#utility.yul\":4882:4884   */\n      0x1f\n        /* \"#utility.yul\":4862:4880   */\n      swap1\n      dup3\n      add\n        /* \"#utility.yul\":4855:4885   */\n      mstore\n        /* \"#utility.yul\":4921:4954   */\n      0x5375636365737366756c6c7920737562736372696265642f72656e6577656400\n        /* \"#utility.yul\":4916:4918   */\n      0x40\n        /* \"#utility.yul\":4901:4919   */\n      dup3\n      add\n        /* \"#utility.yul\":4894:4955   */\n      mstore\n        /* \"#utility.yul\":4987:4989   */\n      0x60\n        /* \"#utility.yul\":4972:4990   */\n      add\n      swap1\n        /* \"#utility.yul\":4641:4996   */\n      jump\n        /* \"SubscriptionContract.sol\":4533:4593  Status(subscriberAddress, \"Successfully subscribed/renewed\") */\n    tag_126:\n      mload(0x40)\n      dup1\n      swap2\n      sub\n      swap1\n      log2\n        /* \"SubscriptionContract.sol\":3506:4601  {... */\n      pop\n      pop\n        /* \"SubscriptionContract.sol\":3468:4601  function subscribe() external payable {... */\n      jump\t// out\n        /* \"SubscriptionContract.sol\":4953:5103  function unsubscribe() external onlySubscribed {... */\n    tag_81:\n        /* \"SubscriptionContract.sol\":1599:1609  msg.sender */\n      caller\n        /* \"SubscriptionContract.sol\":1587:1610  subscribers[msg.sender] */\n      0x00\n      swap1\n      dup2\n      mstore\n        /* \"SubscriptionContract.sol\":1587:1598  subscribers */\n      0x05\n        /* \"SubscriptionContract.sol\":1587:1610  subscribers[msg.sender] */\n      0x20\n      mstore\n      0x40\n      swap1\n      keccak256\n        /* \"SubscriptionContract.sol\":1587:1623  subscribers[msg.sender].isSubscribed */\n      0x01\n      add\n      sload\n      0xff\n      and\n        /* \"SubscriptionContract.sol\":1579:1642  require(subscribers[msg.sender].isSubscribed, \"Not subscribed\") */\n      tag_129\n      jumpi\n      mload(0x40)\n      shl(0xe5, 0x461bcd)\n      dup2\n      mstore\n        /* \"#utility.yul\":5203:5205   */\n      0x20\n        /* \"SubscriptionContract.sol\":1579:1642  require(subscribers[msg.sender].isSubscribed, \"Not subscribed\") */\n      0x04\n      dup3\n      add\n        /* \"#utility.yul\":5185:5206   */\n      mstore\n        /* \"#utility.yul\":5242:5244   */\n      0x0e\n        /* \"#utility.yul\":5222:5240   */\n      0x24\n      dup3\n      add\n        /* \"#utility.yul\":5215:5245   */\n      mstore\n        /* \"#utility.yul\":5281:5297   */\n      0x4e6f742073756273637269626564000000000000000000000000000000000000\n        /* \"#utility.yul\":5261:5279   */\n      0x44\n      dup3\n      add\n        /* \"#utility.yul\":5254:5298   */\n      mstore\n        /* \"#utility.yul\":5315:5333   */\n      0x64\n      add\n        /* \"SubscriptionContract.sol\":1579:1642  require(subscribers[msg.sender].isSubscribed, \"Not subscribed\") */\n      tag_103\n        /* \"#utility.yul\":5001:5339   */\n      jump\n        /* \"SubscriptionContract.sol\":1579:1642  require(subscribers[msg.sender].isSubscribed, \"Not subscribed\") */\n    tag_129:\n        /* \"SubscriptionContract.sol\":5023:5033  msg.sender */\n      caller\n        /* \"SubscriptionContract.sol\":5050:5055  false */\n      0x00\n        /* \"SubscriptionContract.sol\":5011:5034  subscribers[msg.sender] */\n      dup2\n      dup2\n      mstore\n        /* \"SubscriptionContract.sol\":5011:5022  subscribers */\n      0x05\n        /* \"SubscriptionContract.sol\":5011:5034  subscribers[msg.sender] */\n      0x20\n      mstore\n      0x40\n      dup1\n      dup3\n      keccak256\n        /* \"SubscriptionContract.sol\":5011:5047  subscribers[msg.sender].isSubscribed */\n      0x01\n      add\n        /* \"SubscriptionContract.sol\":5011:5055  subscribers[msg.sender].isSubscribed = false */\n      dup1\n      sload\n      not(0xff)\n      and\n      swap1\n      sstore\n        /* \"SubscriptionContract.sol\":5071:5095  Unsubscribed(msg.sender) */\n      mload\n      0xae563681ccc696fae58fe830f401bc9c043a43ddb9f7c2830b32c3c70d9966e7\n      swap2\n        /* \"SubscriptionContract.sol\":5050:5055  false */\n      swap1\n        /* \"SubscriptionContract.sol\":5071:5095  Unsubscribed(msg.sender) */\n      log2\n        /* \"SubscriptionContract.sol\":4953:5103  function unsubscribe() external onlySubscribed {... */\n      jump\t// out\n        /* \"#utility.yul\":211:520   */\n    tag_30:\n        /* \"#utility.yul\":270:276   */\n      0x00\n        /* \"#utility.yul\":323:325   */\n      0x20\n        /* \"#utility.yul\":311:320   */\n      dup3\n        /* \"#utility.yul\":302:309   */\n      dup5\n        /* \"#utility.yul\":298:321   */\n      sub\n        /* \"#utility.yul\":294:326   */\n      slt\n        /* \"#utility.yul\":291:343   */\n      iszero\n      tag_136\n      jumpi\n        /* \"#utility.yul\":339:340   */\n      0x00\n        /* \"#utility.yul\":336:337   */\n      dup1\n        /* \"#utility.yul\":329:341   */\n      revert\n        /* \"#utility.yul\":291:343   */\n    tag_136:\n        /* \"#utility.yul\":378:387   */\n      dup2\n        /* \"#utility.yul\":365:388   */\n      calldataload\n      sub(shl(0xa0, 0x01), 0x01)\n        /* \"#utility.yul\":421:426   */\n      dup2\n        /* \"#utility.yul\":417:471   */\n      and\n        /* \"#utility.yul\":410:415   */\n      dup2\n        /* \"#utility.yul\":407:472   */\n      eq\n        /* \"#utility.yul\":397:490   */\n      tag_137\n      jumpi\n        /* \"#utility.yul\":486:487   */\n      0x00\n        /* \"#utility.yul\":483:484   */\n      dup1\n        /* \"#utility.yul\":476:488   */\n      revert\n        /* \"#utility.yul\":397:490   */\n    tag_137:\n        /* \"#utility.yul\":509:514   */\n      swap4\n        /* \"#utility.yul\":211:520   */\n      swap3\n      pop\n      pop\n      pop\n      jump\t// out\n        /* \"#utility.yul\":1201:1423   */\n    tag_85:\n        /* \"#utility.yul\":1266:1275   */\n      dup1\n      dup3\n      add\n        /* \"#utility.yul\":1287:1297   */\n      dup1\n      dup3\n      gt\n        /* \"#utility.yul\":1284:1417   */\n      iszero\n      tag_142\n      jumpi\n        /* \"#utility.yul\":1339:1349   */\n      0x4e487b71\n        /* \"#utility.yul\":1334:1337   */\n      0xe0\n        /* \"#utility.yul\":1330:1350   */\n      shl\n        /* \"#utility.yul\":1327:1328   */\n      0x00\n        /* \"#utility.yul\":1320:1351   */\n      mstore\n        /* \"#utility.yul\":1374:1378   */\n      0x11\n        /* \"#utility.yul\":1371:1372   */\n      0x04\n        /* \"#utility.yul\":1364:1379   */\n      mstore\n        /* \"#utility.yul\":1402:1406   */\n      0x24\n        /* \"#utility.yul\":1399:1400   */\n      0x00\n        /* \"#utility.yul\":1392:1407   */\n      revert\n        /* \"#utility.yul\":1284:1417   */\n    tag_142:\n        /* \"#utility.yul\":1201:1423   */\n      swap3\n      swap2\n      pop\n      pop\n      jump\t// out\n\n    auxdata: 0xa2646970667358221220a4119b66b6849b7301aae8344fa8da3e3515c9e3c2c07292b10c5c35b6e9587364736f6c63430008110033\n}\n",
    "bytecode": {
      "linkReferences": {},
      "object": "60806040526601c6bf5263400060015566038d7ea4c6800060025562eff10060035562093a8060045534801561003457600080fd5b50600080546001600160a01b0319163317905561096f806100566000396000f3fe6080604052600436106100e15760003560e01c80638da5cb5b1161007f578063a06db7dc11610059578063a06db7dc14610244578063bf3d5b541461025a578063dcbe1b3c1461026f578063fcae44841461028457600080fd5b80638da5cb5b146101ec5780638f449a051461022457806390fec1d41461022e57600080fd5b806354f8a8c2116100bb57806354f8a8c2146101515780635745ae28146101755780635fd8c710146101c15780637a94a633146101d657600080fd5b806308601768146100ed5780632781b0eb1461011c578063414ac85b1461013c57600080fd5b366100e857005b600080fd5b3480156100f957600080fd5b50610102600381565b60405163ffffffff90911681526020015b60405180910390f35b34801561012857600080fd5b506101026101373660046108e2565b610299565b34801561014857600080fd5b50610102600081565b34801561015d57600080fd5b5061016760015481565b604051908152602001610113565b34801561018157600080fd5b506101ac6101903660046108e2565b6005602052600090815260409020805460019091015460ff1682565b60408051928352901515602083015201610113565b3480156101cd57600080fd5b50610167610574565b3480156101e257600080fd5b5061016760035481565b3480156101f857600080fd5b5060005461020c906001600160a01b031681565b6040516001600160a01b039091168152602001610113565b61022c6105e5565b005b34801561023a57600080fd5b5061016760025481565b34801561025057600080fd5b5061016760045481565b34801561026657600080fd5b50610102600281565b34801561027b57600080fd5b50610102600181565b34801561029057600080fd5b5061022c61083e565b6001600160a01b0381166000908152600560205260408120600181015460ff16156104fa5760035481546102cd9190610912565b42101561037457826001600160a01b03167fd9165940daabcb82f6d23bee40e26fa9e1611f552c3a3ee300a0e80879a9971b6040516103639060208082526027908201527f6e6f206e65656420746f2072656e65772c20737562736372697074696f6e206960408201527f732076616c696400000000000000000000000000000000000000000000000000606082015260800190565b60405180910390a250600192915050565b60045460035482546103869190610912565b6103909190610912565b42111561045a576001600160a01b038316600081815260056020526040808220600101805460ff19169055517fae563681ccc696fae58fe830f401bc9c043a43ddb9f7c2830b32c3c70d9966e79190a2826001600160a01b03167fd9165940daabcb82f6d23bee40e26fa9e1611f552c3a3ee300a0e80879a9971b6040516104499060208082526017908201527f737562736372697074696f6e2069732065787069726564000000000000000000604082015260600190565b60405180910390a250600092915050565b826001600160a01b03167fd9165940daabcb82f6d23bee40e26fa9e1611f552c3a3ee300a0e80879a9971b6040516104e99060208082526025908201527f77697468696e20677261636520706572696f642c20726571756972657320726560408201527f6e6577616c000000000000000000000000000000000000000000000000000000606082015260800190565b60405180910390a250600292915050565b826001600160a01b03167fd9165940daabcb82f6d23bee40e26fa9e1611f552c3a3ee300a0e80879a9971b604051610563906020808252600e908201527f6e6f742073756273637269626564000000000000000000000000000000000000604082015260600190565b60405180910390a250600392915050565b600080546001600160a01b031633146105d45760405162461bcd60e51b815260206004820152600d60248201527f4e6f7420746865206f776e65720000000000000000000000000000000000000060448201526064015b60405180910390fd5b506000546001600160a01b03163190565b3360006105f182610299565b905063ffffffff8116158061060c575063ffffffff81166003145b1561067157600254341461066c5760405162461bcd60e51b815260206004820152602160248201527f496e76616c696420666972737420737562736372697074696f6e20616d6f756e6044820152601d60fa1b60648201526084016105cb565b610719565b60011963ffffffff8216016106d157600154341461066c5760405162461bcd60e51b815260206004820152601660248201527f496e76616c69642072656e6577616c20616d6f756e740000000000000000000060448201526064016105cb565b60405162461bcd60e51b815260206004820152601b60248201527f496e76616c696420737562736372697074696f6e20737461747573000000000060448201526064016105cb565b600080546040516001600160a01b03909116913480156108fc02929091818181858888f19350505050158015610753573d6000803e3d6000fd5b506001600160a01b0382166000818152600560205260409020428082556001918201805460ff19169092179091556003547f0844521bd3c7295df35ca72576b1c04b6061d23891276d5c077cd73cbb3d31fc91906107b19082610912565b6040805192835260208301919091520160405180910390a2816001600160a01b03167fd9165940daabcb82f6d23bee40e26fa9e1611f552c3a3ee300a0e80879a9971b604051610832906020808252601f908201527f5375636365737366756c6c7920737562736372696265642f72656e6577656400604082015260600190565b60405180910390a25050565b3360009081526005602052604090206001015460ff166108a05760405162461bcd60e51b815260206004820152600e60248201527f4e6f74207375627363726962656400000000000000000000000000000000000060448201526064016105cb565b33600081815260056020526040808220600101805460ff19169055517fae563681ccc696fae58fe830f401bc9c043a43ddb9f7c2830b32c3c70d9966e79190a2565b6000602082840312156108f457600080fd5b81356001600160a01b038116811461090b57600080fd5b9392505050565b8082018082111561093357634e487b7160e01b600052601160045260246000fd5b9291505056fea2646970667358221220a4119b66b6849b7301aae8344fa8da3e3515c9e3c2c07292b10c5c35b6e9587364736f6c63430008110033",
      "opcodes": "PUSH1 0x80 PUSH1 0x40 MSTORE PUSH7 0x1C6BF52634000 PUSH1 0x1 SSTORE PUSH7 0x38D7EA4C68000 PUSH1 0x2 SSTORE PUSH3 0xEFF100 PUSH1 0x3 SSTORE PUSH3 0x93A80 PUSH1 0x4 SSTORE CALLVALUE DUP1 ISZERO PUSH2 0x34 JUMPI PUSH1 0x0 DUP1 REVERT JUMPDEST POP PUSH1 0x0 DUP1 SLOAD PUSH1 0x1 PUSH1 0x1 PUSH1 0xA0 SHL SUB NOT AND CALLER OR SWAP1 SSTORE PUSH2 0x96F DUP1 PUSH2 0x56 PUSH1 0x0 CODECOPY PUSH1 0x0 RETURN INVALID PUSH1 0x80 PUSH1 0x40 MSTORE PUSH1 0x4 CALLDATASIZE LT PUSH2 0xE1 JUMPI PUSH1 0x0 CALLDATALOAD PUSH1 0xE0 SHR DUP1 PUSH4 0x8DA5CB5B GT PUSH2 0x7F JUMPI DUP1 PUSH4 0xA06DB7DC GT PUSH2 0x59 JUMPI DUP1 PUSH4 0xA06DB7DC EQ PUSH2 0x244 JUMPI DUP1 PUSH4 0xBF3D5B54 EQ PUSH2 0x25A JUMPI DUP1 PUSH4 0xDCBE1B3C EQ PUSH2 0x26F JUMPI DUP1 PUSH4 0xFCAE4484 EQ PUSH2 0x284 JUMPI PUSH1 0x0 DUP1 REVERT JUMPDEST DUP1 PUSH4 0x8DA5CB5B EQ PUSH2 0x1EC JUMPI DUP1 PUSH4 0x8F449A05 EQ PUSH2 0x224 JUMPI DUP1 PUSH4 0x90FEC1D4 EQ PUSH2 0x22E JUMPI PUSH1 0x0 DUP1 REVERT JUMPDEST DUP1 PUSH4 0x54F8A8C2 GT PUSH2 0xBB JUMPI DUP1 PUSH4 0x54F8A8C2 EQ PUSH2 0x151 JUMPI DUP1 PUSH4 0x5745AE28 EQ PUSH2 0x175 JUMPI DUP1 PUSH4 0x5FD8C710 EQ PUSH2 0x1C1 JUMPI DUP1 PUSH4 0x7A94A633 EQ PUSH2 0x1D6 JUMPI PUSH1 0x0 DUP1 REVERT JUMPDEST DUP1 PUSH4 0x8601768 EQ PUSH2 0xED JUMPI DUP1 PUSH4 0x2781B0EB EQ PUSH2 0x11C JUMPI DUP1 PUSH4 0x414AC85B EQ PUSH2 0x13C JUMPI PUSH1 0x0 DUP1 REVERT JUMPDEST CALLDATASIZE PUSH2 0xE8 JUMPI STOP JUMPDEST PUSH1 0x0 DUP1 REVERT JUMPDEST CALLVALUE DUP1 ISZERO PUSH2 0xF9 JUMPI PUSH1 0x0 DUP1 REVERT JUMPDEST POP PUSH2 0x102 PUSH1 0x3 DUP2 JUMP JUMPDEST PUSH1 0x40 MLOAD PUSH4 0xFFFFFFFF SWAP1 SWAP2 AND DUP2 MSTORE PUSH1 0x20 ADD JUMPDEST PUSH1 0x40 MLOAD DUP1 SWAP2 SUB SWAP1 RETURN JUMPDEST CALLVALUE DUP1 ISZERO PUSH2 0x128 JUMPI PUSH1 0x0 DUP1 REVERT JUMPDEST POP PUSH2 0x102 PUSH2 0x137 CALLDATASIZE PUSH1 0x4 PUSH2 0x8E2 JUMP JUMPDEST PUSH2 0x299 JUMP JUMPDEST CALLVALUE DUP1 ISZERO PUSH2 0x148 JUMPI PUSH1 0x0 DUP1 REVERT JUMPDEST POP PUSH2 0x102 PUSH1 0x0 DUP2 JUMP JUMPDEST CALLVALUE DUP1 ISZERO PUSH2 0x15D JUMPI PUSH1 0x0 DUP1 REVERT JUMPDEST POP PUSH2 0x167 PUSH1 0x1 SLOAD DUP2 JUMP JUMPDEST PUSH1 0x40 MLOAD SWAP1 DUP2 MSTORE PUSH1 0x20 ADD PUSH2 0x113 JUMP JUMPDEST CALLVALUE DUP1 ISZERO PUSH2 0x181 JUMPI PUSH1 0x0 DUP1 REVERT JUMPDEST POP PUSH2 0x1AC PUSH2 0x190 CALLDATASIZE PUSH1 0x4 PUSH2 0x8E2 JUMP JUMPDEST PUSH1 0x5 PUSH1 0x20 MSTORE PUSH1 0x0 SWAP1 DUP2 MSTORE PUSH1 0x40 SWAP1 KECCAK256 DUP1 SLOAD PUSH1 0x1 SWAP1 SWAP2 ADD SLOAD PUSH1 0xFF AND DUP3 JUMP JUMPDEST PUSH1 0x40 DUP1 MLOAD SWAP3 DUP4 MSTORE SWAP1 ISZERO ISZERO PUSH1 0x20 DUP4 ADD MSTORE ADD PUSH2 0x113 JUMP JUMPDEST CALLVALUE DUP1 ISZERO PUSH2 0x1CD JUMPI PUSH1 0x0 DUP1 REVERT JUMPDEST POP PUSH2 0x167 PUSH2 0x574 JUMP JUMPDEST CALLVALUE DUP1 ISZERO PUSH2 0x1E2 JUMPI PUSH1 0x0 DUP1 REVERT JUMPDEST POP PUSH2 0x167 PUSH1 0x3 SLOAD DUP2 JUMP JUMPDEST CALLVALUE DUP1 ISZERO PUSH2 0x1F8 JUMPI PUSH1 0x0 DUP1 REVERT JUMPDEST POP PUSH1 0x0 SLOAD PUSH2 0x20C SWAP1 PUSH1 0x1 PUSH1 0x1 PUSH1 0xA0 SHL SUB AND DUP2 JUMP JUMPDEST PUSH1 0x40 MLOAD PUSH1 0x1 PUSH1 0x1 PUSH1 0xA0 SHL SUB SWAP1 SWAP2 AND DUP2 MSTORE PUSH1 0x20 ADD PUSH2 0x113 JUMP JUMPDEST PUSH2 0x22C PUSH2 0x5E5 JUMP JUMPDEST STOP JUMPDEST CALLVALUE DUP1 ISZERO PUSH2 0x23A JUMPI PUSH1 0x0 DUP1 REVERT JUMPDEST POP PUSH2 0x167 PUSH1 0x2 SLOAD DUP2 JUMP JUMPDEST CALLVALUE DUP1 ISZERO PUSH2 0x250 JUMPI PUSH1 0x0 DUP1 REVERT JUMPDEST POP PUSH2 0x167 PUSH1 0x4 SLOAD DUP2 JUMP JUMPDEST CALLVALUE DUP1 ISZERO PUSH2 0x266 JUMPI PUSH1 0x0 DUP1 REVERT JUMPDEST POP PUSH2 0x102 PUSH1 0x2 DUP2 JUMP JUMPDEST CALLVALUE DUP1 ISZERO PUSH2 0x27B JUMPI PUSH1 0x0 DUP1 REVERT JUMPDEST POP PUSH2 0x102 PUSH1 0x1 DUP2 JUMP JUMPDEST CALLVALUE DUP1 ISZERO PUSH2 0x290 JUMPI PUSH1 0x0 DUP1 REVERT JUMPDEST POP PUSH2 0x22C PUSH2 0x83E JUMP JUMPDEST PUSH1 0x1 PUSH1 0x1 PUSH1 0xA0 SHL SUB DUP2 AND PUSH1 0x0 SWAP1 DUP2 MSTORE PUSH1 0x5 PUSH1 0x20 MSTORE PUSH1 0x40 DUP2 KECCAK256 PUSH1 0x1 DUP2 ADD SLOAD PUSH1 0xFF AND ISZERO PUSH2 0x4FA JUMPI PUSH1 0x3 SLOAD DUP2 SLOAD PUSH2 0x2CD SWAP2 SWAP1 PUSH2 0x912 JUMP JUMPDEST TIMESTAMP LT ISZERO PUSH2 0x374 JUMPI DUP3 PUSH1 0x1 PUSH1 0x1 PUSH1 0xA0 SHL SUB AND PUSH32 0xD9165940DAABCB82F6D23BEE40E26FA9E1611F552C3A3EE300A0E80879A9971B PUSH1 0x40 MLOAD PUSH2 0x363 SWAP1 PUSH1 0x20 DUP1 DUP3 MSTORE PUSH1 0x27 SWAP1 DUP3 ADD MSTORE PUSH32 0x6E6F206E65656420746F2072656E65772C20737562736372697074696F6E2069 PUSH1 0x40 DUP3 ADD MSTORE PUSH32 0x732076616C696400000000000000000000000000000000000000000000000000 PUSH1 0x60 DUP3 ADD MSTORE PUSH1 0x80 ADD SWAP1 JUMP JUMPDEST PUSH1 0x40 MLOAD DUP1 SWAP2 SUB SWAP1 LOG2 POP PUSH1 0x1 SWAP3 SWAP2 POP POP JUMP JUMPDEST PUSH1 0x4 SLOAD PUSH1 0x3 SLOAD DUP3 SLOAD PUSH2 0x386 SWAP2 SWAP1 PUSH2 0x912 JUMP JUMPDEST PUSH2 0x390 SWAP2 SWAP1 PUSH2 0x912 JUMP JUMPDEST TIMESTAMP GT ISZERO PUSH2 0x45A JUMPI PUSH1 0x1 PUSH1 0x1 PUSH1 0xA0 SHL SUB DUP4 AND PUSH1 0x0 DUP2 DUP2 MSTORE PUSH1 0x5 PUSH1 0x20 MSTORE PUSH1 0x40 DUP1 DUP3 KECCAK256 PUSH1 0x1 ADD DUP1 SLOAD PUSH1 0xFF NOT AND SWAP1 SSTORE MLOAD PUSH32 0xAE563681CCC696FAE58FE830F401BC9C043A43DDB9F7C2830B32C3C70D9966E7 SWAP2 SWAP1 LOG2 DUP3 PUSH1 0x1 PUSH1 0x1 PUSH1 0xA0 SHL SUB AND PUSH32 0xD9165940DAABCB82F6D23BEE40E26FA9E1611F552C3A3EE300A0E80879A9971B PUSH1 0x40 MLOAD PUSH2 0x449 SWAP1 PUSH1 0x20 DUP1 DUP3 MSTORE PUSH1 0x17 SWAP1 DUP3 ADD MSTORE PUSH32 0x737562736372697074696F6E2069732065787069726564000000000000000000 PUSH1 0x40 DUP3 ADD MSTORE PUSH1 0x60 ADD SWAP1 JUMP JUMPDEST PUSH1 0x40 MLOAD DUP1 SWAP2 SUB SWAP1 LOG2 POP PUSH1 0x0 SWAP3 SWAP2 POP POP JUMP JUMPDEST DUP3 PUSH1 0x1 PUSH1 0x1 PUSH1 0xA0 SHL SUB AND PUSH32 0xD9165940DAABCB82F6D23BEE40E26FA9E1611F552C3A3EE300A0E80879A9971B PUSH1 0x40 MLOAD PUSH2 0x4E9 SWAP1 PUSH1 0x20 DUP1 DUP3 MSTORE PUSH1 0x25 SWAP1 DUP3 ADD MSTORE PUSH32 0x77697468696E20677261636520706572696F642C207265717569726573207265 PUSH1 0x40 DUP3 ADD MSTORE PUSH32 0x6E6577616C000000000000000000000000000000000000000000000000000000 PUSH1 0x60 DUP3 ADD MSTORE PUSH1 0x80 ADD SWAP1 JUMP JUMPDEST PUSH1 0x40 MLOAD DUP1 SWAP2 SUB SWAP1 LOG2 POP PUSH1 0x2 SWAP3 SWAP2 POP POP JUMP JUMPDEST DUP3 PUSH1 0x1 PUSH1 0x1 PUSH1 0xA0 SHL SUB AND PUSH32 0xD9165940DAABCB82F6D23BEE40E26FA9E1611F552C3A3EE300A0E80879A9971B PUSH1 0x40 MLOAD PUSH2 0x563 SWAP1 PUSH1 0x20 DUP1 DUP3 MSTORE PUSH1 0xE SWAP1 DUP3 ADD MSTORE PUSH32 0x6E6F742073756273637269626564000000000000000000000000000000000000 PUSH1 0x40 DUP3 ADD MSTORE PUSH1 0x60 ADD SWAP1 JUMP JUMPDEST PUSH1 0x40 MLOAD DUP1 SWAP2 SUB SWAP1 LOG2 POP PUSH1 0x3 SWAP3 SWAP2 POP POP JUMP JUMPDEST PUSH1 0x0 DUP1 SLOAD PUSH1 0x1 PUSH1 0x1 PUSH1 0xA0 SHL SUB AND CALLER EQ PUSH2 0x5D4 JUMPI PUSH1 0x40 MLOAD PUSH3 0x461BCD PUSH1 0xE5 SHL DUP2 MSTORE PUSH1 0x20 PUSH1 0x4 DUP3 ADD MSTORE PUSH1 0xD PUSH1 0x24 DUP3 ADD MSTORE PUSH32 0x4E6F7420746865206F776E657200000000000000000000000000000000000000 PUSH1 0x44 DUP3 ADD MSTORE PUSH1 0x64 ADD JUMPDEST PUSH1 0x40 MLOAD DUP1 SWAP2 SUB SWAP1 REVERT JUMPDEST POP PUSH1 0x0 SLOAD PUSH1 0x1 PUSH1 0x1 PUSH1 0xA0 SHL SUB AND BALANCE SWAP1 JUMP JUMPDEST CALLER PUSH1 0x0 PUSH2 0x5F1 DUP3 PUSH2 0x299 JUMP JUMPDEST SWAP1 POP PUSH4 0xFFFFFFFF DUP2 AND ISZERO DUP1 PUSH2 0x60C JUMPI POP PUSH4 0xFFFFFFFF DUP2 AND PUSH1 0x3 EQ JUMPDEST ISZERO PUSH2 0x671 JUMPI PUSH1 0x2 SLOAD CALLVALUE EQ PUSH2 0x66C JUMPI PUSH1 0x40 MLOAD PUSH3 0x461BCD PUSH1 0xE5 SHL DUP2 MSTORE PUSH1 0x20 PUSH1 0x4 DUP3 ADD MSTORE PUSH1 0x21 PUSH1 0x24 DUP3 ADD MSTORE PUSH32 0x496E76616C696420666972737420737562736372697074696F6E20616D6F756E PUSH1 0x44 DUP3 ADD MSTORE PUSH1 0x1D PUSH1 0xFA SHL PUSH1 0x64 DUP3 ADD MSTORE PUSH1 0x84 ADD PUSH2 0x5CB JUMP JUMPDEST PUSH2 0x719 JUMP JUMPDEST PUSH1 0x1 NOT PUSH4 0xFFFFFFFF DUP3 AND ADD PUSH2 0x6D1 JUMPI PUSH1 0x1 SLOAD CALLVALUE EQ PUSH2 0x66C JUMPI PUSH1 0x40 MLOAD PUSH3 0x461BCD PUSH1 0xE5 SHL DUP2 MSTORE PUSH1 0x20 PUSH1 0x4 DUP3 ADD MSTORE PUSH1 0x16 PUSH1 0x24 DUP3 ADD MSTORE PUSH32 0x496E76616C69642072656E6577616C20616D6F756E7400000000000000000000 PUSH1 0x44 DUP3 ADD MSTORE PUSH1 0x64 ADD PUSH2 0x5CB JUMP JUMPDEST PUSH1 0x40 MLOAD PUSH3 0x461BCD PUSH1 0xE5 SHL DUP2 MSTORE PUSH1 0x20 PUSH1 0x4 DUP3 ADD MSTORE PUSH1 0x1B PUSH1 0x24 DUP3 ADD MSTORE PUSH32 0x496E76616C696420737562736372697074696F6E207374617475730000000000 PUSH1 0x44 DUP3 ADD MSTORE PUSH1 0x64 ADD PUSH2 0x5CB JUMP JUMPDEST PUSH1 0x0 DUP1 SLOAD PUSH1 0x40 MLOAD PUSH1 0x1 PUSH1 0x1 PUSH1 0xA0 SHL SUB SWAP1 SWAP2 AND SWAP2 CALLVALUE DUP1 ISZERO PUSH2 0x8FC MUL SWAP3 SWAP1 SWAP2 DUP2 DUP2 DUP2 DUP6 DUP9 DUP9 CALL SWAP4 POP POP POP POP ISZERO DUP1 ISZERO PUSH2 0x753 JUMPI RETURNDATASIZE PUSH1 0x0 DUP1 RETURNDATACOPY RETURNDATASIZE PUSH1 0x0 REVERT JUMPDEST POP PUSH1 0x1 PUSH1 0x1 PUSH1 0xA0 SHL SUB DUP3 AND PUSH1 0x0 DUP2 DUP2 MSTORE PUSH1 0x5 PUSH1 0x20 MSTORE PUSH1 0x40 SWAP1 KECCAK256 TIMESTAMP DUP1 DUP3 SSTORE PUSH1 0x1 SWAP2 DUP3 ADD DUP1 SLOAD PUSH1 0xFF NOT AND SWAP1 SWAP3 OR SWAP1 SWAP2 SSTORE PUSH1 0x3 SLOAD PUSH32 0x844521BD3C7295DF35CA72576B1C04B6061D23891276D5C077CD73CBB3D31FC SWAP2 SWAP1 PUSH2 0x7B1 SWAP1 DUP3 PUSH2 0x912 JUMP JUMPDEST PUSH1 0x40 DUP1 MLOAD SWAP3 DUP4 MSTORE PUSH1 0x20 DUP4 ADD SWAP2 SWAP1 SWAP2 MSTORE ADD PUSH1 0x40 MLOAD DUP1 SWAP2 SUB SWAP1 LOG2 DUP2 PUSH1 0x1 PUSH1 0x1 PUSH1 0xA0 SHL SUB AND PUSH32 0xD9165940DAABCB82F6D23BEE40E26FA9E1611F552C3A3EE300A0E80879A9971B PUSH1 0x40 MLOAD PUSH2 0x832 SWAP1 PUSH1 0x20 DUP1 DUP3 MSTORE PUSH1 0x1F SWAP1 DUP3 ADD MSTORE PUSH32 0x5375636365737366756C6C7920737562736372696265642F72656E6577656400 PUSH1 0x40 DUP3 ADD MSTORE PUSH1 0x60 ADD SWAP1 JUMP JUMPDEST PUSH1 0x40 MLOAD DUP1 SWAP2 SUB SWAP1 LOG2 POP POP JUMP JUMPDEST CALLER PUSH1 0x0 SWAP1 DUP2 MSTORE PUSH1 0x5 PUSH1 0x20 MSTORE PUSH1 0x40 SWAP1 KECCAK256 PUSH1 0x1 ADD SLOAD PUSH1 0xFF AND PUSH2 0x8A0 JUMPI PUSH1 0x40 MLOAD PUSH3 0x461BCD PUSH1 0xE5 SHL DUP2 MSTORE PUSH1 0x20 PUSH1 0x4 DUP3 ADD MSTORE PUSH1 0xE PUSH1 0x24 DUP3 ADD MSTORE PUSH32 0x4E6F742073756273637269626564000000000000000000000000000000000000 PUSH1 0x44 DUP3 ADD MSTORE PUSH1 0x64 ADD PUSH2 0x5CB JUMP JUMPDEST CALLER PUSH1 0x0 DUP2 DUP2 MSTORE PUSH1 0x5 PUSH1 0x20 MSTORE PUSH1 0x40 DUP1 DUP3 KECCAK256 PUSH1 0x1 ADD DUP1 SLOAD PUSH1 0xFF NOT AND SWAP1 SSTORE MLOAD PUSH32 0xAE563681CCC696FAE58FE830F401BC9C043A43DDB9F7C2830B32C3C70D9966E7 SWAP2 SWAP1 LOG2 JUMP JUMPDEST PUSH1 0x0 PUSH1 0x20 DUP3 DUP5 SUB SLT ISZERO PUSH2 0x8F4 JUMPI PUSH1 0x0 DUP1 REVERT JUMPDEST DUP2 CALLDATALOAD PUSH1 0x1 PUSH1 0x1 PUSH1 0xA0 SHL SUB DUP2 AND DUP2 EQ PUSH2 0x90B JUMPI PUSH1 0x0 DUP1 REVERT JUMPDEST SWAP4 SWAP3 POP POP POP JUMP JUMPDEST DUP1 DUP3 ADD DUP1 DUP3 GT ISZERO PUSH2 0x933 JUMPI PUSH4 0x4E487B71 PUSH1 0xE0 SHL PUSH1 0x0 MSTORE PUSH1 0x11 PUSH1 0x4 MSTORE PUSH1 0x24 PUSH1 0x0 REVERT JUMPDEST SWAP3 SWAP2 POP POP JUMP INVALID LOG2 PUSH5 0x6970667358 0x22 SLT KECCAK256 LOG4 GT SWAP12 PUSH7 0xB6849B7301AAE8 CALLVALUE 0x4F 0xA8 0xDA RETURNDATACOPY CALLDATALOAD ISZERO 0xC9 0xE3 0xC2 0xC0 PUSH19 0x92B10C5C35B6E9587364736F6C634300081100 CALLER "
    },
    "gasEstimates": {
      "creation": {
        "codeDepositCost": "483000",
        "executionCost": "113177",
        "totalCost": "596177"
      },
      "external": {
        "EXPIRED()": "261",
        "NEW()": "217",
        "REQUIRES_RENEWAL()": "237",
        "VALID()": "259",
        "checkSubscriptionStatus(address)": "infinite",
        "firstPaymentAmount()": "2362",
        "gracePeriod()": "2317",
        "owner()": "2360",
        "subscribe()": "infinite",
        "subscribers(address)": "4674",
        "subscriptionAmount()": "2318",
        "subscriptionDuration()": "2384",
        "unsubscribe()": "27861",
        "withdrawBalance()": "7137"
      }
    },
    "methodIdentifiers": {
      "EXPIRED()": "414ac85b",
      "NEW()": "08601768",
      "REQUIRES_RENEWAL()": "bf3d5b54",
      "VALID()": "dcbe1b3c",
      "checkSubscriptionStatus(address)": "2781b0eb",
      "firstPaymentAmount()": "90fec1d4",
      "gracePeriod()": "a06db7dc",
      "owner()": "8da5cb5b",
      "subscribe()": "8f449a05",
      "subscribers(address)": "5745ae28",
      "subscriptionAmount()": "54f8a8c2",
      "subscriptionDuration()": "7a94a633",
      "unsubscribe()": "fcae4484",
      "withdrawBalance()": "5fd8c710"
    }
  },
  "storageLayout": {
    "storage": [
      {
        "astId": 1375,
        "contract": "SubscriptionContract.sol:SubscriptionContract",
        "label": "owner",
        "offset": 0,
        "slot": "0",
        "type": "t_address"
      },
      {
        "astId": 1378,
        "contract": "SubscriptionContract.sol:SubscriptionContract",
        "label": "subscriptionAmount",
        "offset": 0,
        "slot": "1",
        "type": "t_uint256"
      },
      {
        "astId": 1381,
        "contract": "SubscriptionContract.sol:SubscriptionContract",
        "label": "firstPaymentAmount",
        "offset": 0,
        "slot": "2",
        "type": "t_uint256"
      },
      {
        "astId": 1384,
        "contract": "SubscriptionContract.sol:SubscriptionContract",
        "label": "subscriptionDuration",
        "offset": 0,
        "slot": "3",
        "type": "t_uint256"
      },
      {
        "astId": 1387,
        "contract": "SubscriptionContract.sol:SubscriptionContract",
        "label": "gracePeriod",
        "offset": 0,
        "slot": "4",
        "type": "t_uint256"
      },
      {
        "astId": 1409,
        "contract": "SubscriptionContract.sol:SubscriptionContract",
        "label": "subscribers",
        "offset": 0,
        "slot": "5",
        "type": "t_mapping(t_address,t_struct(Subscriber)1404_storage)"
      }
    ],
    "types": {
      "t_address": {
        "encoding": "inplace",
        "label": "address",
        "numberOfBytes": "20"
      },
      "t_bool": {
        "encoding": "inplace",
        "label": "bool",
        "numberOfBytes": "1"
      },
      "t_mapping(t_address,t_struct(Subscriber)1404_storage)": {
        "encoding": "mapping",
        "key": "t_address",
        "label": "mapping(address => struct SubscriptionContract.Subscriber)",
        "numberOfBytes": "32",
        "value": "t_struct(Subscriber)1404_storage"
      },
      "t_struct(Subscriber)1404_storage": {
        "encoding": "inplace",
        "label": "struct SubscriptionContract.Subscriber",
        "members": [
          {
            "astId": 1401,
            "contract": "SubscriptionContract.sol:SubscriptionContract",
            "label": "lastPaymentTimestamp",
            "offset": 0,
            "slot": "0",
            "type": "t_uint256"
          },
          {
            "astId": 1403,
            "contract": "SubscriptionContract.sol:SubscriptionContract",
            "label": "isSubscribed",
            "offset": 0,
            "slot": "1",
            "type": "t_bool"
          }
        ],
        "numberOfBytes": "64"
      },
      "t_uint256": {
        "encoding": "inplace",
        "label": "uint256",
        "numberOfBytes": "32"
      }
    }
  },
  "userdoc": {
    "kind": "user",
    "methods": {},
    "version": 1
  }
}