{
  "abi": [
    {
      "anonymous": false,
      "inputs": [
        {
          "indexed": true,
          "internalType": "address",
          "name": "user",
          "type": "address"
        },
        {
          "indexed": true,
          "internalType": "address",
          "name": "sender",
          "type": "address"
        },
        {
          "indexed": false,
          "internalType": "bool",
          "name": "conditionMet",
          "type": "bool"
        }
      ],
      "name": "DebugInfo",
      "type": "event"
    },
    {
      "inputs": [
        {
          "internalType": "address",
          "name": "",
          "type": "address"
        },
        {
          "internalType": "uint256",
          "name": "",
          "type": "uint256"
        }
      ],
      "name": "accessList",
      "outputs": [
        {
          "internalType": "address",
          "name": "user",
          "type": "address"
        },
        {
          "internalType": "bool",
          "name": "access",
          "type": "bool"
        }
      ],
      "stateMutability": "view",
      "type": "function"
    },
    {
      "inputs": [
        {
          "internalType": "address",
          "name": "_user",
          "type": "address"
        },
        {
          "internalType": "string",
          "name": "url",
          "type": "string"
        }
      ],
      "name": "add",
      "outputs": [],
      "stateMutability": "nonpayable",
      "type": "function"
    },
    {
      "inputs": [
        {
          "internalType": "address",
          "name": "user",
          "type": "address"
        }
      ],
      "name": "allow",
      "outputs": [],
      "stateMutability": "nonpayable",
      "type": "function"
    },
    {
      "inputs": [
        {
          "internalType": "address",
          "name": "user",
          "type": "address"
        }
      ],
      "name": "disallow",
      "outputs": [],
      "stateMutability": "nonpayable",
      "type": "function"
    },
    {
      "inputs": [
        {
          "internalType": "address",
          "name": "_user",
          "type": "address"
        }
      ],
      "name": "display",
      "outputs": [
        {
          "internalType": "string[]",
          "name": "",
          "type": "string[]"
        }
      ],
      "stateMutability": "nonpayable",
      "type": "function"
    },
    {
      "inputs": [],
      "name": "shareAccess",
      "outputs": [
        {
          "components": [
            {
              "internalType": "address",
              "name": "user",
              "type": "address"
            },
            {
              "internalType": "bool",
              "name": "access",
              "type": "bool"
            }
          ],
          "internalType": "struct Upload.Access[]",
          "name": "",
          "type": "tuple[]"
        }
      ],
      "stateMutability": "view",
      "type": "function"
    }
  ],
  "devdoc": {
    "kind": "dev",
    "methods": {},
    "version": 1
  },
  "evm": {
    "assembly": "    /* \"Upload.sol\":189:1916  contract Upload {... */\n  mstore(0x40, 0x80)\n  callvalue\n  dup1\n  iszero\n  tag_1\n  jumpi\n  0x00\n  dup1\n  revert\ntag_1:\n  pop\n  dataSize(sub_0)\n  dup1\n  dataOffset(sub_0)\n  0x00\n  codecopy\n  0x00\n  return\nstop\n\nsub_0: assembly {\n        /* \"Upload.sol\":189:1916  contract Upload {... */\n      mstore(0x40, 0x80)\n      callvalue\n      dup1\n      iszero\n      tag_1\n      jumpi\n      0x00\n      dup1\n      revert\n    tag_1:\n      pop\n      jumpi(tag_2, lt(calldatasize, 0x04))\n      shr(0xe0, calldataload(0x00))\n      dup1\n      0xbc8bef81\n      gt\n      tag_9\n      jumpi\n      dup1\n      0xbc8bef81\n      eq\n      tag_6\n      jumpi\n      dup1\n      0xeb39113f\n      eq\n      tag_7\n      jumpi\n      dup1\n      0xff9913e8\n      eq\n      tag_8\n      jumpi\n      0x00\n      dup1\n      revert\n    tag_9:\n      dup1\n      0x36d6da55\n      eq\n      tag_3\n      jumpi\n      dup1\n      0x70c2b419\n      eq\n      tag_4\n      jumpi\n      dup1\n      0xa9ed9cb8\n      eq\n      tag_5\n      jumpi\n    tag_2:\n      0x00\n      dup1\n      revert\n        /* \"Upload.sol\":508:606  function add(address _user, string calldata url) external{... */\n    tag_3:\n      tag_10\n      tag_11\n      calldatasize\n      0x04\n      tag_12\n      jump\t// in\n    tag_11:\n      tag_13\n      jump\t// in\n    tag_10:\n      stop\n        /* \"Upload.sol\":395:439  mapping(address=>Access[]) public accessList */\n    tag_4:\n      tag_14\n      tag_15\n      calldatasize\n      0x04\n      tag_16\n      jump\t// in\n    tag_15:\n      tag_17\n      jump\t// in\n    tag_14:\n      0x40\n      dup1\n      mload\n      sub(shl(0xa0, 0x01), 0x01)\n        /* \"#utility.yul\":1331:1386   */\n      swap1\n      swap4\n      and\n        /* \"#utility.yul\":1313:1387   */\n      dup4\n      mstore\n        /* \"#utility.yul\":1430:1444   */\n      swap1\n      iszero\n        /* \"#utility.yul\":1423:1445   */\n      iszero\n        /* \"#utility.yul\":1418:1420   */\n      0x20\n        /* \"#utility.yul\":1403:1421   */\n      dup4\n      add\n        /* \"#utility.yul\":1396:1446   */\n      mstore\n        /* \"#utility.yul\":1286:1304   */\n      add\n        /* \"Upload.sol\":395:439  mapping(address=>Access[]) public accessList */\n    tag_18:\n      mload(0x40)\n      dup1\n      swap2\n      sub\n      swap1\n      return\n        /* \"Upload.sol\":1140:1448  function disallow(address user) external{... */\n    tag_5:\n      tag_10\n      tag_21\n      calldatasize\n      0x04\n      tag_22\n      jump\t// in\n    tag_21:\n      tag_23\n      jump\t// in\n        /* \"Upload.sol\":1805:1913  function shareAccess() public view returns(Access[] memory) {... */\n    tag_6:\n      tag_24\n      tag_25\n      jump\t// in\n    tag_24:\n      mload(0x40)\n      tag_18\n      swap2\n      swap1\n      tag_27\n      jump\t// in\n        /* \"Upload.sol\":1545:1797  function display(address _user) external returns(string[] memory) {... */\n    tag_7:\n      tag_28\n      tag_29\n      calldatasize\n      0x04\n      tag_22\n      jump\t// in\n    tag_29:\n      tag_30\n      jump\t// in\n    tag_28:\n      mload(0x40)\n      tag_18\n      swap2\n      swap1\n      tag_32\n      jump\t// in\n        /* \"Upload.sol\":614:1132  function allow(address user) external{... */\n    tag_8:\n      tag_10\n      tag_34\n      calldatasize\n      0x04\n      tag_22\n      jump\t// in\n    tag_34:\n      tag_35\n      jump\t// in\n        /* \"Upload.sol\":508:606  function add(address _user, string calldata url) external{... */\n    tag_13:\n      sub(shl(0xa0, 0x01), 0x01)\n        /* \"Upload.sol\":576:588  value[_user] */\n      dup4\n      and\n        /* \"Upload.sol\":576:581  value */\n      0x00\n        /* \"Upload.sol\":576:588  value[_user] */\n      swap1\n      dup2\n      mstore\n      0x20\n      dup2\n      dup2\n      mstore\n      0x40\n      dup3\n      keccak256\n        /* \"Upload.sol\":576:598  value[_user].push(url) */\n      dup1\n      sload\n      0x01\n      dup2\n      add\n      dup3\n      sstore\n      swap1\n      dup4\n      mstore\n      swap2\n      keccak256\n      add\n      tag_38\n        /* \"Upload.sol\":594:597  url */\n      dup3\n      dup5\n        /* \"Upload.sol\":576:598  value[_user].push(url) */\n      dup4\n      tag_39\n      jump\t// in\n    tag_38:\n      pop\n        /* \"Upload.sol\":508:606  function add(address _user, string calldata url) external{... */\n      pop\n      pop\n      pop\n      jump\t// out\n        /* \"Upload.sol\":395:439  mapping(address=>Access[]) public accessList */\n    tag_17:\n      mstore(0x20, 0x02)\n      dup2\n      0x00\n      mstore\n      keccak256(0x00, 0x40)\n      dup2\n      dup2\n      sload\n      dup2\n      lt\n      tag_40\n      jumpi\n      0x00\n      dup1\n      revert\n    tag_40:\n      0x00\n      swap2\n      dup3\n      mstore\n      0x20\n      swap1\n      swap2\n      keccak256\n      add\n      sload\n      sub(shl(0xa0, 0x01), 0x01)\n      dup2\n      and\n      swap3\n      pop\n      shl(0xa0, 0x01)\n      swap1\n      div\n      0xff\n      and\n      swap1\n      pop\n      dup3\n      jump\t// out\n        /* \"Upload.sol\":1140:1448  function disallow(address user) external{... */\n    tag_23:\n        /* \"Upload.sol\":1201:1211  msg.sender */\n      caller\n        /* \"Upload.sol\":1221:1226  false */\n      0x00\n        /* \"Upload.sol\":1191:1212  ownership[msg.sender] */\n      swap1\n      dup2\n      mstore\n        /* \"Upload.sol\":1191:1200  ownership */\n      0x01\n        /* \"Upload.sol\":1191:1212  ownership[msg.sender] */\n      0x20\n      swap1\n      dup2\n      mstore\n      0x40\n      dup1\n      dup4\n      keccak256\n      sub(shl(0xa0, 0x01), 0x01)\n        /* \"Upload.sol\":1191:1218  ownership[msg.sender][user] */\n      dup6\n      and\n      dup5\n      mstore\n      swap1\n      swap2\n      mstore\n      dup2\n      keccak256\n        /* \"Upload.sol\":1191:1226  ownership[msg.sender][user] = false */\n      dup1\n      sload\n      not(0xff)\n      and\n      swap1\n      sstore\n        /* \"Upload.sol\":1239:1441  for (uint i = 0; i < accessList[msg.sender].length; i++) {... */\n    tag_43:\n        /* \"Upload.sol\":1271:1281  msg.sender */\n      caller\n        /* \"Upload.sol\":1260:1282  accessList[msg.sender] */\n      0x00\n      swap1\n      dup2\n      mstore\n        /* \"Upload.sol\":1260:1270  accessList */\n      0x02\n        /* \"Upload.sol\":1260:1282  accessList[msg.sender] */\n      0x20\n      mstore\n      0x40\n      swap1\n      keccak256\n        /* \"Upload.sol\":1260:1289  accessList[msg.sender].length */\n      sload\n        /* \"Upload.sol\":1256:1289  i < accessList[msg.sender].length */\n      dup2\n      lt\n        /* \"Upload.sol\":1239:1441  for (uint i = 0; i < accessList[msg.sender].length; i++) {... */\n      iszero\n      tag_44\n      jumpi\n        /* \"Upload.sol\":1326:1336  msg.sender */\n      caller\n        /* \"Upload.sol\":1315:1337  accessList[msg.sender] */\n      0x00\n      swap1\n      dup2\n      mstore\n        /* \"Upload.sol\":1315:1325  accessList */\n      0x02\n        /* \"Upload.sol\":1315:1337  accessList[msg.sender] */\n      0x20\n      mstore\n      0x40\n      swap1\n      keccak256\n        /* \"Upload.sol\":1315:1340  accessList[msg.sender][i] */\n      dup1\n      sload\n      sub(shl(0xa0, 0x01), 0x01)\n        /* \"Upload.sol\":1315:1353  accessList[msg.sender][i].user == user */\n      dup5\n      and\n      swap2\n        /* \"Upload.sol\":1315:1337  accessList[msg.sender] */\n      swap1\n        /* \"Upload.sol\":1338:1339  i */\n      dup4\n      swap1\n        /* \"Upload.sol\":1315:1340  accessList[msg.sender][i] */\n      dup2\n      lt\n      tag_47\n      jumpi\n      tag_47\n      tag_48\n      jump\t// in\n    tag_47:\n      0x00\n      swap2\n      dup3\n      mstore\n      0x20\n      swap1\n      swap2\n      keccak256\n      add\n        /* \"Upload.sol\":1315:1345  accessList[msg.sender][i].user */\n      sload\n      sub(shl(0xa0, 0x01), 0x01)\n      and\n        /* \"Upload.sol\":1315:1353  accessList[msg.sender][i].user == user */\n      sub\n        /* \"Upload.sol\":1311:1430  if (accessList[msg.sender][i].user == user) {... */\n      tag_50\n      jumpi\n        /* \"Upload.sol\":1385:1395  msg.sender */\n      caller\n        /* \"Upload.sol\":1409:1414  false */\n      0x00\n        /* \"Upload.sol\":1374:1396  accessList[msg.sender] */\n      swap1\n      dup2\n      mstore\n        /* \"Upload.sol\":1374:1384  accessList */\n      0x02\n        /* \"Upload.sol\":1374:1396  accessList[msg.sender] */\n      0x20\n      mstore\n      0x40\n      dup2\n      keccak256\n        /* \"Upload.sol\":1374:1399  accessList[msg.sender][i] */\n      dup1\n      sload\n        /* \"Upload.sol\":1397:1398  i */\n      dup4\n      swap1\n        /* \"Upload.sol\":1374:1399  accessList[msg.sender][i] */\n      dup2\n      lt\n      tag_52\n      jumpi\n      tag_52\n      tag_48\n      jump\t// in\n    tag_52:\n      0x00\n      swap2\n      dup3\n      mstore\n      0x20\n      swap1\n      swap2\n      keccak256\n      add\n        /* \"Upload.sol\":1374:1414  accessList[msg.sender][i].access = false */\n      dup1\n      sload\n      swap2\n      iszero\n      iszero\n      shl(0xa0, 0x01)\n      mul\n      not(shl(0xa0, 0xff))\n      swap1\n      swap3\n      and\n      swap2\n      swap1\n      swap2\n      or\n      swap1\n      sstore\n        /* \"Upload.sol\":1311:1430  if (accessList[msg.sender][i].user == user) {... */\n    tag_50:\n        /* \"Upload.sol\":1291:1294  i++ */\n      dup1\n      tag_54\n      dup2\n      tag_55\n      jump\t// in\n    tag_54:\n      swap2\n      pop\n      pop\n        /* \"Upload.sol\":1239:1441  for (uint i = 0; i < accessList[msg.sender].length; i++) {... */\n      jump(tag_43)\n    tag_44:\n      pop\n        /* \"Upload.sol\":1140:1448  function disallow(address user) external{... */\n      pop\n      jump\t// out\n        /* \"Upload.sol\":1805:1913  function shareAccess() public view returns(Access[] memory) {... */\n    tag_25:\n        /* \"Upload.sol\":1894:1904  msg.sender */\n      caller\n        /* \"Upload.sol\":1883:1905  accessList[msg.sender] */\n      0x00\n      swap1\n      dup2\n      mstore\n        /* \"Upload.sol\":1883:1893  accessList */\n      0x02\n        /* \"Upload.sol\":1883:1905  accessList[msg.sender] */\n      0x20\n      swap1\n      dup2\n      mstore\n      0x40\n      dup1\n      dup4\n      keccak256\n        /* \"Upload.sol\":1876:1905  return accessList[msg.sender] */\n      dup1\n      sload\n      dup3\n      mload\n      dup2\n      dup6\n      mul\n      dup2\n      add\n      dup6\n      add\n      swap1\n      swap4\n      mstore\n      dup1\n      dup4\n      mstore\n        /* \"Upload.sol\":1848:1863  Access[] memory */\n      0x60\n      swap5\n        /* \"Upload.sol\":1876:1905  return accessList[msg.sender] */\n      swap3\n      swap4\n        /* \"Upload.sol\":1883:1905  accessList[msg.sender] */\n      swap2\n      swap3\n        /* \"Upload.sol\":1876:1905  return accessList[msg.sender] */\n      swap1\n      swap2\n      dup5\n      add\n    tag_57:\n      dup3\n      dup3\n      lt\n      iszero\n      tag_58\n      jumpi\n      0x00\n      dup5\n      dup2\n      mstore\n      0x20\n      swap1\n      dup2\n      swap1\n      keccak256\n      0x40\n      dup1\n      mload\n      dup1\n      dup3\n      add\n      swap1\n      swap2\n      mstore\n      swap1\n      dup5\n      add\n      sload\n      sub(shl(0xa0, 0x01), 0x01)\n      dup2\n      and\n      dup3\n      mstore\n      shl(0xa0, 0x01)\n      swap1\n      div\n      0xff\n      and\n      iszero\n      iszero\n      dup2\n      dup4\n      add\n      mstore\n      dup3\n      mstore\n      0x01\n      swap1\n      swap3\n      add\n      swap2\n      add\n      jump(tag_57)\n    tag_58:\n      pop\n      pop\n      pop\n      pop\n      swap1\n      pop\n        /* \"Upload.sol\":1805:1913  function shareAccess() public view returns(Access[] memory) {... */\n      swap1\n      jump\t// out\n        /* \"Upload.sol\":1545:1797  function display(address _user) external returns(string[] memory) {... */\n    tag_30:\n        /* \"Upload.sol\":1594:1609  string[] memory */\n      0x60\n      sub(shl(0xa0, 0x01), 0x01)\n        /* \"Upload.sol\":1630:1649  _user == msg.sender */\n      dup3\n      and\n        /* \"Upload.sol\":1639:1649  msg.sender */\n      caller\n        /* \"Upload.sol\":1630:1649  _user == msg.sender */\n      eq\n      dup1\n        /* \"Upload.sol\":1630:1681  _user == msg.sender || ownership[_user][msg.sender] */\n      tag_61\n      jumpi\n      pop\n      sub(shl(0xa0, 0x01), 0x01)\n        /* \"Upload.sol\":1653:1669  ownership[_user] */\n      dup3\n      and\n      0x00\n      swap1\n      dup2\n      mstore\n        /* \"Upload.sol\":1653:1662  ownership */\n      0x01\n        /* \"Upload.sol\":1653:1669  ownership[_user] */\n      0x20\n      swap1\n      dup2\n      mstore\n      0x40\n      dup1\n      dup4\n      keccak256\n        /* \"Upload.sol\":1670:1680  msg.sender */\n      caller\n        /* \"Upload.sol\":1653:1681  ownership[_user][msg.sender] */\n      dup5\n      mstore\n      swap1\n      swap2\n      mstore\n      swap1\n      keccak256\n      sload\n      0xff\n      and\n        /* \"Upload.sol\":1630:1681  _user == msg.sender || ownership[_user][msg.sender] */\n    tag_61:\n        /* \"Upload.sol\":1622:1707  require(_user == msg.sender || ownership[_user][msg.sender], \"You don't have access\") */\n      tag_62\n      jumpi\n      mload(0x40)\n      shl(0xe5, 0x461bcd)\n      dup2\n      mstore\n        /* \"#utility.yul\":6858:6860   */\n      0x20\n        /* \"Upload.sol\":1622:1707  require(_user == msg.sender || ownership[_user][msg.sender], \"You don't have access\") */\n      0x04\n      dup3\n      add\n        /* \"#utility.yul\":6840:6861   */\n      mstore\n        /* \"#utility.yul\":6897:6899   */\n      0x15\n        /* \"#utility.yul\":6877:6895   */\n      0x24\n      dup3\n      add\n        /* \"#utility.yul\":6870:6900   */\n      mstore\n        /* \"#utility.yul\":6936:6959   */\n      0x596f7520646f6e27742068617665206163636573730000000000000000000000\n        /* \"#utility.yul\":6916:6934   */\n      0x44\n      dup3\n      add\n        /* \"#utility.yul\":6909:6960   */\n      mstore\n        /* \"#utility.yul\":6977:6995   */\n      0x64\n      add\n        /* \"Upload.sol\":1622:1707  require(_user == msg.sender || ownership[_user][msg.sender], \"You don't have access\") */\n      mload(0x40)\n      dup1\n      swap2\n      sub\n      swap1\n      revert\n    tag_62:\n        /* \"Upload.sol\":1725:1759  DebugInfo(_user, msg.sender, true) */\n      mload(0x40)\n        /* \"Upload.sol\":1754:1758  true */\n      0x01\n        /* \"#utility.yul\":7146:7187   */\n      dup2\n      mstore\n        /* \"Upload.sol\":1742:1752  msg.sender */\n      caller\n      swap1\n      sub(shl(0xa0, 0x01), 0x01)\n        /* \"Upload.sol\":1725:1759  DebugInfo(_user, msg.sender, true) */\n      dup5\n      and\n      swap1\n      0x0a1f0529974b0cd6003000145b8ee2d2f8fba810243faaa4ce1c0e861c1bf633\n      swap1\n        /* \"#utility.yul\":7134:7136   */\n      0x20\n        /* \"#utility.yul\":7119:7137   */\n      add\n        /* \"Upload.sol\":1725:1759  DebugInfo(_user, msg.sender, true) */\n      mload(0x40)\n      dup1\n      swap2\n      sub\n      swap1\n      log3\n      sub(shl(0xa0, 0x01), 0x01)\n        /* \"Upload.sol\":1777:1789  value[_user] */\n      dup3\n      and\n        /* \"Upload.sol\":1777:1782  value */\n      0x00\n        /* \"Upload.sol\":1777:1789  value[_user] */\n      swap1\n      dup2\n      mstore\n      0x20\n      dup2\n      dup2\n      mstore\n      0x40\n      dup1\n      dup4\n      keccak256\n        /* \"Upload.sol\":1770:1789  return value[_user] */\n      dup1\n      sload\n      dup3\n      mload\n      dup2\n      dup6\n      mul\n      dup2\n      add\n      dup6\n      add\n      swap1\n      swap4\n      mstore\n      dup1\n      dup4\n      mstore\n      swap2\n      swap4\n        /* \"Upload.sol\":1777:1789  value[_user] */\n      swap1\n      swap3\n        /* \"Upload.sol\":1770:1789  return value[_user] */\n      dup5\n      add\n    tag_67:\n      dup3\n      dup3\n      lt\n      iszero\n      tag_68\n      jumpi\n      dup4\n      dup3\n      swap1\n      0x00\n      mstore\n      keccak256(0x00, 0x20)\n      add\n      dup1\n      sload\n      tag_70\n      swap1\n      tag_71\n      jump\t// in\n    tag_70:\n      dup1\n      0x1f\n      add\n      0x20\n      dup1\n      swap2\n      div\n      mul\n      0x20\n      add\n      mload(0x40)\n      swap1\n      dup2\n      add\n      0x40\n      mstore\n      dup1\n      swap3\n      swap2\n      swap1\n      dup2\n      dup2\n      mstore\n      0x20\n      add\n      dup3\n      dup1\n      sload\n      tag_72\n      swap1\n      tag_71\n      jump\t// in\n    tag_72:\n      dup1\n      iszero\n      tag_73\n      jumpi\n      dup1\n      0x1f\n      lt\n      tag_74\n      jumpi\n      0x0100\n      dup1\n      dup4\n      sload\n      div\n      mul\n      dup4\n      mstore\n      swap2\n      0x20\n      add\n      swap2\n      jump(tag_73)\n    tag_74:\n      dup3\n      add\n      swap2\n      swap1\n      0x00\n      mstore\n      keccak256(0x00, 0x20)\n      swap1\n    tag_75:\n      dup2\n      sload\n      dup2\n      mstore\n      swap1\n      0x01\n      add\n      swap1\n      0x20\n      add\n      dup1\n      dup4\n      gt\n      tag_75\n      jumpi\n      dup3\n      swap1\n      sub\n      0x1f\n      and\n      dup3\n      add\n      swap2\n    tag_73:\n      pop\n      pop\n      pop\n      pop\n      pop\n      dup2\n      mstore\n      0x20\n      add\n      swap1\n      0x01\n      add\n      swap1\n      jump(tag_67)\n    tag_68:\n      pop\n      pop\n      pop\n      pop\n      swap1\n      pop\n        /* \"Upload.sol\":1545:1797  function display(address _user) external returns(string[] memory) {... */\n      swap2\n      swap1\n      pop\n      jump\t// out\n        /* \"Upload.sol\":614:1132  function allow(address user) external{... */\n    tag_35:\n        /* \"Upload.sol\":672:682  msg.sender */\n      caller\n        /* \"Upload.sol\":662:683  ownership[msg.sender] */\n      0x00\n      dup2\n      dup2\n      mstore\n        /* \"Upload.sol\":690:694  true */\n      0x01\n        /* \"Upload.sol\":662:683  ownership[msg.sender] */\n      0x20\n      dup2\n      dup2\n      mstore\n      0x40\n      dup1\n      dup5\n      keccak256\n      sub(shl(0xa0, 0x01), 0x01)\n        /* \"Upload.sol\":662:689  ownership[msg.sender][user] */\n      dup8\n      and\n      dup1\n      dup7\n      mstore\n      swap1\n      dup4\n      mstore\n      dup2\n      dup6\n      keccak256\n        /* \"Upload.sol\":662:694  ownership[msg.sender][user]=true */\n      dup1\n      sload\n      not(0xff)\n      and\n      dup6\n      or\n      swap1\n      sstore\n        /* \"Upload.sol\":711:735  previousData[msg.sender] */\n      swap5\n      dup5\n      mstore\n        /* \"Upload.sol\":711:723  previousData */\n      0x03\n        /* \"Upload.sol\":711:735  previousData[msg.sender] */\n      dup3\n      mstore\n      dup1\n      dup5\n      keccak256\n        /* \"Upload.sol\":711:741  previousData[msg.sender][user] */\n      swap5\n      dup5\n      mstore\n      swap4\n      swap1\n      mstore\n      swap2\n      swap1\n      keccak256\n      sload\n        /* \"Upload.sol\":662:694  ownership[msg.sender][user]=true */\n      0xff\n        /* \"Upload.sol\":711:741  previousData[msg.sender][user] */\n      and\n        /* \"Upload.sol\":711:749  previousData[msg.sender][user] == true */\n      iszero\n      iszero\n      swap1\n      sub\n        /* \"Upload.sol\":707:1125  if (previousData[msg.sender][user] == true) {... */\n      tag_77\n      jumpi\n        /* \"Upload.sol\":771:777  uint i */\n      0x00\n        /* \"Upload.sol\":766:983  for (uint i = 0; i < accessList[msg.sender].length; i++) {... */\n    tag_78:\n        /* \"Upload.sol\":798:808  msg.sender */\n      caller\n        /* \"Upload.sol\":787:809  accessList[msg.sender] */\n      0x00\n      swap1\n      dup2\n      mstore\n        /* \"Upload.sol\":787:797  accessList */\n      0x02\n        /* \"Upload.sol\":787:809  accessList[msg.sender] */\n      0x20\n      mstore\n      0x40\n      swap1\n      keccak256\n        /* \"Upload.sol\":787:816  accessList[msg.sender].length */\n      sload\n        /* \"Upload.sol\":783:816  i < accessList[msg.sender].length */\n      dup2\n      lt\n        /* \"Upload.sol\":766:983  for (uint i = 0; i < accessList[msg.sender].length; i++) {... */\n      iszero\n      tag_44\n      jumpi\n        /* \"Upload.sol\":857:867  msg.sender */\n      caller\n        /* \"Upload.sol\":846:868  accessList[msg.sender] */\n      0x00\n      swap1\n      dup2\n      mstore\n        /* \"Upload.sol\":846:856  accessList */\n      0x02\n        /* \"Upload.sol\":846:868  accessList[msg.sender] */\n      0x20\n      mstore\n      0x40\n      swap1\n      keccak256\n        /* \"Upload.sol\":846:871  accessList[msg.sender][i] */\n      dup1\n      sload\n      sub(shl(0xa0, 0x01), 0x01)\n        /* \"Upload.sol\":846:884  accessList[msg.sender][i].user == user */\n      dup5\n      and\n      swap2\n        /* \"Upload.sol\":846:868  accessList[msg.sender] */\n      swap1\n        /* \"Upload.sol\":869:870  i */\n      dup4\n      swap1\n        /* \"Upload.sol\":846:871  accessList[msg.sender][i] */\n      dup2\n      lt\n      tag_82\n      jumpi\n      tag_82\n      tag_48\n      jump\t// in\n    tag_82:\n      0x00\n      swap2\n      dup3\n      mstore\n      0x20\n      swap1\n      swap2\n      keccak256\n      add\n        /* \"Upload.sol\":846:876  accessList[msg.sender][i].user */\n      sload\n      sub(shl(0xa0, 0x01), 0x01)\n      and\n        /* \"Upload.sol\":846:884  accessList[msg.sender][i].user == user */\n      sub\n        /* \"Upload.sol\":842:968  if (accessList[msg.sender][i].user == user) {... */\n      tag_84\n      jumpi\n        /* \"Upload.sol\":920:930  msg.sender */\n      caller\n        /* \"Upload.sol\":909:931  accessList[msg.sender] */\n      0x00\n      swap1\n      dup2\n      mstore\n        /* \"Upload.sol\":909:919  accessList */\n      0x02\n        /* \"Upload.sol\":909:931  accessList[msg.sender] */\n      0x20\n      mstore\n      0x40\n      swap1\n      keccak256\n        /* \"Upload.sol\":909:934  accessList[msg.sender][i] */\n      dup1\n      sload\n        /* \"Upload.sol\":944:948  true */\n      0x01\n      swap2\n        /* \"Upload.sol\":909:931  accessList[msg.sender] */\n      swap1\n        /* \"Upload.sol\":932:933  i */\n      dup4\n      swap1\n        /* \"Upload.sol\":909:934  accessList[msg.sender][i] */\n      dup2\n      lt\n      tag_86\n      jumpi\n      tag_86\n      tag_48\n      jump\t// in\n    tag_86:\n      0x00\n      swap2\n      dup3\n      mstore\n      0x20\n      swap1\n      swap2\n      keccak256\n      add\n        /* \"Upload.sol\":909:948  accessList[msg.sender][i].access = true */\n      dup1\n      sload\n      swap2\n      iszero\n      iszero\n      shl(0xa0, 0x01)\n      mul\n      not(shl(0xa0, 0xff))\n      swap1\n      swap3\n      and\n      swap2\n      swap1\n      swap2\n      or\n      swap1\n      sstore\n        /* \"Upload.sol\":842:968  if (accessList[msg.sender][i].user == user) {... */\n    tag_84:\n        /* \"Upload.sol\":818:821  i++ */\n      dup1\n      tag_88\n      dup2\n      tag_55\n      jump\t// in\n    tag_88:\n      swap2\n      pop\n      pop\n        /* \"Upload.sol\":766:983  for (uint i = 0; i < accessList[msg.sender].length; i++) {... */\n      jump(tag_78)\n        /* \"Upload.sol\":707:1125  if (previousData[msg.sender][user] == true) {... */\n    tag_77:\n        /* \"Upload.sol\":1026:1036  msg.sender */\n      caller\n        /* \"Upload.sol\":1015:1037  accessList[msg.sender] */\n      0x00\n      dup2\n      dup2\n      mstore\n        /* \"Upload.sol\":1015:1025  accessList */\n      0x02\n        /* \"Upload.sol\":1015:1037  accessList[msg.sender] */\n      0x20\n      swap1\n      dup2\n      mstore\n      0x40\n      dup1\n      dup4\n      keccak256\n        /* \"Upload.sol\":1043:1060  Access(user,true) */\n      dup2\n      mload\n      dup1\n      dup4\n      add\n      dup4\n      mstore\n      sub(shl(0xa0, 0x01), 0x01)\n      dup8\n      dup2\n      and\n      dup1\n      dup4\n      mstore\n        /* \"Upload.sol\":1055:1059  true */\n      0x01\n        /* \"Upload.sol\":1043:1060  Access(user,true) */\n      dup4\n      dup8\n      add\n      dup2\n      dup2\n      mstore\n        /* \"Upload.sol\":1015:1061  accessList[msg.sender].push(Access(user,true)) */\n      dup6\n      sload\n      dup1\n      dup4\n      add\n      dup8\n      sstore\n      swap6\n      dup10\n      mstore\n      dup8\n      dup10\n      keccak256\n      swap5\n      mload\n      swap5\n      swap1\n      swap6\n      add\n      dup1\n      sload\n      swap6\n      mload\n      iszero\n      iszero\n      shl(0xa0, 0x01)\n      mul\n      0xffffffffffffffffffffff000000000000000000000000000000000000000000\n      swap1\n      swap7\n      and\n      swap5\n      swap1\n      swap4\n      and\n      swap4\n      swap1\n      swap4\n      or\n      swap4\n      swap1\n      swap4\n      or\n      swap1\n      sstore\n        /* \"Upload.sol\":1076:1100  previousData[msg.sender] */\n      swap5\n      dup5\n      mstore\n        /* \"Upload.sol\":1076:1088  previousData */\n      0x03\n        /* \"Upload.sol\":1076:1100  previousData[msg.sender] */\n      dup4\n      mstore\n      dup2\n      dup5\n      keccak256\n        /* \"Upload.sol\":1076:1106  previousData[msg.sender][user] */\n      swap1\n      dup5\n      mstore\n      swap1\n      swap2\n      mstore\n      swap1\n      keccak256\n        /* \"Upload.sol\":1076:1113  previousData[msg.sender][user] = true */\n      dup1\n      sload\n      not(0xff)\n      and\n      swap1\n      swap2\n      or\n      swap1\n      sstore\n        /* \"Upload.sol\":614:1132  function allow(address user) external{... */\n      pop\n      jump\t// out\n        /* \"#utility.yul\":14:210   */\n    tag_91:\n        /* \"#utility.yul\":82:102   */\n      dup1\n      calldataload\n      sub(shl(0xa0, 0x01), 0x01)\n        /* \"#utility.yul\":131:185   */\n      dup2\n      and\n        /* \"#utility.yul\":121:186   */\n      dup2\n      eq\n        /* \"#utility.yul\":111:204   */\n      tag_98\n      jumpi\n        /* \"#utility.yul\":200:201   */\n      0x00\n        /* \"#utility.yul\":197:198   */\n      dup1\n        /* \"#utility.yul\":190:202   */\n      revert\n        /* \"#utility.yul\":111:204   */\n    tag_98:\n        /* \"#utility.yul\":14:210   */\n      swap2\n      swap1\n      pop\n      jump\t// out\n        /* \"#utility.yul\":215:881   */\n    tag_12:\n        /* \"#utility.yul\":295:301   */\n      0x00\n        /* \"#utility.yul\":303:309   */\n      dup1\n        /* \"#utility.yul\":311:317   */\n      0x00\n        /* \"#utility.yul\":364:366   */\n      0x40\n        /* \"#utility.yul\":352:361   */\n      dup5\n        /* \"#utility.yul\":343:350   */\n      dup7\n        /* \"#utility.yul\":339:362   */\n      sub\n        /* \"#utility.yul\":335:367   */\n      slt\n        /* \"#utility.yul\":332:384   */\n      iszero\n      tag_100\n      jumpi\n        /* \"#utility.yul\":380:381   */\n      0x00\n        /* \"#utility.yul\":377:378   */\n      dup1\n        /* \"#utility.yul\":370:382   */\n      revert\n        /* \"#utility.yul\":332:384   */\n    tag_100:\n        /* \"#utility.yul\":403:432   */\n      tag_101\n        /* \"#utility.yul\":422:431   */\n      dup5\n        /* \"#utility.yul\":403:432   */\n      tag_91\n      jump\t// in\n    tag_101:\n        /* \"#utility.yul\":393:432   */\n      swap3\n      pop\n        /* \"#utility.yul\":483:485   */\n      0x20\n        /* \"#utility.yul\":472:481   */\n      dup5\n        /* \"#utility.yul\":468:486   */\n      add\n        /* \"#utility.yul\":455:487   */\n      calldataload\n        /* \"#utility.yul\":506:524   */\n      0xffffffffffffffff\n        /* \"#utility.yul\":547:549   */\n      dup1\n        /* \"#utility.yul\":539:545   */\n      dup3\n        /* \"#utility.yul\":536:550   */\n      gt\n        /* \"#utility.yul\":533:567   */\n      iszero\n      tag_102\n      jumpi\n        /* \"#utility.yul\":563:564   */\n      0x00\n        /* \"#utility.yul\":560:561   */\n      dup1\n        /* \"#utility.yul\":553:565   */\n      revert\n        /* \"#utility.yul\":533:567   */\n    tag_102:\n        /* \"#utility.yul\":601:607   */\n      dup2\n        /* \"#utility.yul\":590:599   */\n      dup7\n        /* \"#utility.yul\":586:608   */\n      add\n        /* \"#utility.yul\":576:608   */\n      swap2\n      pop\n        /* \"#utility.yul\":646:653   */\n      dup7\n        /* \"#utility.yul\":639:643   */\n      0x1f\n        /* \"#utility.yul\":635:637   */\n      dup4\n        /* \"#utility.yul\":631:644   */\n      add\n        /* \"#utility.yul\":627:654   */\n      slt\n        /* \"#utility.yul\":617:672   */\n      tag_103\n      jumpi\n        /* \"#utility.yul\":668:669   */\n      0x00\n        /* \"#utility.yul\":665:666   */\n      dup1\n        /* \"#utility.yul\":658:670   */\n      revert\n        /* \"#utility.yul\":617:672   */\n    tag_103:\n        /* \"#utility.yul\":708:710   */\n      dup2\n        /* \"#utility.yul\":695:711   */\n      calldataload\n        /* \"#utility.yul\":734:736   */\n      dup2\n        /* \"#utility.yul\":726:732   */\n      dup2\n        /* \"#utility.yul\":723:737   */\n      gt\n        /* \"#utility.yul\":720:754   */\n      iszero\n      tag_104\n      jumpi\n        /* \"#utility.yul\":750:751   */\n      0x00\n        /* \"#utility.yul\":747:748   */\n      dup1\n        /* \"#utility.yul\":740:752   */\n      revert\n        /* \"#utility.yul\":720:754   */\n    tag_104:\n        /* \"#utility.yul\":795:802   */\n      dup8\n        /* \"#utility.yul\":790:792   */\n      0x20\n        /* \"#utility.yul\":781:787   */\n      dup3\n        /* \"#utility.yul\":777:779   */\n      dup6\n        /* \"#utility.yul\":773:788   */\n      add\n        /* \"#utility.yul\":769:793   */\n      add\n        /* \"#utility.yul\":766:803   */\n      gt\n        /* \"#utility.yul\":763:820   */\n      iszero\n      tag_105\n      jumpi\n        /* \"#utility.yul\":816:817   */\n      0x00\n        /* \"#utility.yul\":813:814   */\n      dup1\n        /* \"#utility.yul\":806:818   */\n      revert\n        /* \"#utility.yul\":763:820   */\n    tag_105:\n        /* \"#utility.yul\":847:849   */\n      0x20\n        /* \"#utility.yul\":843:845   */\n      dup4\n        /* \"#utility.yul\":839:850   */\n      add\n        /* \"#utility.yul\":829:850   */\n      swap5\n      pop\n        /* \"#utility.yul\":869:875   */\n      dup1\n        /* \"#utility.yul\":859:875   */\n      swap4\n      pop\n      pop\n      pop\n      pop\n        /* \"#utility.yul\":215:881   */\n      swap3\n      pop\n      swap3\n      pop\n      swap3\n      jump\t// out\n        /* \"#utility.yul\":886:1140   */\n    tag_16:\n        /* \"#utility.yul\":954:960   */\n      0x00\n        /* \"#utility.yul\":962:968   */\n      dup1\n        /* \"#utility.yul\":1015:1017   */\n      0x40\n        /* \"#utility.yul\":1003:1012   */\n      dup4\n        /* \"#utility.yul\":994:1001   */\n      dup6\n        /* \"#utility.yul\":990:1013   */\n      sub\n        /* \"#utility.yul\":986:1018   */\n      slt\n        /* \"#utility.yul\":983:1035   */\n      iszero\n      tag_107\n      jumpi\n        /* \"#utility.yul\":1031:1032   */\n      0x00\n        /* \"#utility.yul\":1028:1029   */\n      dup1\n        /* \"#utility.yul\":1021:1033   */\n      revert\n        /* \"#utility.yul\":983:1035   */\n    tag_107:\n        /* \"#utility.yul\":1054:1083   */\n      tag_108\n        /* \"#utility.yul\":1073:1082   */\n      dup4\n        /* \"#utility.yul\":1054:1083   */\n      tag_91\n      jump\t// in\n    tag_108:\n        /* \"#utility.yul\":1044:1083   */\n      swap5\n        /* \"#utility.yul\":1130:1132   */\n      0x20\n        /* \"#utility.yul\":1115:1133   */\n      swap4\n      swap1\n      swap4\n      add\n        /* \"#utility.yul\":1102:1134   */\n      calldataload\n      swap4\n      pop\n      pop\n      pop\n        /* \"#utility.yul\":886:1140   */\n      jump\t// out\n        /* \"#utility.yul\":1457:1643   */\n    tag_22:\n        /* \"#utility.yul\":1516:1522   */\n      0x00\n        /* \"#utility.yul\":1569:1571   */\n      0x20\n        /* \"#utility.yul\":1557:1566   */\n      dup3\n        /* \"#utility.yul\":1548:1555   */\n      dup5\n        /* \"#utility.yul\":1544:1567   */\n      sub\n        /* \"#utility.yul\":1540:1572   */\n      slt\n        /* \"#utility.yul\":1537:1589   */\n      iszero\n      tag_111\n      jumpi\n        /* \"#utility.yul\":1585:1586   */\n      0x00\n        /* \"#utility.yul\":1582:1583   */\n      dup1\n        /* \"#utility.yul\":1575:1587   */\n      revert\n        /* \"#utility.yul\":1537:1589   */\n    tag_111:\n        /* \"#utility.yul\":1608:1637   */\n      tag_112\n        /* \"#utility.yul\":1627:1636   */\n      dup3\n        /* \"#utility.yul\":1608:1637   */\n      tag_91\n      jump\t// in\n    tag_112:\n        /* \"#utility.yul\":1598:1637   */\n      swap4\n        /* \"#utility.yul\":1457:1643   */\n      swap3\n      pop\n      pop\n      pop\n      jump\t// out\n        /* \"#utility.yul\":1648:2499   */\n    tag_27:\n        /* \"#utility.yul\":1867:1869   */\n      0x20\n        /* \"#utility.yul\":1919:1940   */\n      dup1\n      dup3\n      mstore\n        /* \"#utility.yul\":1989:2002   */\n      dup3\n      mload\n        /* \"#utility.yul\":1892:1910   */\n      dup3\n      dup3\n      add\n        /* \"#utility.yul\":2011:2033   */\n      dup2\n      swap1\n      mstore\n        /* \"#utility.yul\":1838:1842   */\n      0x00\n      swap2\n        /* \"#utility.yul\":1867:1869   */\n      swap1\n        /* \"#utility.yul\":2052:2054   */\n      0x40\n      swap1\n        /* \"#utility.yul\":2070:2088   */\n      dup2\n      dup6\n      add\n      swap1\n        /* \"#utility.yul\":2111:2126   */\n      dup7\n      dup5\n      add\n        /* \"#utility.yul\":1838:1842   */\n      dup6\n        /* \"#utility.yul\":2154:2473   */\n    tag_114:\n        /* \"#utility.yul\":2168:2174   */\n      dup3\n        /* \"#utility.yul\":2165:2166   */\n      dup2\n        /* \"#utility.yul\":2162:2175   */\n      lt\n        /* \"#utility.yul\":2154:2473   */\n      iszero\n      tag_116\n      jumpi\n        /* \"#utility.yul\":2227:2240   */\n      dup2\n      mload\n        /* \"#utility.yul\":2269:2278   */\n      dup1\n      mload\n      sub(shl(0xa0, 0x01), 0x01)\n        /* \"#utility.yul\":2265:2323   */\n      and\n        /* \"#utility.yul\":2253:2324   */\n      dup6\n      mstore\n        /* \"#utility.yul\":2378:2389   */\n      dup7\n      add\n        /* \"#utility.yul\":2372:2390   */\n      mload\n        /* \"#utility.yul\":2365:2391   */\n      iszero\n        /* \"#utility.yul\":2358:2392   */\n      iszero\n        /* \"#utility.yul\":2344:2356   */\n      dup7\n      dup6\n      add\n        /* \"#utility.yul\":2337:2393   */\n      mstore\n        /* \"#utility.yul\":2413:2425   */\n      swap3\n      dup5\n      add\n      swap3\n        /* \"#utility.yul\":2448:2463   */\n      swap1\n      dup6\n      add\n      swap1\n        /* \"#utility.yul\":2190:2191   */\n      0x01\n        /* \"#utility.yul\":2183:2192   */\n      add\n        /* \"#utility.yul\":2154:2473   */\n      jump(tag_114)\n    tag_116:\n      pop\n        /* \"#utility.yul\":2490:2493   */\n      swap2\n      swap8\n        /* \"#utility.yul\":1648:2499   */\n      swap7\n      pop\n      pop\n      pop\n      pop\n      pop\n      pop\n      pop\n      jump\t// out\n        /* \"#utility.yul\":2504:3707   */\n    tag_32:\n        /* \"#utility.yul\":2666:2670   */\n      0x00\n        /* \"#utility.yul\":2695:2697   */\n      0x20\n        /* \"#utility.yul\":2735:2737   */\n      dup1\n        /* \"#utility.yul\":2724:2733   */\n      dup4\n        /* \"#utility.yul\":2720:2738   */\n      add\n        /* \"#utility.yul\":2765:2767   */\n      dup2\n        /* \"#utility.yul\":2754:2763   */\n      dup5\n        /* \"#utility.yul\":2747:2768   */\n      mstore\n        /* \"#utility.yul\":2788:2794   */\n      dup1\n        /* \"#utility.yul\":2823:2829   */\n      dup6\n        /* \"#utility.yul\":2817:2830   */\n      mload\n        /* \"#utility.yul\":2854:2860   */\n      dup1\n        /* \"#utility.yul\":2846:2852   */\n      dup4\n        /* \"#utility.yul\":2839:2861   */\n      mstore\n        /* \"#utility.yul\":2892:2894   */\n      0x40\n        /* \"#utility.yul\":2881:2890   */\n      dup7\n        /* \"#utility.yul\":2877:2895   */\n      add\n        /* \"#utility.yul\":2870:2895   */\n      swap2\n      pop\n        /* \"#utility.yul\":2954:2956   */\n      0x40\n        /* \"#utility.yul\":2944:2950   */\n      dup2\n        /* \"#utility.yul\":2941:2942   */\n      0x05\n        /* \"#utility.yul\":2937:2951   */\n      shl\n        /* \"#utility.yul\":2926:2935   */\n      dup8\n        /* \"#utility.yul\":2922:2952   */\n      add\n        /* \"#utility.yul\":2918:2957   */\n      add\n        /* \"#utility.yul\":2904:2957   */\n      swap3\n      pop\n        /* \"#utility.yul\":2992:2994   */\n      dup4\n        /* \"#utility.yul\":2984:2990   */\n      dup8\n        /* \"#utility.yul\":2980:2995   */\n      add\n        /* \"#utility.yul\":3013:3014   */\n      0x00\n        /* \"#utility.yul\":3034:3035   */\n      dup1\n        /* \"#utility.yul\":3044:3678   */\n    tag_118:\n        /* \"#utility.yul\":3060:3066   */\n      dup4\n        /* \"#utility.yul\":3055:3058   */\n      dup2\n        /* \"#utility.yul\":3052:3067   */\n      lt\n        /* \"#utility.yul\":3044:3678   */\n      iszero\n      tag_120\n      jumpi\n        /* \"#utility.yul\":3129:3151   */\n      dup9\n      dup7\n      sub\n      not(0x3f)\n        /* \"#utility.yul\":3125:3161   */\n      add\n        /* \"#utility.yul\":3113:3162   */\n      dup6\n      mstore\n        /* \"#utility.yul\":3185:3198   */\n      dup3\n      mload\n        /* \"#utility.yul\":3227:3236   */\n      dup1\n      mload\n        /* \"#utility.yul\":3249:3273   */\n      dup1\n      dup9\n      mstore\n        /* \"#utility.yul\":3297:3298   */\n      dup4\n        /* \"#utility.yul\":3311:3468   */\n    tag_121:\n        /* \"#utility.yul\":3327:3335   */\n      dup2\n        /* \"#utility.yul\":3322:3325   */\n      dup2\n        /* \"#utility.yul\":3319:3336   */\n      lt\n        /* \"#utility.yul\":3311:3468   */\n      iszero\n      tag_123\n      jumpi\n        /* \"#utility.yul\":3435:3447   */\n      dup3\n      dup2\n      add\n        /* \"#utility.yul\":3431:3452   */\n      dup11\n      add\n        /* \"#utility.yul\":3425:3453   */\n      mload\n        /* \"#utility.yul\":3402:3418   */\n      dup10\n      dup3\n      add\n        /* \"#utility.yul\":3398:3423   */\n      dup12\n      add\n        /* \"#utility.yul\":3391:3454   */\n      mstore\n        /* \"#utility.yul\":3346:3358   */\n      dup10\n      add\n        /* \"#utility.yul\":3311:3468   */\n      jump(tag_121)\n    tag_123:\n      pop\n        /* \"#utility.yul\":3492:3513   */\n      dup8\n      dup2\n      add\n        /* \"#utility.yul\":3488:3518   */\n      dup10\n      add\n        /* \"#utility.yul\":3481:3522   */\n      dup5\n      swap1\n      mstore\n        /* \"#utility.yul\":3588:3590   */\n      0x1f\n        /* \"#utility.yul\":3565:3582   */\n      add\n      not(0x1f)\n        /* \"#utility.yul\":3561:3592   */\n      and\n        /* \"#utility.yul\":3549:3593   */\n      swap1\n      swap7\n      add\n        /* \"#utility.yul\":3545:3598   */\n      dup8\n      add\n      swap6\n      pop\n        /* \"#utility.yul\":3656:3668   */\n      swap4\n      dup7\n      add\n      swap4\n        /* \"#utility.yul\":3621:3636   */\n      swap2\n      dup7\n      add\n      swap2\n        /* \"#utility.yul\":3086:3087   */\n      0x01\n        /* \"#utility.yul\":3077:3088   */\n      add\n        /* \"#utility.yul\":3044:3678   */\n      jump(tag_118)\n    tag_120:\n      pop\n        /* \"#utility.yul\":3695:3701   */\n      swap4\n      swap9\n        /* \"#utility.yul\":2504:3707   */\n      swap8\n      pop\n      pop\n      pop\n      pop\n      pop\n      pop\n      pop\n      pop\n      jump\t// out\n        /* \"#utility.yul\":3712:3839   */\n    tag_92:\n        /* \"#utility.yul\":3773:3783   */\n      0x4e487b71\n        /* \"#utility.yul\":3768:3771   */\n      0xe0\n        /* \"#utility.yul\":3764:3784   */\n      shl\n        /* \"#utility.yul\":3761:3762   */\n      0x00\n        /* \"#utility.yul\":3754:3785   */\n      mstore\n        /* \"#utility.yul\":3804:3808   */\n      0x41\n        /* \"#utility.yul\":3801:3802   */\n      0x04\n        /* \"#utility.yul\":3794:3809   */\n      mstore\n        /* \"#utility.yul\":3828:3832   */\n      0x24\n        /* \"#utility.yul\":3825:3826   */\n      0x00\n        /* \"#utility.yul\":3818:3833   */\n      revert\n        /* \"#utility.yul\":3844:4224   */\n    tag_71:\n        /* \"#utility.yul\":3923:3924   */\n      0x01\n        /* \"#utility.yul\":3919:3931   */\n      dup2\n      dup2\n      shr\n      swap1\n        /* \"#utility.yul\":3966:3978   */\n      dup3\n      and\n      dup1\n        /* \"#utility.yul\":3987:4048   */\n      tag_126\n      jumpi\n        /* \"#utility.yul\":4041:4045   */\n      0x7f\n        /* \"#utility.yul\":4033:4039   */\n      dup3\n        /* \"#utility.yul\":4029:4046   */\n      and\n        /* \"#utility.yul\":4019:4046   */\n      swap2\n      pop\n        /* \"#utility.yul\":3987:4048   */\n    tag_126:\n        /* \"#utility.yul\":4094:4096   */\n      0x20\n        /* \"#utility.yul\":4086:4092   */\n      dup3\n        /* \"#utility.yul\":4083:4097   */\n      lt\n        /* \"#utility.yul\":4063:4081   */\n      dup2\n        /* \"#utility.yul\":4060:4098   */\n      sub\n        /* \"#utility.yul\":4057:4218   */\n      tag_127\n      jumpi\n        /* \"#utility.yul\":4140:4150   */\n      0x4e487b71\n        /* \"#utility.yul\":4135:4138   */\n      0xe0\n        /* \"#utility.yul\":4131:4151   */\n      shl\n        /* \"#utility.yul\":4128:4129   */\n      0x00\n        /* \"#utility.yul\":4121:4152   */\n      mstore\n        /* \"#utility.yul\":4175:4179   */\n      0x22\n        /* \"#utility.yul\":4172:4173   */\n      0x04\n        /* \"#utility.yul\":4165:4180   */\n      mstore\n        /* \"#utility.yul\":4203:4207   */\n      0x24\n        /* \"#utility.yul\":4200:4201   */\n      0x00\n        /* \"#utility.yul\":4193:4208   */\n      revert\n        /* \"#utility.yul\":4057:4218   */\n    tag_127:\n      pop\n        /* \"#utility.yul\":3844:4224   */\n      swap2\n      swap1\n      pop\n      jump\t// out\n        /* \"#utility.yul\":4355:4900   */\n    tag_94:\n        /* \"#utility.yul\":4457:4459   */\n      0x1f\n        /* \"#utility.yul\":4452:4455   */\n      dup3\n        /* \"#utility.yul\":4449:4460   */\n      gt\n        /* \"#utility.yul\":4446:4894   */\n      iszero\n      tag_130\n      jumpi\n        /* \"#utility.yul\":4493:4494   */\n      0x00\n        /* \"#utility.yul\":4518:4523   */\n      dup2\n        /* \"#utility.yul\":4514:4516   */\n      dup2\n        /* \"#utility.yul\":4507:4524   */\n      mstore\n        /* \"#utility.yul\":4563:4567   */\n      0x20\n        /* \"#utility.yul\":4559:4561   */\n      dup2\n        /* \"#utility.yul\":4549:4568   */\n      keccak256\n        /* \"#utility.yul\":4633:4635   */\n      0x1f\n        /* \"#utility.yul\":4621:4631   */\n      dup6\n        /* \"#utility.yul\":4617:4636   */\n      add\n        /* \"#utility.yul\":4614:4615   */\n      0x05\n        /* \"#utility.yul\":4610:4637   */\n      shr\n        /* \"#utility.yul\":4604:4608   */\n      dup2\n        /* \"#utility.yul\":4600:4638   */\n      add\n        /* \"#utility.yul\":4669:4673   */\n      0x20\n        /* \"#utility.yul\":4657:4667   */\n      dup7\n        /* \"#utility.yul\":4654:4674   */\n      lt\n        /* \"#utility.yul\":4651:4698   */\n      iszero\n      tag_131\n      jumpi\n      pop\n        /* \"#utility.yul\":4692:4696   */\n      dup1\n        /* \"#utility.yul\":4651:4698   */\n    tag_131:\n        /* \"#utility.yul\":4747:4749   */\n      0x1f\n        /* \"#utility.yul\":4742:4745   */\n      dup6\n        /* \"#utility.yul\":4738:4750   */\n      add\n        /* \"#utility.yul\":4735:4736   */\n      0x05\n        /* \"#utility.yul\":4731:4751   */\n      shr\n        /* \"#utility.yul\":4725:4729   */\n      dup3\n        /* \"#utility.yul\":4721:4752   */\n      add\n        /* \"#utility.yul\":4711:4752   */\n      swap2\n      pop\n        /* \"#utility.yul\":4802:4884   */\n    tag_132:\n        /* \"#utility.yul\":4820:4822   */\n      dup2\n        /* \"#utility.yul\":4813:4818   */\n      dup2\n        /* \"#utility.yul\":4810:4823   */\n      lt\n        /* \"#utility.yul\":4802:4884   */\n      iszero\n      tag_134\n      jumpi\n        /* \"#utility.yul\":4865:4882   */\n      dup3\n      dup2\n      sstore\n        /* \"#utility.yul\":4846:4847   */\n      0x01\n        /* \"#utility.yul\":4835:4848   */\n      add\n        /* \"#utility.yul\":4802:4884   */\n      jump(tag_132)\n    tag_134:\n        /* \"#utility.yul\":4806:4809   */\n      pop\n      pop\n      pop\n        /* \"#utility.yul\":4446:4894   */\n    tag_130:\n        /* \"#utility.yul\":4355:4900   */\n      pop\n      pop\n      pop\n      jump\t// out\n        /* \"#utility.yul\":5076:6282   */\n    tag_39:\n        /* \"#utility.yul\":5200:5218   */\n      0xffffffffffffffff\n        /* \"#utility.yul\":5195:5198   */\n      dup4\n        /* \"#utility.yul\":5192:5219   */\n      gt\n        /* \"#utility.yul\":5189:5242   */\n      iszero\n      tag_138\n      jumpi\n        /* \"#utility.yul\":5222:5240   */\n      tag_138\n      tag_92\n      jump\t// in\n    tag_138:\n        /* \"#utility.yul\":5251:5345   */\n      tag_139\n        /* \"#utility.yul\":5341:5344   */\n      dup4\n        /* \"#utility.yul\":5301:5339   */\n      tag_140\n        /* \"#utility.yul\":5333:5337   */\n      dup4\n        /* \"#utility.yul\":5327:5338   */\n      sload\n        /* \"#utility.yul\":5301:5339   */\n      tag_71\n      jump\t// in\n    tag_140:\n        /* \"#utility.yul\":5295:5299   */\n      dup4\n        /* \"#utility.yul\":5251:5345   */\n      tag_94\n      jump\t// in\n    tag_139:\n        /* \"#utility.yul\":5371:5372   */\n      0x00\n        /* \"#utility.yul\":5396:5398   */\n      0x1f\n        /* \"#utility.yul\":5391:5394   */\n      dup5\n        /* \"#utility.yul\":5388:5399   */\n      gt\n        /* \"#utility.yul\":5413:5414   */\n      0x01\n        /* \"#utility.yul\":5408:6024   */\n      dup2\n      eq\n      tag_142\n      jumpi\n        /* \"#utility.yul\":6068:6069   */\n      0x00\n        /* \"#utility.yul\":6085:6088   */\n      dup6\n        /* \"#utility.yul\":6082:6175   */\n      iszero\n      tag_143\n      jumpi\n      pop\n        /* \"#utility.yul\":6141:6160   */\n      dup4\n      dup3\n      add\n        /* \"#utility.yul\":6128:6161   */\n      calldataload\n        /* \"#utility.yul\":6082:6175   */\n    tag_143:\n      not(0x00)\n        /* \"#utility.yul\":5033:5034   */\n      0x03\n        /* \"#utility.yul\":5029:5040   */\n      dup8\n      swap1\n      shl\n        /* \"#utility.yul\":5025:5049   */\n      shr\n        /* \"#utility.yul\":5021:5050   */\n      not\n        /* \"#utility.yul\":5011:5051   */\n      and\n        /* \"#utility.yul\":5057:5058   */\n      0x01\n        /* \"#utility.yul\":5053:5064   */\n      dup7\n      swap1\n      shl\n        /* \"#utility.yul\":5008:5065   */\n      or\n        /* \"#utility.yul\":6188:6266   */\n      dup4\n      sstore\n        /* \"#utility.yul\":5381:6276   */\n      jump(tag_141)\n        /* \"#utility.yul\":5408:6024   */\n    tag_142:\n        /* \"#utility.yul\":4302:4303   */\n      0x00\n        /* \"#utility.yul\":4295:4309   */\n      dup4\n      dup2\n      mstore\n        /* \"#utility.yul\":4339:4343   */\n      0x20\n        /* \"#utility.yul\":4326:4344   */\n      swap1\n      keccak256\n      not(0x1f)\n        /* \"#utility.yul\":5444:5461   */\n      dup7\n      and\n      swap1\n        /* \"#utility.yul\":5545:5554   */\n      dup4\n        /* \"#utility.yul\":5567:5796   */\n    tag_146:\n        /* \"#utility.yul\":5581:5588   */\n      dup3\n        /* \"#utility.yul\":5578:5579   */\n      dup2\n        /* \"#utility.yul\":5575:5589   */\n      lt\n        /* \"#utility.yul\":5567:5796   */\n      iszero\n      tag_148\n      jumpi\n        /* \"#utility.yul\":5670:5689   */\n      dup7\n      dup6\n      add\n        /* \"#utility.yul\":5657:5690   */\n      calldataload\n        /* \"#utility.yul\":5642:5691   */\n      dup3\n      sstore\n        /* \"#utility.yul\":5777:5781   */\n      0x20\n        /* \"#utility.yul\":5762:5782   */\n      swap5\n      dup6\n      add\n      swap5\n        /* \"#utility.yul\":5730:5731   */\n      0x01\n        /* \"#utility.yul\":5718:5732   */\n      swap1\n      swap3\n      add\n      swap2\n        /* \"#utility.yul\":5597:5609   */\n      add\n        /* \"#utility.yul\":5567:5796   */\n      jump(tag_146)\n    tag_148:\n        /* \"#utility.yul\":5571:5574   */\n      pop\n        /* \"#utility.yul\":5824:5827   */\n      dup7\n        /* \"#utility.yul\":5815:5822   */\n      dup3\n        /* \"#utility.yul\":5812:5828   */\n      lt\n        /* \"#utility.yul\":5809:5968   */\n      iszero\n      tag_149\n      jumpi\n        /* \"#utility.yul\":5948:5949   */\n      0x00\n        /* \"#utility.yul\":5944:5950   */\n      not\n        /* \"#utility.yul\":5938:5941   */\n      0xf8\n        /* \"#utility.yul\":5932:5935   */\n      dup9\n        /* \"#utility.yul\":5929:5930   */\n      0x03\n        /* \"#utility.yul\":5925:5936   */\n      shl\n        /* \"#utility.yul\":5921:5942   */\n      and\n        /* \"#utility.yul\":5917:5951   */\n      shr\n        /* \"#utility.yul\":5913:5952   */\n      not\n        /* \"#utility.yul\":5900:5909   */\n      dup5\n        /* \"#utility.yul\":5895:5898   */\n      dup8\n        /* \"#utility.yul\":5891:5910   */\n      add\n        /* \"#utility.yul\":5878:5911   */\n      calldataload\n        /* \"#utility.yul\":5874:5953   */\n      and\n        /* \"#utility.yul\":5866:5872   */\n      dup2\n        /* \"#utility.yul\":5859:5954   */\n      sstore\n        /* \"#utility.yul\":5809:5968   */\n    tag_149:\n      pop\n      pop\n        /* \"#utility.yul\":6011:6012   */\n      0x01\n        /* \"#utility.yul\":6005:6008   */\n      dup6\n        /* \"#utility.yul\":6002:6003   */\n      0x01\n        /* \"#utility.yul\":5998:6009   */\n      shl\n        /* \"#utility.yul\":5994:6013   */\n      add\n        /* \"#utility.yul\":5988:5992   */\n      dup4\n        /* \"#utility.yul\":5981:6014   */\n      sstore\n        /* \"#utility.yul\":5381:6276   */\n    tag_141:\n      pop\n      pop\n        /* \"#utility.yul\":5076:6282   */\n      pop\n      pop\n      pop\n      jump\t// out\n        /* \"#utility.yul\":6287:6414   */\n    tag_48:\n        /* \"#utility.yul\":6348:6358   */\n      0x4e487b71\n        /* \"#utility.yul\":6343:6346   */\n      0xe0\n        /* \"#utility.yul\":6339:6359   */\n      shl\n        /* \"#utility.yul\":6336:6337   */\n      0x00\n        /* \"#utility.yul\":6329:6360   */\n      mstore\n        /* \"#utility.yul\":6379:6383   */\n      0x32\n        /* \"#utility.yul\":6376:6377   */\n      0x04\n        /* \"#utility.yul\":6369:6384   */\n      mstore\n        /* \"#utility.yul\":6403:6407   */\n      0x24\n        /* \"#utility.yul\":6400:6401   */\n      0x00\n        /* \"#utility.yul\":6393:6408   */\n      revert\n        /* \"#utility.yul\":6419:6651   */\n    tag_55:\n        /* \"#utility.yul\":6458:6461   */\n      0x00\n        /* \"#utility.yul\":6479:6496   */\n      0x01\n      dup3\n      add\n        /* \"#utility.yul\":6476:6616   */\n      tag_152\n      jumpi\n        /* \"#utility.yul\":6538:6548   */\n      0x4e487b71\n        /* \"#utility.yul\":6533:6536   */\n      0xe0\n        /* \"#utility.yul\":6529:6549   */\n      shl\n        /* \"#utility.yul\":6526:6527   */\n      0x00\n        /* \"#utility.yul\":6519:6550   */\n      mstore\n        /* \"#utility.yul\":6573:6577   */\n      0x11\n        /* \"#utility.yul\":6570:6571   */\n      0x04\n        /* \"#utility.yul\":6563:6578   */\n      mstore\n        /* \"#utility.yul\":6601:6605   */\n      0x24\n        /* \"#utility.yul\":6598:6599   */\n      0x00\n        /* \"#utility.yul\":6591:6606   */\n      revert\n        /* \"#utility.yul\":6476:6616   */\n    tag_152:\n      pop\n        /* \"#utility.yul\":6643:6644   */\n      0x01\n        /* \"#utility.yul\":6632:6645   */\n      add\n      swap1\n        /* \"#utility.yul\":6419:6651   */\n      jump\t// out\n\n    auxdata: 0xa26469706673582212208808babc72338c9312e160f703109a96678b0944e81e1348896706d8d0f4eb0164736f6c63430008110033\n}\n",
    "bytecode": {
      "linkReferences": {},
      "object": "608060405234801561001057600080fd5b50610a0d806100206000396000f3fe608060405234801561001057600080fd5b50600436106100725760003560e01c8063bc8bef8111610050578063bc8bef81146100d6578063eb39113f146100eb578063ff9913e81461010b57600080fd5b806336d6da551461007757806370c2b4191461008c578063a9ed9cb8146100c3575b600080fd5b61008a61008536600461067f565b61011e565b005b61009f61009a366004610702565b610155565b604080516001600160a01b0390931683529015156020830152015b60405180910390f35b61008a6100d136600461072c565b610198565b6100de61027f565b6040516100ba919061074e565b6100fe6100f936600461072c565b610302565b6040516100ba91906107a8565b61008a61011936600461072c565b6104b7565b6001600160a01b0383166000908152602081815260408220805460018101825590835291200161014f8284836108d9565b50505050565b6002602052816000526040600020818154811061017157600080fd5b6000918252602090912001546001600160a01b0381169250600160a01b900460ff16905082565b3360009081526001602090815260408083206001600160a01b03851684529091528120805460ff191690555b3360009081526002602052604090205481101561027b5733600090815260026020526040902080546001600160a01b0384169190839081106102085761020861099a565b6000918252602090912001546001600160a01b031603610269573360009081526002602052604081208054839081106102435761024361099a565b60009182526020909120018054911515600160a01b0260ff60a01b199092169190911790555b80610273816109b0565b9150506101c4565b5050565b336000908152600260209081526040808320805482518185028101850190935280835260609492939192909184015b828210156102f957600084815260209081902060408051808201909152908401546001600160a01b0381168252600160a01b900460ff161515818301528252600190920191016102ae565b50505050905090565b60606001600160a01b03821633148061033e57506001600160a01b038216600090815260016020908152604080832033845290915290205460ff165b61038e5760405162461bcd60e51b815260206004820152601560248201527f596f7520646f6e27742068617665206163636573730000000000000000000000604482015260640160405180910390fd5b6040516001815233906001600160a01b038416907f0a1f0529974b0cd6003000145b8ee2d2f8fba810243faaa4ce1c0e861c1bf6339060200160405180910390a36001600160a01b03821660009081526020818152604080832080548251818502810185019093528083529193909284015b828210156104ac57838290600052602060002001805461041f90610850565b80601f016020809104026020016040519081016040528092919081815260200182805461044b90610850565b80156104985780601f1061046d57610100808354040283529160200191610498565b820191906000526020600020905b81548152906001019060200180831161047b57829003601f168201915b505050505081526020019060010190610400565b505050509050919050565b3360008181526001602081815260408084206001600160a01b038716808652908352818520805460ff191685179055948452600382528084209484529390529190205460ff16151590036105c35760005b3360009081526002602052604090205481101561027b5733600090815260026020526040902080546001600160a01b03841691908390811061054c5761054c61099a565b6000918252602090912001546001600160a01b0316036105b1573360009081526002602052604090208054600191908390811061058b5761058b61099a565b60009182526020909120018054911515600160a01b0260ff60a01b199092169190911790555b806105bb816109b0565b915050610508565b336000818152600260209081526040808320815180830183526001600160a01b03878116808352600183870181815285548083018755958952878920945194909501805495511515600160a01b027fffffffffffffffffffffff0000000000000000000000000000000000000000009096169490931693909317939093179055948452600383528184209084529091529020805460ff1916909117905550565b80356001600160a01b038116811461067a57600080fd5b919050565b60008060006040848603121561069457600080fd5b61069d84610663565b9250602084013567ffffffffffffffff808211156106ba57600080fd5b818601915086601f8301126106ce57600080fd5b8135818111156106dd57600080fd5b8760208285010111156106ef57600080fd5b6020830194508093505050509250925092565b6000806040838503121561071557600080fd5b61071e83610663565b946020939093013593505050565b60006020828403121561073e57600080fd5b61074782610663565b9392505050565b602080825282518282018190526000919060409081850190868401855b8281101561079b57815180516001600160a01b03168552860151151586850152928401929085019060010161076b565b5091979650505050505050565b6000602080830181845280855180835260408601915060408160051b87010192508387016000805b8381101561082c57888603603f1901855282518051808852835b81811015610805578281018a01518982018b015289016107ea565b508781018901849052601f01601f19169096018701955093860193918601916001016107d0565b509398975050505050505050565b634e487b7160e01b600052604160045260246000fd5b600181811c9082168061086457607f821691505b60208210810361088457634e487b7160e01b600052602260045260246000fd5b50919050565b601f8211156108d457600081815260208120601f850160051c810160208610156108b15750805b601f850160051c820191505b818110156108d0578281556001016108bd565b5050505b505050565b67ffffffffffffffff8311156108f1576108f161083a565b610905836108ff8354610850565b8361088a565b6000601f84116001811461093957600085156109215750838201355b600019600387901b1c1916600186901b178355610993565b600083815260209020601f19861690835b8281101561096a578685013582556020948501946001909201910161094a565b50868210156109875760001960f88860031b161c19848701351681555b505060018560011b0183555b5050505050565b634e487b7160e01b600052603260045260246000fd5b6000600182016109d057634e487b7160e01b600052601160045260246000fd5b506001019056fea26469706673582212208808babc72338c9312e160f703109a96678b0944e81e1348896706d8d0f4eb0164736f6c63430008110033",
      "opcodes": "PUSH1 0x80 PUSH1 0x40 MSTORE CALLVALUE DUP1 ISZERO PUSH2 0x10 JUMPI PUSH1 0x0 DUP1 REVERT JUMPDEST POP PUSH2 0xA0D DUP1 PUSH2 0x20 PUSH1 0x0 CODECOPY PUSH1 0x0 RETURN INVALID PUSH1 0x80 PUSH1 0x40 MSTORE CALLVALUE DUP1 ISZERO PUSH2 0x10 JUMPI PUSH1 0x0 DUP1 REVERT JUMPDEST POP PUSH1 0x4 CALLDATASIZE LT PUSH2 0x72 JUMPI PUSH1 0x0 CALLDATALOAD PUSH1 0xE0 SHR DUP1 PUSH4 0xBC8BEF81 GT PUSH2 0x50 JUMPI DUP1 PUSH4 0xBC8BEF81 EQ PUSH2 0xD6 JUMPI DUP1 PUSH4 0xEB39113F EQ PUSH2 0xEB JUMPI DUP1 PUSH4 0xFF9913E8 EQ PUSH2 0x10B JUMPI PUSH1 0x0 DUP1 REVERT JUMPDEST DUP1 PUSH4 0x36D6DA55 EQ PUSH2 0x77 JUMPI DUP1 PUSH4 0x70C2B419 EQ PUSH2 0x8C JUMPI DUP1 PUSH4 0xA9ED9CB8 EQ PUSH2 0xC3 JUMPI JUMPDEST PUSH1 0x0 DUP1 REVERT JUMPDEST PUSH2 0x8A PUSH2 0x85 CALLDATASIZE PUSH1 0x4 PUSH2 0x67F JUMP JUMPDEST PUSH2 0x11E JUMP JUMPDEST STOP JUMPDEST PUSH2 0x9F PUSH2 0x9A CALLDATASIZE PUSH1 0x4 PUSH2 0x702 JUMP JUMPDEST PUSH2 0x155 JUMP JUMPDEST PUSH1 0x40 DUP1 MLOAD PUSH1 0x1 PUSH1 0x1 PUSH1 0xA0 SHL SUB SWAP1 SWAP4 AND DUP4 MSTORE SWAP1 ISZERO ISZERO PUSH1 0x20 DUP4 ADD MSTORE ADD JUMPDEST PUSH1 0x40 MLOAD DUP1 SWAP2 SUB SWAP1 RETURN JUMPDEST PUSH2 0x8A PUSH2 0xD1 CALLDATASIZE PUSH1 0x4 PUSH2 0x72C JUMP JUMPDEST PUSH2 0x198 JUMP JUMPDEST PUSH2 0xDE PUSH2 0x27F JUMP JUMPDEST PUSH1 0x40 MLOAD PUSH2 0xBA SWAP2 SWAP1 PUSH2 0x74E JUMP JUMPDEST PUSH2 0xFE PUSH2 0xF9 CALLDATASIZE PUSH1 0x4 PUSH2 0x72C JUMP JUMPDEST PUSH2 0x302 JUMP JUMPDEST PUSH1 0x40 MLOAD PUSH2 0xBA SWAP2 SWAP1 PUSH2 0x7A8 JUMP JUMPDEST PUSH2 0x8A PUSH2 0x119 CALLDATASIZE PUSH1 0x4 PUSH2 0x72C JUMP JUMPDEST PUSH2 0x4B7 JUMP JUMPDEST PUSH1 0x1 PUSH1 0x1 PUSH1 0xA0 SHL SUB DUP4 AND PUSH1 0x0 SWAP1 DUP2 MSTORE PUSH1 0x20 DUP2 DUP2 MSTORE PUSH1 0x40 DUP3 KECCAK256 DUP1 SLOAD PUSH1 0x1 DUP2 ADD DUP3 SSTORE SWAP1 DUP4 MSTORE SWAP2 KECCAK256 ADD PUSH2 0x14F DUP3 DUP5 DUP4 PUSH2 0x8D9 JUMP JUMPDEST POP POP POP POP JUMP JUMPDEST PUSH1 0x2 PUSH1 0x20 MSTORE DUP2 PUSH1 0x0 MSTORE PUSH1 0x40 PUSH1 0x0 KECCAK256 DUP2 DUP2 SLOAD DUP2 LT PUSH2 0x171 JUMPI PUSH1 0x0 DUP1 REVERT JUMPDEST PUSH1 0x0 SWAP2 DUP3 MSTORE PUSH1 0x20 SWAP1 SWAP2 KECCAK256 ADD SLOAD PUSH1 0x1 PUSH1 0x1 PUSH1 0xA0 SHL SUB DUP2 AND SWAP3 POP PUSH1 0x1 PUSH1 0xA0 SHL SWAP1 DIV PUSH1 0xFF AND SWAP1 POP DUP3 JUMP JUMPDEST CALLER PUSH1 0x0 SWAP1 DUP2 MSTORE PUSH1 0x1 PUSH1 0x20 SWAP1 DUP2 MSTORE PUSH1 0x40 DUP1 DUP4 KECCAK256 PUSH1 0x1 PUSH1 0x1 PUSH1 0xA0 SHL SUB DUP6 AND DUP5 MSTORE SWAP1 SWAP2 MSTORE DUP2 KECCAK256 DUP1 SLOAD PUSH1 0xFF NOT AND SWAP1 SSTORE JUMPDEST CALLER PUSH1 0x0 SWAP1 DUP2 MSTORE PUSH1 0x2 PUSH1 0x20 MSTORE PUSH1 0x40 SWAP1 KECCAK256 SLOAD DUP2 LT ISZERO PUSH2 0x27B JUMPI CALLER PUSH1 0x0 SWAP1 DUP2 MSTORE PUSH1 0x2 PUSH1 0x20 MSTORE PUSH1 0x40 SWAP1 KECCAK256 DUP1 SLOAD PUSH1 0x1 PUSH1 0x1 PUSH1 0xA0 SHL SUB DUP5 AND SWAP2 SWAP1 DUP4 SWAP1 DUP2 LT PUSH2 0x208 JUMPI PUSH2 0x208 PUSH2 0x99A JUMP JUMPDEST PUSH1 0x0 SWAP2 DUP3 MSTORE PUSH1 0x20 SWAP1 SWAP2 KECCAK256 ADD SLOAD PUSH1 0x1 PUSH1 0x1 PUSH1 0xA0 SHL SUB AND SUB PUSH2 0x269 JUMPI CALLER PUSH1 0x0 SWAP1 DUP2 MSTORE PUSH1 0x2 PUSH1 0x20 MSTORE PUSH1 0x40 DUP2 KECCAK256 DUP1 SLOAD DUP4 SWAP1 DUP2 LT PUSH2 0x243 JUMPI PUSH2 0x243 PUSH2 0x99A JUMP JUMPDEST PUSH1 0x0 SWAP2 DUP3 MSTORE PUSH1 0x20 SWAP1 SWAP2 KECCAK256 ADD DUP1 SLOAD SWAP2 ISZERO ISZERO PUSH1 0x1 PUSH1 0xA0 SHL MUL PUSH1 0xFF PUSH1 0xA0 SHL NOT SWAP1 SWAP3 AND SWAP2 SWAP1 SWAP2 OR SWAP1 SSTORE JUMPDEST DUP1 PUSH2 0x273 DUP2 PUSH2 0x9B0 JUMP JUMPDEST SWAP2 POP POP PUSH2 0x1C4 JUMP JUMPDEST POP POP JUMP JUMPDEST CALLER PUSH1 0x0 SWAP1 DUP2 MSTORE PUSH1 0x2 PUSH1 0x20 SWAP1 DUP2 MSTORE PUSH1 0x40 DUP1 DUP4 KECCAK256 DUP1 SLOAD DUP3 MLOAD DUP2 DUP6 MUL DUP2 ADD DUP6 ADD SWAP1 SWAP4 MSTORE DUP1 DUP4 MSTORE PUSH1 0x60 SWAP5 SWAP3 SWAP4 SWAP2 SWAP3 SWAP1 SWAP2 DUP5 ADD JUMPDEST DUP3 DUP3 LT ISZERO PUSH2 0x2F9 JUMPI PUSH1 0x0 DUP5 DUP2 MSTORE PUSH1 0x20 SWAP1 DUP2 SWAP1 KECCAK256 PUSH1 0x40 DUP1 MLOAD DUP1 DUP3 ADD SWAP1 SWAP2 MSTORE SWAP1 DUP5 ADD SLOAD PUSH1 0x1 PUSH1 0x1 PUSH1 0xA0 SHL SUB DUP2 AND DUP3 MSTORE PUSH1 0x1 PUSH1 0xA0 SHL SWAP1 DIV PUSH1 0xFF AND ISZERO ISZERO DUP2 DUP4 ADD MSTORE DUP3 MSTORE PUSH1 0x1 SWAP1 SWAP3 ADD SWAP2 ADD PUSH2 0x2AE JUMP JUMPDEST POP POP POP POP SWAP1 POP SWAP1 JUMP JUMPDEST PUSH1 0x60 PUSH1 0x1 PUSH1 0x1 PUSH1 0xA0 SHL SUB DUP3 AND CALLER EQ DUP1 PUSH2 0x33E JUMPI POP PUSH1 0x1 PUSH1 0x1 PUSH1 0xA0 SHL SUB DUP3 AND PUSH1 0x0 SWAP1 DUP2 MSTORE PUSH1 0x1 PUSH1 0x20 SWAP1 DUP2 MSTORE PUSH1 0x40 DUP1 DUP4 KECCAK256 CALLER DUP5 MSTORE SWAP1 SWAP2 MSTORE SWAP1 KECCAK256 SLOAD PUSH1 0xFF AND JUMPDEST PUSH2 0x38E JUMPI PUSH1 0x40 MLOAD PUSH3 0x461BCD PUSH1 0xE5 SHL DUP2 MSTORE PUSH1 0x20 PUSH1 0x4 DUP3 ADD MSTORE PUSH1 0x15 PUSH1 0x24 DUP3 ADD MSTORE PUSH32 0x596F7520646F6E27742068617665206163636573730000000000000000000000 PUSH1 0x44 DUP3 ADD MSTORE PUSH1 0x64 ADD PUSH1 0x40 MLOAD DUP1 SWAP2 SUB SWAP1 REVERT JUMPDEST PUSH1 0x40 MLOAD PUSH1 0x1 DUP2 MSTORE CALLER SWAP1 PUSH1 0x1 PUSH1 0x1 PUSH1 0xA0 SHL SUB DUP5 AND SWAP1 PUSH32 0xA1F0529974B0CD6003000145B8EE2D2F8FBA810243FAAA4CE1C0E861C1BF633 SWAP1 PUSH1 0x20 ADD PUSH1 0x40 MLOAD DUP1 SWAP2 SUB SWAP1 LOG3 PUSH1 0x1 PUSH1 0x1 PUSH1 0xA0 SHL SUB DUP3 AND PUSH1 0x0 SWAP1 DUP2 MSTORE PUSH1 0x20 DUP2 DUP2 MSTORE PUSH1 0x40 DUP1 DUP4 KECCAK256 DUP1 SLOAD DUP3 MLOAD DUP2 DUP6 MUL DUP2 ADD DUP6 ADD SWAP1 SWAP4 MSTORE DUP1 DUP4 MSTORE SWAP2 SWAP4 SWAP1 SWAP3 DUP5 ADD JUMPDEST DUP3 DUP3 LT ISZERO PUSH2 0x4AC JUMPI DUP4 DUP3 SWAP1 PUSH1 0x0 MSTORE PUSH1 0x20 PUSH1 0x0 KECCAK256 ADD DUP1 SLOAD PUSH2 0x41F SWAP1 PUSH2 0x850 JUMP JUMPDEST DUP1 PUSH1 0x1F ADD PUSH1 0x20 DUP1 SWAP2 DIV MUL PUSH1 0x20 ADD PUSH1 0x40 MLOAD SWAP1 DUP2 ADD PUSH1 0x40 MSTORE DUP1 SWAP3 SWAP2 SWAP1 DUP2 DUP2 MSTORE PUSH1 0x20 ADD DUP3 DUP1 SLOAD PUSH2 0x44B SWAP1 PUSH2 0x850 JUMP JUMPDEST DUP1 ISZERO PUSH2 0x498 JUMPI DUP1 PUSH1 0x1F LT PUSH2 0x46D JUMPI PUSH2 0x100 DUP1 DUP4 SLOAD DIV MUL DUP4 MSTORE SWAP2 PUSH1 0x20 ADD SWAP2 PUSH2 0x498 JUMP JUMPDEST DUP3 ADD SWAP2 SWAP1 PUSH1 0x0 MSTORE PUSH1 0x20 PUSH1 0x0 KECCAK256 SWAP1 JUMPDEST DUP2 SLOAD DUP2 MSTORE SWAP1 PUSH1 0x1 ADD SWAP1 PUSH1 0x20 ADD DUP1 DUP4 GT PUSH2 0x47B JUMPI DUP3 SWAP1 SUB PUSH1 0x1F AND DUP3 ADD SWAP2 JUMPDEST POP POP POP POP POP DUP2 MSTORE PUSH1 0x20 ADD SWAP1 PUSH1 0x1 ADD SWAP1 PUSH2 0x400 JUMP JUMPDEST POP POP POP POP SWAP1 POP SWAP2 SWAP1 POP JUMP JUMPDEST CALLER PUSH1 0x0 DUP2 DUP2 MSTORE PUSH1 0x1 PUSH1 0x20 DUP2 DUP2 MSTORE PUSH1 0x40 DUP1 DUP5 KECCAK256 PUSH1 0x1 PUSH1 0x1 PUSH1 0xA0 SHL SUB DUP8 AND DUP1 DUP7 MSTORE SWAP1 DUP4 MSTORE DUP2 DUP6 KECCAK256 DUP1 SLOAD PUSH1 0xFF NOT AND DUP6 OR SWAP1 SSTORE SWAP5 DUP5 MSTORE PUSH1 0x3 DUP3 MSTORE DUP1 DUP5 KECCAK256 SWAP5 DUP5 MSTORE SWAP4 SWAP1 MSTORE SWAP2 SWAP1 KECCAK256 SLOAD PUSH1 0xFF AND ISZERO ISZERO SWAP1 SUB PUSH2 0x5C3 JUMPI PUSH1 0x0 JUMPDEST CALLER PUSH1 0x0 SWAP1 DUP2 MSTORE PUSH1 0x2 PUSH1 0x20 MSTORE PUSH1 0x40 SWAP1 KECCAK256 SLOAD DUP2 LT ISZERO PUSH2 0x27B JUMPI CALLER PUSH1 0x0 SWAP1 DUP2 MSTORE PUSH1 0x2 PUSH1 0x20 MSTORE PUSH1 0x40 SWAP1 KECCAK256 DUP1 SLOAD PUSH1 0x1 PUSH1 0x1 PUSH1 0xA0 SHL SUB DUP5 AND SWAP2 SWAP1 DUP4 SWAP1 DUP2 LT PUSH2 0x54C JUMPI PUSH2 0x54C PUSH2 0x99A JUMP JUMPDEST PUSH1 0x0 SWAP2 DUP3 MSTORE PUSH1 0x20 SWAP1 SWAP2 KECCAK256 ADD SLOAD PUSH1 0x1 PUSH1 0x1 PUSH1 0xA0 SHL SUB AND SUB PUSH2 0x5B1 JUMPI CALLER PUSH1 0x0 SWAP1 DUP2 MSTORE PUSH1 0x2 PUSH1 0x20 MSTORE PUSH1 0x40 SWAP1 KECCAK256 DUP1 SLOAD PUSH1 0x1 SWAP2 SWAP1 DUP4 SWAP1 DUP2 LT PUSH2 0x58B JUMPI PUSH2 0x58B PUSH2 0x99A JUMP JUMPDEST PUSH1 0x0 SWAP2 DUP3 MSTORE PUSH1 0x20 SWAP1 SWAP2 KECCAK256 ADD DUP1 SLOAD SWAP2 ISZERO ISZERO PUSH1 0x1 PUSH1 0xA0 SHL MUL PUSH1 0xFF PUSH1 0xA0 SHL NOT SWAP1 SWAP3 AND SWAP2 SWAP1 SWAP2 OR SWAP1 SSTORE JUMPDEST DUP1 PUSH2 0x5BB DUP2 PUSH2 0x9B0 JUMP JUMPDEST SWAP2 POP POP PUSH2 0x508 JUMP JUMPDEST CALLER PUSH1 0x0 DUP2 DUP2 MSTORE PUSH1 0x2 PUSH1 0x20 SWAP1 DUP2 MSTORE PUSH1 0x40 DUP1 DUP4 KECCAK256 DUP2 MLOAD DUP1 DUP4 ADD DUP4 MSTORE PUSH1 0x1 PUSH1 0x1 PUSH1 0xA0 SHL SUB DUP8 DUP2 AND DUP1 DUP4 MSTORE PUSH1 0x1 DUP4 DUP8 ADD DUP2 DUP2 MSTORE DUP6 SLOAD DUP1 DUP4 ADD DUP8 SSTORE SWAP6 DUP10 MSTORE DUP8 DUP10 KECCAK256 SWAP5 MLOAD SWAP5 SWAP1 SWAP6 ADD DUP1 SLOAD SWAP6 MLOAD ISZERO ISZERO PUSH1 0x1 PUSH1 0xA0 SHL MUL PUSH32 0xFFFFFFFFFFFFFFFFFFFFFF000000000000000000000000000000000000000000 SWAP1 SWAP7 AND SWAP5 SWAP1 SWAP4 AND SWAP4 SWAP1 SWAP4 OR SWAP4 SWAP1 SWAP4 OR SWAP1 SSTORE SWAP5 DUP5 MSTORE PUSH1 0x3 DUP4 MSTORE DUP2 DUP5 KECCAK256 SWAP1 DUP5 MSTORE SWAP1 SWAP2 MSTORE SWAP1 KECCAK256 DUP1 SLOAD PUSH1 0xFF NOT AND SWAP1 SWAP2 OR SWAP1 SSTORE POP JUMP JUMPDEST DUP1 CALLDATALOAD PUSH1 0x1 PUSH1 0x1 PUSH1 0xA0 SHL SUB DUP2 AND DUP2 EQ PUSH2 0x67A JUMPI PUSH1 0x0 DUP1 REVERT JUMPDEST SWAP2 SWAP1 POP JUMP JUMPDEST PUSH1 0x0 DUP1 PUSH1 0x0 PUSH1 0x40 DUP5 DUP7 SUB SLT ISZERO PUSH2 0x694 JUMPI PUSH1 0x0 DUP1 REVERT JUMPDEST PUSH2 0x69D DUP5 PUSH2 0x663 JUMP JUMPDEST SWAP3 POP PUSH1 0x20 DUP5 ADD CALLDATALOAD PUSH8 0xFFFFFFFFFFFFFFFF DUP1 DUP3 GT ISZERO PUSH2 0x6BA JUMPI PUSH1 0x0 DUP1 REVERT JUMPDEST DUP2 DUP7 ADD SWAP2 POP DUP7 PUSH1 0x1F DUP4 ADD SLT PUSH2 0x6CE JUMPI PUSH1 0x0 DUP1 REVERT JUMPDEST DUP2 CALLDATALOAD DUP2 DUP2 GT ISZERO PUSH2 0x6DD JUMPI PUSH1 0x0 DUP1 REVERT JUMPDEST DUP8 PUSH1 0x20 DUP3 DUP6 ADD ADD GT ISZERO PUSH2 0x6EF JUMPI PUSH1 0x0 DUP1 REVERT JUMPDEST PUSH1 0x20 DUP4 ADD SWAP5 POP DUP1 SWAP4 POP POP POP POP SWAP3 POP SWAP3 POP SWAP3 JUMP JUMPDEST PUSH1 0x0 DUP1 PUSH1 0x40 DUP4 DUP6 SUB SLT ISZERO PUSH2 0x715 JUMPI PUSH1 0x0 DUP1 REVERT JUMPDEST PUSH2 0x71E DUP4 PUSH2 0x663 JUMP JUMPDEST SWAP5 PUSH1 0x20 SWAP4 SWAP1 SWAP4 ADD CALLDATALOAD SWAP4 POP POP POP JUMP JUMPDEST PUSH1 0x0 PUSH1 0x20 DUP3 DUP5 SUB SLT ISZERO PUSH2 0x73E JUMPI PUSH1 0x0 DUP1 REVERT JUMPDEST PUSH2 0x747 DUP3 PUSH2 0x663 JUMP JUMPDEST SWAP4 SWAP3 POP POP POP JUMP JUMPDEST PUSH1 0x20 DUP1 DUP3 MSTORE DUP3 MLOAD DUP3 DUP3 ADD DUP2 SWAP1 MSTORE PUSH1 0x0 SWAP2 SWAP1 PUSH1 0x40 SWAP1 DUP2 DUP6 ADD SWAP1 DUP7 DUP5 ADD DUP6 JUMPDEST DUP3 DUP2 LT ISZERO PUSH2 0x79B JUMPI DUP2 MLOAD DUP1 MLOAD PUSH1 0x1 PUSH1 0x1 PUSH1 0xA0 SHL SUB AND DUP6 MSTORE DUP7 ADD MLOAD ISZERO ISZERO DUP7 DUP6 ADD MSTORE SWAP3 DUP5 ADD SWAP3 SWAP1 DUP6 ADD SWAP1 PUSH1 0x1 ADD PUSH2 0x76B JUMP JUMPDEST POP SWAP2 SWAP8 SWAP7 POP POP POP POP POP POP POP JUMP JUMPDEST PUSH1 0x0 PUSH1 0x20 DUP1 DUP4 ADD DUP2 DUP5 MSTORE DUP1 DUP6 MLOAD DUP1 DUP4 MSTORE PUSH1 0x40 DUP7 ADD SWAP2 POP PUSH1 0x40 DUP2 PUSH1 0x5 SHL DUP8 ADD ADD SWAP3 POP DUP4 DUP8 ADD PUSH1 0x0 DUP1 JUMPDEST DUP4 DUP2 LT ISZERO PUSH2 0x82C JUMPI DUP9 DUP7 SUB PUSH1 0x3F NOT ADD DUP6 MSTORE DUP3 MLOAD DUP1 MLOAD DUP1 DUP9 MSTORE DUP4 JUMPDEST DUP2 DUP2 LT ISZERO PUSH2 0x805 JUMPI DUP3 DUP2 ADD DUP11 ADD MLOAD DUP10 DUP3 ADD DUP12 ADD MSTORE DUP10 ADD PUSH2 0x7EA JUMP JUMPDEST POP DUP8 DUP2 ADD DUP10 ADD DUP5 SWAP1 MSTORE PUSH1 0x1F ADD PUSH1 0x1F NOT AND SWAP1 SWAP7 ADD DUP8 ADD SWAP6 POP SWAP4 DUP7 ADD SWAP4 SWAP2 DUP7 ADD SWAP2 PUSH1 0x1 ADD PUSH2 0x7D0 JUMP JUMPDEST POP SWAP4 SWAP9 SWAP8 POP POP POP POP POP POP POP POP JUMP JUMPDEST PUSH4 0x4E487B71 PUSH1 0xE0 SHL PUSH1 0x0 MSTORE PUSH1 0x41 PUSH1 0x4 MSTORE PUSH1 0x24 PUSH1 0x0 REVERT JUMPDEST PUSH1 0x1 DUP2 DUP2 SHR SWAP1 DUP3 AND DUP1 PUSH2 0x864 JUMPI PUSH1 0x7F DUP3 AND SWAP2 POP JUMPDEST PUSH1 0x20 DUP3 LT DUP2 SUB PUSH2 0x884 JUMPI PUSH4 0x4E487B71 PUSH1 0xE0 SHL PUSH1 0x0 MSTORE PUSH1 0x22 PUSH1 0x4 MSTORE PUSH1 0x24 PUSH1 0x0 REVERT JUMPDEST POP SWAP2 SWAP1 POP JUMP JUMPDEST PUSH1 0x1F DUP3 GT ISZERO PUSH2 0x8D4 JUMPI PUSH1 0x0 DUP2 DUP2 MSTORE PUSH1 0x20 DUP2 KECCAK256 PUSH1 0x1F DUP6 ADD PUSH1 0x5 SHR DUP2 ADD PUSH1 0x20 DUP7 LT ISZERO PUSH2 0x8B1 JUMPI POP DUP1 JUMPDEST PUSH1 0x1F DUP6 ADD PUSH1 0x5 SHR DUP3 ADD SWAP2 POP JUMPDEST DUP2 DUP2 LT ISZERO PUSH2 0x8D0 JUMPI DUP3 DUP2 SSTORE PUSH1 0x1 ADD PUSH2 0x8BD JUMP JUMPDEST POP POP POP JUMPDEST POP POP POP JUMP JUMPDEST PUSH8 0xFFFFFFFFFFFFFFFF DUP4 GT ISZERO PUSH2 0x8F1 JUMPI PUSH2 0x8F1 PUSH2 0x83A JUMP JUMPDEST PUSH2 0x905 DUP4 PUSH2 0x8FF DUP4 SLOAD PUSH2 0x850 JUMP JUMPDEST DUP4 PUSH2 0x88A JUMP JUMPDEST PUSH1 0x0 PUSH1 0x1F DUP5 GT PUSH1 0x1 DUP2 EQ PUSH2 0x939 JUMPI PUSH1 0x0 DUP6 ISZERO PUSH2 0x921 JUMPI POP DUP4 DUP3 ADD CALLDATALOAD JUMPDEST PUSH1 0x0 NOT PUSH1 0x3 DUP8 SWAP1 SHL SHR NOT AND PUSH1 0x1 DUP7 SWAP1 SHL OR DUP4 SSTORE PUSH2 0x993 JUMP JUMPDEST PUSH1 0x0 DUP4 DUP2 MSTORE PUSH1 0x20 SWAP1 KECCAK256 PUSH1 0x1F NOT DUP7 AND SWAP1 DUP4 JUMPDEST DUP3 DUP2 LT ISZERO PUSH2 0x96A JUMPI DUP7 DUP6 ADD CALLDATALOAD DUP3 SSTORE PUSH1 0x20 SWAP5 DUP6 ADD SWAP5 PUSH1 0x1 SWAP1 SWAP3 ADD SWAP2 ADD PUSH2 0x94A JUMP JUMPDEST POP DUP7 DUP3 LT ISZERO PUSH2 0x987 JUMPI PUSH1 0x0 NOT PUSH1 0xF8 DUP9 PUSH1 0x3 SHL AND SHR NOT DUP5 DUP8 ADD CALLDATALOAD AND DUP2 SSTORE JUMPDEST POP POP PUSH1 0x1 DUP6 PUSH1 0x1 SHL ADD DUP4 SSTORE JUMPDEST POP POP POP POP POP JUMP JUMPDEST PUSH4 0x4E487B71 PUSH1 0xE0 SHL PUSH1 0x0 MSTORE PUSH1 0x32 PUSH1 0x4 MSTORE PUSH1 0x24 PUSH1 0x0 REVERT JUMPDEST PUSH1 0x0 PUSH1 0x1 DUP3 ADD PUSH2 0x9D0 JUMPI PUSH4 0x4E487B71 PUSH1 0xE0 SHL PUSH1 0x0 MSTORE PUSH1 0x11 PUSH1 0x4 MSTORE PUSH1 0x24 PUSH1 0x0 REVERT JUMPDEST POP PUSH1 0x1 ADD SWAP1 JUMP INVALID LOG2 PUSH5 0x6970667358 0x22 SLT KECCAK256 DUP9 ADDMOD 0xBA 0xBC PUSH19 0x338C9312E160F703109A96678B0944E81E1348 DUP10 PUSH8 0x6D8D0F4EB016473 PUSH16 0x6C634300081100330000000000000000 "
    },
    "gasEstimates": {
      "creation": {
        "codeDepositCost": "514600",
        "executionCost": "549",
        "totalCost": "515149"
      },
      "external": {
        "accessList(address,uint256)": "4846",
        "add(address,string)": "infinite",
        "allow(address)": "infinite",
        "disallow(address)": "infinite",
        "display(address)": "infinite",
        "shareAccess()": "infinite"
      }
    },
    "methodIdentifiers": {
      "accessList(address,uint256)": "70c2b419",
      "add(address,string)": "36d6da55",
      "allow(address)": "ff9913e8",
      "disallow(address)": "a9ed9cb8",
      "display(address)": "eb39113f",
      "shareAccess()": "bc8bef81"
    }
  },
  "storageLayout": {
    "storage": [
      {
        "astId": 1686,
        "contract": "Upload.sol:Upload",
        "label": "value",
        "offset": 0,
        "slot": "0",
        "type": "t_mapping(t_address,t_array(t_string_storage)dyn_storage)"
      },
      {
        "astId": 1692,
        "contract": "Upload.sol:Upload",
        "label": "ownership",
        "offset": 0,
        "slot": "1",
        "type": "t_mapping(t_address,t_mapping(t_address,t_bool))"
      },
      {
        "astId": 1698,
        "contract": "Upload.sol:Upload",
        "label": "accessList",
        "offset": 0,
        "slot": "2",
        "type": "t_mapping(t_address,t_array(t_struct(Access)1681_storage)dyn_storage)"
      },
      {
        "astId": 1704,
        "contract": "Upload.sol:Upload",
        "label": "previousData",
        "offset": 0,
        "slot": "3",
        "type": "t_mapping(t_address,t_mapping(t_address,t_bool))"
      }
    ],
    "types": {
      "t_address": {
        "encoding": "inplace",
        "label": "address",
        "numberOfBytes": "20"
      },
      "t_array(t_string_storage)dyn_storage": {
        "base": "t_string_storage",
        "encoding": "dynamic_array",
        "label": "string[]",
        "numberOfBytes": "32"
      },
      "t_array(t_struct(Access)1681_storage)dyn_storage": {
        "base": "t_struct(Access)1681_storage",
        "encoding": "dynamic_array",
        "label": "struct Upload.Access[]",
        "numberOfBytes": "32"
      },
      "t_bool": {
        "encoding": "inplace",
        "label": "bool",
        "numberOfBytes": "1"
      },
      "t_mapping(t_address,t_array(t_string_storage)dyn_storage)": {
        "encoding": "mapping",
        "key": "t_address",
        "label": "mapping(address => string[])",
        "numberOfBytes": "32",
        "value": "t_array(t_string_storage)dyn_storage"
      },
      "t_mapping(t_address,t_array(t_struct(Access)1681_storage)dyn_storage)": {
        "encoding": "mapping",
        "key": "t_address",
        "label": "mapping(address => struct Upload.Access[])",
        "numberOfBytes": "32",
        "value": "t_array(t_struct(Access)1681_storage)dyn_storage"
      },
      "t_mapping(t_address,t_bool)": {
        "encoding": "mapping",
        "key": "t_address",
        "label": "mapping(address => bool)",
        "numberOfBytes": "32",
        "value": "t_bool"
      },
      "t_mapping(t_address,t_mapping(t_address,t_bool))": {
        "encoding": "mapping",
        "key": "t_address",
        "label": "mapping(address => mapping(address => bool))",
        "numberOfBytes": "32",
        "value": "t_mapping(t_address,t_bool)"
      },
      "t_string_storage": {
        "encoding": "bytes",
        "label": "string",
        "numberOfBytes": "32"
      },
      "t_struct(Access)1681_storage": {
        "encoding": "inplace",
        "label": "struct Upload.Access",
        "members": [
          {
            "astId": 1678,
            "contract": "Upload.sol:Upload",
            "label": "user",
            "offset": 0,
            "slot": "0",
            "type": "t_address"
          },
          {
            "astId": 1680,
            "contract": "Upload.sol:Upload",
            "label": "access",
            "offset": 20,
            "slot": "0",
            "type": "t_bool"
          }
        ],
        "numberOfBytes": "32"
      }
    }
  },
  "userdoc": {
    "kind": "user",
    "methods": {},
    "version": 1
  }
}