{
  "abi": [
    {
      "inputs": [],
      "stateMutability": "nonpayable",
      "type": "constructor"
    },
    {
      "anonymous": false,
      "inputs": [
        {
          "indexed": true,
          "internalType": "address",
          "name": "benefactor",
          "type": "address"
        },
        {
          "indexed": false,
          "internalType": "string",
          "name": "aliveStatus",
          "type": "string"
        }
      ],
      "name": "BenefactorIsAlive",
      "type": "event"
    },
    {
      "anonymous": false,
      "inputs": [
        {
          "indexed": true,
          "internalType": "address",
          "name": "benefactor",
          "type": "address"
        },
        {
          "indexed": false,
          "internalType": "string",
          "name": "deadStatus",
          "type": "string"
        }
      ],
      "name": "BenefactorIsDead",
      "type": "event"
    },
    {
      "anonymous": false,
      "inputs": [
        {
          "indexed": true,
          "internalType": "address",
          "name": "benefactor",
          "type": "address"
        },
        {
          "indexed": false,
          "internalType": "string",
          "name": "key",
          "type": "string"
        }
      ],
      "name": "BenefactorKeyAdded",
      "type": "event"
    },
    {
      "anonymous": false,
      "inputs": [
        {
          "indexed": false,
          "internalType": "bool",
          "name": "switchStatus",
          "type": "bool"
        },
        {
          "indexed": false,
          "internalType": "address[]",
          "name": "beneficiaries",
          "type": "address[]"
        },
        {
          "indexed": false,
          "internalType": "uint256",
          "name": "remainingTime",
          "type": "uint256"
        },
        {
          "indexed": false,
          "internalType": "bool",
          "name": "isAlive",
          "type": "bool"
        },
        {
          "indexed": false,
          "internalType": "string",
          "name": "publicKey",
          "type": "string"
        },
        {
          "indexed": false,
          "internalType": "string[]",
          "name": "allIpfsCIDs",
          "type": "string[]"
        }
      ],
      "name": "BenefactorsData",
      "type": "event"
    },
    {
      "anonymous": false,
      "inputs": [
        {
          "indexed": false,
          "internalType": "bool",
          "name": "switchStatus",
          "type": "bool"
        },
        {
          "indexed": false,
          "internalType": "uint256",
          "name": "remainingTime",
          "type": "uint256"
        },
        {
          "indexed": false,
          "internalType": "bool",
          "name": "isAlive",
          "type": "bool"
        },
        {
          "indexed": false,
          "internalType": "string",
          "name": "publicKey",
          "type": "string"
        }
      ],
      "name": "BeneficiariesData",
      "type": "event"
    },
    {
      "anonymous": false,
      "inputs": [
        {
          "indexed": true,
          "internalType": "address",
          "name": "benefactor",
          "type": "address"
        },
        {
          "indexed": true,
          "internalType": "address",
          "name": "beneficiary",
          "type": "address"
        }
      ],
      "name": "BeneficiaryAdded",
      "type": "event"
    },
    {
      "anonymous": false,
      "inputs": [
        {
          "indexed": true,
          "internalType": "address",
          "name": "benefactor",
          "type": "address"
        },
        {
          "indexed": true,
          "internalType": "address",
          "name": "beneficiary",
          "type": "address"
        },
        {
          "indexed": false,
          "internalType": "string",
          "name": "key",
          "type": "string"
        }
      ],
      "name": "BeneficiaryKeyAdded",
      "type": "event"
    },
    {
      "anonymous": false,
      "inputs": [
        {
          "indexed": true,
          "internalType": "address",
          "name": "benefactor",
          "type": "address"
        },
        {
          "indexed": true,
          "internalType": "address",
          "name": "beneficiary",
          "type": "address"
        }
      ],
      "name": "BeneficiaryRemoved",
      "type": "event"
    },
    {
      "anonymous": false,
      "inputs": [
        {
          "indexed": true,
          "internalType": "address",
          "name": "benefactor",
          "type": "address"
        },
        {
          "indexed": true,
          "internalType": "address",
          "name": "caller",
          "type": "address"
        },
        {
          "indexed": false,
          "internalType": "uint256",
          "name": "responseTime",
          "type": "uint256"
        }
      ],
      "name": "DeadMansSwitchDisabled",
      "type": "event"
    },
    {
      "anonymous": false,
      "inputs": [
        {
          "indexed": true,
          "internalType": "address",
          "name": "benefactor",
          "type": "address"
        },
        {
          "indexed": true,
          "internalType": "address",
          "name": "beneficiary",
          "type": "address"
        },
        {
          "indexed": false,
          "internalType": "uint256",
          "name": "countdownDuration",
          "type": "uint256"
        }
      ],
      "name": "DeadMansSwitchEnabled",
      "type": "event"
    },
    {
      "anonymous": false,
      "inputs": [
        {
          "indexed": true,
          "internalType": "address",
          "name": "benefactor",
          "type": "address"
        },
        {
          "indexed": true,
          "internalType": "address",
          "name": "beneficiary",
          "type": "address"
        },
        {
          "indexed": false,
          "internalType": "string",
          "name": "ipfsCID",
          "type": "string"
        }
      ],
      "name": "IpfsCIDAdded",
      "type": "event"
    },
    {
      "anonymous": false,
      "inputs": [
        {
          "indexed": true,
          "internalType": "address",
          "name": "benefactor",
          "type": "address"
        },
        {
          "indexed": true,
          "internalType": "address",
          "name": "beneficiary",
          "type": "address"
        },
        {
          "indexed": false,
          "internalType": "string",
          "name": "ipfsCID",
          "type": "string"
        }
      ],
      "name": "IpfsCIDRemoved",
      "type": "event"
    },
    {
      "anonymous": false,
      "inputs": [
        {
          "indexed": true,
          "internalType": "address",
          "name": "benefactor",
          "type": "address"
        },
        {
          "indexed": false,
          "internalType": "uint256",
          "name": "countdownDuration",
          "type": "uint256"
        },
        {
          "indexed": false,
          "internalType": "uint256",
          "name": "responseTime",
          "type": "uint256"
        },
        {
          "indexed": false,
          "internalType": "uint256",
          "name": "currentTime",
          "type": "uint256"
        },
        {
          "indexed": false,
          "internalType": "uint256",
          "name": "lastBenefactorResponseTime",
          "type": "uint256"
        }
      ],
      "name": "RemainingCountdownInfo",
      "type": "event"
    },
    {
      "anonymous": false,
      "inputs": [
        {
          "indexed": true,
          "internalType": "address",
          "name": "benefactor",
          "type": "address"
        },
        {
          "indexed": true,
          "internalType": "address",
          "name": "caller",
          "type": "address"
        }
      ],
      "name": "SwitchAlreadyOff",
      "type": "event"
    },
    {
      "anonymous": false,
      "inputs": [
        {
          "indexed": true,
          "internalType": "address",
          "name": "benefactor",
          "type": "address"
        },
        {
          "indexed": true,
          "internalType": "address",
          "name": "caller",
          "type": "address"
        }
      ],
      "name": "SwitchAlreadyOn",
      "type": "event"
    },
    {
      "inputs": [
        {
          "internalType": "address",
          "name": "_benefactor",
          "type": "address"
        },
        {
          "internalType": "string",
          "name": "_key",
          "type": "string"
        }
      ],
      "name": "addBenefactorPublicKey",
      "outputs": [],
      "stateMutability": "nonpayable",
      "type": "function"
    },
    {
      "inputs": [
        {
          "internalType": "address[]",
          "name": "_beneficiaries",
          "type": "address[]"
        }
      ],
      "name": "addBeneficiaries",
      "outputs": [],
      "stateMutability": "nonpayable",
      "type": "function"
    },
    {
      "inputs": [
        {
          "internalType": "address",
          "name": "_benefactor",
          "type": "address"
        },
        {
          "internalType": "address",
          "name": "_beneficiary",
          "type": "address"
        },
        {
          "internalType": "string",
          "name": "_key",
          "type": "string"
        }
      ],
      "name": "addBeneficiaryPublicKey",
      "outputs": [],
      "stateMutability": "nonpayable",
      "type": "function"
    },
    {
      "inputs": [
        {
          "internalType": "address",
          "name": "_beneficiary",
          "type": "address"
        },
        {
          "internalType": "string[]",
          "name": "_ipfsCIDs",
          "type": "string[]"
        }
      ],
      "name": "addIpfsCIDs",
      "outputs": [],
      "stateMutability": "nonpayable",
      "type": "function"
    },
    {
      "inputs": [
        {
          "internalType": "address",
          "name": "_benefactor",
          "type": "address"
        }
      ],
      "name": "checkAliveStatus",
      "outputs": [
        {
          "internalType": "bool",
          "name": "",
          "type": "bool"
        }
      ],
      "stateMutability": "nonpayable",
      "type": "function"
    },
    {
      "inputs": [
        {
          "internalType": "address",
          "name": "_benefactor",
          "type": "address"
        }
      ],
      "name": "enableSwitch",
      "outputs": [],
      "stateMutability": "nonpayable",
      "type": "function"
    },
    {
      "inputs": [
        {
          "internalType": "address",
          "name": "_benefactor",
          "type": "address"
        }
      ],
      "name": "getBenefactorData",
      "outputs": [
        {
          "internalType": "bool",
          "name": "switchStatus",
          "type": "bool"
        },
        {
          "internalType": "address[]",
          "name": "beneficiaries",
          "type": "address[]"
        },
        {
          "internalType": "uint256",
          "name": "remainingTime",
          "type": "uint256"
        },
        {
          "internalType": "bool",
          "name": "isAlive",
          "type": "bool"
        },
        {
          "internalType": "string",
          "name": "publicKey",
          "type": "string"
        },
        {
          "internalType": "string[]",
          "name": "allIpfsCIDs",
          "type": "string[]"
        }
      ],
      "stateMutability": "nonpayable",
      "type": "function"
    },
    {
      "inputs": [
        {
          "internalType": "address",
          "name": "_benefactor",
          "type": "address"
        }
      ],
      "name": "getBenefactorPublicKey",
      "outputs": [
        {
          "internalType": "string",
          "name": "",
          "type": "string"
        }
      ],
      "stateMutability": "view",
      "type": "function"
    },
    {
      "inputs": [
        {
          "internalType": "address",
          "name": "_benefactor",
          "type": "address"
        },
        {
          "internalType": "address",
          "name": "_beneficiary",
          "type": "address"
        }
      ],
      "name": "getBeneficiaryData",
      "outputs": [
        {
          "internalType": "bool",
          "name": "switchStatus",
          "type": "bool"
        },
        {
          "internalType": "uint256",
          "name": "remainingTime",
          "type": "uint256"
        },
        {
          "internalType": "bool",
          "name": "isAlive",
          "type": "bool"
        },
        {
          "internalType": "string",
          "name": "publicKey",
          "type": "string"
        }
      ],
      "stateMutability": "nonpayable",
      "type": "function"
    },
    {
      "inputs": [
        {
          "internalType": "address",
          "name": "_benefactor",
          "type": "address"
        },
        {
          "internalType": "address",
          "name": "_beneficiary",
          "type": "address"
        }
      ],
      "name": "getBeneficiaryPublicKey",
      "outputs": [
        {
          "internalType": "string",
          "name": "",
          "type": "string"
        }
      ],
      "stateMutability": "view",
      "type": "function"
    },
    {
      "inputs": [
        {
          "internalType": "address",
          "name": "_benefactor",
          "type": "address"
        },
        {
          "internalType": "address",
          "name": "_beneficiary",
          "type": "address"
        }
      ],
      "name": "getCIDs",
      "outputs": [
        {
          "internalType": "string[]",
          "name": "",
          "type": "string[]"
        }
      ],
      "stateMutability": "view",
      "type": "function"
    },
    {
      "inputs": [
        {
          "internalType": "address",
          "name": "_benefactor",
          "type": "address"
        }
      ],
      "name": "getRemainingCountdownTime",
      "outputs": [
        {
          "internalType": "uint256",
          "name": "",
          "type": "uint256"
        }
      ],
      "stateMutability": "nonpayable",
      "type": "function"
    },
    {
      "inputs": [
        {
          "internalType": "address",
          "name": "_benefactor",
          "type": "address"
        }
      ],
      "name": "getSwitchStatus",
      "outputs": [
        {
          "internalType": "bool",
          "name": "",
          "type": "bool"
        }
      ],
      "stateMutability": "view",
      "type": "function"
    },
    {
      "inputs": [
        {
          "internalType": "address",
          "name": "_benefactor",
          "type": "address"
        },
        {
          "internalType": "address",
          "name": "_address",
          "type": "address"
        }
      ],
      "name": "isBeneficiary",
      "outputs": [
        {
          "internalType": "bool",
          "name": "",
          "type": "bool"
        }
      ],
      "stateMutability": "view",
      "type": "function"
    },
    {
      "inputs": [
        {
          "internalType": "address",
          "name": "_benefactor",
          "type": "address"
        }
      ],
      "name": "removeBenefactor",
      "outputs": [],
      "stateMutability": "nonpayable",
      "type": "function"
    },
    {
      "inputs": [
        {
          "internalType": "address",
          "name": "_beneficiary",
          "type": "address"
        }
      ],
      "name": "removeBeneficiary",
      "outputs": [],
      "stateMutability": "nonpayable",
      "type": "function"
    },
    {
      "inputs": [
        {
          "internalType": "address",
          "name": "_beneficiary",
          "type": "address"
        },
        {
          "internalType": "string",
          "name": "_ipfsCID",
          "type": "string"
        }
      ],
      "name": "removeIpfsCID",
      "outputs": [],
      "stateMutability": "nonpayable",
      "type": "function"
    },
    {
      "inputs": [],
      "name": "respondToSwitch",
      "outputs": [],
      "stateMutability": "nonpayable",
      "type": "function"
    },
    {
      "inputs": [],
      "name": "setBenefactor",
      "outputs": [],
      "stateMutability": "nonpayable",
      "type": "function"
    }
  ],
  "devdoc": {
    "details": "Smart contract for managing a benefactor's dead man's switch with assigned beneficiaries.",
    "kind": "dev",
    "methods": {
      "addBenefactorPublicKey(address,string)": {
        "details": "adds the benefactor public key to the specified benefactor-beneficiary pair"
      },
      "addBeneficiaries(address[])": {
        "details": "Adds new beneficiaries to the list. Only callable by the benefactor.",
        "params": {
          "_beneficiaries": "The addresses of the new beneficiaries."
        }
      },
      "addBeneficiaryPublicKey(address,address,string)": {
        "details": "adds the beneficiary public key to the specified benefactor-beneficiary pair"
      },
      "checkAliveStatus(address)": {
        "details": "Checks the alive status of the benefactor.",
        "params": {
          "_benefactor": "The address of the benefactor."
        },
        "returns": {
          "_0": "A boolean indicating whether the benefactor is alive."
        }
      },
      "enableSwitch(address)": {
        "details": "Enables the dead man's switch. Only callable by beneficiaries.",
        "params": {
          "_benefactor": "The address of the benefactor."
        }
      },
      "getBenefactorData(address)": {
        "details": "Returns current data of benefactor."
      },
      "getBenefactorPublicKey(address)": {
        "details": "returns the benefactor public key from the specified benefactor-beneficiary pair"
      },
      "getBeneficiaryData(address,address)": {
        "details": "Returns current status of benefactor to beneficiary."
      },
      "getBeneficiaryPublicKey(address,address)": {
        "details": "returns the beneficiary public key from the specified benefactor-beneficiary pair"
      },
      "getCIDs(address,address)": {
        "details": "Release CIDs to beneficiary.",
        "params": {
          "_benefactor": "The address of the benefactor.",
          "_beneficiary": "The address of the beneficiary."
        }
      },
      "getRemainingCountdownTime(address)": {
        "details": "Returns the remaining countdown time.",
        "params": {
          "_benefactor": "The address of the benefactor."
        },
        "returns": {
          "_0": "The remaining countdown time in seconds."
        }
      },
      "isBeneficiary(address,address)": {
        "details": "Checks if the given address is a beneficiary. Only benefactor",
        "params": {
          "_address": "The address to check."
        },
        "returns": {
          "_0": "A boolean indicating whether the address is a beneficiary."
        }
      },
      "removeBenefactor(address)": {
        "details": "Removes a benefactor. Only callable by benefactor."
      },
      "removeBeneficiary(address)": {
        "details": "Removes a beneficiary from the list. Only callable by the benefactor.",
        "params": {
          "_beneficiary": "The address of the beneficiary to be removed."
        }
      },
      "removeIpfsCID(address,string)": {
        "details": "Removes an IPFS CID from the specified beneficiary. Only callable by benefactor.",
        "params": {
          "_beneficiary": "The address of the beneficiary.",
          "_ipfsCID": "The IPFS CID to remove."
        }
      },
      "respondToSwitch()": {
        "details": "Performs actions based on benefactor's activity when responding to an enabled switch. Only callable by the benefactor."
      },
      "setBenefactor()": {
        "details": "Sets up a benefactor. Only callable by benefactor."
      }
    },
    "title": "BenefactorsDeadManSwitch",
    "version": 1
  },
  "evm": {
    "assembly": "    /* \"DeadMansSwitch.sol\":235:18451  contract BenefactorsDeadManSwitch {... */\n  mstore(0x40, 0x80)\n    /* \"DeadMansSwitch.sol\":2729:2745  constructor() {} */\n  callvalue\n  dup1\n  iszero\n  tag_1\n  jumpi\n  0x00\n  dup1\n  revert\ntag_1:\n  pop\n    /* \"DeadMansSwitch.sol\":235:18451  contract BenefactorsDeadManSwitch {... */\n  dataSize(sub_0)\n  dup1\n  dataOffset(sub_0)\n  0x00\n  codecopy\n  0x00\n  return\nstop\n\nsub_0: assembly {\n        /* \"DeadMansSwitch.sol\":235:18451  contract BenefactorsDeadManSwitch {... */\n      mstore(0x40, 0x80)\n      callvalue\n      dup1\n      iszero\n      tag_1\n      jumpi\n      0x00\n      dup1\n      revert\n    tag_1:\n      pop\n      jumpi(tag_2, lt(calldatasize, 0x04))\n      shr(0xe0, calldataload(0x00))\n      dup1\n      0x87c63714\n      gt\n      tag_22\n      jumpi\n      dup1\n      0xcd9c9362\n      gt\n      tag_23\n      jumpi\n      dup1\n      0xdf78bc54\n      gt\n      tag_24\n      jumpi\n      dup1\n      0xdf78bc54\n      eq\n      tag_19\n      jumpi\n      dup1\n      0xe9e6630a\n      eq\n      tag_20\n      jumpi\n      dup1\n      0xf892cb36\n      eq\n      tag_21\n      jumpi\n      0x00\n      dup1\n      revert\n    tag_24:\n      dup1\n      0xcd9c9362\n      eq\n      tag_17\n      jumpi\n      dup1\n      0xd0e2892c\n      eq\n      tag_18\n      jumpi\n      0x00\n      dup1\n      revert\n    tag_23:\n      dup1\n      0xa98d22bc\n      gt\n      tag_25\n      jumpi\n      dup1\n      0xa98d22bc\n      eq\n      tag_14\n      jumpi\n      dup1\n      0xb83f4805\n      eq\n      tag_15\n      jumpi\n      dup1\n      0xb944559d\n      eq\n      tag_16\n      jumpi\n      0x00\n      dup1\n      revert\n    tag_25:\n      dup1\n      0x87c63714\n      eq\n      tag_12\n      jumpi\n      dup1\n      0x8d5492e4\n      eq\n      tag_13\n      jumpi\n      0x00\n      dup1\n      revert\n    tag_22:\n      dup1\n      0x196ba7ef\n      gt\n      tag_26\n      jumpi\n      dup1\n      0x590411da\n      gt\n      tag_27\n      jumpi\n      dup1\n      0x590411da\n      eq\n      tag_9\n      jumpi\n      dup1\n      0x59633a1c\n      eq\n      tag_10\n      jumpi\n      dup1\n      0x6d769717\n      eq\n      tag_11\n      jumpi\n      0x00\n      dup1\n      revert\n    tag_27:\n      dup1\n      0x196ba7ef\n      eq\n      tag_7\n      jumpi\n      dup1\n      0x3dea2f84\n      eq\n      tag_8\n      jumpi\n      0x00\n      dup1\n      revert\n    tag_26:\n      dup1\n      0x01e2b33f\n      eq\n      tag_3\n      jumpi\n      dup1\n      0x072039a2\n      eq\n      tag_4\n      jumpi\n      dup1\n      0x07a8b767\n      eq\n      tag_5\n      jumpi\n      dup1\n      0x096e27d9\n      eq\n      tag_6\n      jumpi\n    tag_2:\n      0x00\n      dup1\n      revert\n        /* \"DeadMansSwitch.sol\":10628:11139  function getRemainingCountdownTime(address _benefactor) public returns (uint256) {... */\n    tag_3:\n      tag_28\n      tag_29\n      calldatasize\n      0x04\n      tag_30\n      jump\t// in\n    tag_29:\n      tag_31\n      jump\t// in\n    tag_28:\n      mload(0x40)\n        /* \"#utility.yul\":552:577   */\n      swap1\n      dup2\n      mstore\n        /* \"#utility.yul\":540:542   */\n      0x20\n        /* \"#utility.yul\":525:543   */\n      add\n        /* \"DeadMansSwitch.sol\":10628:11139  function getRemainingCountdownTime(address _benefactor) public returns (uint256) {... */\n    tag_32:\n      mload(0x40)\n      dup1\n      swap2\n      sub\n      swap1\n      return\n        /* \"DeadMansSwitch.sol\":11349:11933  function checkAliveStatus(address _benefactor) public returns (bool) {... */\n    tag_4:\n      tag_34\n      tag_35\n      calldatasize\n      0x04\n      tag_30\n      jump\t// in\n    tag_35:\n      tag_36\n      jump\t// in\n    tag_34:\n      mload(0x40)\n        /* \"#utility.yul\":849:863   */\n      swap1\n      iszero\n        /* \"#utility.yul\":842:864   */\n      iszero\n        /* \"#utility.yul\":824:865   */\n      dup2\n      mstore\n        /* \"#utility.yul\":812:814   */\n      0x20\n        /* \"#utility.yul\":797:815   */\n      add\n        /* \"DeadMansSwitch.sol\":11349:11933  function checkAliveStatus(address _benefactor) public returns (bool) {... */\n      tag_32\n        /* \"#utility.yul\":684:871   */\n      jump\n        /* \"DeadMansSwitch.sol\":5920:6137  function getSwitchStatus(address _benefactor) public view returns (bool) {... */\n    tag_5:\n      tag_34\n      tag_40\n      calldatasize\n      0x04\n      tag_30\n      jump\t// in\n    tag_40:\n      tag_41\n      jump\t// in\n        /* \"DeadMansSwitch.sol\":3541:3711  function isBeneficiary(address _benefactor, address _address) public view returns (bool) {... */\n    tag_6:\n      tag_34\n      tag_44\n      calldatasize\n      0x04\n      tag_45\n      jump\t// in\n    tag_44:\n      tag_46\n      jump\t// in\n        /* \"DeadMansSwitch.sol\":2835:3317  function setBenefactor() public{... */\n    tag_7:\n      tag_48\n      tag_49\n      jump\t// in\n    tag_48:\n      stop\n        /* \"DeadMansSwitch.sol\":4395:4759  function addBeneficiaryPublicKey(address _benefactor, address _beneficiary, string memory _key) public {... */\n    tag_8:\n      tag_48\n      tag_51\n      calldatasize\n      0x04\n      tag_52\n      jump\t// in\n    tag_51:\n      tag_53\n      jump\t// in\n        /* \"DeadMansSwitch.sol\":6787:7378  function addBeneficiaries(address[] calldata _beneficiaries) external onlyBenefactor {... */\n    tag_9:\n      tag_48\n      tag_55\n      calldatasize\n      0x04\n      tag_56\n      jump\t// in\n    tag_55:\n      tag_57\n      jump\t// in\n        /* \"DeadMansSwitch.sol\":6320:6612  function removeBeneficiary(address _beneficiary) external onlyBenefactor {... */\n    tag_10:\n      tag_48\n      tag_59\n      calldatasize\n      0x04\n      tag_30\n      jump\t// in\n    tag_59:\n      tag_60\n      jump\t// in\n        /* \"DeadMansSwitch.sol\":4877:5147  function getBenefactorPublicKey(address _benefactor) public view returns(string memory) {... */\n    tag_11:\n      tag_61\n      tag_62\n      calldatasize\n      0x04\n      tag_30\n      jump\t// in\n    tag_62:\n      tag_63\n      jump\t// in\n    tag_61:\n      mload(0x40)\n      tag_32\n      swap2\n      swap1\n      tag_65\n      jump\t// in\n        /* \"DeadMansSwitch.sol\":8573:9488  function removeIpfsCID(address _beneficiary, string memory _ipfsCID) external onlyBenefactor {... */\n    tag_12:\n      tag_48\n      tag_67\n      calldatasize\n      0x04\n      tag_68\n      jump\t// in\n    tag_67:\n      tag_69\n      jump\t// in\n        /* \"DeadMansSwitch.sol\":9650:10436  function enableSwitch(address _benefactor) external {... */\n    tag_13:\n      tag_48\n      tag_71\n      calldatasize\n      0x04\n      tag_30\n      jump\t// in\n    tag_71:\n      tag_72\n      jump\t// in\n        /* \"DeadMansSwitch.sol\":5680:5912  function removeBenefactor(address _benefactor) public {... */\n    tag_14:\n      tag_48\n      tag_74\n      calldatasize\n      0x04\n      tag_30\n      jump\t// in\n    tag_74:\n      tag_75\n      jump\t// in\n        /* \"DeadMansSwitch.sol\":17642:18448  function getBeneficiaryData(address _benefactor, address _beneficiary) public returns (bool switchStatus, uint256 remainingTime, bool isAlive, string memory publicKey) {... */\n    tag_15:\n      tag_76\n      tag_77\n      calldatasize\n      0x04\n      tag_45\n      jump\t// in\n    tag_77:\n      tag_78\n      jump\t// in\n    tag_76:\n      mload(0x40)\n      tag_32\n      swap5\n      swap4\n      swap3\n      swap2\n      swap1\n      tag_80\n      jump\t// in\n        /* \"DeadMansSwitch.sol\":4080:4283  function addBenefactorPublicKey(address _benefactor, string memory _key) public {... */\n    tag_16:\n      tag_48\n      tag_82\n      calldatasize\n      0x04\n      tag_68\n      jump\t// in\n    tag_82:\n      tag_83\n      jump\t// in\n        /* \"DeadMansSwitch.sol\":12530:13229  function respondToSwitch() external onlyBenefactor {... */\n    tag_17:\n      tag_48\n      tag_85\n      jump\t// in\n        /* \"DeadMansSwitch.sol\":7388:8345  function addIpfsCIDs(address _beneficiary, string[] memory _ipfsCIDs) external onlyBenefactor {... */\n    tag_18:\n      tag_48\n      tag_87\n      calldatasize\n      0x04\n      tag_88\n      jump\t// in\n    tag_87:\n      tag_89\n      jump\t// in\n        /* \"DeadMansSwitch.sol\":13419:13828  function getCIDs(address _benefactor, address _beneficiary) public view returns (string[] memory){... */\n    tag_19:\n      tag_90\n      tag_91\n      calldatasize\n      0x04\n      tag_45\n      jump\t// in\n    tag_91:\n      tag_92\n      jump\t// in\n    tag_90:\n      mload(0x40)\n      tag_32\n      swap2\n      swap1\n      tag_94\n      jump\t// in\n        /* \"DeadMansSwitch.sol\":15866:17548  function getBenefactorData(address _benefactor) public returns (bool switchStatus, address[] memory beneficiaries, uint256 remainingTime, bool isAlive, string memory publicKey, string[] memory allIpfsCIDs) {... */\n    tag_20:\n      tag_95\n      tag_96\n      calldatasize\n      0x04\n      tag_30\n      jump\t// in\n    tag_96:\n      tag_97\n      jump\t// in\n    tag_95:\n      mload(0x40)\n      tag_32\n      swap7\n      swap6\n      swap5\n      swap4\n      swap3\n      swap2\n      swap1\n      tag_99\n      jump\t// in\n        /* \"DeadMansSwitch.sol\":5266:5590  function getBeneficiaryPublicKey(address _benefactor, address _beneficiary) public view returns(string memory) {... */\n    tag_21:\n      tag_61\n      tag_101\n      calldatasize\n      0x04\n      tag_45\n      jump\t// in\n    tag_101:\n      tag_102\n      jump\t// in\n        /* \"DeadMansSwitch.sol\":10628:11139  function getRemainingCountdownTime(address _benefactor) public returns (uint256) {... */\n    tag_31:\n      sub(shl(0xa0, 0x01), 0x01)\n        /* \"DeadMansSwitch.sol\":10761:10785  benefactors[_benefactor] */\n      dup2\n      and\n        /* \"DeadMansSwitch.sol\":10700:10707  uint256 */\n      0x00\n        /* \"DeadMansSwitch.sol\":10761:10785  benefactors[_benefactor] */\n      swap1\n      dup2\n      mstore\n      0x20\n      dup2\n      swap1\n      mstore\n      0x40\n      dup2\n      keccak256\n        /* \"DeadMansSwitch.sol\":10761:10812  benefactors[_benefactor].lastBenefactorResponseTime */\n      0x03\n      add\n      sload\n        /* \"DeadMansSwitch.sol\":10700:10707  uint256 */\n      dup2\n      swap1\n        /* \"DeadMansSwitch.sol\":10743:10812  block.timestamp - benefactors[_benefactor].lastBenefactorResponseTime */\n      tag_105\n      swap1\n        /* \"DeadMansSwitch.sol\":10743:10758  block.timestamp */\n      timestamp\n        /* \"DeadMansSwitch.sol\":10743:10812  block.timestamp - benefactors[_benefactor].lastBenefactorResponseTime */\n      tag_106\n      jump\t// in\n    tag_105:\n      sub(shl(0xa0, 0x01), 0x01)\n        /* \"DeadMansSwitch.sol\":10828:10990  RemainingCountdownInfo(_benefactor,benefactors[_benefactor].countdownDuration, responseTime, block.timestamp, benefactors[_benefactor].lastBenefactorResponseTime) */\n      dup5\n      and\n        /* \"DeadMansSwitch.sol\":10863:10874  benefactors */\n      0x00\n        /* \"DeadMansSwitch.sol\":10863:10887  benefactors[_benefactor] */\n      dup2\n      dup2\n      mstore\n      0x20\n      dup2\n      dup2\n      mstore\n      0x40\n      swap2\n      dup3\n      swap1\n      keccak256\n        /* \"DeadMansSwitch.sol\":10863:10905  benefactors[_benefactor].countdownDuration */\n      0x02\n      dup2\n      add\n      sload\n        /* \"DeadMansSwitch.sol\":10938:10989  benefactors[_benefactor].lastBenefactorResponseTime */\n      0x03\n      swap1\n      swap2\n      add\n      sload\n        /* \"DeadMansSwitch.sol\":10828:10990  RemainingCountdownInfo(_benefactor,benefactors[_benefactor].countdownDuration, responseTime, block.timestamp, benefactors[_benefactor].lastBenefactorResponseTime) */\n      dup4\n      mload\n        /* \"#utility.yul\":8720:8745   */\n      swap2\n      dup3\n      mstore\n        /* \"#utility.yul\":8761:8779   */\n      swap2\n      dup2\n      add\n        /* \"#utility.yul\":8754:8788   */\n      dup6\n      swap1\n      mstore\n        /* \"DeadMansSwitch.sol\":10921:10936  block.timestamp */\n      timestamp\n        /* \"#utility.yul\":8804:8822   */\n      swap3\n      dup2\n      add\n        /* \"#utility.yul\":8797:8831   */\n      swap3\n      swap1\n      swap3\n      mstore\n        /* \"#utility.yul\":8862:8864   */\n      0x60\n        /* \"#utility.yul\":8847:8865   */\n      dup3\n      add\n        /* \"#utility.yul\":8840:8874   */\n      mstore\n        /* \"DeadMansSwitch.sol\":10720:10812  uint256 responseTime = block.timestamp - benefactors[_benefactor].lastBenefactorResponseTime */\n      swap2\n      swap3\n      pop\n        /* \"DeadMansSwitch.sol\":10828:10990  RemainingCountdownInfo(_benefactor,benefactors[_benefactor].countdownDuration, responseTime, block.timestamp, benefactors[_benefactor].lastBenefactorResponseTime) */\n      swap1\n      0x74a7c0c2e8065fcdbfca5ae9f6cf0233e47e9e75b6fcf75674dd4b7e3f9b8183\n      swap1\n        /* \"#utility.yul\":8707:8710   */\n      0x80\n        /* \"#utility.yul\":8692:8711   */\n      add\n        /* \"DeadMansSwitch.sol\":10828:10990  RemainingCountdownInfo(_benefactor,benefactors[_benefactor].countdownDuration, responseTime, block.timestamp, benefactors[_benefactor].lastBenefactorResponseTime) */\n      mload(0x40)\n      dup1\n      swap2\n      sub\n      swap1\n      log2\n      sub(shl(0xa0, 0x01), 0x01)\n        /* \"DeadMansSwitch.sol\":11024:11048  benefactors[_benefactor] */\n      dup4\n      and\n        /* \"DeadMansSwitch.sol\":11024:11035  benefactors */\n      0x00\n        /* \"DeadMansSwitch.sol\":11024:11048  benefactors[_benefactor] */\n      swap1\n      dup2\n      mstore\n      0x20\n      dup2\n      swap1\n      mstore\n      0x40\n      swap1\n      keccak256\n        /* \"DeadMansSwitch.sol\":11024:11066  benefactors[_benefactor].countdownDuration */\n      0x02\n      add\n      sload\n        /* \"DeadMansSwitch.sol\":11009:11066  responseTime > benefactors[_benefactor].countdownDuration */\n      dup2\n      gt\n        /* \"DeadMansSwitch.sol\":11008:11131  (responseTime > benefactors[_benefactor].countdownDuration) ? 0 : benefactors[_benefactor].countdownDuration - responseTime */\n      tag_109\n      jumpi\n      sub(shl(0xa0, 0x01), 0x01)\n        /* \"DeadMansSwitch.sol\":11074:11098  benefactors[_benefactor] */\n      dup4\n      and\n        /* \"DeadMansSwitch.sol\":11074:11085  benefactors */\n      0x00\n        /* \"DeadMansSwitch.sol\":11074:11098  benefactors[_benefactor] */\n      swap1\n      dup2\n      mstore\n      0x20\n      dup2\n      swap1\n      mstore\n      0x40\n      swap1\n      keccak256\n        /* \"DeadMansSwitch.sol\":11074:11116  benefactors[_benefactor].countdownDuration */\n      0x02\n      add\n      sload\n        /* \"DeadMansSwitch.sol\":11074:11131  benefactors[_benefactor].countdownDuration - responseTime */\n      tag_110\n      swap1\n        /* \"DeadMansSwitch.sol\":11119:11131  responseTime */\n      dup3\n      swap1\n        /* \"DeadMansSwitch.sol\":11074:11131  benefactors[_benefactor].countdownDuration - responseTime */\n      tag_106\n      jump\t// in\n    tag_110:\n        /* \"DeadMansSwitch.sol\":11008:11131  (responseTime > benefactors[_benefactor].countdownDuration) ? 0 : benefactors[_benefactor].countdownDuration - responseTime */\n      jump(tag_111)\n    tag_109:\n        /* \"DeadMansSwitch.sol\":11070:11071  0 */\n      0x00\n        /* \"DeadMansSwitch.sol\":11008:11131  (responseTime > benefactors[_benefactor].countdownDuration) ? 0 : benefactors[_benefactor].countdownDuration - responseTime */\n    tag_111:\n        /* \"DeadMansSwitch.sol\":11001:11131  return (responseTime > benefactors[_benefactor].countdownDuration) ? 0 : benefactors[_benefactor].countdownDuration - responseTime */\n      swap4\n        /* \"DeadMansSwitch.sol\":10628:11139  function getRemainingCountdownTime(address _benefactor) public returns (uint256) {... */\n      swap3\n      pop\n      pop\n      pop\n      jump\t// out\n        /* \"DeadMansSwitch.sol\":11349:11933  function checkAliveStatus(address _benefactor) public returns (bool) {... */\n    tag_36:\n        /* \"DeadMansSwitch.sol\":11412:11416  bool */\n      0x00\n        /* \"DeadMansSwitch.sol\":11433:11461  getSwitchStatus(_benefactor) */\n      tag_113\n        /* \"DeadMansSwitch.sol\":11449:11460  _benefactor */\n      dup3\n        /* \"DeadMansSwitch.sol\":11433:11448  getSwitchStatus */\n      tag_41\n        /* \"DeadMansSwitch.sol\":11433:11461  getSwitchStatus(_benefactor) */\n      jump\t// in\n    tag_113:\n        /* \"DeadMansSwitch.sol\":11429:11786  if (getSwitchStatus(_benefactor)){... */\n      iszero\n      tag_115\n      jumpi\n      sub(shl(0xa0, 0x01), 0x01)\n        /* \"DeadMansSwitch.sol\":11481:11505  benefactors[_benefactor] */\n      dup3\n      and\n        /* \"DeadMansSwitch.sol\":11481:11492  benefactors */\n      0x00\n        /* \"DeadMansSwitch.sol\":11481:11505  benefactors[_benefactor] */\n      swap1\n      dup2\n      mstore\n      0x20\n      dup2\n      swap1\n      mstore\n      0x40\n      swap1\n      keccak256\n        /* \"DeadMansSwitch.sol\":11481:11532  benefactors[_benefactor].lastBenefactorResponseTime */\n      0x03\n      add\n      sload\n        /* \"DeadMansSwitch.sol\":11481:11537  benefactors[_benefactor].lastBenefactorResponseTime != 0 */\n      iszero\n        /* \"DeadMansSwitch.sol\":11477:11772  if (benefactors[_benefactor].lastBenefactorResponseTime != 0) {... */\n      tag_115\n      jumpi\n        /* \"DeadMansSwitch.sol\":11558:11584  uint256 remainingCountdown */\n      0x00\n        /* \"DeadMansSwitch.sol\":11587:11625  getRemainingCountdownTime(_benefactor) */\n      tag_116\n        /* \"DeadMansSwitch.sol\":11613:11624  _benefactor */\n      dup4\n        /* \"DeadMansSwitch.sol\":11587:11612  getRemainingCountdownTime */\n      tag_31\n        /* \"DeadMansSwitch.sol\":11587:11625  getRemainingCountdownTime(_benefactor) */\n      jump\t// in\n    tag_116:\n        /* \"DeadMansSwitch.sol\":11558:11625  uint256 remainingCountdown = getRemainingCountdownTime(_benefactor) */\n      swap1\n      pop\n        /* \"DeadMansSwitch.sol\":11670:11671  0 */\n      0x00\n        /* \"DeadMansSwitch.sol\":11648:11666  remainingCountdown */\n      dup2\n        /* \"DeadMansSwitch.sol\":11648:11671  remainingCountdown <= 0 */\n      gt\n        /* \"DeadMansSwitch.sol\":11644:11756  if (remainingCountdown <= 0) {... */\n      tag_117\n      jumpi\n      sub(shl(0xa0, 0x01), 0x01)\n        /* \"DeadMansSwitch.sol\":11696:11720  benefactors[_benefactor] */\n      dup4\n      and\n        /* \"DeadMansSwitch.sol\":11731:11736  false */\n      0x00\n        /* \"DeadMansSwitch.sol\":11696:11720  benefactors[_benefactor] */\n      swap1\n      dup2\n      mstore\n      0x20\n      dup2\n      swap1\n      mstore\n      0x40\n      swap1\n      keccak256\n        /* \"DeadMansSwitch.sol\":11696:11728  benefactors[_benefactor].isAlive */\n      0x04\n      add\n        /* \"DeadMansSwitch.sol\":11696:11736  benefactors[_benefactor].isAlive = false */\n      dup1\n      sload\n      not(0xff00)\n      and\n      swap1\n      sstore\n        /* \"DeadMansSwitch.sol\":11644:11756  if (remainingCountdown <= 0) {... */\n    tag_117:\n        /* \"DeadMansSwitch.sol\":11539:11772  {... */\n      pop\n        /* \"DeadMansSwitch.sol\":11477:11772  if (benefactors[_benefactor].lastBenefactorResponseTime != 0) {... */\n    tag_115:\n      pop\n      sub(shl(0xa0, 0x01), 0x01)\n        /* \"DeadMansSwitch.sol\":11893:11917  benefactors[_benefactor] */\n      and\n        /* \"DeadMansSwitch.sol\":11893:11904  benefactors */\n      0x00\n        /* \"DeadMansSwitch.sol\":11893:11917  benefactors[_benefactor] */\n      swap1\n      dup2\n      mstore\n      0x20\n      dup2\n      swap1\n      mstore\n      0x40\n      swap1\n      keccak256\n        /* \"DeadMansSwitch.sol\":11893:11925  benefactors[_benefactor].isAlive */\n      0x04\n      add\n      sload\n      0x0100\n      swap1\n      div\n      0xff\n      and\n      swap1\n        /* \"DeadMansSwitch.sol\":11349:11933  function checkAliveStatus(address _benefactor) public returns (bool) {... */\n      jump\t// out\n        /* \"DeadMansSwitch.sol\":5920:6137  function getSwitchStatus(address _benefactor) public view returns (bool) {... */\n    tag_41:\n      sub(shl(0xa0, 0x01), 0x01)\n        /* \"DeadMansSwitch.sol\":6012:6036  benefactors[_benefactor] */\n      dup2\n      and\n        /* \"DeadMansSwitch.sol\":5987:5991  bool */\n      0x00\n        /* \"DeadMansSwitch.sol\":6012:6036  benefactors[_benefactor] */\n      swap1\n      dup2\n      mstore\n      0x20\n      dup2\n      swap1\n      mstore\n      0x40\n      dup2\n      keccak256\n        /* \"DeadMansSwitch.sol\":6012:6043  benefactors[_benefactor].exists */\n      sload\n      0xff\n      and\n        /* \"DeadMansSwitch.sol\":6004:6072  require(benefactors[_benefactor].exists,\"Benefactor does not exist\") */\n      tag_119\n      jumpi\n      mload(0x40)\n      shl(0xe5, 0x461bcd)\n      dup2\n      mstore\n        /* \"#utility.yul\":9087:9089   */\n      0x20\n        /* \"DeadMansSwitch.sol\":6004:6072  require(benefactors[_benefactor].exists,\"Benefactor does not exist\") */\n      0x04\n      dup3\n      add\n        /* \"#utility.yul\":9069:9090   */\n      mstore\n        /* \"#utility.yul\":9126:9128   */\n      0x19\n        /* \"#utility.yul\":9106:9124   */\n      0x24\n      dup3\n      add\n        /* \"#utility.yul\":9099:9129   */\n      mstore\n        /* \"#utility.yul\":9165:9192   */\n      0x42656e65666163746f7220646f6573206e6f7420657869737400000000000000\n        /* \"#utility.yul\":9145:9163   */\n      0x44\n      dup3\n      add\n        /* \"#utility.yul\":9138:9193   */\n      mstore\n        /* \"#utility.yul\":9210:9228   */\n      0x64\n      add\n        /* \"DeadMansSwitch.sol\":6004:6072  require(benefactors[_benefactor].exists,\"Benefactor does not exist\") */\n    tag_120:\n      mload(0x40)\n      dup1\n      swap2\n      sub\n      swap1\n      revert\n    tag_119:\n      pop\n      sub(shl(0xa0, 0x01), 0x01)\n        /* \"DeadMansSwitch.sol\":6091:6115  benefactors[_benefactor] */\n      and\n        /* \"DeadMansSwitch.sol\":6091:6102  benefactors */\n      0x00\n        /* \"DeadMansSwitch.sol\":6091:6115  benefactors[_benefactor] */\n      swap1\n      dup2\n      mstore\n      0x20\n      dup2\n      swap1\n      mstore\n      0x40\n      swap1\n      keccak256\n        /* \"DeadMansSwitch.sol\":6091:6129  benefactors[_benefactor].isSwitchedOff */\n      0x04\n      add\n      sload\n      0xff\n      and\n        /* \"DeadMansSwitch.sol\":6090:6129  !benefactors[_benefactor].isSwitchedOff */\n      iszero\n      swap1\n        /* \"DeadMansSwitch.sol\":5920:6137  function getSwitchStatus(address _benefactor) public view returns (bool) {... */\n      jump\t// out\n        /* \"DeadMansSwitch.sol\":3541:3711  function isBeneficiary(address _benefactor, address _address) public view returns (bool) {... */\n    tag_46:\n      sub(shl(0xa0, 0x01), 0x01)\n        /* \"DeadMansSwitch.sol\":3648:3672  benefactors[_benefactor] */\n      dup1\n      dup4\n      and\n        /* \"DeadMansSwitch.sol\":3624:3628  bool */\n      0x00\n        /* \"DeadMansSwitch.sol\":3648:3672  benefactors[_benefactor] */\n      swap1\n      dup2\n      mstore\n      0x20\n      dup2\n      dup2\n      mstore\n      0x40\n      dup1\n      dup4\n      keccak256\n        /* \"DeadMansSwitch.sol\":3648:3696  benefactors[_benefactor].beneficiaries[_address] */\n      swap4\n      dup6\n      and\n      dup4\n      mstore\n        /* \"DeadMansSwitch.sol\":3648:3686  benefactors[_benefactor].beneficiaries */\n      0x01\n      swap1\n      swap4\n      add\n        /* \"DeadMansSwitch.sol\":3648:3696  benefactors[_benefactor].beneficiaries[_address] */\n      swap1\n      mstore\n      keccak256\n        /* \"DeadMansSwitch.sol\":3648:3703  benefactors[_benefactor].beneficiaries[_address].exists */\n      sload\n      0xff\n      and\n        /* \"DeadMansSwitch.sol\":3541:3711  function isBeneficiary(address _benefactor, address _address) public view returns (bool) {... */\n    tag_122:\n      swap3\n      swap2\n      pop\n      pop\n      jump\t// out\n        /* \"DeadMansSwitch.sol\":2835:3317  function setBenefactor() public{... */\n    tag_49:\n        /* \"DeadMansSwitch.sol\":2889:2899  msg.sender */\n      caller\n        /* \"DeadMansSwitch.sol\":2877:2888  benefactors */\n      0x00\n        /* \"DeadMansSwitch.sol\":2877:2900  benefactors[msg.sender] */\n      dup2\n      dup2\n      mstore\n      0x20\n      dup2\n      dup2\n      mstore\n      0x40\n      dup1\n      dup4\n      keccak256\n        /* \"DeadMansSwitch.sol\":2877:2912  benefactors[msg.sender].exists=true */\n      dup1\n      sload\n      not(0xff)\n      and\n        /* \"DeadMansSwitch.sol\":2908:2912  true */\n      0x01\n        /* \"DeadMansSwitch.sol\":2877:2912  benefactors[msg.sender].exists=true */\n      or\n      dup2\n      sstore\n        /* \"DeadMansSwitch.sol\":2967:2984  7*24*3600 seconds */\n      0x093a80\n        /* \"DeadMansSwitch.sol\":2923:2964  benefactors[msg.sender].countdownDuration */\n      0x02\n      dup3\n      add\n        /* \"DeadMansSwitch.sol\":2923:2984  benefactors[msg.sender].countdownDuration = 7*24*3600 seconds */\n      sstore\n        /* \"DeadMansSwitch.sol\":3092:3129  benefactors[msg.sender].isSwitchedOff */\n      0x04\n      dup2\n      add\n        /* \"DeadMansSwitch.sol\":3092:3136  benefactors[msg.sender].isSwitchedOff = true */\n      dup1\n      sload\n        /* \"DeadMansSwitch.sol\":3147:3185  benefactors[msg.sender].isAlive = true */\n      0x0101\n      not(0xffff)\n      swap1\n      swap2\n      and\n      or\n      swap1\n      sstore\n        /* \"DeadMansSwitch.sol\":3196:3246  benefactors[msg.sender].lastBenefactorResponseTime */\n      0x03\n      dup2\n      add\n        /* \"DeadMansSwitch.sol\":3196:3250  benefactors[msg.sender].lastBenefactorResponseTime = 0 */\n      dup5\n      swap1\n      sstore\n        /* \"DeadMansSwitch.sol\":3261:3309  benefactors[msg.sender].benefactorPublicKey = \"\" */\n      dup2\n      mload\n      dup1\n      dup5\n      add\n      swap1\n      swap3\n      mstore\n      dup4\n      dup3\n      mstore\n        /* \"DeadMansSwitch.sol\":3261:3284  benefactors[msg.sender] */\n      swap4\n      dup4\n      mstore\n      swap2\n      swap1\n      mstore\n        /* \"DeadMansSwitch.sol\":3261:3304  benefactors[msg.sender].benefactorPublicKey */\n      0x05\n      swap1\n      swap2\n      add\n      swap1\n        /* \"DeadMansSwitch.sol\":3261:3309  benefactors[msg.sender].benefactorPublicKey = \"\" */\n      tag_124\n      swap1\n        /* \"DeadMansSwitch.sol\":3261:3304  benefactors[msg.sender].benefactorPublicKey */\n      dup3\n        /* \"DeadMansSwitch.sol\":3261:3309  benefactors[msg.sender].benefactorPublicKey = \"\" */\n      tag_125\n      jump\t// in\n    tag_124:\n      pop\n        /* \"DeadMansSwitch.sol\":2835:3317  function setBenefactor() public{... */\n      jump\t// out\n        /* \"DeadMansSwitch.sol\":4395:4759  function addBeneficiaryPublicKey(address _benefactor, address _beneficiary, string memory _key) public {... */\n    tag_53:\n        /* \"DeadMansSwitch.sol\":4517:4556  isBeneficiary(_benefactor,_beneficiary) */\n      tag_127\n        /* \"DeadMansSwitch.sol\":4531:4542  _benefactor */\n      dup4\n        /* \"DeadMansSwitch.sol\":4543:4555  _beneficiary */\n      dup4\n        /* \"DeadMansSwitch.sol\":4517:4530  isBeneficiary */\n      tag_46\n        /* \"DeadMansSwitch.sol\":4517:4556  isBeneficiary(_benefactor,_beneficiary) */\n      jump\t// in\n    tag_127:\n        /* \"DeadMansSwitch.sol\":4509:4593  require(isBeneficiary(_benefactor,_beneficiary), \"Beneficiary/Benefactor not found\") */\n      tag_128\n      jumpi\n      mload(0x40)\n      shl(0xe5, 0x461bcd)\n      dup2\n      mstore\n        /* \"#utility.yul\":12030:12032   */\n      0x20\n        /* \"DeadMansSwitch.sol\":4509:4593  require(isBeneficiary(_benefactor,_beneficiary), \"Beneficiary/Benefactor not found\") */\n      0x04\n      dup3\n      add\n        /* \"#utility.yul\":12012:12033   */\n      dup2\n      swap1\n      mstore\n        /* \"#utility.yul\":12049:12067   */\n      0x24\n      dup3\n      add\n        /* \"#utility.yul\":12042:12072   */\n      mstore\n        /* \"#utility.yul\":12108:12142   */\n      0x42656e65666963696172792f42656e65666163746f72206e6f7420666f756e64\n        /* \"#utility.yul\":12088:12106   */\n      0x44\n      dup3\n      add\n        /* \"#utility.yul\":12081:12143   */\n      mstore\n        /* \"#utility.yul\":12160:12178   */\n      0x64\n      add\n        /* \"DeadMansSwitch.sol\":4509:4593  require(isBeneficiary(_benefactor,_beneficiary), \"Beneficiary/Benefactor not found\") */\n      tag_120\n        /* \"#utility.yul\":11828:12184   */\n      jump\n        /* \"DeadMansSwitch.sol\":4509:4593  require(isBeneficiary(_benefactor,_beneficiary), \"Beneficiary/Benefactor not found\") */\n    tag_128:\n      sub(shl(0xa0, 0x01), 0x01)\n        /* \"DeadMansSwitch.sol\":4604:4628  benefactors[_benefactor] */\n      dup1\n      dup5\n      and\n        /* \"DeadMansSwitch.sol\":4604:4615  benefactors */\n      0x00\n        /* \"DeadMansSwitch.sol\":4604:4628  benefactors[_benefactor] */\n      swap1\n      dup2\n      mstore\n      0x20\n      dup2\n      dup2\n      mstore\n      0x40\n      dup1\n      dup4\n      keccak256\n        /* \"DeadMansSwitch.sol\":4604:4656  benefactors[_benefactor].beneficiaries[_beneficiary] */\n      swap4\n      dup7\n      and\n      dup4\n      mstore\n        /* \"DeadMansSwitch.sol\":4604:4642  benefactors[_benefactor].beneficiaries */\n      0x01\n      swap1\n      swap4\n      add\n        /* \"DeadMansSwitch.sol\":4604:4656  benefactors[_benefactor].beneficiaries[_beneficiary] */\n      swap1\n      mstore\n      keccak256\n        /* \"DeadMansSwitch.sol\":4604:4677  benefactors[_benefactor].beneficiaries[_beneficiary].beneficiaryPublicKey */\n      0x02\n      add\n        /* \"DeadMansSwitch.sol\":4604:4684  benefactors[_benefactor].beneficiaries[_beneficiary].beneficiaryPublicKey = _key */\n      tag_131\n        /* \"DeadMansSwitch.sol\":4680:4684  _key */\n      dup3\n        /* \"DeadMansSwitch.sol\":4604:4677  benefactors[_benefactor].beneficiaries[_beneficiary].beneficiaryPublicKey */\n      dup3\n        /* \"DeadMansSwitch.sol\":4604:4684  benefactors[_benefactor].beneficiaries[_beneficiary].beneficiaryPublicKey = _key */\n      tag_125\n      jump\t// in\n    tag_131:\n      pop\n        /* \"DeadMansSwitch.sol\":4732:4744  _beneficiary */\n      dup2\n      sub(shl(0xa0, 0x01), 0x01)\n        /* \"DeadMansSwitch.sol\":4700:4751  BeneficiaryKeyAdded(_benefactor,_beneficiary, _key) */\n      and\n        /* \"DeadMansSwitch.sol\":4720:4731  _benefactor */\n      dup4\n      sub(shl(0xa0, 0x01), 0x01)\n        /* \"DeadMansSwitch.sol\":4700:4751  BeneficiaryKeyAdded(_benefactor,_beneficiary, _key) */\n      and\n      0x69ccea10852ac51b01745414774b5af302217e774786d2068296650b57ba03f2\n        /* \"DeadMansSwitch.sol\":4746:4750  _key */\n      dup4\n        /* \"DeadMansSwitch.sol\":4700:4751  BeneficiaryKeyAdded(_benefactor,_beneficiary, _key) */\n      mload(0x40)\n      tag_132\n      swap2\n      swap1\n      tag_65\n      jump\t// in\n    tag_132:\n      mload(0x40)\n      dup1\n      swap2\n      sub\n      swap1\n      log3\n        /* \"DeadMansSwitch.sol\":4395:4759  function addBeneficiaryPublicKey(address _benefactor, address _beneficiary, string memory _key) public {... */\n      pop\n      pop\n      pop\n      jump\t// out\n        /* \"DeadMansSwitch.sol\":6787:7378  function addBeneficiaries(address[] calldata _beneficiaries) external onlyBenefactor {... */\n    tag_57:\n        /* \"DeadMansSwitch.sol\":2621:2631  msg.sender */\n      caller\n        /* \"DeadMansSwitch.sol\":2609:2620  benefactors */\n      0x00\n        /* \"DeadMansSwitch.sol\":2609:2632  benefactors[msg.sender] */\n      swap1\n      dup2\n      mstore\n      0x20\n      dup2\n      swap1\n      mstore\n      0x40\n      swap1\n      keccak256\n        /* \"DeadMansSwitch.sol\":2609:2639  benefactors[msg.sender].exists */\n      sload\n      0xff\n      and\n        /* \"DeadMansSwitch.sol\":2609:2674  benefactors[msg.sender].exists && benefactors[msg.sender].isAlive */\n      dup1\n      iszero\n      tag_134\n      jumpi\n      pop\n        /* \"DeadMansSwitch.sol\":2655:2665  msg.sender */\n      caller\n        /* \"DeadMansSwitch.sol\":2643:2654  benefactors */\n      0x00\n        /* \"DeadMansSwitch.sol\":2643:2666  benefactors[msg.sender] */\n      swap1\n      dup2\n      mstore\n      0x20\n      dup2\n      swap1\n      mstore\n      0x40\n      swap1\n      keccak256\n        /* \"DeadMansSwitch.sol\":2643:2674  benefactors[msg.sender].isAlive */\n      0x04\n      add\n      sload\n      0x0100\n      swap1\n      div\n      0xff\n      and\n        /* \"DeadMansSwitch.sol\":2609:2674  benefactors[msg.sender].exists && benefactors[msg.sender].isAlive */\n    tag_134:\n        /* \"DeadMansSwitch.sol\":2601:2701  require(benefactors[msg.sender].exists && benefactors[msg.sender].isAlive, \"Not a valid benefactor\") */\n      tag_135\n      jumpi\n      mload(0x40)\n      shl(0xe5, 0x461bcd)\n      dup2\n      mstore\n        /* \"#utility.yul\":12391:12393   */\n      0x20\n        /* \"DeadMansSwitch.sol\":2601:2701  require(benefactors[msg.sender].exists && benefactors[msg.sender].isAlive, \"Not a valid benefactor\") */\n      0x04\n      dup3\n      add\n        /* \"#utility.yul\":12373:12394   */\n      mstore\n        /* \"#utility.yul\":12430:12432   */\n      0x16\n        /* \"#utility.yul\":12410:12428   */\n      0x24\n      dup3\n      add\n        /* \"#utility.yul\":12403:12433   */\n      mstore\n      shl(0x51, 0x2737ba1030903b30b634b2103132b732b330b1ba37b9)\n        /* \"#utility.yul\":12449:12467   */\n      0x44\n      dup3\n      add\n        /* \"#utility.yul\":12442:12494   */\n      mstore\n        /* \"#utility.yul\":12511:12529   */\n      0x64\n      add\n        /* \"DeadMansSwitch.sol\":2601:2701  require(benefactors[msg.sender].exists && benefactors[msg.sender].isAlive, \"Not a valid benefactor\") */\n      tag_120\n        /* \"#utility.yul\":12189:12535   */\n      jump\n        /* \"DeadMansSwitch.sol\":2601:2701  require(benefactors[msg.sender].exists && benefactors[msg.sender].isAlive, \"Not a valid benefactor\") */\n    tag_135:\n        /* \"DeadMansSwitch.sol\":6888:6897  uint256 i */\n      0x00\n        /* \"DeadMansSwitch.sol\":6883:7371  for (uint256 i = 0; i < _beneficiaries.length; i++) {... */\n    tag_139:\n        /* \"DeadMansSwitch.sol\":6903:6928  i < _beneficiaries.length */\n      dup2\n      dup2\n      lt\n        /* \"DeadMansSwitch.sol\":6883:7371  for (uint256 i = 0; i < _beneficiaries.length; i++) {... */\n      iszero\n      tag_140\n      jumpi\n        /* \"DeadMansSwitch.sol\":6950:6969  address beneficiary */\n      0x00\n        /* \"DeadMansSwitch.sol\":6972:6986  _beneficiaries */\n      dup4\n      dup4\n        /* \"DeadMansSwitch.sol\":6987:6988  i */\n      dup4\n        /* \"DeadMansSwitch.sol\":6972:6989  _beneficiaries[i] */\n      dup2\n      dup2\n      lt\n      tag_143\n      jumpi\n      tag_143\n      tag_144\n      jump\t// in\n    tag_143:\n      swap1\n      pop\n      0x20\n      mul\n      add\n      0x20\n      dup2\n      add\n      swap1\n      tag_145\n      swap2\n      swap1\n      tag_30\n      jump\t// in\n    tag_145:\n        /* \"DeadMansSwitch.sol\":6950:6989  address beneficiary = _beneficiaries[i] */\n      swap1\n      pop\n        /* \"DeadMansSwitch.sol\":7013:7051  isBeneficiary(msg.sender, beneficiary) */\n      tag_146\n        /* \"DeadMansSwitch.sol\":7027:7037  msg.sender */\n      caller\n        /* \"DeadMansSwitch.sol\":7039:7050  beneficiary */\n      dup3\n        /* \"DeadMansSwitch.sol\":7013:7026  isBeneficiary */\n      tag_46\n        /* \"DeadMansSwitch.sol\":7013:7051  isBeneficiary(msg.sender, beneficiary) */\n      jump\t// in\n    tag_146:\n        /* \"DeadMansSwitch.sol\":7012:7051  !isBeneficiary(msg.sender, beneficiary) */\n      iszero\n        /* \"DeadMansSwitch.sol\":7004:7082  require(!isBeneficiary(msg.sender, beneficiary), \"Beneficiary already exists\") */\n      tag_147\n      jumpi\n      mload(0x40)\n      shl(0xe5, 0x461bcd)\n      dup2\n      mstore\n        /* \"#utility.yul\":12874:12876   */\n      0x20\n        /* \"DeadMansSwitch.sol\":7004:7082  require(!isBeneficiary(msg.sender, beneficiary), \"Beneficiary already exists\") */\n      0x04\n      dup3\n      add\n        /* \"#utility.yul\":12856:12877   */\n      mstore\n        /* \"#utility.yul\":12913:12915   */\n      0x1a\n        /* \"#utility.yul\":12893:12911   */\n      0x24\n      dup3\n      add\n        /* \"#utility.yul\":12886:12916   */\n      mstore\n        /* \"#utility.yul\":12952:12980   */\n      0x42656e656669636961727920616c726561647920657869737473000000000000\n        /* \"#utility.yul\":12932:12950   */\n      0x44\n      dup3\n      add\n        /* \"#utility.yul\":12925:12981   */\n      mstore\n        /* \"#utility.yul\":12998:13016   */\n      0x64\n      add\n        /* \"DeadMansSwitch.sol\":7004:7082  require(!isBeneficiary(msg.sender, beneficiary), \"Beneficiary already exists\") */\n      tag_120\n        /* \"#utility.yul\":12672:13022   */\n      jump\n        /* \"DeadMansSwitch.sol\":7004:7082  require(!isBeneficiary(msg.sender, beneficiary), \"Beneficiary already exists\") */\n    tag_147:\n        /* \"DeadMansSwitch.sol\":7150:7188  Beneficiary(true, new string[](0), \"\") */\n      0x40\n      dup1\n      mload\n      0x60\n      dup2\n      add\n      dup3\n      mstore\n        /* \"DeadMansSwitch.sol\":7162:7166  true */\n      0x01\n        /* \"DeadMansSwitch.sol\":7150:7188  Beneficiary(true, new string[](0), \"\") */\n      dup2\n      mstore\n        /* \"DeadMansSwitch.sol\":7168:7183  new string[](0) */\n      dup2\n      mload\n      0x00\n      dup1\n      dup3\n      mstore\n        /* \"DeadMansSwitch.sol\":7150:7188  Beneficiary(true, new string[](0), \"\") */\n      0x20\n        /* \"DeadMansSwitch.sol\":7168:7183  new string[](0) */\n      dup3\n      dup2\n      add\n      swap1\n      swap5\n      mstore\n        /* \"DeadMansSwitch.sol\":7150:7188  Beneficiary(true, new string[](0), \"\") */\n      swap2\n      swap3\n      dup4\n      add\n      swap2\n        /* \"DeadMansSwitch.sol\":7168:7183  new string[](0) */\n      jump(tag_153)\n    tag_154:\n      0x60\n      dup2\n      mstore\n      0x20\n      add\n      swap1\n      0x01\n      swap1\n      sub\n      swap1\n      dup2\n      tag_154\n      jumpi\n      swap1\n      pop\n    tag_153:\n      pop\n        /* \"DeadMansSwitch.sol\":7150:7188  Beneficiary(true, new string[](0), \"\") */\n      dup2\n      mstore\n      0x40\n      dup1\n      mload\n      0x20\n      dup1\n      dup3\n      add\n      dup4\n      mstore\n      0x00\n      dup1\n      dup4\n      mstore\n      swap4\n      dup2\n      add\n      swap2\n      swap1\n      swap2\n      mstore\n        /* \"DeadMansSwitch.sol\":7109:7119  msg.sender */\n      caller\n        /* \"DeadMansSwitch.sol\":7097:7120  benefactors[msg.sender] */\n      dup4\n      mstore\n      dup3\n      dup2\n      mstore\n      dup2\n      dup4\n      keccak256\n      sub(shl(0xa0, 0x01), 0x01)\n        /* \"DeadMansSwitch.sol\":7097:7147  benefactors[msg.sender].beneficiaries[beneficiary] */\n      dup7\n      and\n      dup5\n      mstore\n        /* \"DeadMansSwitch.sol\":7097:7134  benefactors[msg.sender].beneficiaries */\n      0x01\n      swap1\n      dup2\n      add\n        /* \"DeadMansSwitch.sol\":7097:7147  benefactors[msg.sender].beneficiaries[beneficiary] */\n      dup3\n      mstore\n      swap2\n      swap1\n      swap3\n      keccak256\n        /* \"DeadMansSwitch.sol\":7097:7188  benefactors[msg.sender].beneficiaries[beneficiary] = Beneficiary(true, new string[](0), \"\") */\n      dup4\n      mload\n      dup2\n      sload\n      not(0xff)\n      and\n      swap1\n      iszero\n      iszero\n      or\n      dup2\n      sstore\n      dup4\n      dup4\n      add\n      mload\n      dup1\n      mload\n        /* \"DeadMansSwitch.sol\":7097:7147  benefactors[msg.sender].beneficiaries[beneficiary] */\n      swap2\n      swap4\n        /* \"DeadMansSwitch.sol\":7097:7188  benefactors[msg.sender].beneficiaries[beneficiary] = Beneficiary(true, new string[](0), \"\") */\n      tag_155\n      swap4\n      dup6\n      add\n      swap3\n      swap2\n      add\n      swap1\n      tag_156\n      jump\t// in\n    tag_155:\n      pop\n      0x40\n      dup3\n      add\n      mload\n      0x02\n      dup3\n      add\n      swap1\n      tag_157\n      swap1\n      dup3\n      tag_125\n      jump\t// in\n    tag_157:\n      pop\n      pop\n        /* \"DeadMansSwitch.sol\":7219:7229  msg.sender */\n      caller\n        /* \"DeadMansSwitch.sol\":7203:7230  beneficiaryKeys[msg.sender] */\n      0x00\n      dup2\n      dup2\n      mstore\n        /* \"DeadMansSwitch.sol\":7203:7218  beneficiaryKeys */\n      0x01\n        /* \"DeadMansSwitch.sol\":7203:7230  beneficiaryKeys[msg.sender] */\n      0x20\n      dup2\n      dup2\n      mstore\n      0x40\n      dup1\n      dup5\n      keccak256\n        /* \"DeadMansSwitch.sol\":7203:7248  beneficiaryKeys[msg.sender].push(beneficiary) */\n      dup1\n      sload\n      swap4\n      dup5\n      add\n      dup2\n      sstore\n      dup5\n      mstore\n      swap1\n      dup4\n      keccak256\n      swap1\n      swap2\n      add\n      dup1\n      sload\n      0xffffffffffffffffffffffff0000000000000000000000000000000000000000\n      and\n      sub(shl(0xa0, 0x01), 0x01)\n      dup8\n      and\n      swap1\n      dup2\n      or\n      swap1\n      swap2\n      sstore\n        /* \"DeadMansSwitch.sol\":7318:7359  BeneficiaryAdded(msg.sender, beneficiary) */\n      swap1\n      mload\n        /* \"DeadMansSwitch.sol\":7203:7248  beneficiaryKeys[msg.sender].push(beneficiary) */\n      swap1\n      swap4\n      pop\n        /* \"DeadMansSwitch.sol\":7318:7359  BeneficiaryAdded(msg.sender, beneficiary) */\n      0xbb39c36a7502b7256e1a687254146a9a2ea7b146c77cb9e40eb0e2b8793781e1\n      swap2\n        /* \"DeadMansSwitch.sol\":7203:7230  beneficiaryKeys[msg.sender] */\n      swap1\n        /* \"DeadMansSwitch.sol\":7318:7359  BeneficiaryAdded(msg.sender, beneficiary) */\n      log3\n      pop\n        /* \"DeadMansSwitch.sol\":6930:6933  i++ */\n      dup1\n      tag_159\n      dup2\n      tag_160\n      jump\t// in\n    tag_159:\n      swap2\n      pop\n      pop\n        /* \"DeadMansSwitch.sol\":6883:7371  for (uint256 i = 0; i < _beneficiaries.length; i++) {... */\n      jump(tag_139)\n    tag_140:\n      pop\n        /* \"DeadMansSwitch.sol\":6787:7378  function addBeneficiaries(address[] calldata _beneficiaries) external onlyBenefactor {... */\n      pop\n      pop\n      jump\t// out\n        /* \"DeadMansSwitch.sol\":6320:6612  function removeBeneficiary(address _beneficiary) external onlyBenefactor {... */\n    tag_60:\n        /* \"DeadMansSwitch.sol\":2621:2631  msg.sender */\n      caller\n        /* \"DeadMansSwitch.sol\":2609:2620  benefactors */\n      0x00\n        /* \"DeadMansSwitch.sol\":2609:2632  benefactors[msg.sender] */\n      swap1\n      dup2\n      mstore\n      0x20\n      dup2\n      swap1\n      mstore\n      0x40\n      swap1\n      keccak256\n        /* \"DeadMansSwitch.sol\":2609:2639  benefactors[msg.sender].exists */\n      sload\n      0xff\n      and\n        /* \"DeadMansSwitch.sol\":2609:2674  benefactors[msg.sender].exists && benefactors[msg.sender].isAlive */\n      dup1\n      iszero\n      tag_162\n      jumpi\n      pop\n        /* \"DeadMansSwitch.sol\":2655:2665  msg.sender */\n      caller\n        /* \"DeadMansSwitch.sol\":2643:2654  benefactors */\n      0x00\n        /* \"DeadMansSwitch.sol\":2643:2666  benefactors[msg.sender] */\n      swap1\n      dup2\n      mstore\n      0x20\n      dup2\n      swap1\n      mstore\n      0x40\n      swap1\n      keccak256\n        /* \"DeadMansSwitch.sol\":2643:2674  benefactors[msg.sender].isAlive */\n      0x04\n      add\n      sload\n      0x0100\n      swap1\n      div\n      0xff\n      and\n        /* \"DeadMansSwitch.sol\":2609:2674  benefactors[msg.sender].exists && benefactors[msg.sender].isAlive */\n    tag_162:\n        /* \"DeadMansSwitch.sol\":2601:2701  require(benefactors[msg.sender].exists && benefactors[msg.sender].isAlive, \"Not a valid benefactor\") */\n      tag_163\n      jumpi\n      mload(0x40)\n      shl(0xe5, 0x461bcd)\n      dup2\n      mstore\n        /* \"#utility.yul\":12391:12393   */\n      0x20\n        /* \"DeadMansSwitch.sol\":2601:2701  require(benefactors[msg.sender].exists && benefactors[msg.sender].isAlive, \"Not a valid benefactor\") */\n      0x04\n      dup3\n      add\n        /* \"#utility.yul\":12373:12394   */\n      mstore\n        /* \"#utility.yul\":12430:12432   */\n      0x16\n        /* \"#utility.yul\":12410:12428   */\n      0x24\n      dup3\n      add\n        /* \"#utility.yul\":12403:12433   */\n      mstore\n      shl(0x51, 0x2737ba1030903b30b634b2103132b732b330b1ba37b9)\n        /* \"#utility.yul\":12449:12467   */\n      0x44\n      dup3\n      add\n        /* \"#utility.yul\":12442:12494   */\n      mstore\n        /* \"#utility.yul\":12511:12529   */\n      0x64\n      add\n        /* \"DeadMansSwitch.sol\":2601:2701  require(benefactors[msg.sender].exists && benefactors[msg.sender].isAlive, \"Not a valid benefactor\") */\n      tag_120\n        /* \"#utility.yul\":12189:12535   */\n      jump\n        /* \"DeadMansSwitch.sol\":2601:2701  require(benefactors[msg.sender].exists && benefactors[msg.sender].isAlive, \"Not a valid benefactor\") */\n    tag_163:\n        /* \"DeadMansSwitch.sol\":6412:6450  isBeneficiary(msg.sender,_beneficiary) */\n      tag_166\n        /* \"DeadMansSwitch.sol\":6426:6436  msg.sender */\n      caller\n        /* \"DeadMansSwitch.sol\":6437:6449  _beneficiary */\n      dup3\n        /* \"DeadMansSwitch.sol\":6412:6425  isBeneficiary */\n      tag_46\n        /* \"DeadMansSwitch.sol\":6412:6450  isBeneficiary(msg.sender,_beneficiary) */\n      jump\t// in\n    tag_166:\n        /* \"DeadMansSwitch.sol\":6404:6476  require(isBeneficiary(msg.sender,_beneficiary), \"Beneficiary not found\") */\n      tag_167\n      jumpi\n      mload(0x40)\n      shl(0xe5, 0x461bcd)\n      dup2\n      mstore\n        /* \"#utility.yul\":13369:13371   */\n      0x20\n        /* \"DeadMansSwitch.sol\":6404:6476  require(isBeneficiary(msg.sender,_beneficiary), \"Beneficiary not found\") */\n      0x04\n      dup3\n      add\n        /* \"#utility.yul\":13351:13372   */\n      mstore\n        /* \"#utility.yul\":13408:13410   */\n      0x15\n        /* \"#utility.yul\":13388:13406   */\n      0x24\n      dup3\n      add\n        /* \"#utility.yul\":13381:13411   */\n      mstore\n      shl(0x5a, 0x10995b99599a58da585c9e481b9bdd08199bdd5b99)\n        /* \"#utility.yul\":13427:13445   */\n      0x44\n      dup3\n      add\n        /* \"#utility.yul\":13420:13471   */\n      mstore\n        /* \"#utility.yul\":13488:13506   */\n      0x64\n      add\n        /* \"DeadMansSwitch.sol\":6404:6476  require(isBeneficiary(msg.sender,_beneficiary), \"Beneficiary not found\") */\n      tag_120\n        /* \"#utility.yul\":13167:13512   */\n      jump\n        /* \"DeadMansSwitch.sol\":6404:6476  require(isBeneficiary(msg.sender,_beneficiary), \"Beneficiary not found\") */\n    tag_167:\n        /* \"DeadMansSwitch.sol\":6506:6516  msg.sender */\n      caller\n        /* \"DeadMansSwitch.sol\":6494:6505  benefactors */\n      0x00\n        /* \"DeadMansSwitch.sol\":6494:6517  benefactors[msg.sender] */\n      swap1\n      dup2\n      mstore\n      0x20\n      dup2\n      dup2\n      mstore\n      0x40\n      dup1\n      dup4\n      keccak256\n      sub(shl(0xa0, 0x01), 0x01)\n        /* \"DeadMansSwitch.sol\":6494:6545  benefactors[msg.sender].beneficiaries[_beneficiary] */\n      dup6\n      and\n      dup5\n      mstore\n        /* \"DeadMansSwitch.sol\":6494:6531  benefactors[msg.sender].beneficiaries */\n      0x01\n      swap1\n      dup2\n      add\n        /* \"DeadMansSwitch.sol\":6494:6545  benefactors[msg.sender].beneficiaries[_beneficiary] */\n      swap1\n      swap3\n      mstore\n      dup3\n      keccak256\n        /* \"DeadMansSwitch.sol\":6487:6545  delete benefactors[msg.sender].beneficiaries[_beneficiary] */\n      dup1\n      sload\n      not(0xff)\n      and\n      dup2\n      sstore\n        /* \"DeadMansSwitch.sol\":6494:6545  benefactors[msg.sender].beneficiaries[_beneficiary] */\n      swap2\n        /* \"DeadMansSwitch.sol\":6494:6505  benefactors */\n      swap1\n        /* \"DeadMansSwitch.sol\":6487:6545  delete benefactors[msg.sender].beneficiaries[_beneficiary] */\n      tag_170\n      swap1\n      dup4\n      add\n        /* \"DeadMansSwitch.sol\":6494:6505  benefactors */\n      dup3\n        /* \"DeadMansSwitch.sol\":6487:6545  delete benefactors[msg.sender].beneficiaries[_beneficiary] */\n      tag_171\n      jump\t// in\n    tag_170:\n      tag_172\n      0x02\n      dup4\n      add\n      0x00\n      tag_173\n      jump\t// in\n    tag_172:\n      pop\n      pop\n        /* \"DeadMansSwitch.sol\":6561:6604  BeneficiaryRemoved(msg.sender,_beneficiary) */\n      mload(0x40)\n      sub(shl(0xa0, 0x01), 0x01)\n      dup3\n      and\n      swap1\n        /* \"DeadMansSwitch.sol\":6580:6590  msg.sender */\n      caller\n      swap1\n        /* \"DeadMansSwitch.sol\":6561:6604  BeneficiaryRemoved(msg.sender,_beneficiary) */\n      0x1a6590bd0cabbfcc7c86bef99e1034054e179905cfcc294598fcd426c0922442\n      swap1\n      0x00\n      swap1\n      log3\n        /* \"DeadMansSwitch.sol\":6320:6612  function removeBeneficiary(address _beneficiary) external onlyBenefactor {... */\n      pop\n      jump\t// out\n        /* \"DeadMansSwitch.sol\":4877:5147  function getBenefactorPublicKey(address _benefactor) public view returns(string memory) {... */\n    tag_63:\n        /* \"DeadMansSwitch.sol\":4950:4963  string memory */\n      0x60\n        /* \"DeadMansSwitch.sol\":4980:5018  isBeneficiary(_benefactor, msg.sender) */\n      tag_175\n        /* \"DeadMansSwitch.sol\":4994:5005  _benefactor */\n      dup3\n        /* \"DeadMansSwitch.sol\":5007:5017  msg.sender */\n      caller\n        /* \"DeadMansSwitch.sol\":4980:4993  isBeneficiary */\n      tag_46\n        /* \"DeadMansSwitch.sol\":4980:5018  isBeneficiary(_benefactor, msg.sender) */\n      jump\t// in\n    tag_175:\n        /* \"DeadMansSwitch.sol\":4976:5140  if (isBeneficiary(_benefactor, msg.sender)) {... */\n      iszero\n      tag_176\n      jumpi\n      sub(shl(0xa0, 0x01), 0x01)\n        /* \"DeadMansSwitch.sol\":5042:5066  benefactors[_benefactor] */\n      dup3\n      and\n        /* \"DeadMansSwitch.sol\":5042:5053  benefactors */\n      0x00\n        /* \"DeadMansSwitch.sol\":5042:5066  benefactors[_benefactor] */\n      swap1\n      dup2\n      mstore\n      0x20\n      dup2\n      swap1\n      mstore\n      0x40\n      swap1\n      keccak256\n        /* \"DeadMansSwitch.sol\":5042:5086  benefactors[_benefactor].benefactorPublicKey */\n      0x05\n      add\n        /* \"DeadMansSwitch.sol\":5035:5086  return benefactors[_benefactor].benefactorPublicKey */\n      dup1\n      sload\n      tag_177\n      swap1\n      tag_178\n      jump\t// in\n    tag_177:\n      dup1\n      0x1f\n      add\n      0x20\n      dup1\n      swap2\n      div\n      mul\n      0x20\n      add\n      mload(0x40)\n      swap1\n      dup2\n      add\n      0x40\n      mstore\n      dup1\n      swap3\n      swap2\n      swap1\n      dup2\n      dup2\n      mstore\n      0x20\n      add\n      dup3\n      dup1\n      sload\n      tag_179\n      swap1\n      tag_178\n      jump\t// in\n    tag_179:\n      dup1\n      iszero\n      tag_180\n      jumpi\n      dup1\n      0x1f\n      lt\n      tag_181\n      jumpi\n      0x0100\n      dup1\n      dup4\n      sload\n      div\n      mul\n      dup4\n      mstore\n      swap2\n      0x20\n      add\n      swap2\n      jump(tag_180)\n    tag_181:\n      dup3\n      add\n      swap2\n      swap1\n      0x00\n      mstore\n      keccak256(0x00, 0x20)\n      swap1\n    tag_182:\n      dup2\n      sload\n      dup2\n      mstore\n      swap1\n      0x01\n      add\n      swap1\n      0x20\n      add\n      dup1\n      dup4\n      gt\n      tag_182\n      jumpi\n      dup3\n      swap1\n      sub\n      0x1f\n      and\n      dup3\n      add\n      swap2\n    tag_180:\n      pop\n      pop\n      pop\n      pop\n      pop\n      swap1\n      pop\n        /* \"DeadMansSwitch.sol\":4877:5147  function getBenefactorPublicKey(address _benefactor) public view returns(string memory) {... */\n      swap2\n      swap1\n      pop\n      jump\t// out\n        /* \"DeadMansSwitch.sol\":4976:5140  if (isBeneficiary(_benefactor, msg.sender)) {... */\n    tag_176:\n      pop\n      pop\n        /* \"DeadMansSwitch.sol\":5119:5128  return \"\" */\n      0x40\n      dup1\n      mload\n      0x20\n      dup2\n      add\n      swap1\n      swap2\n      mstore\n      0x00\n      dup2\n      mstore\n      swap1\n        /* \"DeadMansSwitch.sol\":4877:5147  function getBenefactorPublicKey(address _benefactor) public view returns(string memory) {... */\n      jump\t// out\n        /* \"DeadMansSwitch.sol\":4976:5140  if (isBeneficiary(_benefactor, msg.sender)) {... */\n    tag_183:\n        /* \"DeadMansSwitch.sol\":4877:5147  function getBenefactorPublicKey(address _benefactor) public view returns(string memory) {... */\n      swap2\n      swap1\n      pop\n      jump\t// out\n        /* \"DeadMansSwitch.sol\":8573:9488  function removeIpfsCID(address _beneficiary, string memory _ipfsCID) external onlyBenefactor {... */\n    tag_69:\n        /* \"DeadMansSwitch.sol\":2621:2631  msg.sender */\n      caller\n        /* \"DeadMansSwitch.sol\":2609:2620  benefactors */\n      0x00\n        /* \"DeadMansSwitch.sol\":2609:2632  benefactors[msg.sender] */\n      swap1\n      dup2\n      mstore\n      0x20\n      dup2\n      swap1\n      mstore\n      0x40\n      swap1\n      keccak256\n        /* \"DeadMansSwitch.sol\":2609:2639  benefactors[msg.sender].exists */\n      sload\n      0xff\n      and\n        /* \"DeadMansSwitch.sol\":2609:2674  benefactors[msg.sender].exists && benefactors[msg.sender].isAlive */\n      dup1\n      iszero\n      tag_185\n      jumpi\n      pop\n        /* \"DeadMansSwitch.sol\":2655:2665  msg.sender */\n      caller\n        /* \"DeadMansSwitch.sol\":2643:2654  benefactors */\n      0x00\n        /* \"DeadMansSwitch.sol\":2643:2666  benefactors[msg.sender] */\n      swap1\n      dup2\n      mstore\n      0x20\n      dup2\n      swap1\n      mstore\n      0x40\n      swap1\n      keccak256\n        /* \"DeadMansSwitch.sol\":2643:2674  benefactors[msg.sender].isAlive */\n      0x04\n      add\n      sload\n      0x0100\n      swap1\n      div\n      0xff\n      and\n        /* \"DeadMansSwitch.sol\":2609:2674  benefactors[msg.sender].exists && benefactors[msg.sender].isAlive */\n    tag_185:\n        /* \"DeadMansSwitch.sol\":2601:2701  require(benefactors[msg.sender].exists && benefactors[msg.sender].isAlive, \"Not a valid benefactor\") */\n      tag_186\n      jumpi\n      mload(0x40)\n      shl(0xe5, 0x461bcd)\n      dup2\n      mstore\n        /* \"#utility.yul\":12391:12393   */\n      0x20\n        /* \"DeadMansSwitch.sol\":2601:2701  require(benefactors[msg.sender].exists && benefactors[msg.sender].isAlive, \"Not a valid benefactor\") */\n      0x04\n      dup3\n      add\n        /* \"#utility.yul\":12373:12394   */\n      mstore\n        /* \"#utility.yul\":12430:12432   */\n      0x16\n        /* \"#utility.yul\":12410:12428   */\n      0x24\n      dup3\n      add\n        /* \"#utility.yul\":12403:12433   */\n      mstore\n      shl(0x51, 0x2737ba1030903b30b634b2103132b732b330b1ba37b9)\n        /* \"#utility.yul\":12449:12467   */\n      0x44\n      dup3\n      add\n        /* \"#utility.yul\":12442:12494   */\n      mstore\n        /* \"#utility.yul\":12511:12529   */\n      0x64\n      add\n        /* \"DeadMansSwitch.sol\":2601:2701  require(benefactors[msg.sender].exists && benefactors[msg.sender].isAlive, \"Not a valid benefactor\") */\n      tag_120\n        /* \"#utility.yul\":12189:12535   */\n      jump\n        /* \"DeadMansSwitch.sol\":2601:2701  require(benefactors[msg.sender].exists && benefactors[msg.sender].isAlive, \"Not a valid benefactor\") */\n    tag_186:\n        /* \"DeadMansSwitch.sol\":8685:8724  isBeneficiary(msg.sender, _beneficiary) */\n      tag_189\n        /* \"DeadMansSwitch.sol\":8699:8709  msg.sender */\n      caller\n        /* \"DeadMansSwitch.sol\":8711:8723  _beneficiary */\n      dup4\n        /* \"DeadMansSwitch.sol\":8685:8698  isBeneficiary */\n      tag_46\n        /* \"DeadMansSwitch.sol\":8685:8724  isBeneficiary(msg.sender, _beneficiary) */\n      jump\t// in\n    tag_189:\n        /* \"DeadMansSwitch.sol\":8677:8750  require(isBeneficiary(msg.sender, _beneficiary), \"Beneficiary not found\") */\n      tag_190\n      jumpi\n      mload(0x40)\n      shl(0xe5, 0x461bcd)\n      dup2\n      mstore\n        /* \"#utility.yul\":13369:13371   */\n      0x20\n        /* \"DeadMansSwitch.sol\":8677:8750  require(isBeneficiary(msg.sender, _beneficiary), \"Beneficiary not found\") */\n      0x04\n      dup3\n      add\n        /* \"#utility.yul\":13351:13372   */\n      mstore\n        /* \"#utility.yul\":13408:13410   */\n      0x15\n        /* \"#utility.yul\":13388:13406   */\n      0x24\n      dup3\n      add\n        /* \"#utility.yul\":13381:13411   */\n      mstore\n      shl(0x5a, 0x10995b99599a58da585c9e481b9bdd08199bdd5b99)\n        /* \"#utility.yul\":13427:13445   */\n      0x44\n      dup3\n      add\n        /* \"#utility.yul\":13420:13471   */\n      mstore\n        /* \"#utility.yul\":13488:13506   */\n      0x64\n      add\n        /* \"DeadMansSwitch.sol\":8677:8750  require(isBeneficiary(msg.sender, _beneficiary), \"Beneficiary not found\") */\n      tag_120\n        /* \"#utility.yul\":13167:13512   */\n      jump\n        /* \"DeadMansSwitch.sol\":8677:8750  require(isBeneficiary(msg.sender, _beneficiary), \"Beneficiary not found\") */\n    tag_190:\n        /* \"DeadMansSwitch.sol\":8803:8813  msg.sender */\n      caller\n        /* \"DeadMansSwitch.sol\":8763:8788  string[] storage ipfsCIDs */\n      0x00\n        /* \"DeadMansSwitch.sol\":8791:8814  benefactors[msg.sender] */\n      swap1\n      dup2\n      mstore\n      0x20\n      dup2\n      dup2\n      mstore\n      0x40\n      dup1\n      dup4\n      keccak256\n      sub(shl(0xa0, 0x01), 0x01)\n        /* \"DeadMansSwitch.sol\":8791:8842  benefactors[msg.sender].beneficiaries[_beneficiary] */\n      dup7\n      and\n      dup5\n      mstore\n        /* \"DeadMansSwitch.sol\":8791:8828  benefactors[msg.sender].beneficiaries */\n      0x01\n      swap1\n      dup2\n      add\n        /* \"DeadMansSwitch.sol\":8791:8842  benefactors[msg.sender].beneficiaries[_beneficiary] */\n      swap1\n      swap3\n      mstore\n      dup3\n      keccak256\n        /* \"DeadMansSwitch.sol\":8791:8851  benefactors[msg.sender].beneficiaries[_beneficiary].ipfsCIDs */\n      add\n      swap1\n        /* \"DeadMansSwitch.sol\":8908:9398  for (uint256 i = 0; i < ipfsCIDs.length; i++) {... */\n    tag_192:\n        /* \"DeadMansSwitch.sol\":8932:8947  ipfsCIDs.length */\n      dup2\n      sload\n        /* \"DeadMansSwitch.sol\":8928:8947  i < ipfsCIDs.length */\n      dup2\n      lt\n        /* \"DeadMansSwitch.sol\":8908:9398  for (uint256 i = 0; i < ipfsCIDs.length; i++) {... */\n      iszero\n      tag_193\n      jumpi\n        /* \"DeadMansSwitch.sol\":9044:9052  _ipfsCID */\n      dup3\n        /* \"DeadMansSwitch.sol\":9027:9053  abi.encodePacked(_ipfsCID) */\n      add(0x20, mload(0x40))\n      tag_195\n      swap2\n      swap1\n      tag_196\n      jump\t// in\n    tag_195:\n      mload(0x40)\n      0x20\n      dup2\n      dup4\n      sub\n      sub\n      dup2\n      mstore\n      swap1\n      0x40\n      mstore\n        /* \"DeadMansSwitch.sol\":9017:9054  keccak256(abi.encodePacked(_ipfsCID)) */\n      dup1\n      mload\n      swap1\n      0x20\n      add\n      keccak256\n        /* \"DeadMansSwitch.sol\":9000:9008  ipfsCIDs */\n      dup3\n        /* \"DeadMansSwitch.sol\":9009:9010  i */\n      dup3\n        /* \"DeadMansSwitch.sol\":9000:9011  ipfsCIDs[i] */\n      dup2\n      sload\n      dup2\n      lt\n      tag_198\n      jumpi\n      tag_198\n      tag_144\n      jump\t// in\n    tag_198:\n      swap1\n      0x00\n      mstore\n      keccak256(0x00, 0x20)\n      add\n        /* \"DeadMansSwitch.sol\":8983:9012  abi.encodePacked(ipfsCIDs[i]) */\n      add(0x20, mload(0x40))\n      tag_200\n      swap2\n      swap1\n      tag_201\n      jump\t// in\n    tag_200:\n      mload(0x40)\n      0x20\n      dup2\n      dup4\n      sub\n      sub\n      dup2\n      mstore\n      swap1\n      0x40\n      mstore\n        /* \"DeadMansSwitch.sol\":8973:9013  keccak256(abi.encodePacked(ipfsCIDs[i])) */\n      dup1\n      mload\n      swap1\n      0x20\n      add\n      keccak256\n        /* \"DeadMansSwitch.sol\":8973:9054  keccak256(abi.encodePacked(ipfsCIDs[i])) == keccak256(abi.encodePacked(_ipfsCID)) */\n      sub\n        /* \"DeadMansSwitch.sol\":8969:9387  if (keccak256(abi.encodePacked(ipfsCIDs[i])) == keccak256(abi.encodePacked(_ipfsCID))) {... */\n      tag_202\n      jumpi\n        /* \"DeadMansSwitch.sol\":9166:9181  ipfsCIDs.length */\n      dup2\n      sload\n        /* \"DeadMansSwitch.sol\":9157:9165  ipfsCIDs */\n      dup3\n      swap1\n        /* \"DeadMansSwitch.sol\":9166:9185  ipfsCIDs.length - 1 */\n      tag_203\n      swap1\n        /* \"DeadMansSwitch.sol\":9184:9185  1 */\n      0x01\n      swap1\n        /* \"DeadMansSwitch.sol\":9166:9185  ipfsCIDs.length - 1 */\n      tag_106\n      jump\t// in\n    tag_203:\n        /* \"DeadMansSwitch.sol\":9157:9186  ipfsCIDs[ipfsCIDs.length - 1] */\n      dup2\n      sload\n      dup2\n      lt\n      tag_205\n      jumpi\n      tag_205\n      tag_144\n      jump\t// in\n    tag_205:\n      swap1\n      0x00\n      mstore\n      keccak256(0x00, 0x20)\n      add\n        /* \"DeadMansSwitch.sol\":9143:9151  ipfsCIDs */\n      dup3\n        /* \"DeadMansSwitch.sol\":9152:9153  i */\n      dup3\n        /* \"DeadMansSwitch.sol\":9143:9154  ipfsCIDs[i] */\n      dup2\n      sload\n      dup2\n      lt\n      tag_208\n      jumpi\n      tag_208\n      tag_144\n      jump\t// in\n    tag_208:\n      swap1\n      0x00\n      mstore\n      keccak256(0x00, 0x20)\n      add\n        /* \"DeadMansSwitch.sol\":9143:9186  ipfsCIDs[i] = ipfsCIDs[ipfsCIDs.length - 1] */\n      swap1\n      dup2\n      tag_210\n      swap2\n      swap1\n      tag_211\n      jump\t// in\n    tag_210:\n      pop\n        /* \"DeadMansSwitch.sol\":9258:9266  ipfsCIDs */\n      dup2\n        /* \"DeadMansSwitch.sol\":9258:9272  ipfsCIDs.pop() */\n      dup1\n      sload\n      dup1\n      tag_213\n      jumpi\n      tag_213\n      tag_214\n      jump\t// in\n    tag_213:\n      0x01\n      swap1\n      sub\n      dup2\n      dup2\n      swap1\n      0x00\n      mstore\n      keccak256(0x00, 0x20)\n      add\n      0x00\n      tag_216\n      swap2\n      swap1\n      tag_173\n      jump\t// in\n    tag_216:\n      swap1\n      sstore\n        /* \"DeadMansSwitch.sol\":9323:9335  _beneficiary */\n      dup4\n      sub(shl(0xa0, 0x01), 0x01)\n        /* \"DeadMansSwitch.sol\":9296:9346  IpfsCIDRemoved(msg.sender, _beneficiary, _ipfsCID) */\n      and\n        /* \"DeadMansSwitch.sol\":9311:9321  msg.sender */\n      caller\n      sub(shl(0xa0, 0x01), 0x01)\n        /* \"DeadMansSwitch.sol\":9296:9346  IpfsCIDRemoved(msg.sender, _beneficiary, _ipfsCID) */\n      and\n      0x4c13211ce3b2d0cb3e02a662cc071d6be555042ca58d4d812b7b90e80d3250ac\n        /* \"DeadMansSwitch.sol\":9337:9345  _ipfsCID */\n      dup6\n        /* \"DeadMansSwitch.sol\":9296:9346  IpfsCIDRemoved(msg.sender, _beneficiary, _ipfsCID) */\n      mload(0x40)\n      tag_217\n      swap2\n      swap1\n      tag_65\n      jump\t// in\n    tag_217:\n      mload(0x40)\n      dup1\n      swap2\n      sub\n      swap1\n      log3\n        /* \"DeadMansSwitch.sol\":9365:9372  return; */\n      pop\n      pop\n        /* \"DeadMansSwitch.sol\":8573:9488  function removeIpfsCID(address _beneficiary, string memory _ipfsCID) external onlyBenefactor {... */\n      pop\n      pop\n      jump\t// out\n        /* \"DeadMansSwitch.sol\":8969:9387  if (keccak256(abi.encodePacked(ipfsCIDs[i])) == keccak256(abi.encodePacked(_ipfsCID))) {... */\n    tag_202:\n        /* \"DeadMansSwitch.sol\":8949:8952  i++ */\n      dup1\n      tag_218\n      dup2\n      tag_160\n      jump\t// in\n    tag_218:\n      swap2\n      pop\n      pop\n        /* \"DeadMansSwitch.sol\":8908:9398  for (uint256 i = 0; i < ipfsCIDs.length; i++) {... */\n      jump(tag_192)\n    tag_193:\n      pop\n        /* \"DeadMansSwitch.sol\":9434:9480  revert(\"CID not assigned to this beneficiary\") */\n      mload(0x40)\n      shl(0xe5, 0x461bcd)\n      dup2\n      mstore\n        /* \"#utility.yul\":16432:16434   */\n      0x20\n        /* \"DeadMansSwitch.sol\":9434:9480  revert(\"CID not assigned to this beneficiary\") */\n      0x04\n      dup3\n      add\n        /* \"#utility.yul\":16414:16435   */\n      mstore\n        /* \"#utility.yul\":16471:16473   */\n      0x24\n        /* \"#utility.yul\":16451:16469   */\n      dup1\n      dup3\n      add\n        /* \"#utility.yul\":16444:16474   */\n      mstore\n        /* \"#utility.yul\":16510:16544   */\n      0x434944206e6f742061737369676e656420746f20746869732062656e65666963\n        /* \"#utility.yul\":16490:16508   */\n      0x44\n      dup3\n      add\n        /* \"#utility.yul\":16483:16545   */\n      mstore\n      shl(0xe0, 0x69617279)\n        /* \"#utility.yul\":16561:16579   */\n      0x64\n      dup3\n      add\n        /* \"#utility.yul\":16554:16588   */\n      mstore\n        /* \"#utility.yul\":16605:16624   */\n      0x84\n      add\n        /* \"DeadMansSwitch.sol\":9434:9480  revert(\"CID not assigned to this beneficiary\") */\n      tag_120\n        /* \"#utility.yul\":16230:16630   */\n      jump\n        /* \"DeadMansSwitch.sol\":9650:10436  function enableSwitch(address _benefactor) external {... */\n    tag_72:\n      sub(shl(0xa0, 0x01), 0x01)\n        /* \"DeadMansSwitch.sol\":9788:9812  benefactors[_benefactor] */\n      dup2\n      and\n        /* \"DeadMansSwitch.sol\":9788:9799  benefactors */\n      0x00\n        /* \"DeadMansSwitch.sol\":9788:9812  benefactors[_benefactor] */\n      swap1\n      dup2\n      mstore\n      0x20\n      dup2\n      dup2\n      mstore\n      0x40\n      dup1\n      dup4\n      keccak256\n        /* \"DeadMansSwitch.sol\":9827:9837  msg.sender */\n      caller\n        /* \"DeadMansSwitch.sol\":9788:9838  benefactors[_benefactor].beneficiaries[msg.sender] */\n      dup5\n      mstore\n        /* \"DeadMansSwitch.sol\":9788:9826  benefactors[_benefactor].beneficiaries */\n      0x01\n      add\n        /* \"DeadMansSwitch.sol\":9788:9838  benefactors[_benefactor].beneficiaries[msg.sender] */\n      swap1\n      swap2\n      mstore\n      swap1\n      keccak256\n        /* \"DeadMansSwitch.sol\":9788:9845  benefactors[_benefactor].beneficiaries[msg.sender].exists */\n      sload\n      0xff\n      and\n        /* \"DeadMansSwitch.sol\":9780:9873  require(benefactors[_benefactor].beneficiaries[msg.sender].exists, \"Not a valid beneficiary\") */\n      tag_222\n      jumpi\n      mload(0x40)\n      shl(0xe5, 0x461bcd)\n      dup2\n      mstore\n        /* \"#utility.yul\":16837:16839   */\n      0x20\n        /* \"DeadMansSwitch.sol\":9780:9873  require(benefactors[_benefactor].beneficiaries[msg.sender].exists, \"Not a valid beneficiary\") */\n      0x04\n      dup3\n      add\n        /* \"#utility.yul\":16819:16840   */\n      mstore\n        /* \"#utility.yul\":16876:16878   */\n      0x17\n        /* \"#utility.yul\":16856:16874   */\n      0x24\n      dup3\n      add\n        /* \"#utility.yul\":16849:16879   */\n      mstore\n        /* \"#utility.yul\":16915:16940   */\n      0x4e6f7420612076616c69642062656e6566696369617279000000000000000000\n        /* \"#utility.yul\":16895:16913   */\n      0x44\n      dup3\n      add\n        /* \"#utility.yul\":16888:16941   */\n      mstore\n        /* \"#utility.yul\":16958:16976   */\n      0x64\n      add\n        /* \"DeadMansSwitch.sol\":9780:9873  require(benefactors[_benefactor].beneficiaries[msg.sender].exists, \"Not a valid beneficiary\") */\n      tag_120\n        /* \"#utility.yul\":16635:16982   */\n      jump\n        /* \"DeadMansSwitch.sol\":9780:9873  require(benefactors[_benefactor].beneficiaries[msg.sender].exists, \"Not a valid beneficiary\") */\n    tag_222:\n      sub(shl(0xa0, 0x01), 0x01)\n        /* \"DeadMansSwitch.sol\":9889:9913  benefactors[_benefactor] */\n      dup2\n      and\n        /* \"DeadMansSwitch.sol\":9889:9900  benefactors */\n      0x00\n        /* \"DeadMansSwitch.sol\":9889:9913  benefactors[_benefactor] */\n      swap1\n      dup2\n      mstore\n      0x20\n      dup2\n      swap1\n      mstore\n      0x40\n      swap1\n      keccak256\n        /* \"DeadMansSwitch.sol\":9889:9927  benefactors[_benefactor].isSwitchedOff */\n      0x04\n      add\n      sload\n      0xff\n      and\n        /* \"DeadMansSwitch.sol\":9884:10021  if (!benefactors[_benefactor].isSwitchedOff) {... */\n      tag_225\n      jumpi\n        /* \"DeadMansSwitch.sol\":9949:9988  SwitchAlreadyOn(_benefactor,msg.sender) */\n      mload(0x40)\n        /* \"DeadMansSwitch.sol\":9977:9987  msg.sender */\n      caller\n      swap1\n      sub(shl(0xa0, 0x01), 0x01)\n        /* \"DeadMansSwitch.sol\":9949:9988  SwitchAlreadyOn(_benefactor,msg.sender) */\n      dup4\n      and\n      swap1\n      0x67c4731bdc193862f421e091d18f46df876bfe1b8b9aa97504f1d50d425b239d\n      swap1\n      0x00\n      swap1\n      log3\n        /* \"DeadMansSwitch.sol\":9650:10436  function enableSwitch(address _benefactor) external {... */\n      pop\n      jump\t// out\n        /* \"DeadMansSwitch.sol\":9884:10021  if (!benefactors[_benefactor].isSwitchedOff) {... */\n    tag_225:\n      sub(shl(0xa0, 0x01), 0x01)\n        /* \"DeadMansSwitch.sol\":10031:10055  benefactors[_benefactor] */\n      dup2\n      and\n        /* \"DeadMansSwitch.sol\":10072:10077  false */\n      0x00\n        /* \"DeadMansSwitch.sol\":10031:10055  benefactors[_benefactor] */\n      dup2\n      dup2\n      mstore\n      0x20\n      dup2\n      dup2\n      mstore\n      0x40\n      swap2\n      dup3\n      swap1\n      keccak256\n        /* \"DeadMansSwitch.sol\":10031:10069  benefactors[_benefactor].isSwitchedOff */\n      0x04\n      dup2\n      add\n        /* \"DeadMansSwitch.sol\":10031:10077  benefactors[_benefactor].isSwitchedOff = false */\n      dup1\n      sload\n      not(0xff)\n      and\n      swap1\n      sstore\n        /* \"DeadMansSwitch.sol\":10187:10202  block.timestamp */\n      timestamp\n        /* \"DeadMansSwitch.sol\":10133:10184  benefactors[_benefactor].lastBenefactorResponseTime */\n      0x03\n      dup3\n      add\n        /* \"DeadMansSwitch.sol\":10133:10202  benefactors[_benefactor].lastBenefactorResponseTime = block.timestamp */\n      sstore\n        /* \"DeadMansSwitch.sol\":10385:10427  benefactors[_benefactor].countdownDuration */\n      0x02\n      add\n      sload\n        /* \"DeadMansSwitch.sol\":10339:10428  DeadMansSwitchEnabled(_benefactor,msg.sender, benefactors[_benefactor].countdownDuration) */\n      swap2\n      mload\n        /* \"#utility.yul\":552:577   */\n      swap2\n      dup3\n      mstore\n        /* \"DeadMansSwitch.sol\":10373:10383  msg.sender */\n      caller\n      swap3\n        /* \"DeadMansSwitch.sol\":10031:10055  benefactors[_benefactor] */\n      swap2\n        /* \"DeadMansSwitch.sol\":10339:10428  DeadMansSwitchEnabled(_benefactor,msg.sender, benefactors[_benefactor].countdownDuration) */\n      0x82595752291d0261dfb9b4b0c2307021c29c34e22fe0697b4840b529dc351bc3\n      swap2\n        /* \"#utility.yul\":525:543   */\n      add\n        /* \"DeadMansSwitch.sol\":10339:10428  DeadMansSwitchEnabled(_benefactor,msg.sender, benefactors[_benefactor].countdownDuration) */\n      mload(0x40)\n      dup1\n      swap2\n      sub\n      swap1\n      log3\n        /* \"DeadMansSwitch.sol\":9650:10436  function enableSwitch(address _benefactor) external {... */\n      pop\n      jump\t// out\n        /* \"DeadMansSwitch.sol\":5680:5912  function removeBenefactor(address _benefactor) public {... */\n    tag_75:\n        /* \"DeadMansSwitch.sol\":5765:5775  msg.sender */\n      caller\n        /* \"DeadMansSwitch.sol\":5753:5764  benefactors */\n      0x00\n        /* \"DeadMansSwitch.sol\":5753:5776  benefactors[msg.sender] */\n      swap1\n      dup2\n      mstore\n      0x20\n      dup2\n      swap1\n      mstore\n      0x40\n      swap1\n      keccak256\n        /* \"DeadMansSwitch.sol\":5753:5783  benefactors[msg.sender].exists */\n      sload\n      0xff\n      and\n        /* \"DeadMansSwitch.sol\":5745:5813  require(benefactors[msg.sender].exists, \"Benefactor not registered\") */\n      tag_228\n      jumpi\n      mload(0x40)\n      shl(0xe5, 0x461bcd)\n      dup2\n      mstore\n        /* \"#utility.yul\":17189:17191   */\n      0x20\n        /* \"DeadMansSwitch.sol\":5745:5813  require(benefactors[msg.sender].exists, \"Benefactor not registered\") */\n      0x04\n      dup3\n      add\n        /* \"#utility.yul\":17171:17192   */\n      mstore\n        /* \"#utility.yul\":17228:17230   */\n      0x19\n        /* \"#utility.yul\":17208:17226   */\n      0x24\n      dup3\n      add\n        /* \"#utility.yul\":17201:17231   */\n      mstore\n        /* \"#utility.yul\":17267:17294   */\n      0x42656e65666163746f72206e6f74207265676973746572656400000000000000\n        /* \"#utility.yul\":17247:17265   */\n      0x44\n      dup3\n      add\n        /* \"#utility.yul\":17240:17295   */\n      mstore\n        /* \"#utility.yul\":17312:17330   */\n      0x64\n      add\n        /* \"DeadMansSwitch.sol\":5745:5813  require(benefactors[msg.sender].exists, \"Benefactor not registered\") */\n      tag_120\n        /* \"#utility.yul\":16987:17336   */\n      jump\n        /* \"DeadMansSwitch.sol\":5745:5813  require(benefactors[msg.sender].exists, \"Benefactor not registered\") */\n    tag_228:\n        /* \"DeadMansSwitch.sol\":5836:5846  msg.sender */\n      caller\n        /* \"DeadMansSwitch.sol\":5857:5862  false */\n      0x00\n        /* \"DeadMansSwitch.sol\":5824:5847  benefactors[msg.sender] */\n      swap1\n      dup2\n      mstore\n      0x20\n      dup2\n      swap1\n      mstore\n      0x40\n      dup1\n      dup3\n      keccak256\n        /* \"DeadMansSwitch.sol\":5824:5862  benefactors[msg.sender].exists = false */\n      dup1\n      sload\n      not(0xff)\n      swap1\n      dup2\n      and\n      swap1\n      swap2\n      sstore\n      sub(shl(0xa0, 0x01), 0x01)\n        /* \"DeadMansSwitch.sol\":5880:5904  benefactors[_benefactor] */\n      dup5\n      and\n      dup4\n      mstore\n      swap1\n      dup3\n      keccak256\n        /* \"DeadMansSwitch.sol\":5873:5904  delete benefactors[_benefactor] */\n      dup1\n      sload\n      swap1\n      swap2\n      and\n      dup2\n      sstore\n      0x02\n      dup2\n      add\n      dup3\n      swap1\n      sstore\n      0x03\n      dup2\n      add\n      dup3\n      swap1\n      sstore\n      0x04\n      dup2\n      add\n      dup1\n      sload\n      not(0xffff)\n      and\n      swap1\n      sstore\n        /* \"DeadMansSwitch.sol\":5880:5904  benefactors[_benefactor] */\n      swap1\n        /* \"DeadMansSwitch.sol\":5873:5904  delete benefactors[_benefactor] */\n      tag_140\n      0x05\n      dup4\n      add\n        /* \"DeadMansSwitch.sol\":5857:5862  false */\n      dup3\n        /* \"DeadMansSwitch.sol\":5873:5904  delete benefactors[_benefactor] */\n      tag_173\n      jump\t// in\n        /* \"DeadMansSwitch.sol\":17642:18448  function getBeneficiaryData(address _benefactor, address _beneficiary) public returns (bool switchStatus, uint256 remainingTime, bool isAlive, string memory publicKey) {... */\n    tag_78:\n      sub(shl(0xa0, 0x01), 0x01)\n        /* \"DeadMansSwitch.sol\":17829:17853  benefactors[_benefactor] */\n      dup3\n      and\n        /* \"DeadMansSwitch.sol\":17729:17746  bool switchStatus */\n      0x00\n        /* \"DeadMansSwitch.sol\":17829:17853  benefactors[_benefactor] */\n      swap1\n      dup2\n      mstore\n      0x20\n      dup2\n      swap1\n      mstore\n      0x40\n      dup2\n      keccak256\n        /* \"DeadMansSwitch.sol\":17829:17860  benefactors[_benefactor].exists */\n      sload\n        /* \"DeadMansSwitch.sol\":17729:17746  bool switchStatus */\n      dup2\n      swap1\n      dup2\n      swap1\n        /* \"DeadMansSwitch.sol\":17785:17808  string memory publicKey */\n      0x60\n      swap1\n        /* \"DeadMansSwitch.sol\":17829:17860  benefactors[_benefactor].exists */\n      0xff\n      and\n        /* \"DeadMansSwitch.sol\":17821:17890  require(benefactors[_benefactor].exists, \"Benefactor does not exist\") */\n      tag_233\n      jumpi\n      mload(0x40)\n      shl(0xe5, 0x461bcd)\n      dup2\n      mstore\n        /* \"#utility.yul\":9087:9089   */\n      0x20\n        /* \"DeadMansSwitch.sol\":17821:17890  require(benefactors[_benefactor].exists, \"Benefactor does not exist\") */\n      0x04\n      dup3\n      add\n        /* \"#utility.yul\":9069:9090   */\n      mstore\n        /* \"#utility.yul\":9126:9128   */\n      0x19\n        /* \"#utility.yul\":9106:9124   */\n      0x24\n      dup3\n      add\n        /* \"#utility.yul\":9099:9129   */\n      mstore\n        /* \"#utility.yul\":9165:9192   */\n      0x42656e65666163746f7220646f6573206e6f7420657869737400000000000000\n        /* \"#utility.yul\":9145:9163   */\n      0x44\n      dup3\n      add\n        /* \"#utility.yul\":9138:9193   */\n      mstore\n        /* \"#utility.yul\":9210:9228   */\n      0x64\n      add\n        /* \"DeadMansSwitch.sol\":17821:17890  require(benefactors[_benefactor].exists, \"Benefactor does not exist\") */\n      tag_120\n        /* \"#utility.yul\":8885:9234   */\n      jump\n        /* \"DeadMansSwitch.sol\":17821:17890  require(benefactors[_benefactor].exists, \"Benefactor does not exist\") */\n    tag_233:\n      sub(shl(0xa0, 0x01), 0x01)\n        /* \"DeadMansSwitch.sol\":17917:17941  benefactors[_benefactor] */\n      dup7\n      and\n        /* \"DeadMansSwitch.sol\":17917:17928  benefactors */\n      0x00\n        /* \"DeadMansSwitch.sol\":17917:17941  benefactors[_benefactor] */\n      swap1\n      dup2\n      mstore\n      0x20\n      dup2\n      swap1\n      mstore\n      0x40\n      swap1\n      keccak256\n        /* \"DeadMansSwitch.sol\":17917:17955  benefactors[_benefactor].isSwitchedOff */\n      0x04\n      add\n      sload\n      0xff\n      and\n        /* \"DeadMansSwitch.sol\":17916:17955  !benefactors[_benefactor].isSwitchedOff */\n      iszero\n      swap4\n      pop\n      dup4\n        /* \"DeadMansSwitch.sol\":17966:18141  if (benefactors[_benefactor].isSwitchedOff) {... */\n      tag_235\n      jumpi\n        /* \"DeadMansSwitch.sol\":18041:18042  0 */\n      0x00\n        /* \"DeadMansSwitch.sol\":18025:18042  remainingTime = 0 */\n      swap3\n      pop\n        /* \"DeadMansSwitch.sol\":17966:18141  if (benefactors[_benefactor].isSwitchedOff) {... */\n      jump(tag_236)\n    tag_235:\n        /* \"DeadMansSwitch.sol\":18091:18129  getRemainingCountdownTime(_benefactor) */\n      tag_237\n        /* \"DeadMansSwitch.sol\":18117:18128  _benefactor */\n      dup7\n        /* \"DeadMansSwitch.sol\":18091:18116  getRemainingCountdownTime */\n      tag_31\n        /* \"DeadMansSwitch.sol\":18091:18129  getRemainingCountdownTime(_benefactor) */\n      jump\t// in\n    tag_237:\n        /* \"DeadMansSwitch.sol\":18075:18129  remainingTime = getRemainingCountdownTime(_benefactor) */\n      swap3\n      pop\n        /* \"DeadMansSwitch.sol\":17966:18141  if (benefactors[_benefactor].isSwitchedOff) {... */\n    tag_236:\n      sub(shl(0xa0, 0x01), 0x01)\n        /* \"DeadMansSwitch.sol\":18161:18185  benefactors[_benefactor] */\n      dup7\n      dup2\n      and\n        /* \"DeadMansSwitch.sol\":18161:18172  benefactors */\n      0x00\n        /* \"DeadMansSwitch.sol\":18161:18185  benefactors[_benefactor] */\n      swap1\n      dup2\n      mstore\n      0x20\n      dup2\n      dup2\n      mstore\n      0x40\n      dup1\n      dup4\n      keccak256\n        /* \"DeadMansSwitch.sol\":18161:18193  benefactors[_benefactor].isAlive */\n      0x04\n      dup2\n      add\n      sload\n        /* \"DeadMansSwitch.sol\":18216:18268  benefactors[_benefactor].beneficiaries[_beneficiary] */\n      swap5\n      dup11\n      and\n      dup5\n      mstore\n        /* \"DeadMansSwitch.sol\":18161:18193  benefactors[_benefactor].isAlive */\n      0x01\n        /* \"DeadMansSwitch.sol\":18216:18254  benefactors[_benefactor].beneficiaries */\n      add\n        /* \"DeadMansSwitch.sol\":18216:18268  benefactors[_benefactor].beneficiaries[_beneficiary] */\n      swap1\n      swap2\n      mstore\n      swap1\n      keccak256\n        /* \"DeadMansSwitch.sol\":18216:18289  benefactors[_benefactor].beneficiaries[_beneficiary].beneficiaryPublicKey */\n      0x02\n      add\n        /* \"DeadMansSwitch.sol\":18204:18289  publicKey = benefactors[_benefactor].beneficiaries[_beneficiary].beneficiaryPublicKey */\n      dup1\n      sload\n        /* \"DeadMansSwitch.sol\":18161:18193  benefactors[_benefactor].isAlive */\n      0x0100\n      swap1\n      swap3\n      div\n      0xff\n      and\n      swap4\n      pop\n        /* \"DeadMansSwitch.sol\":18216:18289  benefactors[_benefactor].beneficiaries[_beneficiary].beneficiaryPublicKey */\n      swap1\n        /* \"DeadMansSwitch.sol\":18204:18289  publicKey = benefactors[_benefactor].beneficiaries[_beneficiary].beneficiaryPublicKey */\n      tag_238\n      swap1\n      tag_178\n      jump\t// in\n    tag_238:\n      dup1\n      0x1f\n      add\n      0x20\n      dup1\n      swap2\n      div\n      mul\n      0x20\n      add\n      mload(0x40)\n      swap1\n      dup2\n      add\n      0x40\n      mstore\n      dup1\n      swap3\n      swap2\n      swap1\n      dup2\n      dup2\n      mstore\n      0x20\n      add\n      dup3\n      dup1\n      sload\n      tag_239\n      swap1\n      tag_178\n      jump\t// in\n    tag_239:\n      dup1\n      iszero\n      tag_240\n      jumpi\n      dup1\n      0x1f\n      lt\n      tag_241\n      jumpi\n      0x0100\n      dup1\n      dup4\n      sload\n      div\n      mul\n      dup4\n      mstore\n      swap2\n      0x20\n      add\n      swap2\n      jump(tag_240)\n    tag_241:\n      dup3\n      add\n      swap2\n      swap1\n      0x00\n      mstore\n      keccak256(0x00, 0x20)\n      swap1\n    tag_242:\n      dup2\n      sload\n      dup2\n      mstore\n      swap1\n      0x01\n      add\n      swap1\n      0x20\n      add\n      dup1\n      dup4\n      gt\n      tag_242\n      jumpi\n      dup3\n      swap1\n      sub\n      0x1f\n      and\n      dup3\n      add\n      swap2\n    tag_240:\n      pop\n      pop\n      pop\n      pop\n      pop\n      swap1\n      pop\n        /* \"DeadMansSwitch.sol\":18307:18373  BeneficiariesData(switchStatus, remainingTime, isAlive, publicKey) */\n      0x0e092c8eab045fa06eb05fe062c2d0a1721905a7ad6acb7eed9c804d956ea9fd\n        /* \"DeadMansSwitch.sol\":18325:18337  switchStatus */\n      dup5\n        /* \"DeadMansSwitch.sol\":18339:18352  remainingTime */\n      dup5\n        /* \"DeadMansSwitch.sol\":18354:18361  isAlive */\n      dup5\n        /* \"DeadMansSwitch.sol\":18363:18372  publicKey */\n      dup5\n        /* \"DeadMansSwitch.sol\":18307:18373  BeneficiariesData(switchStatus, remainingTime, isAlive, publicKey) */\n      mload(0x40)\n      tag_243\n      swap5\n      swap4\n      swap3\n      swap2\n      swap1\n      tag_80\n      jump\t// in\n    tag_243:\n      mload(0x40)\n      dup1\n      swap2\n      sub\n      swap1\n      log1\n        /* \"DeadMansSwitch.sol\":17642:18448  function getBeneficiaryData(address _benefactor, address _beneficiary) public returns (bool switchStatus, uint256 remainingTime, bool isAlive, string memory publicKey) {... */\n      swap3\n      swap6\n      swap2\n      swap5\n      pop\n      swap3\n      pop\n      jump\t// out\n        /* \"DeadMansSwitch.sol\":4080:4283  function addBenefactorPublicKey(address _benefactor, string memory _key) public {... */\n    tag_83:\n      sub(shl(0xa0, 0x01), 0x01)\n        /* \"DeadMansSwitch.sol\":4171:4195  benefactors[_benefactor] */\n      dup3\n      and\n        /* \"DeadMansSwitch.sol\":4171:4182  benefactors */\n      0x00\n        /* \"DeadMansSwitch.sol\":4171:4195  benefactors[_benefactor] */\n      swap1\n      dup2\n      mstore\n      0x20\n      dup2\n      swap1\n      mstore\n      0x40\n      swap1\n      keccak256\n        /* \"DeadMansSwitch.sol\":4171:4215  benefactors[_benefactor].benefactorPublicKey */\n      0x05\n      add\n        /* \"DeadMansSwitch.sol\":4171:4222  benefactors[_benefactor].benefactorPublicKey = _key */\n      tag_245\n        /* \"DeadMansSwitch.sol\":4218:4222  _key */\n      dup3\n        /* \"DeadMansSwitch.sol\":4171:4215  benefactors[_benefactor].benefactorPublicKey */\n      dup3\n        /* \"DeadMansSwitch.sol\":4171:4222  benefactors[_benefactor].benefactorPublicKey = _key */\n      tag_125\n      jump\t// in\n    tag_245:\n      pop\n        /* \"DeadMansSwitch.sol\":4257:4268  _benefactor */\n      dup2\n      sub(shl(0xa0, 0x01), 0x01)\n        /* \"DeadMansSwitch.sol\":4238:4275  BenefactorKeyAdded(_benefactor, _key) */\n      and\n      0xf20d3ea0a54b197ec507921ed526707368e27ad44b86bf2d4b11888b7009de6b\n        /* \"DeadMansSwitch.sol\":4270:4274  _key */\n      dup3\n        /* \"DeadMansSwitch.sol\":4238:4275  BenefactorKeyAdded(_benefactor, _key) */\n      mload(0x40)\n      tag_246\n      swap2\n      swap1\n      tag_65\n      jump\t// in\n    tag_246:\n      mload(0x40)\n      dup1\n      swap2\n      sub\n      swap1\n      log2\n        /* \"DeadMansSwitch.sol\":4080:4283  function addBenefactorPublicKey(address _benefactor, string memory _key) public {... */\n      pop\n      pop\n      jump\t// out\n        /* \"DeadMansSwitch.sol\":12530:13229  function respondToSwitch() external onlyBenefactor {... */\n    tag_85:\n        /* \"DeadMansSwitch.sol\":2621:2631  msg.sender */\n      caller\n        /* \"DeadMansSwitch.sol\":2609:2620  benefactors */\n      0x00\n        /* \"DeadMansSwitch.sol\":2609:2632  benefactors[msg.sender] */\n      swap1\n      dup2\n      mstore\n      0x20\n      dup2\n      swap1\n      mstore\n      0x40\n      swap1\n      keccak256\n        /* \"DeadMansSwitch.sol\":2609:2639  benefactors[msg.sender].exists */\n      sload\n      0xff\n      and\n        /* \"DeadMansSwitch.sol\":2609:2674  benefactors[msg.sender].exists && benefactors[msg.sender].isAlive */\n      dup1\n      iszero\n      tag_248\n      jumpi\n      pop\n        /* \"DeadMansSwitch.sol\":2655:2665  msg.sender */\n      caller\n        /* \"DeadMansSwitch.sol\":2643:2654  benefactors */\n      0x00\n        /* \"DeadMansSwitch.sol\":2643:2666  benefactors[msg.sender] */\n      swap1\n      dup2\n      mstore\n      0x20\n      dup2\n      swap1\n      mstore\n      0x40\n      swap1\n      keccak256\n        /* \"DeadMansSwitch.sol\":2643:2674  benefactors[msg.sender].isAlive */\n      0x04\n      add\n      sload\n      0x0100\n      swap1\n      div\n      0xff\n      and\n        /* \"DeadMansSwitch.sol\":2609:2674  benefactors[msg.sender].exists && benefactors[msg.sender].isAlive */\n    tag_248:\n        /* \"DeadMansSwitch.sol\":2601:2701  require(benefactors[msg.sender].exists && benefactors[msg.sender].isAlive, \"Not a valid benefactor\") */\n      tag_249\n      jumpi\n      mload(0x40)\n      shl(0xe5, 0x461bcd)\n      dup2\n      mstore\n        /* \"#utility.yul\":12391:12393   */\n      0x20\n        /* \"DeadMansSwitch.sol\":2601:2701  require(benefactors[msg.sender].exists && benefactors[msg.sender].isAlive, \"Not a valid benefactor\") */\n      0x04\n      dup3\n      add\n        /* \"#utility.yul\":12373:12394   */\n      mstore\n        /* \"#utility.yul\":12430:12432   */\n      0x16\n        /* \"#utility.yul\":12410:12428   */\n      0x24\n      dup3\n      add\n        /* \"#utility.yul\":12403:12433   */\n      mstore\n      shl(0x51, 0x2737ba1030903b30b634b2103132b732b330b1ba37b9)\n        /* \"#utility.yul\":12449:12467   */\n      0x44\n      dup3\n      add\n        /* \"#utility.yul\":12442:12494   */\n      mstore\n        /* \"#utility.yul\":12511:12529   */\n      0x64\n      add\n        /* \"DeadMansSwitch.sol\":2601:2701  require(benefactors[msg.sender].exists && benefactors[msg.sender].isAlive, \"Not a valid benefactor\") */\n      tag_120\n        /* \"#utility.yul\":12189:12535   */\n      jump\n        /* \"DeadMansSwitch.sol\":2601:2701  require(benefactors[msg.sender].exists && benefactors[msg.sender].isAlive, \"Not a valid benefactor\") */\n    tag_249:\n        /* \"DeadMansSwitch.sol\":12608:12618  msg.sender */\n      caller\n        /* \"DeadMansSwitch.sol\":12596:12607  benefactors */\n      0x00\n        /* \"DeadMansSwitch.sol\":12596:12619  benefactors[msg.sender] */\n      swap1\n      dup2\n      mstore\n      0x20\n      dup2\n      swap1\n      mstore\n      0x40\n      swap1\n      keccak256\n        /* \"DeadMansSwitch.sol\":12596:12646  benefactors[msg.sender].lastBenefactorResponseTime */\n      0x03\n      add\n      sload\n        /* \"DeadMansSwitch.sol\":12596:12651  benefactors[msg.sender].lastBenefactorResponseTime != 0 */\n      iszero\n        /* \"DeadMansSwitch.sol\":12592:13222  if (benefactors[msg.sender].lastBenefactorResponseTime != 0) {... */\n      tag_252\n      jumpi\n        /* \"DeadMansSwitch.sol\":12672:12700  checkAliveStatus(msg.sender) */\n      tag_253\n        /* \"DeadMansSwitch.sol\":12689:12699  msg.sender */\n      caller\n        /* \"DeadMansSwitch.sol\":12672:12688  checkAliveStatus */\n      tag_36\n        /* \"DeadMansSwitch.sol\":12672:12700  checkAliveStatus(msg.sender) */\n      jump\t// in\n    tag_253:\n        /* \"DeadMansSwitch.sol\":12668:13009  if (checkAliveStatus(msg.sender)) {... */\n      iszero\n      tag_254\n      jumpi\n        /* \"DeadMansSwitch.sol\":12744:12754  msg.sender */\n      caller\n      sub(shl(0xa0, 0x01), 0x01)\n        /* \"DeadMansSwitch.sol\":12726:12777  BenefactorIsAlive(msg.sender,\"Benefactor is alive\") */\n      and\n      0x793324a6f079e577f4a4646c7ec753efd3beddc2f4ce07bfae5f105c449ac356\n      mload(0x40)\n      tag_255\n      swap1\n        /* \"#utility.yul\":17543:17545   */\n      0x20\n        /* \"#utility.yul\":17525:17546   */\n      dup1\n      dup3\n      mstore\n        /* \"#utility.yul\":17582:17584   */\n      0x13\n        /* \"#utility.yul\":17562:17580   */\n      swap1\n      dup3\n      add\n        /* \"#utility.yul\":17555:17585   */\n      mstore\n        /* \"#utility.yul\":17621:17642   */\n      0x42656e65666163746f7220697320616c69766500000000000000000000000000\n        /* \"#utility.yul\":17616:17618   */\n      0x40\n        /* \"#utility.yul\":17601:17619   */\n      dup3\n      add\n        /* \"#utility.yul\":17594:17643   */\n      mstore\n        /* \"#utility.yul\":17675:17677   */\n      0x60\n        /* \"#utility.yul\":17660:17678   */\n      add\n      swap1\n        /* \"#utility.yul\":17341:17684   */\n      jump\n        /* \"DeadMansSwitch.sol\":12726:12777  BenefactorIsAlive(msg.sender,\"Benefactor is alive\") */\n    tag_255:\n      mload(0x40)\n      dup1\n      swap2\n      sub\n      swap1\n      log2\n        /* \"DeadMansSwitch.sol\":12796:12811  disableSwitch() */\n      tag_257\n        /* \"DeadMansSwitch.sol\":12796:12809  disableSwitch */\n      tag_258\n        /* \"DeadMansSwitch.sol\":12796:12811  disableSwitch() */\n      jump\t// in\n    tag_257:\n        /* \"DeadMansSwitch.sol\":12842:12852  msg.sender */\n      caller\n        /* \"DeadMansSwitch.sol\":12830:12841  benefactors */\n      0x00\n        /* \"DeadMansSwitch.sol\":12830:12853  benefactors[msg.sender] */\n      swap1\n      dup2\n      mstore\n      0x20\n      dup2\n      swap1\n      mstore\n      0x40\n      swap1\n      keccak256\n        /* \"DeadMansSwitch.sol\":12883:12898  block.timestamp */\n      timestamp\n        /* \"DeadMansSwitch.sol\":12830:12880  benefactors[msg.sender].lastBenefactorResponseTime */\n      0x03\n      swap1\n      swap2\n      add\n        /* \"DeadMansSwitch.sol\":12830:12898  benefactors[msg.sender].lastBenefactorResponseTime = block.timestamp */\n      sstore\n        /* \"DeadMansSwitch.sol\":12530:13229  function respondToSwitch() external onlyBenefactor {... */\n      jump\t// out\n        /* \"DeadMansSwitch.sol\":12668:13009  if (checkAliveStatus(msg.sender)) {... */\n    tag_254:\n        /* \"DeadMansSwitch.sol\":12961:12971  msg.sender */\n      caller\n      sub(shl(0xa0, 0x01), 0x01)\n        /* \"DeadMansSwitch.sol\":12944:12993  BenefactorIsDead(msg.sender,\"Benefactor is dead\") */\n      and\n      0x5a68fa7d6b655a3e592d5d99ac82863424750e9d262c902f30f9e56655e7a856\n      mload(0x40)\n      tag_260\n      swap1\n        /* \"#utility.yul\":17891:17893   */\n      0x20\n        /* \"#utility.yul\":17873:17894   */\n      dup1\n      dup3\n      mstore\n        /* \"#utility.yul\":17930:17932   */\n      0x12\n        /* \"#utility.yul\":17910:17928   */\n      swap1\n      dup3\n      add\n        /* \"#utility.yul\":17903:17933   */\n      mstore\n        /* \"#utility.yul\":17969:17989   */\n      0x42656e65666163746f7220697320646561640000000000000000000000000000\n        /* \"#utility.yul\":17964:17966   */\n      0x40\n        /* \"#utility.yul\":17949:17967   */\n      dup3\n      add\n        /* \"#utility.yul\":17942:17990   */\n      mstore\n        /* \"#utility.yul\":18022:18024   */\n      0x60\n        /* \"#utility.yul\":18007:18025   */\n      add\n      swap1\n        /* \"#utility.yul\":17689:18031   */\n      jump\n        /* \"DeadMansSwitch.sol\":12944:12993  BenefactorIsDead(msg.sender,\"Benefactor is dead\") */\n    tag_260:\n      mload(0x40)\n      dup1\n      swap2\n      sub\n      swap1\n      log2\n        /* \"DeadMansSwitch.sol\":12530:13229  function respondToSwitch() external onlyBenefactor {... */\n      jump\t// out\n        /* \"DeadMansSwitch.sol\":12592:13222  if (benefactors[msg.sender].lastBenefactorResponseTime != 0) {... */\n    tag_252:\n        /* \"DeadMansSwitch.sol\":13064:13074  msg.sender */\n      caller\n      sub(shl(0xa0, 0x01), 0x01)\n        /* \"DeadMansSwitch.sol\":13046:13097  BenefactorIsAlive(msg.sender,\"Benefactor is alive\") */\n      and\n      0x793324a6f079e577f4a4646c7ec753efd3beddc2f4ce07bfae5f105c449ac356\n      mload(0x40)\n      tag_255\n      swap1\n        /* \"#utility.yul\":17543:17545   */\n      0x20\n        /* \"#utility.yul\":17525:17546   */\n      dup1\n      dup3\n      mstore\n        /* \"#utility.yul\":17582:17584   */\n      0x13\n        /* \"#utility.yul\":17562:17580   */\n      swap1\n      dup3\n      add\n        /* \"#utility.yul\":17555:17585   */\n      mstore\n        /* \"#utility.yul\":17621:17642   */\n      0x42656e65666163746f7220697320616c69766500000000000000000000000000\n        /* \"#utility.yul\":17616:17618   */\n      0x40\n        /* \"#utility.yul\":17601:17619   */\n      dup3\n      add\n        /* \"#utility.yul\":17594:17643   */\n      mstore\n        /* \"#utility.yul\":17675:17677   */\n      0x60\n        /* \"#utility.yul\":17660:17678   */\n      add\n      swap1\n        /* \"#utility.yul\":17341:17684   */\n      jump\n        /* \"DeadMansSwitch.sol\":7388:8345  function addIpfsCIDs(address _beneficiary, string[] memory _ipfsCIDs) external onlyBenefactor {... */\n    tag_89:\n        /* \"DeadMansSwitch.sol\":2621:2631  msg.sender */\n      caller\n        /* \"DeadMansSwitch.sol\":2609:2620  benefactors */\n      0x00\n        /* \"DeadMansSwitch.sol\":2609:2632  benefactors[msg.sender] */\n      swap1\n      dup2\n      mstore\n      0x20\n      dup2\n      swap1\n      mstore\n      0x40\n      swap1\n      keccak256\n        /* \"DeadMansSwitch.sol\":2609:2639  benefactors[msg.sender].exists */\n      sload\n      0xff\n      and\n        /* \"DeadMansSwitch.sol\":2609:2674  benefactors[msg.sender].exists && benefactors[msg.sender].isAlive */\n      dup1\n      iszero\n      tag_266\n      jumpi\n      pop\n        /* \"DeadMansSwitch.sol\":2655:2665  msg.sender */\n      caller\n        /* \"DeadMansSwitch.sol\":2643:2654  benefactors */\n      0x00\n        /* \"DeadMansSwitch.sol\":2643:2666  benefactors[msg.sender] */\n      swap1\n      dup2\n      mstore\n      0x20\n      dup2\n      swap1\n      mstore\n      0x40\n      swap1\n      keccak256\n        /* \"DeadMansSwitch.sol\":2643:2674  benefactors[msg.sender].isAlive */\n      0x04\n      add\n      sload\n      0x0100\n      swap1\n      div\n      0xff\n      and\n        /* \"DeadMansSwitch.sol\":2609:2674  benefactors[msg.sender].exists && benefactors[msg.sender].isAlive */\n    tag_266:\n        /* \"DeadMansSwitch.sol\":2601:2701  require(benefactors[msg.sender].exists && benefactors[msg.sender].isAlive, \"Not a valid benefactor\") */\n      tag_267\n      jumpi\n      mload(0x40)\n      shl(0xe5, 0x461bcd)\n      dup2\n      mstore\n        /* \"#utility.yul\":12391:12393   */\n      0x20\n        /* \"DeadMansSwitch.sol\":2601:2701  require(benefactors[msg.sender].exists && benefactors[msg.sender].isAlive, \"Not a valid benefactor\") */\n      0x04\n      dup3\n      add\n        /* \"#utility.yul\":12373:12394   */\n      mstore\n        /* \"#utility.yul\":12430:12432   */\n      0x16\n        /* \"#utility.yul\":12410:12428   */\n      0x24\n      dup3\n      add\n        /* \"#utility.yul\":12403:12433   */\n      mstore\n      shl(0x51, 0x2737ba1030903b30b634b2103132b732b330b1ba37b9)\n        /* \"#utility.yul\":12449:12467   */\n      0x44\n      dup3\n      add\n        /* \"#utility.yul\":12442:12494   */\n      mstore\n        /* \"#utility.yul\":12511:12529   */\n      0x64\n      add\n        /* \"DeadMansSwitch.sol\":2601:2701  require(benefactors[msg.sender].exists && benefactors[msg.sender].isAlive, \"Not a valid benefactor\") */\n      tag_120\n        /* \"#utility.yul\":12189:12535   */\n      jump\n        /* \"DeadMansSwitch.sol\":2601:2701  require(benefactors[msg.sender].exists && benefactors[msg.sender].isAlive, \"Not a valid benefactor\") */\n    tag_267:\n        /* \"DeadMansSwitch.sol\":7501:7539  isBeneficiary(msg.sender,_beneficiary) */\n      tag_270\n        /* \"DeadMansSwitch.sol\":7515:7525  msg.sender */\n      caller\n        /* \"DeadMansSwitch.sol\":7526:7538  _beneficiary */\n      dup4\n        /* \"DeadMansSwitch.sol\":7501:7514  isBeneficiary */\n      tag_46\n        /* \"DeadMansSwitch.sol\":7501:7539  isBeneficiary(msg.sender,_beneficiary) */\n      jump\t// in\n    tag_270:\n        /* \"DeadMansSwitch.sol\":7493:7565  require(isBeneficiary(msg.sender,_beneficiary), \"Beneficiary not found\") */\n      tag_271\n      jumpi\n      mload(0x40)\n      shl(0xe5, 0x461bcd)\n      dup2\n      mstore\n        /* \"#utility.yul\":13369:13371   */\n      0x20\n        /* \"DeadMansSwitch.sol\":7493:7565  require(isBeneficiary(msg.sender,_beneficiary), \"Beneficiary not found\") */\n      0x04\n      dup3\n      add\n        /* \"#utility.yul\":13351:13372   */\n      mstore\n        /* \"#utility.yul\":13408:13410   */\n      0x15\n        /* \"#utility.yul\":13388:13406   */\n      0x24\n      dup3\n      add\n        /* \"#utility.yul\":13381:13411   */\n      mstore\n      shl(0x5a, 0x10995b99599a58da585c9e481b9bdd08199bdd5b99)\n        /* \"#utility.yul\":13427:13445   */\n      0x44\n      dup3\n      add\n        /* \"#utility.yul\":13420:13471   */\n      mstore\n        /* \"#utility.yul\":13488:13506   */\n      0x64\n      add\n        /* \"DeadMansSwitch.sol\":7493:7565  require(isBeneficiary(msg.sender,_beneficiary), \"Beneficiary not found\") */\n      tag_120\n        /* \"#utility.yul\":13167:13512   */\n      jump\n        /* \"DeadMansSwitch.sol\":7493:7565  require(isBeneficiary(msg.sender,_beneficiary), \"Beneficiary not found\") */\n    tag_271:\n        /* \"DeadMansSwitch.sol\":7616:7626  msg.sender */\n      caller\n        /* \"DeadMansSwitch.sol\":7576:7601  string[] storage ipfsCIDs */\n      0x00\n        /* \"DeadMansSwitch.sol\":7604:7627  benefactors[msg.sender] */\n      swap1\n      dup2\n      mstore\n      0x20\n      dup2\n      dup2\n      mstore\n      0x40\n      dup1\n      dup4\n      keccak256\n      sub(shl(0xa0, 0x01), 0x01)\n        /* \"DeadMansSwitch.sol\":7604:7655  benefactors[msg.sender].beneficiaries[_beneficiary] */\n      dup7\n      and\n      dup5\n      mstore\n        /* \"DeadMansSwitch.sol\":7604:7641  benefactors[msg.sender].beneficiaries */\n      0x01\n      swap1\n      dup2\n      add\n        /* \"DeadMansSwitch.sol\":7604:7655  benefactors[msg.sender].beneficiaries[_beneficiary] */\n      swap1\n      swap3\n      mstore\n      dup3\n      keccak256\n        /* \"DeadMansSwitch.sol\":7604:7664  benefactors[msg.sender].beneficiaries[_beneficiary].ipfsCIDs */\n      add\n      swap1\n        /* \"DeadMansSwitch.sol\":7675:8338  for (uint256 i = 0; i < _ipfsCIDs.length; i++) {... */\n    tag_273:\n        /* \"DeadMansSwitch.sol\":7699:7708  _ipfsCIDs */\n      dup3\n        /* \"DeadMansSwitch.sol\":7699:7715  _ipfsCIDs.length */\n      mload\n        /* \"DeadMansSwitch.sol\":7695:7696  i */\n      dup2\n        /* \"DeadMansSwitch.sol\":7695:7715  i < _ipfsCIDs.length */\n      lt\n        /* \"DeadMansSwitch.sol\":7675:8338  for (uint256 i = 0; i < _ipfsCIDs.length; i++) {... */\n      iszero\n      tag_274\n      jumpi\n        /* \"DeadMansSwitch.sol\":7781:7795  bool cidExists */\n      0x00\n        /* \"DeadMansSwitch.sol\":7823:7832  uint256 j */\n      dup1\n        /* \"DeadMansSwitch.sol\":7818:8076  for (uint256 j = 0; j < ipfsCIDs.length; j++) {... */\n    tag_276:\n        /* \"DeadMansSwitch.sol\":7842:7857  ipfsCIDs.length */\n      dup4\n      sload\n        /* \"DeadMansSwitch.sol\":7838:7857  j < ipfsCIDs.length */\n      dup2\n      lt\n        /* \"DeadMansSwitch.sol\":7818:8076  for (uint256 j = 0; j < ipfsCIDs.length; j++) {... */\n      iszero\n      tag_277\n      jumpi\n        /* \"DeadMansSwitch.sol\":7958:7967  _ipfsCIDs */\n      dup5\n        /* \"DeadMansSwitch.sol\":7968:7969  i */\n      dup4\n        /* \"DeadMansSwitch.sol\":7958:7970  _ipfsCIDs[i] */\n      dup2\n      mload\n      dup2\n      lt\n      tag_280\n      jumpi\n      tag_280\n      tag_144\n      jump\t// in\n    tag_280:\n      0x20\n      mul\n      0x20\n      add\n      add\n      mload\n        /* \"DeadMansSwitch.sol\":7941:7971  abi.encodePacked(_ipfsCIDs[i]) */\n      add(0x20, mload(0x40))\n      tag_281\n      swap2\n      swap1\n      tag_196\n      jump\t// in\n    tag_281:\n      mload(0x40)\n      0x20\n      dup2\n      dup4\n      sub\n      sub\n      dup2\n      mstore\n      swap1\n      0x40\n      mstore\n        /* \"DeadMansSwitch.sol\":7931:7972  keccak256(abi.encodePacked(_ipfsCIDs[i])) */\n      dup1\n      mload\n      swap1\n      0x20\n      add\n      keccak256\n        /* \"DeadMansSwitch.sol\":7914:7922  ipfsCIDs */\n      dup5\n        /* \"DeadMansSwitch.sol\":7923:7924  j */\n      dup3\n        /* \"DeadMansSwitch.sol\":7914:7925  ipfsCIDs[j] */\n      dup2\n      sload\n      dup2\n      lt\n      tag_283\n      jumpi\n      tag_283\n      tag_144\n      jump\t// in\n    tag_283:\n      swap1\n      0x00\n      mstore\n      keccak256(0x00, 0x20)\n      add\n        /* \"DeadMansSwitch.sol\":7897:7926  abi.encodePacked(ipfsCIDs[j]) */\n      add(0x20, mload(0x40))\n      tag_285\n      swap2\n      swap1\n      tag_201\n      jump\t// in\n    tag_285:\n      mload(0x40)\n      0x20\n      dup2\n      dup4\n      sub\n      sub\n      dup2\n      mstore\n      swap1\n      0x40\n      mstore\n        /* \"DeadMansSwitch.sol\":7887:7927  keccak256(abi.encodePacked(ipfsCIDs[j])) */\n      dup1\n      mload\n      swap1\n      0x20\n      add\n      keccak256\n        /* \"DeadMansSwitch.sol\":7887:7972  keccak256(abi.encodePacked(ipfsCIDs[j])) == keccak256(abi.encodePacked(_ipfsCIDs[i])) */\n      sub\n        /* \"DeadMansSwitch.sol\":7883:8061  if (keccak256(abi.encodePacked(ipfsCIDs[j])) == keccak256(abi.encodePacked(_ipfsCIDs[i]))) {... */\n      tag_286\n      jumpi\n        /* \"DeadMansSwitch.sol\":8009:8013  true */\n      0x01\n        /* \"DeadMansSwitch.sol\":7997:8013  cidExists = true */\n      swap2\n      pop\n        /* \"DeadMansSwitch.sol\":8036:8041  break */\n      jump(tag_277)\n        /* \"DeadMansSwitch.sol\":7883:8061  if (keccak256(abi.encodePacked(ipfsCIDs[j])) == keccak256(abi.encodePacked(_ipfsCIDs[i]))) {... */\n    tag_286:\n        /* \"DeadMansSwitch.sol\":7859:7862  j++ */\n      dup1\n      tag_287\n      dup2\n      tag_160\n      jump\t// in\n    tag_287:\n      swap2\n      pop\n      pop\n        /* \"DeadMansSwitch.sol\":7818:8076  for (uint256 j = 0; j < ipfsCIDs.length; j++) {... */\n      jump(tag_276)\n    tag_277:\n      pop\n        /* \"DeadMansSwitch.sol\":8099:8108  cidExists */\n      dup1\n        /* \"DeadMansSwitch.sol\":8098:8108  !cidExists */\n      iszero\n        /* \"DeadMansSwitch.sol\":8090:8153  require(!cidExists, \"CID already assigned to this beneficiary\") */\n      tag_288\n      jumpi\n      mload(0x40)\n      shl(0xe5, 0x461bcd)\n      dup2\n      mstore\n        /* \"#utility.yul\":18238:18240   */\n      0x20\n        /* \"DeadMansSwitch.sol\":8090:8153  require(!cidExists, \"CID already assigned to this beneficiary\") */\n      0x04\n      dup3\n      add\n        /* \"#utility.yul\":18220:18241   */\n      mstore\n        /* \"#utility.yul\":18277:18279   */\n      0x28\n        /* \"#utility.yul\":18257:18275   */\n      0x24\n      dup3\n      add\n        /* \"#utility.yul\":18250:18280   */\n      mstore\n        /* \"#utility.yul\":18316:18350   */\n      0x43494420616c72656164792061737369676e656420746f20746869732062656e\n        /* \"#utility.yul\":18296:18314   */\n      0x44\n      dup3\n      add\n        /* \"#utility.yul\":18289:18351   */\n      mstore\n        /* \"#utility.yul\":18387:18397   */\n      0x6566696369617279000000000000000000000000000000000000000000000000\n        /* \"#utility.yul\":18367:18385   */\n      0x64\n      dup3\n      add\n        /* \"#utility.yul\":18360:18398   */\n      mstore\n        /* \"#utility.yul\":18415:18434   */\n      0x84\n      add\n        /* \"DeadMansSwitch.sol\":8090:8153  require(!cidExists, \"CID already assigned to this beneficiary\") */\n      tag_120\n        /* \"#utility.yul\":18036:18440   */\n      jump\n        /* \"DeadMansSwitch.sol\":8090:8153  require(!cidExists, \"CID already assigned to this beneficiary\") */\n    tag_288:\n        /* \"DeadMansSwitch.sol\":8228:8236  ipfsCIDs */\n      dup3\n        /* \"DeadMansSwitch.sol\":8242:8251  _ipfsCIDs */\n      dup5\n        /* \"DeadMansSwitch.sol\":8252:8253  i */\n      dup4\n        /* \"DeadMansSwitch.sol\":8242:8254  _ipfsCIDs[i] */\n      dup2\n      mload\n      dup2\n      lt\n      tag_292\n      jumpi\n      tag_292\n      tag_144\n      jump\t// in\n    tag_292:\n      0x20\n      swap1\n      dup2\n      mul\n      swap2\n      swap1\n      swap2\n      add\n      dup2\n      add\n      mload\n        /* \"DeadMansSwitch.sol\":8228:8255  ipfsCIDs.push(_ipfsCIDs[i]) */\n      dup3\n      sload\n      0x01\n      dup2\n      add\n      dup5\n      sstore\n      0x00\n      swap4\n      dup5\n      mstore\n      swap2\n      swap1\n      swap3\n      keccak256\n      add\n      swap1\n      tag_294\n      swap1\n      dup3\n      tag_125\n      jump\t// in\n    tag_294:\n      pop\n        /* \"DeadMansSwitch.sol\":8299:8311  _beneficiary */\n      dup5\n      sub(shl(0xa0, 0x01), 0x01)\n        /* \"DeadMansSwitch.sol\":8275:8326  IpfsCIDAdded(msg.sender,_beneficiary, _ipfsCIDs[i]) */\n      and\n        /* \"DeadMansSwitch.sol\":8288:8298  msg.sender */\n      caller\n      sub(shl(0xa0, 0x01), 0x01)\n        /* \"DeadMansSwitch.sol\":8275:8326  IpfsCIDAdded(msg.sender,_beneficiary, _ipfsCIDs[i]) */\n      and\n      0xa1bb52b874769d5c17cde30e708e8f7180bb949f70e77caf0da68d25f9a1a510\n        /* \"DeadMansSwitch.sol\":8313:8322  _ipfsCIDs */\n      dup7\n        /* \"DeadMansSwitch.sol\":8323:8324  i */\n      dup6\n        /* \"DeadMansSwitch.sol\":8313:8325  _ipfsCIDs[i] */\n      dup2\n      mload\n      dup2\n      lt\n      tag_296\n      jumpi\n      tag_296\n      tag_144\n      jump\t// in\n    tag_296:\n      0x20\n      mul\n      0x20\n      add\n      add\n      mload\n        /* \"DeadMansSwitch.sol\":8275:8326  IpfsCIDAdded(msg.sender,_beneficiary, _ipfsCIDs[i]) */\n      mload(0x40)\n      tag_297\n      swap2\n      swap1\n      tag_65\n      jump\t// in\n    tag_297:\n      mload(0x40)\n      dup1\n      swap2\n      sub\n      swap1\n      log3\n      pop\n        /* \"DeadMansSwitch.sol\":7717:7720  i++ */\n      dup1\n      tag_298\n      dup2\n      tag_160\n      jump\t// in\n    tag_298:\n      swap2\n      pop\n      pop\n        /* \"DeadMansSwitch.sol\":7675:8338  for (uint256 i = 0; i < _ipfsCIDs.length; i++) {... */\n      jump(tag_273)\n    tag_274:\n      pop\n        /* \"DeadMansSwitch.sol\":7482:8345  {... */\n      pop\n        /* \"DeadMansSwitch.sol\":7388:8345  function addIpfsCIDs(address _beneficiary, string[] memory _ipfsCIDs) external onlyBenefactor {... */\n      pop\n      pop\n      jump\t// out\n        /* \"DeadMansSwitch.sol\":13419:13828  function getCIDs(address _benefactor, address _beneficiary) public view returns (string[] memory){... */\n    tag_92:\n        /* \"DeadMansSwitch.sol\":13500:13515  string[] memory */\n      0x60\n        /* \"DeadMansSwitch.sol\":13535:13574  isBeneficiary(_benefactor,_beneficiary) */\n      tag_300\n        /* \"DeadMansSwitch.sol\":13549:13560  _benefactor */\n      dup4\n        /* \"DeadMansSwitch.sol\":13561:13573  _beneficiary */\n      dup4\n        /* \"DeadMansSwitch.sol\":13535:13548  isBeneficiary */\n      tag_46\n        /* \"DeadMansSwitch.sol\":13535:13574  isBeneficiary(_benefactor,_beneficiary) */\n      jump\t// in\n    tag_300:\n        /* \"DeadMansSwitch.sol\":13527:13599  require(isBeneficiary(_benefactor,_beneficiary),\"Beneficiary not found\") */\n      tag_301\n      jumpi\n      mload(0x40)\n      shl(0xe5, 0x461bcd)\n      dup2\n      mstore\n        /* \"#utility.yul\":13369:13371   */\n      0x20\n        /* \"DeadMansSwitch.sol\":13527:13599  require(isBeneficiary(_benefactor,_beneficiary),\"Beneficiary not found\") */\n      0x04\n      dup3\n      add\n        /* \"#utility.yul\":13351:13372   */\n      mstore\n        /* \"#utility.yul\":13408:13410   */\n      0x15\n        /* \"#utility.yul\":13388:13406   */\n      0x24\n      dup3\n      add\n        /* \"#utility.yul\":13381:13411   */\n      mstore\n      shl(0x5a, 0x10995b99599a58da585c9e481b9bdd08199bdd5b99)\n        /* \"#utility.yul\":13427:13445   */\n      0x44\n      dup3\n      add\n        /* \"#utility.yul\":13420:13471   */\n      mstore\n        /* \"#utility.yul\":13488:13506   */\n      0x64\n      add\n        /* \"DeadMansSwitch.sol\":13527:13599  require(isBeneficiary(_benefactor,_beneficiary),\"Beneficiary not found\") */\n      tag_120\n        /* \"#utility.yul\":13167:13512   */\n      jump\n        /* \"DeadMansSwitch.sol\":13527:13599  require(isBeneficiary(_benefactor,_beneficiary),\"Beneficiary not found\") */\n    tag_301:\n      sub(shl(0xa0, 0x01), 0x01)\n        /* \"DeadMansSwitch.sol\":13618:13642  benefactors[_benefactor] */\n      dup4\n      and\n        /* \"DeadMansSwitch.sol\":13618:13629  benefactors */\n      0x00\n        /* \"DeadMansSwitch.sol\":13618:13642  benefactors[_benefactor] */\n      swap1\n      dup2\n      mstore\n      0x20\n      dup2\n      dup2\n      mstore\n      0x40\n      dup1\n      dup4\n      keccak256\n        /* \"DeadMansSwitch.sol\":13657:13667  msg.sender */\n      caller\n        /* \"DeadMansSwitch.sol\":13618:13668  benefactors[_benefactor].beneficiaries[msg.sender] */\n      dup5\n      mstore\n        /* \"DeadMansSwitch.sol\":13618:13656  benefactors[_benefactor].beneficiaries */\n      0x01\n      add\n        /* \"DeadMansSwitch.sol\":13618:13668  benefactors[_benefactor].beneficiaries[msg.sender] */\n      swap1\n      swap2\n      mstore\n      swap1\n      keccak256\n        /* \"DeadMansSwitch.sol\":13618:13675  benefactors[_benefactor].beneficiaries[msg.sender].exists */\n      sload\n      0xff\n      and\n        /* \"DeadMansSwitch.sol\":13618:13720  benefactors[_benefactor].beneficiaries[msg.sender].exists && benefactors[_benefactor].isAlive == false */\n      dup1\n      iszero\n      tag_303\n      jumpi\n      pop\n      sub(shl(0xa0, 0x01), 0x01)\n        /* \"DeadMansSwitch.sol\":13679:13703  benefactors[_benefactor] */\n      dup4\n      and\n        /* \"DeadMansSwitch.sol\":13679:13690  benefactors */\n      0x00\n        /* \"DeadMansSwitch.sol\":13679:13703  benefactors[_benefactor] */\n      swap1\n      dup2\n      mstore\n      0x20\n      dup2\n      swap1\n      mstore\n      0x40\n      swap1\n      keccak256\n        /* \"DeadMansSwitch.sol\":13679:13711  benefactors[_benefactor].isAlive */\n      0x04\n      add\n      sload\n      0x0100\n      swap1\n      div\n      0xff\n      and\n        /* \"DeadMansSwitch.sol\":13679:13720  benefactors[_benefactor].isAlive == false */\n      iszero\n        /* \"DeadMansSwitch.sol\":13618:13720  benefactors[_benefactor].beneficiaries[msg.sender].exists && benefactors[_benefactor].isAlive == false */\n    tag_303:\n        /* \"DeadMansSwitch.sol\":13610:13741  require(benefactors[_benefactor].beneficiaries[msg.sender].exists && benefactors[_benefactor].isAlive == false,\"No access to CIDs\") */\n      tag_304\n      jumpi\n      mload(0x40)\n      shl(0xe5, 0x461bcd)\n      dup2\n      mstore\n        /* \"#utility.yul\":18647:18649   */\n      0x20\n        /* \"DeadMansSwitch.sol\":13610:13741  require(benefactors[_benefactor].beneficiaries[msg.sender].exists && benefactors[_benefactor].isAlive == false,\"No access to CIDs\") */\n      0x04\n      dup3\n      add\n        /* \"#utility.yul\":18629:18650   */\n      mstore\n        /* \"#utility.yul\":18686:18688   */\n      0x11\n        /* \"#utility.yul\":18666:18684   */\n      0x24\n      dup3\n      add\n        /* \"#utility.yul\":18659:18689   */\n      mstore\n        /* \"#utility.yul\":18725:18744   */\n      0x4e6f2061636365737320746f2043494473000000000000000000000000000000\n        /* \"#utility.yul\":18705:18723   */\n      0x44\n      dup3\n      add\n        /* \"#utility.yul\":18698:18745   */\n      mstore\n        /* \"#utility.yul\":18762:18780   */\n      0x64\n      add\n        /* \"DeadMansSwitch.sol\":13610:13741  require(benefactors[_benefactor].beneficiaries[msg.sender].exists && benefactors[_benefactor].isAlive == false,\"No access to CIDs\") */\n      tag_120\n        /* \"#utility.yul\":18445:18786   */\n      jump\n        /* \"DeadMansSwitch.sol\":13610:13741  require(benefactors[_benefactor].beneficiaries[msg.sender].exists && benefactors[_benefactor].isAlive == false,\"No access to CIDs\") */\n    tag_304:\n      sub(shl(0xa0, 0x01), 0x01)\n        /* \"DeadMansSwitch.sol\":13759:13783  benefactors[_benefactor] */\n      dup1\n      dup5\n      and\n        /* \"DeadMansSwitch.sol\":13759:13770  benefactors */\n      0x00\n        /* \"DeadMansSwitch.sol\":13759:13783  benefactors[_benefactor] */\n      swap1\n      dup2\n      mstore\n      0x20\n      dup2\n      dup2\n      mstore\n      0x40\n      dup1\n      dup4\n      keccak256\n        /* \"DeadMansSwitch.sol\":13759:13811  benefactors[_benefactor].beneficiaries[_beneficiary] */\n      swap4\n      dup7\n      and\n      dup4\n      mstore\n        /* \"DeadMansSwitch.sol\":13759:13797  benefactors[_benefactor].beneficiaries */\n      0x01\n      swap4\n      dup5\n      add\n        /* \"DeadMansSwitch.sol\":13759:13811  benefactors[_benefactor].beneficiaries[_beneficiary] */\n      dup3\n      mstore\n      dup1\n      dup4\n      keccak256\n        /* \"DeadMansSwitch.sol\":13759:13820  benefactors[_benefactor].beneficiaries[_beneficiary].ipfsCIDs */\n      swap1\n      swap4\n      add\n        /* \"DeadMansSwitch.sol\":13752:13820  return benefactors[_benefactor].beneficiaries[_beneficiary].ipfsCIDs */\n      dup1\n      sload\n      dup5\n      mload\n      dup2\n      dup5\n      mul\n      dup2\n      add\n      dup5\n      add\n      swap1\n      swap6\n      mstore\n      dup1\n      dup6\n      mstore\n        /* \"DeadMansSwitch.sol\":13759:13820  benefactors[_benefactor].beneficiaries[_beneficiary].ipfsCIDs */\n      swap1\n      swap3\n        /* \"DeadMansSwitch.sol\":13752:13820  return benefactors[_benefactor].beneficiaries[_beneficiary].ipfsCIDs */\n      swap1\n      swap2\n      dup5\n      add\n    tag_307:\n      dup3\n      dup3\n      lt\n      iszero\n      tag_308\n      jumpi\n      dup4\n      dup3\n      swap1\n      0x00\n      mstore\n      keccak256(0x00, 0x20)\n      add\n      dup1\n      sload\n      tag_310\n      swap1\n      tag_178\n      jump\t// in\n    tag_310:\n      dup1\n      0x1f\n      add\n      0x20\n      dup1\n      swap2\n      div\n      mul\n      0x20\n      add\n      mload(0x40)\n      swap1\n      dup2\n      add\n      0x40\n      mstore\n      dup1\n      swap3\n      swap2\n      swap1\n      dup2\n      dup2\n      mstore\n      0x20\n      add\n      dup3\n      dup1\n      sload\n      tag_311\n      swap1\n      tag_178\n      jump\t// in\n    tag_311:\n      dup1\n      iszero\n      tag_312\n      jumpi\n      dup1\n      0x1f\n      lt\n      tag_313\n      jumpi\n      0x0100\n      dup1\n      dup4\n      sload\n      div\n      mul\n      dup4\n      mstore\n      swap2\n      0x20\n      add\n      swap2\n      jump(tag_312)\n    tag_313:\n      dup3\n      add\n      swap2\n      swap1\n      0x00\n      mstore\n      keccak256(0x00, 0x20)\n      swap1\n    tag_314:\n      dup2\n      sload\n      dup2\n      mstore\n      swap1\n      0x01\n      add\n      swap1\n      0x20\n      add\n      dup1\n      dup4\n      gt\n      tag_314\n      jumpi\n      dup3\n      swap1\n      sub\n      0x1f\n      and\n      dup3\n      add\n      swap2\n    tag_312:\n      pop\n      pop\n      pop\n      pop\n      pop\n      dup2\n      mstore\n      0x20\n      add\n      swap1\n      0x01\n      add\n      swap1\n      jump(tag_307)\n    tag_308:\n      pop\n      pop\n      pop\n      pop\n      swap1\n      pop\n        /* \"DeadMansSwitch.sol\":13419:13828  function getCIDs(address _benefactor, address _beneficiary) public view returns (string[] memory){... */\n      swap3\n      swap2\n      pop\n      pop\n      jump\t// out\n        /* \"DeadMansSwitch.sol\":15866:17548  function getBenefactorData(address _benefactor) public returns (bool switchStatus, address[] memory beneficiaries, uint256 remainingTime, bool isAlive, string memory publicKey, string[] memory allIpfsCIDs) {... */\n    tag_97:\n      sub(shl(0xa0, 0x01), 0x01)\n        /* \"DeadMansSwitch.sol\":16091:16115  benefactors[_benefactor] */\n      dup2\n      and\n        /* \"DeadMansSwitch.sol\":15930:15947  bool switchStatus */\n      0x00\n        /* \"DeadMansSwitch.sol\":16091:16115  benefactors[_benefactor] */\n      swap1\n      dup2\n      mstore\n      0x20\n      dup2\n      swap1\n      mstore\n      0x40\n      dup2\n      keccak256\n        /* \"DeadMansSwitch.sol\":16091:16122  benefactors[_benefactor].exists */\n      sload\n        /* \"DeadMansSwitch.sol\":15949:15979  address[] memory beneficiaries */\n      0x60\n      swap1\n        /* \"DeadMansSwitch.sol\":15930:15947  bool switchStatus */\n      dup3\n      swap1\n      dup2\n      swap1\n        /* \"DeadMansSwitch.sol\":15949:15979  address[] memory beneficiaries */\n      dup4\n      swap1\n      dup2\n      swap1\n        /* \"DeadMansSwitch.sol\":16091:16122  benefactors[_benefactor].exists */\n      0xff\n      and\n        /* \"DeadMansSwitch.sol\":16083:16152  require(benefactors[_benefactor].exists, \"Benefactor does not exist\") */\n      tag_316\n      jumpi\n      mload(0x40)\n      shl(0xe5, 0x461bcd)\n      dup2\n      mstore\n        /* \"#utility.yul\":9087:9089   */\n      0x20\n        /* \"DeadMansSwitch.sol\":16083:16152  require(benefactors[_benefactor].exists, \"Benefactor does not exist\") */\n      0x04\n      dup3\n      add\n        /* \"#utility.yul\":9069:9090   */\n      mstore\n        /* \"#utility.yul\":9126:9128   */\n      0x19\n        /* \"#utility.yul\":9106:9124   */\n      0x24\n      dup3\n      add\n        /* \"#utility.yul\":9099:9129   */\n      mstore\n        /* \"#utility.yul\":9165:9192   */\n      0x42656e65666163746f7220646f6573206e6f7420657869737400000000000000\n        /* \"#utility.yul\":9145:9163   */\n      0x44\n      dup3\n      add\n        /* \"#utility.yul\":9138:9193   */\n      mstore\n        /* \"#utility.yul\":9210:9228   */\n      0x64\n      add\n        /* \"DeadMansSwitch.sol\":16083:16152  require(benefactors[_benefactor].exists, \"Benefactor does not exist\") */\n      tag_120\n        /* \"#utility.yul\":8885:9234   */\n      jump\n        /* \"DeadMansSwitch.sol\":16083:16152  require(benefactors[_benefactor].exists, \"Benefactor does not exist\") */\n    tag_316:\n      sub(shl(0xa0, 0x01), 0x01)\n        /* \"DeadMansSwitch.sol\":16179:16203  benefactors[_benefactor] */\n      dup8\n      and\n        /* \"DeadMansSwitch.sol\":16179:16190  benefactors */\n      0x00\n        /* \"DeadMansSwitch.sol\":16179:16203  benefactors[_benefactor] */\n      swap1\n      dup2\n      mstore\n      0x20\n      dup2\n      dup2\n      mstore\n      0x40\n      dup1\n      dup4\n      keccak256\n        /* \"DeadMansSwitch.sol\":16179:16217  benefactors[_benefactor].isSwitchedOff */\n      0x04\n      add\n      sload\n        /* \"DeadMansSwitch.sol\":3926:3941  beneficiaryKeys */\n      0x01\n        /* \"DeadMansSwitch.sol\":3926:3954  beneficiaryKeys[_benefactor] */\n      swap1\n      swap3\n      mstore\n      swap1\n      swap2\n      keccak256\n        /* \"DeadMansSwitch.sol\":3926:3961  beneficiaryKeys[_benefactor].length */\n      sload\n        /* \"DeadMansSwitch.sol\":16179:16217  benefactors[_benefactor].isSwitchedOff */\n      0xff\n      swap1\n      swap2\n      and\n        /* \"DeadMansSwitch.sol\":16178:16217  !benefactors[_benefactor].isSwitchedOff */\n      iszero\n      swap7\n      pop\n        /* \"DeadMansSwitch.sol\":16244:16293  new address[](getBeneficiariesCount(_benefactor)) */\n      0xffffffffffffffff\n      dup2\n      gt\n      iszero\n      tag_321\n      jumpi\n      tag_321\n      tag_152\n      jump\t// in\n    tag_321:\n      mload(0x40)\n      swap1\n      dup1\n      dup3\n      mstore\n      dup1\n      0x20\n      mul\n      0x20\n      add\n      dup3\n      add\n      0x40\n      mstore\n      dup1\n      iszero\n      tag_322\n      jumpi\n      dup2\n      0x20\n      add\n      0x20\n      dup3\n      mul\n      dup1\n      calldatasize\n      dup4\n      calldatacopy\n      add\n      swap1\n      pop\n    tag_322:\n      pop\n        /* \"DeadMansSwitch.sol\":16228:16293  beneficiaries = new address[](getBeneficiariesCount(_benefactor)) */\n      swap5\n      pop\n        /* \"DeadMansSwitch.sol\":16304:16326  uint256 totalCIDsCount */\n      0x00\n        /* \"DeadMansSwitch.sol\":16329:16370  getTotalBeneficiaryCIDsCount(_benefactor) */\n      tag_323\n        /* \"DeadMansSwitch.sol\":16358:16369  _benefactor */\n      dup9\n        /* \"DeadMansSwitch.sol\":16329:16357  getTotalBeneficiaryCIDsCount */\n      tag_324\n        /* \"DeadMansSwitch.sol\":16329:16370  getTotalBeneficiaryCIDsCount(_benefactor) */\n      jump\t// in\n    tag_323:\n        /* \"DeadMansSwitch.sol\":16304:16370  uint256 totalCIDsCount = getTotalBeneficiaryCIDsCount(_benefactor) */\n      swap1\n      pop\n        /* \"DeadMansSwitch.sol\":16408:16422  totalCIDsCount */\n      dup1\n        /* \"DeadMansSwitch.sol\":16395:16423  new string[](totalCIDsCount) */\n      0xffffffffffffffff\n      dup2\n      gt\n      iszero\n      tag_326\n      jumpi\n      tag_326\n      tag_152\n      jump\t// in\n    tag_326:\n      mload(0x40)\n      swap1\n      dup1\n      dup3\n      mstore\n      dup1\n      0x20\n      mul\n      0x20\n      add\n      dup3\n      add\n      0x40\n      mstore\n      dup1\n      iszero\n      tag_327\n      jumpi\n      dup2\n      0x20\n      add\n    tag_328:\n      0x60\n      dup2\n      mstore\n      0x20\n      add\n      swap1\n      0x01\n      swap1\n      sub\n      swap1\n      dup2\n      tag_328\n      jumpi\n      swap1\n      pop\n    tag_327:\n      pop\n        /* \"DeadMansSwitch.sol\":16381:16423  allIpfsCIDs = new string[](totalCIDsCount) */\n      swap2\n      pop\n        /* \"DeadMansSwitch.sol\":16434:16447  uint256 index */\n      0x00\n        /* \"DeadMansSwitch.sol\":16464:16477  uint256 count */\n      dup1\n        /* \"DeadMansSwitch.sol\":16480:16514  getBeneficiariesCount(_benefactor) */\n      tag_329\n        /* \"DeadMansSwitch.sol\":16502:16513  _benefactor */\n      dup11\n      sub(shl(0xa0, 0x01), 0x01)\n        /* \"DeadMansSwitch.sol\":3926:3954  beneficiaryKeys[_benefactor] */\n      and\n        /* \"DeadMansSwitch.sol\":3899:3906  uint256 */\n      0x00\n        /* \"DeadMansSwitch.sol\":3926:3954  beneficiaryKeys[_benefactor] */\n      swap1\n      dup2\n      mstore\n        /* \"DeadMansSwitch.sol\":3926:3941  beneficiaryKeys */\n      0x01\n        /* \"DeadMansSwitch.sol\":3926:3954  beneficiaryKeys[_benefactor] */\n      0x20\n      mstore\n      0x40\n      swap1\n      keccak256\n        /* \"DeadMansSwitch.sol\":3926:3961  beneficiaryKeys[_benefactor].length */\n      sload\n      swap1\n        /* \"DeadMansSwitch.sol\":3825:3969  function getBeneficiariesCount(address _benefactor) private view returns (uint256) {... */\n      jump\n        /* \"DeadMansSwitch.sol\":16480:16514  getBeneficiariesCount(_benefactor) */\n    tag_329:\n        /* \"DeadMansSwitch.sol\":16464:16514  uint256 count = getBeneficiariesCount(_benefactor) */\n      swap1\n      pop\n        /* \"DeadMansSwitch.sol\":16530:16539  uint256 i */\n      0x00\n        /* \"DeadMansSwitch.sol\":16525:17031  for (uint256 i = 0; i < count; i++) {... */\n    tag_330:\n        /* \"DeadMansSwitch.sol\":16549:16554  count */\n      dup2\n        /* \"DeadMansSwitch.sol\":16545:16546  i */\n      dup2\n        /* \"DeadMansSwitch.sol\":16545:16554  i < count */\n      lt\n        /* \"DeadMansSwitch.sol\":16525:17031  for (uint256 i = 0; i < count; i++) {... */\n      iszero\n      tag_331\n      jumpi\n      sub(shl(0xa0, 0x01), 0x01)\n        /* \"DeadMansSwitch.sol\":16598:16626  beneficiaryKeys[_benefactor] */\n      dup12\n      and\n        /* \"DeadMansSwitch.sol\":16576:16595  address beneficiary */\n      0x00\n        /* \"DeadMansSwitch.sol\":16598:16626  beneficiaryKeys[_benefactor] */\n      swap1\n      dup2\n      mstore\n        /* \"DeadMansSwitch.sol\":16598:16613  beneficiaryKeys */\n      0x01\n        /* \"DeadMansSwitch.sol\":16598:16626  beneficiaryKeys[_benefactor] */\n      0x20\n      mstore\n      0x40\n      dup2\n      keccak256\n        /* \"DeadMansSwitch.sol\":16598:16629  beneficiaryKeys[_benefactor][i] */\n      dup1\n      sload\n        /* \"DeadMansSwitch.sol\":16627:16628  i */\n      dup4\n      swap1\n        /* \"DeadMansSwitch.sol\":16598:16629  beneficiaryKeys[_benefactor][i] */\n      dup2\n      lt\n      tag_334\n      jumpi\n      tag_334\n      tag_144\n      jump\t// in\n    tag_334:\n      0x00\n      swap2\n      dup3\n      mstore\n      0x20\n      dup1\n      dup4\n      keccak256\n      swap1\n      swap2\n      add\n      sload\n      sub(shl(0xa0, 0x01), 0x01)\n        /* \"DeadMansSwitch.sol\":16648:16672  benefactors[_benefactor] */\n      dup16\n      dup2\n      and\n      dup5\n      mstore\n      dup4\n      dup4\n      mstore\n      0x40\n      dup1\n      dup6\n      keccak256\n        /* \"DeadMansSwitch.sol\":16598:16629  beneficiaryKeys[_benefactor][i] */\n      swap2\n      swap1\n      swap3\n      and\n        /* \"DeadMansSwitch.sol\":16648:16699  benefactors[_benefactor].beneficiaries[beneficiary] */\n      dup1\n      dup6\n      mstore\n        /* \"DeadMansSwitch.sol\":16598:16629  beneficiaryKeys[_benefactor][i] */\n      0x01\n        /* \"DeadMansSwitch.sol\":16648:16686  benefactors[_benefactor].beneficiaries */\n      swap2\n      swap1\n      swap2\n      add\n        /* \"DeadMansSwitch.sol\":16648:16699  benefactors[_benefactor].beneficiaries[beneficiary] */\n      swap1\n      swap3\n      mstore\n      swap1\n      swap2\n      keccak256\n        /* \"DeadMansSwitch.sol\":16648:16706  benefactors[_benefactor].beneficiaries[beneficiary].exists */\n      sload\n        /* \"DeadMansSwitch.sol\":16598:16629  beneficiaryKeys[_benefactor][i] */\n      swap1\n      swap2\n      pop\n        /* \"DeadMansSwitch.sol\":16648:16706  benefactors[_benefactor].beneficiaries[beneficiary].exists */\n      0xff\n      and\n        /* \"DeadMansSwitch.sol\":16644:17020  if (benefactors[_benefactor].beneficiaries[beneficiary].exists) {... */\n      iszero\n      tag_336\n      jumpi\n      sub(shl(0xa0, 0x01), 0x01)\n        /* \"DeadMansSwitch.sol\":16761:16785  benefactors[_benefactor] */\n      dup1\n      dup14\n      and\n        /* \"DeadMansSwitch.sol\":16727:16758  string[] memory beneficiaryCIDs */\n      0x00\n        /* \"DeadMansSwitch.sol\":16761:16785  benefactors[_benefactor] */\n      swap1\n      dup2\n      mstore\n      0x20\n      dup2\n      dup2\n      mstore\n      0x40\n      dup1\n      dup4\n      keccak256\n        /* \"DeadMansSwitch.sol\":16761:16812  benefactors[_benefactor].beneficiaries[beneficiary] */\n      swap4\n      dup6\n      and\n      dup4\n      mstore\n        /* \"DeadMansSwitch.sol\":16761:16799  benefactors[_benefactor].beneficiaries */\n      0x01\n      swap4\n      dup5\n      add\n        /* \"DeadMansSwitch.sol\":16761:16812  benefactors[_benefactor].beneficiaries[beneficiary] */\n      dup3\n      mstore\n      dup1\n      dup4\n      keccak256\n        /* \"DeadMansSwitch.sol\":16761:16821  benefactors[_benefactor].beneficiaries[beneficiary].ipfsCIDs */\n      swap1\n      swap4\n      add\n        /* \"DeadMansSwitch.sol\":16727:16821  string[] memory beneficiaryCIDs = benefactors[_benefactor].beneficiaries[beneficiary].ipfsCIDs */\n      dup1\n      sload\n      dup5\n      mload\n      dup2\n      dup5\n      mul\n      dup2\n      add\n      dup5\n      add\n      swap1\n      swap6\n      mstore\n      dup1\n      dup6\n      mstore\n        /* \"DeadMansSwitch.sol\":16727:16758  string[] memory beneficiaryCIDs */\n      swap3\n      swap4\n        /* \"DeadMansSwitch.sol\":16727:16821  string[] memory beneficiaryCIDs = benefactors[_benefactor].beneficiaries[beneficiary].ipfsCIDs */\n      swap3\n        /* \"DeadMansSwitch.sol\":16761:16821  benefactors[_benefactor].beneficiaries[beneficiary].ipfsCIDs */\n      swap1\n      swap2\n        /* \"DeadMansSwitch.sol\":16727:16758  string[] memory beneficiaryCIDs */\n      dup5\n      swap1\n        /* \"DeadMansSwitch.sol\":16727:16821  string[] memory beneficiaryCIDs = benefactors[_benefactor].beneficiaries[beneficiary].ipfsCIDs */\n      dup5\n      add\n    tag_337:\n      dup3\n      dup3\n      lt\n      iszero\n      tag_338\n      jumpi\n      dup4\n      dup3\n      swap1\n      0x00\n      mstore\n      keccak256(0x00, 0x20)\n      add\n      dup1\n      sload\n      tag_340\n      swap1\n      tag_178\n      jump\t// in\n    tag_340:\n      dup1\n      0x1f\n      add\n      0x20\n      dup1\n      swap2\n      div\n      mul\n      0x20\n      add\n      mload(0x40)\n      swap1\n      dup2\n      add\n      0x40\n      mstore\n      dup1\n      swap3\n      swap2\n      swap1\n      dup2\n      dup2\n      mstore\n      0x20\n      add\n      dup3\n      dup1\n      sload\n      tag_341\n      swap1\n      tag_178\n      jump\t// in\n    tag_341:\n      dup1\n      iszero\n      tag_342\n      jumpi\n      dup1\n      0x1f\n      lt\n      tag_343\n      jumpi\n      0x0100\n      dup1\n      dup4\n      sload\n      div\n      mul\n      dup4\n      mstore\n      swap2\n      0x20\n      add\n      swap2\n      jump(tag_342)\n    tag_343:\n      dup3\n      add\n      swap2\n      swap1\n      0x00\n      mstore\n      keccak256(0x00, 0x20)\n      swap1\n    tag_344:\n      dup2\n      sload\n      dup2\n      mstore\n      swap1\n      0x01\n      add\n      swap1\n      0x20\n      add\n      dup1\n      dup4\n      gt\n      tag_344\n      jumpi\n      dup3\n      swap1\n      sub\n      0x1f\n      and\n      dup3\n      add\n      swap2\n    tag_342:\n      pop\n      pop\n      pop\n      pop\n      pop\n      dup2\n      mstore\n      0x20\n      add\n      swap1\n      0x01\n      add\n      swap1\n      jump(tag_337)\n    tag_338:\n      pop\n      pop\n      pop\n      pop\n      swap1\n      pop\n        /* \"DeadMansSwitch.sol\":16845:16854  uint256 j */\n      0x00\n        /* \"DeadMansSwitch.sol\":16840:17005  for (uint256 j = 0; j < beneficiaryCIDs.length; j++) {... */\n    tag_345:\n        /* \"DeadMansSwitch.sol\":16864:16879  beneficiaryCIDs */\n      dup2\n        /* \"DeadMansSwitch.sol\":16864:16886  beneficiaryCIDs.length */\n      mload\n        /* \"DeadMansSwitch.sol\":16860:16861  j */\n      dup2\n        /* \"DeadMansSwitch.sol\":16860:16886  j < beneficiaryCIDs.length */\n      lt\n        /* \"DeadMansSwitch.sol\":16840:17005  for (uint256 j = 0; j < beneficiaryCIDs.length; j++) {... */\n      iszero\n      tag_346\n      jumpi\n        /* \"DeadMansSwitch.sol\":16937:16952  beneficiaryCIDs */\n      dup2\n        /* \"DeadMansSwitch.sol\":16953:16954  j */\n      dup2\n        /* \"DeadMansSwitch.sol\":16937:16955  beneficiaryCIDs[j] */\n      dup2\n      mload\n      dup2\n      lt\n      tag_349\n      jumpi\n      tag_349\n      tag_144\n      jump\t// in\n    tag_349:\n      0x20\n      mul\n      0x20\n      add\n      add\n      mload\n        /* \"DeadMansSwitch.sol\":16916:16927  allIpfsCIDs */\n      dup9\n        /* \"DeadMansSwitch.sol\":16928:16933  index */\n      dup8\n        /* \"DeadMansSwitch.sol\":16916:16934  allIpfsCIDs[index] */\n      dup2\n      mload\n      dup2\n      lt\n      tag_351\n      jumpi\n      tag_351\n      tag_144\n      jump\t// in\n    tag_351:\n      0x20\n      mul\n      0x20\n      add\n      add\n        /* \"DeadMansSwitch.sol\":16916:16955  allIpfsCIDs[index] = beneficiaryCIDs[j] */\n      dup2\n      swap1\n      mstore\n      pop\n        /* \"DeadMansSwitch.sol\":16978:16985  index++ */\n      dup6\n      dup1\n      tag_352\n      swap1\n      tag_160\n      jump\t// in\n    tag_352:\n      swap7\n      pop\n      pop\n        /* \"DeadMansSwitch.sol\":16888:16891  j++ */\n      dup1\n      dup1\n      tag_353\n      swap1\n      tag_160\n      jump\t// in\n    tag_353:\n      swap2\n      pop\n      pop\n        /* \"DeadMansSwitch.sol\":16840:17005  for (uint256 j = 0; j < beneficiaryCIDs.length; j++) {... */\n      jump(tag_345)\n    tag_346:\n      pop\n        /* \"DeadMansSwitch.sol\":16708:17020  {... */\n      pop\n        /* \"DeadMansSwitch.sol\":16644:17020  if (benefactors[_benefactor].beneficiaries[beneficiary].exists) {... */\n    tag_336:\n      pop\n        /* \"DeadMansSwitch.sol\":16556:16559  i++ */\n      dup1\n      tag_354\n      dup2\n      tag_160\n      jump\t// in\n    tag_354:\n      swap2\n      pop\n      pop\n        /* \"DeadMansSwitch.sol\":16525:17031  for (uint256 i = 0; i < count; i++) {... */\n      jump(tag_330)\n    tag_331:\n      pop\n      sub(shl(0xa0, 0x01), 0x01)\n        /* \"DeadMansSwitch.sol\":17045:17069  benefactors[_benefactor] */\n      dup11\n      and\n        /* \"DeadMansSwitch.sol\":17045:17056  benefactors */\n      0x00\n        /* \"DeadMansSwitch.sol\":17045:17069  benefactors[_benefactor] */\n      swap1\n      dup2\n      mstore\n      0x20\n      dup2\n      swap1\n      mstore\n      0x40\n      swap1\n      keccak256\n        /* \"DeadMansSwitch.sol\":17045:17083  benefactors[_benefactor].isSwitchedOff */\n      0x04\n      add\n      sload\n      0xff\n      and\n        /* \"DeadMansSwitch.sol\":17041:17216  if (benefactors[_benefactor].isSwitchedOff) {... */\n      iszero\n      tag_355\n      jumpi\n        /* \"DeadMansSwitch.sol\":17116:17117  0 */\n      0x00\n        /* \"DeadMansSwitch.sol\":17100:17117  remainingTime = 0 */\n      swap7\n      pop\n        /* \"DeadMansSwitch.sol\":17041:17216  if (benefactors[_benefactor].isSwitchedOff) {... */\n      jump(tag_356)\n    tag_355:\n        /* \"DeadMansSwitch.sol\":17166:17204  getRemainingCountdownTime(_benefactor) */\n      tag_357\n        /* \"DeadMansSwitch.sol\":17192:17203  _benefactor */\n      dup11\n        /* \"DeadMansSwitch.sol\":17166:17191  getRemainingCountdownTime */\n      tag_31\n        /* \"DeadMansSwitch.sol\":17166:17204  getRemainingCountdownTime(_benefactor) */\n      jump\t// in\n    tag_357:\n        /* \"DeadMansSwitch.sol\":17150:17204  remainingTime = getRemainingCountdownTime(_benefactor) */\n      swap7\n      pop\n        /* \"DeadMansSwitch.sol\":17041:17216  if (benefactors[_benefactor].isSwitchedOff) {... */\n    tag_356:\n      sub(shl(0xa0, 0x01), 0x01)\n        /* \"DeadMansSwitch.sol\":17236:17260  benefactors[_benefactor] */\n      dup11\n      and\n        /* \"DeadMansSwitch.sol\":17236:17247  benefactors */\n      0x00\n        /* \"DeadMansSwitch.sol\":17236:17260  benefactors[_benefactor] */\n      swap1\n      dup2\n      mstore\n      0x20\n      dup2\n      swap1\n      mstore\n      0x40\n      swap1\n      keccak256\n        /* \"DeadMansSwitch.sol\":17236:17268  benefactors[_benefactor].isAlive */\n      0x04\n      dup2\n      add\n      sload\n        /* \"DeadMansSwitch.sol\":17291:17335  benefactors[_benefactor].benefactorPublicKey */\n      0x05\n      swap1\n      swap2\n      add\n        /* \"DeadMansSwitch.sol\":17279:17335  publicKey = benefactors[_benefactor].benefactorPublicKey */\n      dup1\n      sload\n        /* \"DeadMansSwitch.sol\":17236:17268  benefactors[_benefactor].isAlive */\n      0x0100\n      swap1\n      swap3\n      div\n      0xff\n      and\n      swap8\n      pop\n        /* \"DeadMansSwitch.sol\":17291:17335  benefactors[_benefactor].benefactorPublicKey */\n      swap1\n        /* \"DeadMansSwitch.sol\":17279:17335  publicKey = benefactors[_benefactor].benefactorPublicKey */\n      tag_358\n      swap1\n      tag_178\n      jump\t// in\n    tag_358:\n      dup1\n      0x1f\n      add\n      0x20\n      dup1\n      swap2\n      div\n      mul\n      0x20\n      add\n      mload(0x40)\n      swap1\n      dup2\n      add\n      0x40\n      mstore\n      dup1\n      swap3\n      swap2\n      swap1\n      dup2\n      dup2\n      mstore\n      0x20\n      add\n      dup3\n      dup1\n      sload\n      tag_359\n      swap1\n      tag_178\n      jump\t// in\n    tag_359:\n      dup1\n      iszero\n      tag_360\n      jumpi\n      dup1\n      0x1f\n      lt\n      tag_361\n      jumpi\n      0x0100\n      dup1\n      dup4\n      sload\n      div\n      mul\n      dup4\n      mstore\n      swap2\n      0x20\n      add\n      swap2\n      jump(tag_360)\n    tag_361:\n      dup3\n      add\n      swap2\n      swap1\n      0x00\n      mstore\n      keccak256(0x00, 0x20)\n      swap1\n    tag_362:\n      dup2\n      sload\n      dup2\n      mstore\n      swap1\n      0x01\n      add\n      swap1\n      0x20\n      add\n      dup1\n      dup4\n      gt\n      tag_362\n      jumpi\n      dup3\n      swap1\n      sub\n      0x1f\n      and\n      dup3\n      add\n      swap2\n    tag_360:\n      pop\n      pop\n      pop\n      pop\n      pop\n      swap5\n      pop\n        /* \"DeadMansSwitch.sol\":17353:17445  BenefactorsData(switchStatus, beneficiaries, remainingTime, isAlive, publicKey, allIpfsCIDs) */\n      0x4bc4f0d667f981d69e9500f47d56b517891311c1b6816bb75e9f46b3f680692c\n        /* \"DeadMansSwitch.sol\":17369:17381  switchStatus */\n      dup10\n        /* \"DeadMansSwitch.sol\":17383:17396  beneficiaries */\n      dup10\n        /* \"DeadMansSwitch.sol\":17398:17411  remainingTime */\n      dup10\n        /* \"DeadMansSwitch.sol\":17413:17420  isAlive */\n      dup10\n        /* \"DeadMansSwitch.sol\":17422:17431  publicKey */\n      dup10\n        /* \"DeadMansSwitch.sol\":17433:17444  allIpfsCIDs */\n      dup10\n        /* \"DeadMansSwitch.sol\":17353:17445  BenefactorsData(switchStatus, beneficiaries, remainingTime, isAlive, publicKey, allIpfsCIDs) */\n      mload(0x40)\n      tag_363\n      swap7\n      swap6\n      swap5\n      swap4\n      swap3\n      swap2\n      swap1\n      tag_99\n      jump\t// in\n    tag_363:\n      mload(0x40)\n      dup1\n      swap2\n      sub\n      swap1\n      log1\n        /* \"DeadMansSwitch.sol\":17456:17540  return (switchStatus, beneficiaries, remainingTime, isAlive, publicKey, allIpfsCIDs) */\n      pop\n      pop\n      pop\n        /* \"DeadMansSwitch.sol\":15866:17548  function getBenefactorData(address _benefactor) public returns (bool switchStatus, address[] memory beneficiaries, uint256 remainingTime, bool isAlive, string memory publicKey, string[] memory allIpfsCIDs) {... */\n      swap2\n      swap4\n      swap6\n      pop\n      swap2\n      swap4\n      swap6\n      jump\t// out\n        /* \"DeadMansSwitch.sol\":5266:5590  function getBeneficiaryPublicKey(address _benefactor, address _beneficiary) public view returns(string memory) {... */\n    tag_102:\n        /* \"DeadMansSwitch.sol\":5362:5375  string memory */\n      0x60\n        /* \"DeadMansSwitch.sol\":5392:5432  isBeneficiary(_benefactor, _beneficiary) */\n      tag_365\n        /* \"DeadMansSwitch.sol\":5406:5417  _benefactor */\n      dup4\n        /* \"DeadMansSwitch.sol\":5419:5431  _beneficiary */\n      dup4\n        /* \"DeadMansSwitch.sol\":5392:5405  isBeneficiary */\n      tag_46\n        /* \"DeadMansSwitch.sol\":5392:5432  isBeneficiary(_benefactor, _beneficiary) */\n      jump\t// in\n    tag_365:\n        /* \"DeadMansSwitch.sol\":5388:5583  if (isBeneficiary(_benefactor, _beneficiary)) {... */\n      iszero\n      tag_366\n      jumpi\n      sub(shl(0xa0, 0x01), 0x01)\n        /* \"DeadMansSwitch.sol\":5456:5480  benefactors[_benefactor] */\n      dup1\n      dup5\n      and\n        /* \"DeadMansSwitch.sol\":5456:5467  benefactors */\n      0x00\n        /* \"DeadMansSwitch.sol\":5456:5480  benefactors[_benefactor] */\n      swap1\n      dup2\n      mstore\n      0x20\n      dup2\n      dup2\n      mstore\n      0x40\n      dup1\n      dup4\n      keccak256\n        /* \"DeadMansSwitch.sol\":5456:5508  benefactors[_benefactor].beneficiaries[_beneficiary] */\n      swap4\n      dup7\n      and\n      dup4\n      mstore\n        /* \"DeadMansSwitch.sol\":5456:5494  benefactors[_benefactor].beneficiaries */\n      0x01\n      swap1\n      swap4\n      add\n        /* \"DeadMansSwitch.sol\":5456:5508  benefactors[_benefactor].beneficiaries[_beneficiary] */\n      swap1\n      mstore\n      keccak256\n        /* \"DeadMansSwitch.sol\":5456:5529  benefactors[_benefactor].beneficiaries[_beneficiary].beneficiaryPublicKey */\n      0x02\n      add\n        /* \"DeadMansSwitch.sol\":5449:5529  return benefactors[_benefactor].beneficiaries[_beneficiary].beneficiaryPublicKey */\n      dup1\n      sload\n      tag_367\n      swap1\n      tag_178\n      jump\t// in\n    tag_367:\n      dup1\n      0x1f\n      add\n      0x20\n      dup1\n      swap2\n      div\n      mul\n      0x20\n      add\n      mload(0x40)\n      swap1\n      dup2\n      add\n      0x40\n      mstore\n      dup1\n      swap3\n      swap2\n      swap1\n      dup2\n      dup2\n      mstore\n      0x20\n      add\n      dup3\n      dup1\n      sload\n      tag_368\n      swap1\n      tag_178\n      jump\t// in\n    tag_368:\n      dup1\n      iszero\n      tag_369\n      jumpi\n      dup1\n      0x1f\n      lt\n      tag_370\n      jumpi\n      0x0100\n      dup1\n      dup4\n      sload\n      div\n      mul\n      dup4\n      mstore\n      swap2\n      0x20\n      add\n      swap2\n      jump(tag_369)\n    tag_370:\n      dup3\n      add\n      swap2\n      swap1\n      0x00\n      mstore\n      keccak256(0x00, 0x20)\n      swap1\n    tag_371:\n      dup2\n      sload\n      dup2\n      mstore\n      swap1\n      0x01\n      add\n      swap1\n      0x20\n      add\n      dup1\n      dup4\n      gt\n      tag_371\n      jumpi\n      dup3\n      swap1\n      sub\n      0x1f\n      and\n      dup3\n      add\n      swap2\n    tag_369:\n      pop\n      pop\n      pop\n      pop\n      pop\n      swap1\n      pop\n      jump(tag_122)\n        /* \"DeadMansSwitch.sol\":5388:5583  if (isBeneficiary(_benefactor, _beneficiary)) {... */\n    tag_366:\n      pop\n        /* \"DeadMansSwitch.sol\":5562:5571  return \"\" */\n      0x40\n      dup1\n      mload\n      0x20\n      dup2\n      add\n      swap1\n      swap2\n      mstore\n      0x00\n      dup2\n      mstore\n      jump(tag_122)\n        /* \"DeadMansSwitch.sol\":12037:12372  function disableSwitch() internal onlyBenefactor {... */\n    tag_258:\n        /* \"DeadMansSwitch.sol\":2621:2631  msg.sender */\n      caller\n        /* \"DeadMansSwitch.sol\":2609:2620  benefactors */\n      0x00\n        /* \"DeadMansSwitch.sol\":2609:2632  benefactors[msg.sender] */\n      swap1\n      dup2\n      mstore\n      0x20\n      dup2\n      swap1\n      mstore\n      0x40\n      swap1\n      keccak256\n        /* \"DeadMansSwitch.sol\":2609:2639  benefactors[msg.sender].exists */\n      sload\n      0xff\n      and\n        /* \"DeadMansSwitch.sol\":2609:2674  benefactors[msg.sender].exists && benefactors[msg.sender].isAlive */\n      dup1\n      iszero\n      tag_374\n      jumpi\n      pop\n        /* \"DeadMansSwitch.sol\":2655:2665  msg.sender */\n      caller\n        /* \"DeadMansSwitch.sol\":2643:2654  benefactors */\n      0x00\n        /* \"DeadMansSwitch.sol\":2643:2666  benefactors[msg.sender] */\n      swap1\n      dup2\n      mstore\n      0x20\n      dup2\n      swap1\n      mstore\n      0x40\n      swap1\n      keccak256\n        /* \"DeadMansSwitch.sol\":2643:2674  benefactors[msg.sender].isAlive */\n      0x04\n      add\n      sload\n      0x0100\n      swap1\n      div\n      0xff\n      and\n        /* \"DeadMansSwitch.sol\":2609:2674  benefactors[msg.sender].exists && benefactors[msg.sender].isAlive */\n    tag_374:\n        /* \"DeadMansSwitch.sol\":2601:2701  require(benefactors[msg.sender].exists && benefactors[msg.sender].isAlive, \"Not a valid benefactor\") */\n      tag_375\n      jumpi\n      mload(0x40)\n      shl(0xe5, 0x461bcd)\n      dup2\n      mstore\n        /* \"#utility.yul\":12391:12393   */\n      0x20\n        /* \"DeadMansSwitch.sol\":2601:2701  require(benefactors[msg.sender].exists && benefactors[msg.sender].isAlive, \"Not a valid benefactor\") */\n      0x04\n      dup3\n      add\n        /* \"#utility.yul\":12373:12394   */\n      mstore\n        /* \"#utility.yul\":12430:12432   */\n      0x16\n        /* \"#utility.yul\":12410:12428   */\n      0x24\n      dup3\n      add\n        /* \"#utility.yul\":12403:12433   */\n      mstore\n      shl(0x51, 0x2737ba1030903b30b634b2103132b732b330b1ba37b9)\n        /* \"#utility.yul\":12449:12467   */\n      0x44\n      dup3\n      add\n        /* \"#utility.yul\":12442:12494   */\n      mstore\n        /* \"#utility.yul\":12511:12529   */\n      0x64\n      add\n        /* \"DeadMansSwitch.sol\":2601:2701  require(benefactors[msg.sender].exists && benefactors[msg.sender].isAlive, \"Not a valid benefactor\") */\n      tag_120\n        /* \"#utility.yul\":12189:12535   */\n      jump\n        /* \"DeadMansSwitch.sol\":2601:2701  require(benefactors[msg.sender].exists && benefactors[msg.sender].isAlive, \"Not a valid benefactor\") */\n    tag_375:\n        /* \"DeadMansSwitch.sol\":12113:12123  msg.sender */\n      caller\n        /* \"DeadMansSwitch.sol\":12101:12112  benefactors */\n      0x00\n        /* \"DeadMansSwitch.sol\":12101:12124  benefactors[msg.sender] */\n      swap1\n      dup2\n      mstore\n      0x20\n      dup2\n      swap1\n      mstore\n      0x40\n      swap1\n      keccak256\n        /* \"DeadMansSwitch.sol\":12101:12138  benefactors[msg.sender].isSwitchedOff */\n      0x04\n      add\n      sload\n      0xff\n      and\n        /* \"DeadMansSwitch.sol\":12097:12232  if (benefactors[msg.sender].isSwitchedOff) {... */\n      iszero\n      tag_378\n      jumpi\n        /* \"DeadMansSwitch.sol\":12160:12199  SwitchAlreadyOff(msg.sender,msg.sender) */\n      mload(0x40)\n        /* \"DeadMansSwitch.sol\":12188:12198  msg.sender */\n      caller\n      swap1\n      dup2\n      swap1\n        /* \"DeadMansSwitch.sol\":12160:12199  SwitchAlreadyOff(msg.sender,msg.sender) */\n      0x439c5aaf7691cb4808dbd2a240323ce9ec0d04d66ddf65ffd5f88ebd60fa745b\n      swap1\n      0x00\n      swap1\n      log3\n        /* \"DeadMansSwitch.sol\":12530:13229  function respondToSwitch() external onlyBenefactor {... */\n      jump\t// out\n        /* \"DeadMansSwitch.sol\":12097:12232  if (benefactors[msg.sender].isSwitchedOff) {... */\n    tag_378:\n        /* \"DeadMansSwitch.sol\":12254:12264  msg.sender */\n      caller\n        /* \"DeadMansSwitch.sol\":12242:12253  benefactors */\n      0x00\n        /* \"DeadMansSwitch.sol\":12242:12265  benefactors[msg.sender] */\n      dup2\n      dup2\n      mstore\n      0x20\n      dup2\n      swap1\n      mstore\n      0x40\n      swap1\n      dup2\n      swap1\n      keccak256\n        /* \"DeadMansSwitch.sol\":12242:12279  benefactors[msg.sender].isSwitchedOff */\n      0x04\n      add\n        /* \"DeadMansSwitch.sol\":12242:12286  benefactors[msg.sender].isSwitchedOff = true */\n      dup1\n      sload\n      not(0xff)\n      and\n        /* \"DeadMansSwitch.sol\":12282:12286  true */\n      0x01\n        /* \"DeadMansSwitch.sol\":12242:12286  benefactors[msg.sender].isSwitchedOff = true */\n      or\n      swap1\n      sstore\n        /* \"DeadMansSwitch.sol\":12302:12364  DeadMansSwitchDisabled(msg.sender,msg.sender, block.timestamp) */\n      mload\n        /* \"DeadMansSwitch.sol\":12254:12264  msg.sender */\n      dup2\n      swap1\n        /* \"DeadMansSwitch.sol\":12302:12364  DeadMansSwitchDisabled(msg.sender,msg.sender, block.timestamp) */\n      0x9baa855d20de9b1a4db454f55b09d1db5f42f0871bbea3b0c699146ade171625\n      swap1\n      tag_379\n      swap1\n        /* \"DeadMansSwitch.sol\":12348:12363  block.timestamp */\n      timestamp\n        /* \"#utility.yul\":552:577   */\n      dup2\n      mstore\n        /* \"#utility.yul\":540:542   */\n      0x20\n        /* \"#utility.yul\":525:543   */\n      add\n      swap1\n        /* \"#utility.yul\":406:583   */\n      jump\n        /* \"DeadMansSwitch.sol\":12302:12364  DeadMansSwitchDisabled(msg.sender,msg.sender, block.timestamp) */\n    tag_379:\n      mload(0x40)\n      dup1\n      swap2\n      sub\n      swap1\n      log3\n        /* \"DeadMansSwitch.sol\":12037:12372  function disableSwitch() internal onlyBenefactor {... */\n      jump\t// out\n        /* \"DeadMansSwitch.sol\":15245:15785  function getTotalBeneficiaryCIDsCount(address _benefactor) private view returns (uint256) {... */\n    tag_324:\n        /* \"DeadMansSwitch.sol\":15326:15333  uint256 */\n      0x00\n      dup1\n      dup1\n        /* \"DeadMansSwitch.sol\":15395:15429  getBeneficiariesCount(_benefactor) */\n      tag_382\n        /* \"DeadMansSwitch.sol\":15417:15428  _benefactor */\n      dup5\n      sub(shl(0xa0, 0x01), 0x01)\n        /* \"DeadMansSwitch.sol\":3926:3954  beneficiaryKeys[_benefactor] */\n      and\n        /* \"DeadMansSwitch.sol\":3899:3906  uint256 */\n      0x00\n        /* \"DeadMansSwitch.sol\":3926:3954  beneficiaryKeys[_benefactor] */\n      swap1\n      dup2\n      mstore\n        /* \"DeadMansSwitch.sol\":3926:3941  beneficiaryKeys */\n      0x01\n        /* \"DeadMansSwitch.sol\":3926:3954  beneficiaryKeys[_benefactor] */\n      0x20\n      mstore\n      0x40\n      swap1\n      keccak256\n        /* \"DeadMansSwitch.sol\":3926:3961  beneficiaryKeys[_benefactor].length */\n      sload\n      swap1\n        /* \"DeadMansSwitch.sol\":3825:3969  function getBeneficiariesCount(address _benefactor) private view returns (uint256) {... */\n      jump\n        /* \"DeadMansSwitch.sol\":15395:15429  getBeneficiariesCount(_benefactor) */\n    tag_382:\n        /* \"DeadMansSwitch.sol\":15379:15429  uint256 count = getBeneficiariesCount(_benefactor) */\n      swap1\n      pop\n        /* \"DeadMansSwitch.sol\":15445:15454  uint256 i */\n      0x00\n        /* \"DeadMansSwitch.sol\":15440:15750  for (uint256 i = 0; i < count; i++) {... */\n    tag_383:\n        /* \"DeadMansSwitch.sol\":15464:15469  count */\n      dup2\n        /* \"DeadMansSwitch.sol\":15460:15461  i */\n      dup2\n        /* \"DeadMansSwitch.sol\":15460:15469  i < count */\n      lt\n        /* \"DeadMansSwitch.sol\":15440:15750  for (uint256 i = 0; i < count; i++) {... */\n      iszero\n      tag_384\n      jumpi\n      sub(shl(0xa0, 0x01), 0x01)\n        /* \"DeadMansSwitch.sol\":15513:15541  beneficiaryKeys[_benefactor] */\n      dup6\n      and\n        /* \"DeadMansSwitch.sol\":15491:15510  address beneficiary */\n      0x00\n        /* \"DeadMansSwitch.sol\":15513:15541  beneficiaryKeys[_benefactor] */\n      swap1\n      dup2\n      mstore\n        /* \"DeadMansSwitch.sol\":15513:15528  beneficiaryKeys */\n      0x01\n        /* \"DeadMansSwitch.sol\":15513:15541  beneficiaryKeys[_benefactor] */\n      0x20\n      mstore\n      0x40\n      dup2\n      keccak256\n        /* \"DeadMansSwitch.sol\":15513:15544  beneficiaryKeys[_benefactor][i] */\n      dup1\n      sload\n        /* \"DeadMansSwitch.sol\":15542:15543  i */\n      dup4\n      swap1\n        /* \"DeadMansSwitch.sol\":15513:15544  beneficiaryKeys[_benefactor][i] */\n      dup2\n      lt\n      tag_387\n      jumpi\n      tag_387\n      tag_144\n      jump\t// in\n    tag_387:\n      0x00\n      swap2\n      dup3\n      mstore\n      0x20\n      dup1\n      dup4\n      keccak256\n      swap1\n      swap2\n      add\n      sload\n      sub(shl(0xa0, 0x01), 0x01)\n        /* \"DeadMansSwitch.sol\":15563:15587  benefactors[_benefactor] */\n      dup10\n      dup2\n      and\n      dup5\n      mstore\n      dup4\n      dup4\n      mstore\n      0x40\n      dup1\n      dup6\n      keccak256\n        /* \"DeadMansSwitch.sol\":15513:15544  beneficiaryKeys[_benefactor][i] */\n      swap2\n      swap1\n      swap3\n      and\n        /* \"DeadMansSwitch.sol\":15563:15614  benefactors[_benefactor].beneficiaries[beneficiary] */\n      dup1\n      dup6\n      mstore\n        /* \"DeadMansSwitch.sol\":15513:15544  beneficiaryKeys[_benefactor][i] */\n      0x01\n        /* \"DeadMansSwitch.sol\":15563:15601  benefactors[_benefactor].beneficiaries */\n      swap2\n      swap1\n      swap2\n      add\n        /* \"DeadMansSwitch.sol\":15563:15614  benefactors[_benefactor].beneficiaries[beneficiary] */\n      swap1\n      swap3\n      mstore\n      swap1\n      swap2\n      keccak256\n        /* \"DeadMansSwitch.sol\":15563:15621  benefactors[_benefactor].beneficiaries[beneficiary].exists */\n      sload\n        /* \"DeadMansSwitch.sol\":15513:15544  beneficiaryKeys[_benefactor][i] */\n      swap1\n      swap2\n      pop\n        /* \"DeadMansSwitch.sol\":15563:15621  benefactors[_benefactor].beneficiaries[beneficiary].exists */\n      0xff\n      and\n        /* \"DeadMansSwitch.sol\":15559:15739  if (benefactors[_benefactor].beneficiaries[beneficiary].exists) {... */\n      iszero\n      tag_389\n      jumpi\n      sub(shl(0xa0, 0x01), 0x01)\n        /* \"DeadMansSwitch.sol\":15656:15680  benefactors[_benefactor] */\n      dup1\n      dup8\n      and\n        /* \"DeadMansSwitch.sol\":15656:15667  benefactors */\n      0x00\n        /* \"DeadMansSwitch.sol\":15656:15680  benefactors[_benefactor] */\n      swap1\n      dup2\n      mstore\n      0x20\n      dup2\n      dup2\n      mstore\n      0x40\n      dup1\n      dup4\n      keccak256\n        /* \"DeadMansSwitch.sol\":15656:15707  benefactors[_benefactor].beneficiaries[beneficiary] */\n      swap4\n      dup6\n      and\n      dup4\n      mstore\n        /* \"DeadMansSwitch.sol\":15656:15694  benefactors[_benefactor].beneficiaries */\n      0x01\n      swap4\n      dup5\n      add\n        /* \"DeadMansSwitch.sol\":15656:15707  benefactors[_benefactor].beneficiaries[beneficiary] */\n      swap1\n      swap2\n      mstore\n      swap1\n      keccak256\n        /* \"DeadMansSwitch.sol\":15656:15716  benefactors[_benefactor].beneficiaries[beneficiary].ipfsCIDs */\n      add\n        /* \"DeadMansSwitch.sol\":15656:15723  benefactors[_benefactor].beneficiaries[beneficiary].ipfsCIDs.length */\n      sload\n        /* \"DeadMansSwitch.sol\":15642:15723  totalCount += benefactors[_benefactor].beneficiaries[beneficiary].ipfsCIDs.length */\n      tag_390\n      swap1\n      dup6\n      tag_391\n      jump\t// in\n    tag_390:\n      swap4\n      pop\n        /* \"DeadMansSwitch.sol\":15559:15739  if (benefactors[_benefactor].beneficiaries[beneficiary].exists) {... */\n    tag_389:\n      pop\n        /* \"DeadMansSwitch.sol\":15471:15474  i++ */\n      dup1\n      tag_392\n      dup2\n      tag_160\n      jump\t// in\n    tag_392:\n      swap2\n      pop\n      pop\n        /* \"DeadMansSwitch.sol\":15440:15750  for (uint256 i = 0; i < count; i++) {... */\n      jump(tag_383)\n    tag_384:\n      pop\n        /* \"DeadMansSwitch.sol\":15767:15777  totalCount */\n      swap1\n      swap4\n        /* \"DeadMansSwitch.sol\":15245:15785  function getTotalBeneficiaryCIDsCount(address _benefactor) private view returns (uint256) {... */\n      swap3\n      pop\n      pop\n      pop\n      jump\t// out\n    tag_156:\n      dup3\n      dup1\n      sload\n      dup3\n      dup3\n      sstore\n      swap1\n      0x00\n      mstore\n      keccak256(0x00, 0x20)\n      swap1\n      dup2\n      add\n      swap3\n      dup3\n      iszero\n      tag_395\n      jumpi\n      swap2\n      0x20\n      mul\n      dup3\n      add\n    tag_394:\n      dup3\n      dup2\n      gt\n      iszero\n      tag_395\n      jumpi\n      dup3\n      mload\n      dup3\n      swap1\n      tag_396\n      swap1\n      dup3\n      tag_125\n      jump\t// in\n    tag_396:\n      pop\n      swap2\n      0x20\n      add\n      swap2\n      swap1\n      0x01\n      add\n      swap1\n      jump(tag_394)\n    tag_395:\n      pop\n      tag_397\n      swap3\n      swap2\n      pop\n      tag_398\n      jump\t// in\n    tag_397:\n      pop\n      swap1\n      jump\t// out\n    tag_171:\n      pop\n      dup1\n      sload\n      0x00\n      dup3\n      sstore\n      swap1\n      0x00\n      mstore\n      keccak256(0x00, 0x20)\n      swap1\n      dup2\n      add\n      swap1\n      tag_124\n      swap2\n      swap1\n      tag_398\n      jump\t// in\n    tag_173:\n      pop\n      dup1\n      sload\n      tag_401\n      swap1\n      tag_178\n      jump\t// in\n    tag_401:\n      0x00\n      dup3\n      sstore\n      dup1\n      0x1f\n      lt\n      tag_403\n      jumpi\n      pop\n      pop\n      jump\t// out\n    tag_403:\n      0x1f\n      add\n      0x20\n      swap1\n      div\n      swap1\n      0x00\n      mstore\n      keccak256(0x00, 0x20)\n      swap1\n      dup2\n      add\n      swap1\n      tag_124\n      swap2\n      swap1\n      tag_405\n      jump\t// in\n    tag_398:\n      dup1\n      dup3\n      gt\n      iszero\n      tag_397\n      jumpi\n      0x00\n      tag_408\n      dup3\n      dup3\n      tag_173\n      jump\t// in\n    tag_408:\n      pop\n      0x01\n      add\n      jump(tag_398)\n    tag_405:\n    tag_409:\n      dup1\n      dup3\n      gt\n      iszero\n      tag_397\n      jumpi\n      0x00\n      dup2\n      sstore\n      0x01\n      add\n      jump(tag_409)\n        /* \"#utility.yul\":14:210   */\n    tag_411:\n        /* \"#utility.yul\":82:102   */\n      dup1\n      calldataload\n      sub(shl(0xa0, 0x01), 0x01)\n        /* \"#utility.yul\":131:185   */\n      dup2\n      and\n        /* \"#utility.yul\":121:186   */\n      dup2\n      eq\n        /* \"#utility.yul\":111:204   */\n      tag_183\n      jumpi\n        /* \"#utility.yul\":200:201   */\n      0x00\n        /* \"#utility.yul\":197:198   */\n      dup1\n        /* \"#utility.yul\":190:202   */\n      revert\n        /* \"#utility.yul\":215:401   */\n    tag_30:\n        /* \"#utility.yul\":274:280   */\n      0x00\n        /* \"#utility.yul\":327:329   */\n      0x20\n        /* \"#utility.yul\":315:324   */\n      dup3\n        /* \"#utility.yul\":306:313   */\n      dup5\n        /* \"#utility.yul\":302:325   */\n      sub\n        /* \"#utility.yul\":298:330   */\n      slt\n        /* \"#utility.yul\":295:347   */\n      iszero\n      tag_426\n      jumpi\n        /* \"#utility.yul\":343:344   */\n      0x00\n        /* \"#utility.yul\":340:341   */\n      dup1\n        /* \"#utility.yul\":333:345   */\n      revert\n        /* \"#utility.yul\":295:347   */\n    tag_426:\n        /* \"#utility.yul\":366:395   */\n      tag_111\n        /* \"#utility.yul\":385:394   */\n      dup3\n        /* \"#utility.yul\":366:395   */\n      tag_411\n      jump\t// in\n        /* \"#utility.yul\":876:1136   */\n    tag_45:\n        /* \"#utility.yul\":944:950   */\n      0x00\n        /* \"#utility.yul\":952:958   */\n      dup1\n        /* \"#utility.yul\":1005:1007   */\n      0x40\n        /* \"#utility.yul\":993:1002   */\n      dup4\n        /* \"#utility.yul\":984:991   */\n      dup6\n        /* \"#utility.yul\":980:1003   */\n      sub\n        /* \"#utility.yul\":976:1008   */\n      slt\n        /* \"#utility.yul\":973:1025   */\n      iszero\n      tag_432\n      jumpi\n        /* \"#utility.yul\":1021:1022   */\n      0x00\n        /* \"#utility.yul\":1018:1019   */\n      dup1\n        /* \"#utility.yul\":1011:1023   */\n      revert\n        /* \"#utility.yul\":973:1025   */\n    tag_432:\n        /* \"#utility.yul\":1044:1073   */\n      tag_433\n        /* \"#utility.yul\":1063:1072   */\n      dup4\n        /* \"#utility.yul\":1044:1073   */\n      tag_411\n      jump\t// in\n    tag_433:\n        /* \"#utility.yul\":1034:1073   */\n      swap2\n      pop\n        /* \"#utility.yul\":1092:1130   */\n      tag_434\n        /* \"#utility.yul\":1126:1128   */\n      0x20\n        /* \"#utility.yul\":1115:1124   */\n      dup5\n        /* \"#utility.yul\":1111:1129   */\n      add\n        /* \"#utility.yul\":1092:1130   */\n      tag_411\n      jump\t// in\n    tag_434:\n        /* \"#utility.yul\":1082:1130   */\n      swap1\n      pop\n        /* \"#utility.yul\":876:1136   */\n      swap3\n      pop\n      swap3\n      swap1\n      pop\n      jump\t// out\n        /* \"#utility.yul\":1141:1268   */\n    tag_152:\n        /* \"#utility.yul\":1202:1212   */\n      0x4e487b71\n        /* \"#utility.yul\":1197:1200   */\n      0xe0\n        /* \"#utility.yul\":1193:1213   */\n      shl\n        /* \"#utility.yul\":1190:1191   */\n      0x00\n        /* \"#utility.yul\":1183:1214   */\n      mstore\n        /* \"#utility.yul\":1233:1237   */\n      0x41\n        /* \"#utility.yul\":1230:1231   */\n      0x04\n        /* \"#utility.yul\":1223:1238   */\n      mstore\n        /* \"#utility.yul\":1257:1261   */\n      0x24\n        /* \"#utility.yul\":1254:1255   */\n      0x00\n        /* \"#utility.yul\":1247:1262   */\n      revert\n        /* \"#utility.yul\":1273:1548   */\n    tag_413:\n        /* \"#utility.yul\":1344:1346   */\n      0x40\n        /* \"#utility.yul\":1338:1347   */\n      mload\n        /* \"#utility.yul\":1409:1411   */\n      0x1f\n        /* \"#utility.yul\":1390:1403   */\n      dup3\n      add\n      not(0x1f)\n        /* \"#utility.yul\":1386:1413   */\n      and\n        /* \"#utility.yul\":1374:1414   */\n      dup2\n      add\n        /* \"#utility.yul\":1444:1462   */\n      0xffffffffffffffff\n        /* \"#utility.yul\":1429:1463   */\n      dup2\n      gt\n        /* \"#utility.yul\":1465:1487   */\n      dup3\n      dup3\n      lt\n        /* \"#utility.yul\":1426:1488   */\n      or\n        /* \"#utility.yul\":1423:1511   */\n      iszero\n      tag_438\n      jumpi\n        /* \"#utility.yul\":1491:1509   */\n      tag_438\n      tag_152\n      jump\t// in\n    tag_438:\n        /* \"#utility.yul\":1527:1529   */\n      0x40\n        /* \"#utility.yul\":1520:1542   */\n      mstore\n        /* \"#utility.yul\":1273:1548   */\n      swap2\n      swap1\n      pop\n      jump\t// out\n        /* \"#utility.yul\":1553:2084   */\n    tag_414:\n        /* \"#utility.yul\":1596:1601   */\n      0x00\n        /* \"#utility.yul\":1649:1652   */\n      dup3\n        /* \"#utility.yul\":1642:1646   */\n      0x1f\n        /* \"#utility.yul\":1634:1640   */\n      dup4\n        /* \"#utility.yul\":1630:1647   */\n      add\n        /* \"#utility.yul\":1626:1653   */\n      slt\n        /* \"#utility.yul\":1616:1671   */\n      tag_440\n      jumpi\n        /* \"#utility.yul\":1667:1668   */\n      0x00\n        /* \"#utility.yul\":1664:1665   */\n      dup1\n        /* \"#utility.yul\":1657:1669   */\n      revert\n        /* \"#utility.yul\":1616:1671   */\n    tag_440:\n        /* \"#utility.yul\":1703:1709   */\n      dup2\n        /* \"#utility.yul\":1690:1710   */\n      calldataload\n        /* \"#utility.yul\":1729:1747   */\n      0xffffffffffffffff\n        /* \"#utility.yul\":1725:1727   */\n      dup2\n        /* \"#utility.yul\":1722:1748   */\n      gt\n        /* \"#utility.yul\":1719:1771   */\n      iszero\n      tag_442\n      jumpi\n        /* \"#utility.yul\":1751:1769   */\n      tag_442\n      tag_152\n      jump\t// in\n    tag_442:\n        /* \"#utility.yul\":1795:1850   */\n      tag_443\n        /* \"#utility.yul\":1838:1840   */\n      0x1f\n        /* \"#utility.yul\":1819:1832   */\n      dup3\n      add\n      not(0x1f)\n        /* \"#utility.yul\":1815:1842   */\n      and\n        /* \"#utility.yul\":1844:1848   */\n      0x20\n        /* \"#utility.yul\":1811:1849   */\n      add\n        /* \"#utility.yul\":1795:1850   */\n      tag_413\n      jump\t// in\n    tag_443:\n        /* \"#utility.yul\":1875:1877   */\n      dup2\n        /* \"#utility.yul\":1866:1873   */\n      dup2\n        /* \"#utility.yul\":1859:1878   */\n      mstore\n        /* \"#utility.yul\":1921:1924   */\n      dup5\n        /* \"#utility.yul\":1914:1918   */\n      0x20\n        /* \"#utility.yul\":1909:1911   */\n      dup4\n        /* \"#utility.yul\":1901:1907   */\n      dup7\n        /* \"#utility.yul\":1897:1912   */\n      add\n        /* \"#utility.yul\":1893:1919   */\n      add\n        /* \"#utility.yul\":1890:1925   */\n      gt\n        /* \"#utility.yul\":1887:1942   */\n      iszero\n      tag_444\n      jumpi\n        /* \"#utility.yul\":1938:1939   */\n      0x00\n        /* \"#utility.yul\":1935:1936   */\n      dup1\n        /* \"#utility.yul\":1928:1940   */\n      revert\n        /* \"#utility.yul\":1887:1942   */\n    tag_444:\n        /* \"#utility.yul\":2003:2005   */\n      dup2\n        /* \"#utility.yul\":1996:2000   */\n      0x20\n        /* \"#utility.yul\":1988:1994   */\n      dup6\n        /* \"#utility.yul\":1984:2001   */\n      add\n        /* \"#utility.yul\":1977:1981   */\n      0x20\n        /* \"#utility.yul\":1968:1975   */\n      dup4\n        /* \"#utility.yul\":1964:1982   */\n      add\n        /* \"#utility.yul\":1951:2006   */\n      calldatacopy\n        /* \"#utility.yul\":2051:2052   */\n      0x00\n        /* \"#utility.yul\":2026:2042   */\n      swap2\n      dup2\n      add\n        /* \"#utility.yul\":2044:2048   */\n      0x20\n        /* \"#utility.yul\":2022:2049   */\n      add\n        /* \"#utility.yul\":2015:2053   */\n      swap2\n      swap1\n      swap2\n      mstore\n        /* \"#utility.yul\":2030:2037   */\n      swap4\n        /* \"#utility.yul\":1553:2084   */\n      swap3\n      pop\n      pop\n      pop\n      jump\t// out\n        /* \"#utility.yul\":2089:2559   */\n    tag_52:\n        /* \"#utility.yul\":2176:2182   */\n      0x00\n        /* \"#utility.yul\":2184:2190   */\n      dup1\n        /* \"#utility.yul\":2192:2198   */\n      0x00\n        /* \"#utility.yul\":2245:2247   */\n      0x60\n        /* \"#utility.yul\":2233:2242   */\n      dup5\n        /* \"#utility.yul\":2224:2231   */\n      dup7\n        /* \"#utility.yul\":2220:2243   */\n      sub\n        /* \"#utility.yul\":2216:2248   */\n      slt\n        /* \"#utility.yul\":2213:2265   */\n      iszero\n      tag_446\n      jumpi\n        /* \"#utility.yul\":2261:2262   */\n      0x00\n        /* \"#utility.yul\":2258:2259   */\n      dup1\n        /* \"#utility.yul\":2251:2263   */\n      revert\n        /* \"#utility.yul\":2213:2265   */\n    tag_446:\n        /* \"#utility.yul\":2284:2313   */\n      tag_447\n        /* \"#utility.yul\":2303:2312   */\n      dup5\n        /* \"#utility.yul\":2284:2313   */\n      tag_411\n      jump\t// in\n    tag_447:\n        /* \"#utility.yul\":2274:2313   */\n      swap3\n      pop\n        /* \"#utility.yul\":2332:2370   */\n      tag_448\n        /* \"#utility.yul\":2366:2368   */\n      0x20\n        /* \"#utility.yul\":2355:2364   */\n      dup6\n        /* \"#utility.yul\":2351:2369   */\n      add\n        /* \"#utility.yul\":2332:2370   */\n      tag_411\n      jump\t// in\n    tag_448:\n        /* \"#utility.yul\":2322:2370   */\n      swap2\n      pop\n        /* \"#utility.yul\":2421:2423   */\n      0x40\n        /* \"#utility.yul\":2410:2419   */\n      dup5\n        /* \"#utility.yul\":2406:2424   */\n      add\n        /* \"#utility.yul\":2393:2425   */\n      calldataload\n        /* \"#utility.yul\":2448:2466   */\n      0xffffffffffffffff\n        /* \"#utility.yul\":2440:2446   */\n      dup2\n        /* \"#utility.yul\":2437:2467   */\n      gt\n        /* \"#utility.yul\":2434:2484   */\n      iszero\n      tag_449\n      jumpi\n        /* \"#utility.yul\":2480:2481   */\n      0x00\n        /* \"#utility.yul\":2477:2478   */\n      dup1\n        /* \"#utility.yul\":2470:2482   */\n      revert\n        /* \"#utility.yul\":2434:2484   */\n    tag_449:\n        /* \"#utility.yul\":2503:2553   */\n      tag_450\n        /* \"#utility.yul\":2545:2552   */\n      dup7\n        /* \"#utility.yul\":2536:2542   */\n      dup3\n        /* \"#utility.yul\":2525:2534   */\n      dup8\n        /* \"#utility.yul\":2521:2543   */\n      add\n        /* \"#utility.yul\":2503:2553   */\n      tag_414\n      jump\t// in\n    tag_450:\n        /* \"#utility.yul\":2493:2553   */\n      swap2\n      pop\n      pop\n        /* \"#utility.yul\":2089:2559   */\n      swap3\n      pop\n      swap3\n      pop\n      swap3\n      jump\t// out\n        /* \"#utility.yul\":2564:3179   */\n    tag_56:\n        /* \"#utility.yul\":2650:2656   */\n      0x00\n        /* \"#utility.yul\":2658:2664   */\n      dup1\n        /* \"#utility.yul\":2711:2713   */\n      0x20\n        /* \"#utility.yul\":2699:2708   */\n      dup4\n        /* \"#utility.yul\":2690:2697   */\n      dup6\n        /* \"#utility.yul\":2686:2709   */\n      sub\n        /* \"#utility.yul\":2682:2714   */\n      slt\n        /* \"#utility.yul\":2679:2731   */\n      iszero\n      tag_452\n      jumpi\n        /* \"#utility.yul\":2727:2728   */\n      0x00\n        /* \"#utility.yul\":2724:2725   */\n      dup1\n        /* \"#utility.yul\":2717:2729   */\n      revert\n        /* \"#utility.yul\":2679:2731   */\n    tag_452:\n        /* \"#utility.yul\":2767:2776   */\n      dup3\n        /* \"#utility.yul\":2754:2777   */\n      calldataload\n        /* \"#utility.yul\":2796:2814   */\n      0xffffffffffffffff\n        /* \"#utility.yul\":2837:2839   */\n      dup1\n        /* \"#utility.yul\":2829:2835   */\n      dup3\n        /* \"#utility.yul\":2826:2840   */\n      gt\n        /* \"#utility.yul\":2823:2857   */\n      iszero\n      tag_453\n      jumpi\n        /* \"#utility.yul\":2853:2854   */\n      0x00\n        /* \"#utility.yul\":2850:2851   */\n      dup1\n        /* \"#utility.yul\":2843:2855   */\n      revert\n        /* \"#utility.yul\":2823:2857   */\n    tag_453:\n        /* \"#utility.yul\":2891:2897   */\n      dup2\n        /* \"#utility.yul\":2880:2889   */\n      dup6\n        /* \"#utility.yul\":2876:2898   */\n      add\n        /* \"#utility.yul\":2866:2898   */\n      swap2\n      pop\n        /* \"#utility.yul\":2936:2943   */\n      dup6\n        /* \"#utility.yul\":2929:2933   */\n      0x1f\n        /* \"#utility.yul\":2925:2927   */\n      dup4\n        /* \"#utility.yul\":2921:2934   */\n      add\n        /* \"#utility.yul\":2917:2944   */\n      slt\n        /* \"#utility.yul\":2907:2962   */\n      tag_454\n      jumpi\n        /* \"#utility.yul\":2958:2959   */\n      0x00\n        /* \"#utility.yul\":2955:2956   */\n      dup1\n        /* \"#utility.yul\":2948:2960   */\n      revert\n        /* \"#utility.yul\":2907:2962   */\n    tag_454:\n        /* \"#utility.yul\":2998:3000   */\n      dup2\n        /* \"#utility.yul\":2985:3001   */\n      calldataload\n        /* \"#utility.yul\":3024:3026   */\n      dup2\n        /* \"#utility.yul\":3016:3022   */\n      dup2\n        /* \"#utility.yul\":3013:3027   */\n      gt\n        /* \"#utility.yul\":3010:3044   */\n      iszero\n      tag_455\n      jumpi\n        /* \"#utility.yul\":3040:3041   */\n      0x00\n        /* \"#utility.yul\":3037:3038   */\n      dup1\n        /* \"#utility.yul\":3030:3042   */\n      revert\n        /* \"#utility.yul\":3010:3044   */\n    tag_455:\n        /* \"#utility.yul\":3093:3100   */\n      dup7\n        /* \"#utility.yul\":3088:3090   */\n      0x20\n        /* \"#utility.yul\":3078:3084   */\n      dup3\n        /* \"#utility.yul\":3075:3076   */\n      0x05\n        /* \"#utility.yul\":3071:3085   */\n      shl\n        /* \"#utility.yul\":3067:3069   */\n      dup6\n        /* \"#utility.yul\":3063:3086   */\n      add\n        /* \"#utility.yul\":3059:3091   */\n      add\n        /* \"#utility.yul\":3056:3101   */\n      gt\n        /* \"#utility.yul\":3053:3118   */\n      iszero\n      tag_456\n      jumpi\n        /* \"#utility.yul\":3114:3115   */\n      0x00\n        /* \"#utility.yul\":3111:3112   */\n      dup1\n        /* \"#utility.yul\":3104:3116   */\n      revert\n        /* \"#utility.yul\":3053:3118   */\n    tag_456:\n        /* \"#utility.yul\":3145:3147   */\n      0x20\n        /* \"#utility.yul\":3137:3148   */\n      swap3\n      swap1\n      swap3\n      add\n      swap7\n        /* \"#utility.yul\":3167:3173   */\n      swap2\n      swap6\n      pop\n        /* \"#utility.yul\":2564:3179   */\n      swap1\n      swap4\n      pop\n      pop\n      pop\n      pop\n      jump\t// out\n        /* \"#utility.yul\":3184:3434   */\n    tag_415:\n        /* \"#utility.yul\":3269:3270   */\n      0x00\n        /* \"#utility.yul\":3279:3392   */\n    tag_458:\n        /* \"#utility.yul\":3293:3299   */\n      dup4\n        /* \"#utility.yul\":3290:3291   */\n      dup2\n        /* \"#utility.yul\":3287:3300   */\n      lt\n        /* \"#utility.yul\":3279:3392   */\n      iszero\n      tag_460\n      jumpi\n        /* \"#utility.yul\":3369:3380   */\n      dup2\n      dup2\n      add\n        /* \"#utility.yul\":3363:3381   */\n      mload\n        /* \"#utility.yul\":3350:3361   */\n      dup4\n      dup3\n      add\n        /* \"#utility.yul\":3343:3382   */\n      mstore\n        /* \"#utility.yul\":3315:3317   */\n      0x20\n        /* \"#utility.yul\":3308:3318   */\n      add\n        /* \"#utility.yul\":3279:3392   */\n      jump(tag_458)\n    tag_460:\n      pop\n      pop\n        /* \"#utility.yul\":3426:3427   */\n      0x00\n        /* \"#utility.yul\":3408:3424   */\n      swap2\n      add\n        /* \"#utility.yul\":3401:3428   */\n      mstore\n        /* \"#utility.yul\":3184:3434   */\n      jump\t// out\n        /* \"#utility.yul\":3439:3710   */\n    tag_416:\n        /* \"#utility.yul\":3481:3484   */\n      0x00\n        /* \"#utility.yul\":3519:3524   */\n      dup2\n        /* \"#utility.yul\":3513:3525   */\n      mload\n        /* \"#utility.yul\":3546:3552   */\n      dup1\n        /* \"#utility.yul\":3541:3544   */\n      dup5\n        /* \"#utility.yul\":3534:3553   */\n      mstore\n        /* \"#utility.yul\":3562:3638   */\n      tag_462\n        /* \"#utility.yul\":3631:3637   */\n      dup2\n        /* \"#utility.yul\":3624:3628   */\n      0x20\n        /* \"#utility.yul\":3619:3622   */\n      dup7\n        /* \"#utility.yul\":3615:3629   */\n      add\n        /* \"#utility.yul\":3608:3612   */\n      0x20\n        /* \"#utility.yul\":3601:3606   */\n      dup7\n        /* \"#utility.yul\":3597:3613   */\n      add\n        /* \"#utility.yul\":3562:3638   */\n      tag_415\n      jump\t// in\n    tag_462:\n        /* \"#utility.yul\":3692:3694   */\n      0x1f\n        /* \"#utility.yul\":3671:3686   */\n      add\n      not(0x1f)\n        /* \"#utility.yul\":3667:3696   */\n      and\n        /* \"#utility.yul\":3658:3697   */\n      swap3\n      swap1\n      swap3\n      add\n        /* \"#utility.yul\":3699:3703   */\n      0x20\n        /* \"#utility.yul\":3654:3704   */\n      add\n      swap3\n        /* \"#utility.yul\":3439:3710   */\n      swap2\n      pop\n      pop\n      jump\t// out\n        /* \"#utility.yul\":3715:3935   */\n    tag_65:\n        /* \"#utility.yul\":3864:3866   */\n      0x20\n        /* \"#utility.yul\":3853:3862   */\n      dup2\n        /* \"#utility.yul\":3846:3867   */\n      mstore\n        /* \"#utility.yul\":3827:3831   */\n      0x00\n        /* \"#utility.yul\":3884:3929   */\n      tag_111\n        /* \"#utility.yul\":3925:3927   */\n      0x20\n        /* \"#utility.yul\":3914:3923   */\n      dup4\n        /* \"#utility.yul\":3910:3928   */\n      add\n        /* \"#utility.yul\":3902:3908   */\n      dup5\n        /* \"#utility.yul\":3884:3929   */\n      tag_416\n      jump\t// in\n        /* \"#utility.yul\":3940:4336   */\n    tag_68:\n        /* \"#utility.yul\":4018:4024   */\n      0x00\n        /* \"#utility.yul\":4026:4032   */\n      dup1\n        /* \"#utility.yul\":4079:4081   */\n      0x40\n        /* \"#utility.yul\":4067:4076   */\n      dup4\n        /* \"#utility.yul\":4058:4065   */\n      dup6\n        /* \"#utility.yul\":4054:4077   */\n      sub\n        /* \"#utility.yul\":4050:4082   */\n      slt\n        /* \"#utility.yul\":4047:4099   */\n      iszero\n      tag_466\n      jumpi\n        /* \"#utility.yul\":4095:4096   */\n      0x00\n        /* \"#utility.yul\":4092:4093   */\n      dup1\n        /* \"#utility.yul\":4085:4097   */\n      revert\n        /* \"#utility.yul\":4047:4099   */\n    tag_466:\n        /* \"#utility.yul\":4118:4147   */\n      tag_467\n        /* \"#utility.yul\":4137:4146   */\n      dup4\n        /* \"#utility.yul\":4118:4147   */\n      tag_411\n      jump\t// in\n    tag_467:\n        /* \"#utility.yul\":4108:4147   */\n      swap2\n      pop\n        /* \"#utility.yul\":4198:4200   */\n      0x20\n        /* \"#utility.yul\":4187:4196   */\n      dup4\n        /* \"#utility.yul\":4183:4201   */\n      add\n        /* \"#utility.yul\":4170:4202   */\n      calldataload\n        /* \"#utility.yul\":4225:4243   */\n      0xffffffffffffffff\n        /* \"#utility.yul\":4217:4223   */\n      dup2\n        /* \"#utility.yul\":4214:4244   */\n      gt\n        /* \"#utility.yul\":4211:4261   */\n      iszero\n      tag_468\n      jumpi\n        /* \"#utility.yul\":4257:4258   */\n      0x00\n        /* \"#utility.yul\":4254:4255   */\n      dup1\n        /* \"#utility.yul\":4247:4259   */\n      revert\n        /* \"#utility.yul\":4211:4261   */\n    tag_468:\n        /* \"#utility.yul\":4280:4330   */\n      tag_469\n        /* \"#utility.yul\":4322:4329   */\n      dup6\n        /* \"#utility.yul\":4313:4319   */\n      dup3\n        /* \"#utility.yul\":4302:4311   */\n      dup7\n        /* \"#utility.yul\":4298:4320   */\n      add\n        /* \"#utility.yul\":4280:4330   */\n      tag_414\n      jump\t// in\n    tag_469:\n        /* \"#utility.yul\":4270:4330   */\n      swap2\n      pop\n      pop\n        /* \"#utility.yul\":3940:4336   */\n      swap3\n      pop\n      swap3\n      swap1\n      pop\n      jump\t// out\n        /* \"#utility.yul\":4341:4796   */\n    tag_80:\n        /* \"#utility.yul\":4576:4582   */\n      dup5\n        /* \"#utility.yul\":4569:4583   */\n      iszero\n        /* \"#utility.yul\":4562:4584   */\n      iszero\n        /* \"#utility.yul\":4551:4560   */\n      dup2\n        /* \"#utility.yul\":4544:4585   */\n      mstore\n        /* \"#utility.yul\":4621:4627   */\n      dup4\n        /* \"#utility.yul\":4616:4618   */\n      0x20\n        /* \"#utility.yul\":4605:4614   */\n      dup3\n        /* \"#utility.yul\":4601:4619   */\n      add\n        /* \"#utility.yul\":4594:4628   */\n      mstore\n        /* \"#utility.yul\":4678:4684   */\n      dup3\n        /* \"#utility.yul\":4671:4685   */\n      iszero\n        /* \"#utility.yul\":4664:4686   */\n      iszero\n        /* \"#utility.yul\":4659:4661   */\n      0x40\n        /* \"#utility.yul\":4648:4657   */\n      dup3\n        /* \"#utility.yul\":4644:4662   */\n      add\n        /* \"#utility.yul\":4637:4687   */\n      mstore\n        /* \"#utility.yul\":4723:4726   */\n      0x80\n        /* \"#utility.yul\":4718:4720   */\n      0x60\n        /* \"#utility.yul\":4707:4716   */\n      dup3\n        /* \"#utility.yul\":4703:4721   */\n      add\n        /* \"#utility.yul\":4696:4727   */\n      mstore\n        /* \"#utility.yul\":4525:4529   */\n      0x00\n        /* \"#utility.yul\":4744:4790   */\n      tag_471\n        /* \"#utility.yul\":4785:4788   */\n      0x80\n        /* \"#utility.yul\":4774:4783   */\n      dup4\n        /* \"#utility.yul\":4770:4789   */\n      add\n        /* \"#utility.yul\":4762:4768   */\n      dup5\n        /* \"#utility.yul\":4744:4790   */\n      tag_416\n      jump\t// in\n    tag_471:\n        /* \"#utility.yul\":4736:4790   */\n      swap7\n        /* \"#utility.yul\":4341:4796   */\n      swap6\n      pop\n      pop\n      pop\n      pop\n      pop\n      pop\n      jump\t// out\n        /* \"#utility.yul\":4801:6042   */\n    tag_88:\n        /* \"#utility.yul\":4904:4910   */\n      0x00\n        /* \"#utility.yul\":4912:4918   */\n      dup1\n        /* \"#utility.yul\":4965:4967   */\n      0x40\n        /* \"#utility.yul\":4953:4962   */\n      dup4\n        /* \"#utility.yul\":4944:4951   */\n      dup6\n        /* \"#utility.yul\":4940:4963   */\n      sub\n        /* \"#utility.yul\":4936:4968   */\n      slt\n        /* \"#utility.yul\":4933:4985   */\n      iszero\n      tag_473\n      jumpi\n        /* \"#utility.yul\":4981:4982   */\n      0x00\n        /* \"#utility.yul\":4978:4979   */\n      dup1\n        /* \"#utility.yul\":4971:4983   */\n      revert\n        /* \"#utility.yul\":4933:4985   */\n    tag_473:\n        /* \"#utility.yul\":5004:5033   */\n      tag_474\n        /* \"#utility.yul\":5023:5032   */\n      dup4\n        /* \"#utility.yul\":5004:5033   */\n      tag_411\n      jump\t// in\n    tag_474:\n        /* \"#utility.yul\":4994:5033   */\n      swap2\n      pop\n        /* \"#utility.yul\":5052:5054   */\n      0x20\n        /* \"#utility.yul\":5105:5107   */\n      dup1\n        /* \"#utility.yul\":5094:5103   */\n      dup5\n        /* \"#utility.yul\":5090:5108   */\n      add\n        /* \"#utility.yul\":5077:5109   */\n      calldataload\n        /* \"#utility.yul\":5128:5146   */\n      0xffffffffffffffff\n        /* \"#utility.yul\":5169:5171   */\n      dup1\n        /* \"#utility.yul\":5161:5167   */\n      dup3\n        /* \"#utility.yul\":5158:5172   */\n      gt\n        /* \"#utility.yul\":5155:5189   */\n      iszero\n      tag_475\n      jumpi\n        /* \"#utility.yul\":5185:5186   */\n      0x00\n        /* \"#utility.yul\":5182:5183   */\n      dup1\n        /* \"#utility.yul\":5175:5187   */\n      revert\n        /* \"#utility.yul\":5155:5189   */\n    tag_475:\n        /* \"#utility.yul\":5223:5229   */\n      dup2\n        /* \"#utility.yul\":5212:5221   */\n      dup7\n        /* \"#utility.yul\":5208:5230   */\n      add\n        /* \"#utility.yul\":5198:5230   */\n      swap2\n      pop\n        /* \"#utility.yul\":5268:5275   */\n      dup7\n        /* \"#utility.yul\":5261:5265   */\n      0x1f\n        /* \"#utility.yul\":5257:5259   */\n      dup4\n        /* \"#utility.yul\":5253:5266   */\n      add\n        /* \"#utility.yul\":5249:5276   */\n      slt\n        /* \"#utility.yul\":5239:5294   */\n      tag_476\n      jumpi\n        /* \"#utility.yul\":5290:5291   */\n      0x00\n        /* \"#utility.yul\":5287:5288   */\n      dup1\n        /* \"#utility.yul\":5280:5292   */\n      revert\n        /* \"#utility.yul\":5239:5294   */\n    tag_476:\n        /* \"#utility.yul\":5326:5328   */\n      dup2\n        /* \"#utility.yul\":5313:5329   */\n      calldataload\n        /* \"#utility.yul\":5348:5350   */\n      dup2\n        /* \"#utility.yul\":5344:5346   */\n      dup2\n        /* \"#utility.yul\":5341:5351   */\n      gt\n        /* \"#utility.yul\":5338:5374   */\n      iszero\n      tag_478\n      jumpi\n        /* \"#utility.yul\":5354:5372   */\n      tag_478\n      tag_152\n      jump\t// in\n    tag_478:\n        /* \"#utility.yul\":5400:5402   */\n      dup1\n        /* \"#utility.yul\":5397:5398   */\n      0x05\n        /* \"#utility.yul\":5393:5403   */\n      shl\n        /* \"#utility.yul\":5423:5451   */\n      tag_479\n        /* \"#utility.yul\":5447:5449   */\n      dup6\n        /* \"#utility.yul\":5443:5445   */\n      dup3\n        /* \"#utility.yul\":5439:5450   */\n      add\n        /* \"#utility.yul\":5423:5451   */\n      tag_413\n      jump\t// in\n    tag_479:\n        /* \"#utility.yul\":5485:5500   */\n      swap2\n      dup3\n      mstore\n        /* \"#utility.yul\":5555:5566   */\n      dup4\n      dup2\n      add\n        /* \"#utility.yul\":5551:5571   */\n      dup6\n      add\n      swap2\n        /* \"#utility.yul\":5516:5528   */\n      dup6\n      dup2\n      add\n      swap1\n        /* \"#utility.yul\":5583:5602   */\n      dup11\n      dup5\n      gt\n        /* \"#utility.yul\":5580:5619   */\n      iszero\n      tag_480\n      jumpi\n        /* \"#utility.yul\":5615:5616   */\n      0x00\n        /* \"#utility.yul\":5612:5613   */\n      dup1\n        /* \"#utility.yul\":5605:5617   */\n      revert\n        /* \"#utility.yul\":5580:5619   */\n    tag_480:\n        /* \"#utility.yul\":5647:5649   */\n      dup7\n        /* \"#utility.yul\":5643:5645   */\n      dup7\n        /* \"#utility.yul\":5639:5650   */\n      add\n        /* \"#utility.yul\":5628:5650   */\n      swap3\n      pop\n        /* \"#utility.yul\":5659:6012   */\n    tag_481:\n        /* \"#utility.yul\":5675:5681   */\n      dup4\n        /* \"#utility.yul\":5670:5673   */\n      dup4\n        /* \"#utility.yul\":5667:5682   */\n      lt\n        /* \"#utility.yul\":5659:6012   */\n      iszero\n      tag_483\n      jumpi\n        /* \"#utility.yul\":5761:5764   */\n      dup3\n        /* \"#utility.yul\":5748:5765   */\n      calldataload\n        /* \"#utility.yul\":5797:5799   */\n      dup6\n        /* \"#utility.yul\":5784:5795   */\n      dup2\n        /* \"#utility.yul\":5781:5800   */\n      gt\n        /* \"#utility.yul\":5778:5887   */\n      iszero\n      tag_484\n      jumpi\n        /* \"#utility.yul\":5841:5842   */\n      0x00\n        /* \"#utility.yul\":5870:5872   */\n      dup1\n        /* \"#utility.yul\":5866:5868   */\n      dup2\n        /* \"#utility.yul\":5859:5873   */\n      revert\n        /* \"#utility.yul\":5778:5887   */\n    tag_484:\n        /* \"#utility.yul\":5912:5969   */\n      tag_485\n        /* \"#utility.yul\":5961:5968   */\n      dup13\n        /* \"#utility.yul\":5956:5958   */\n      dup10\n        /* \"#utility.yul\":5942:5953   */\n      dup4\n        /* \"#utility.yul\":5938:5940   */\n      dup11\n        /* \"#utility.yul\":5934:5954   */\n      add\n        /* \"#utility.yul\":5930:5959   */\n      add\n        /* \"#utility.yul\":5912:5969   */\n      tag_414\n      jump\t// in\n    tag_485:\n        /* \"#utility.yul\":5900:5970   */\n      dup4\n      mstore\n      pop\n        /* \"#utility.yul\":5692:5704   */\n      swap2\n      dup7\n      add\n      swap2\n        /* \"#utility.yul\":5990:6002   */\n      swap1\n      dup7\n      add\n      swap1\n        /* \"#utility.yul\":5659:6012   */\n      jump(tag_481)\n    tag_483:\n        /* \"#utility.yul\":6031:6036   */\n      dup1\n        /* \"#utility.yul\":6021:6036   */\n      swap8\n      pop\n      pop\n      pop\n      pop\n      pop\n      pop\n      pop\n      pop\n        /* \"#utility.yul\":4801:6042   */\n      swap3\n      pop\n      swap3\n      swap1\n      pop\n      jump\t// out\n        /* \"#utility.yul\":6047:6663   */\n    tag_417:\n        /* \"#utility.yul\":6099:6102   */\n      0x00\n        /* \"#utility.yul\":6137:6142   */\n      dup2\n        /* \"#utility.yul\":6131:6143   */\n      mload\n        /* \"#utility.yul\":6164:6170   */\n      dup1\n        /* \"#utility.yul\":6159:6162   */\n      dup5\n        /* \"#utility.yul\":6152:6171   */\n      mstore\n        /* \"#utility.yul\":6190:6194   */\n      0x20\n        /* \"#utility.yul\":6231:6233   */\n      dup1\n        /* \"#utility.yul\":6226:6229   */\n      dup6\n        /* \"#utility.yul\":6222:6234   */\n      add\n        /* \"#utility.yul\":6256:6267   */\n      dup1\n        /* \"#utility.yul\":6283:6294   */\n      dup2\n        /* \"#utility.yul\":6276:6294   */\n      swap7\n      pop\n        /* \"#utility.yul\":6333:6339   */\n      dup4\n        /* \"#utility.yul\":6330:6331   */\n      0x05\n        /* \"#utility.yul\":6326:6340   */\n      shl\n        /* \"#utility.yul\":6319:6324   */\n      dup2\n        /* \"#utility.yul\":6315:6341   */\n      add\n        /* \"#utility.yul\":6303:6341   */\n      swap2\n      pop\n        /* \"#utility.yul\":6375:6377   */\n      dup3\n        /* \"#utility.yul\":6368:6373   */\n      dup7\n        /* \"#utility.yul\":6364:6378   */\n      add\n        /* \"#utility.yul\":6396:6397   */\n      0x00\n        /* \"#utility.yul\":6406:6637   */\n    tag_487:\n        /* \"#utility.yul\":6420:6426   */\n      dup6\n        /* \"#utility.yul\":6417:6418   */\n      dup2\n        /* \"#utility.yul\":6414:6427   */\n      lt\n        /* \"#utility.yul\":6406:6637   */\n      iszero\n      tag_489\n      jumpi\n        /* \"#utility.yul\":6491:6496   */\n      dup3\n        /* \"#utility.yul\":6485:6489   */\n      dup5\n        /* \"#utility.yul\":6481:6497   */\n      sub\n        /* \"#utility.yul\":6476:6479   */\n      dup10\n        /* \"#utility.yul\":6469:6498   */\n      mstore\n        /* \"#utility.yul\":6519:6557   */\n      tag_490\n        /* \"#utility.yul\":6552:6556   */\n      dup5\n        /* \"#utility.yul\":6543:6549   */\n      dup4\n        /* \"#utility.yul\":6537:6550   */\n      mload\n        /* \"#utility.yul\":6519:6557   */\n      tag_416\n      jump\t// in\n    tag_490:\n        /* \"#utility.yul\":6615:6627   */\n      swap9\n      dup6\n      add\n      swap9\n        /* \"#utility.yul\":6511:6557   */\n      swap4\n      pop\n        /* \"#utility.yul\":6580:6595   */\n      swap1\n      dup5\n      add\n      swap1\n        /* \"#utility.yul\":6442:6443   */\n      0x01\n        /* \"#utility.yul\":6435:6444   */\n      add\n        /* \"#utility.yul\":6406:6637   */\n      jump(tag_487)\n    tag_489:\n      pop\n        /* \"#utility.yul\":6653:6657   */\n      swap2\n      swap8\n        /* \"#utility.yul\":6047:6663   */\n      swap7\n      pop\n      pop\n      pop\n      pop\n      pop\n      pop\n      pop\n      jump\t// out\n        /* \"#utility.yul\":6668:6948   */\n    tag_94:\n        /* \"#utility.yul\":6867:6869   */\n      0x20\n        /* \"#utility.yul\":6856:6865   */\n      dup2\n        /* \"#utility.yul\":6849:6870   */\n      mstore\n        /* \"#utility.yul\":6830:6834   */\n      0x00\n        /* \"#utility.yul\":6887:6942   */\n      tag_111\n        /* \"#utility.yul\":6938:6940   */\n      0x20\n        /* \"#utility.yul\":6927:6936   */\n      dup4\n        /* \"#utility.yul\":6923:6941   */\n      add\n        /* \"#utility.yul\":6915:6921   */\n      dup5\n        /* \"#utility.yul\":6887:6942   */\n      tag_417\n      jump\t// in\n        /* \"#utility.yul\":6953:8219   */\n    tag_99:\n        /* \"#utility.yul\":7313:7317   */\n      0x00\n        /* \"#utility.yul\":7361:7364   */\n      0xc0\n        /* \"#utility.yul\":7350:7359   */\n      dup3\n        /* \"#utility.yul\":7346:7365   */\n      add\n        /* \"#utility.yul\":7406:7412   */\n      dup9\n        /* \"#utility.yul\":7399:7413   */\n      iszero\n        /* \"#utility.yul\":7392:7414   */\n      iszero\n        /* \"#utility.yul\":7381:7390   */\n      dup4\n        /* \"#utility.yul\":7374:7415   */\n      mstore\n        /* \"#utility.yul\":7434:7436   */\n      0x20\n        /* \"#utility.yul\":7472:7475   */\n      0xc0\n        /* \"#utility.yul\":7467:7469   */\n      dup2\n        /* \"#utility.yul\":7456:7465   */\n      dup6\n        /* \"#utility.yul\":7452:7470   */\n      add\n        /* \"#utility.yul\":7445:7476   */\n      mstore\n        /* \"#utility.yul\":7496:7502   */\n      dup2\n        /* \"#utility.yul\":7531:7537   */\n      dup10\n        /* \"#utility.yul\":7525:7538   */\n      mload\n        /* \"#utility.yul\":7562:7568   */\n      dup1\n        /* \"#utility.yul\":7554:7560   */\n      dup5\n        /* \"#utility.yul\":7547:7569   */\n      mstore\n        /* \"#utility.yul\":7600:7603   */\n      0xe0\n        /* \"#utility.yul\":7589:7598   */\n      dup7\n        /* \"#utility.yul\":7585:7604   */\n      add\n        /* \"#utility.yul\":7578:7604   */\n      swap2\n      pop\n        /* \"#utility.yul\":7639:7641   */\n      dup3\n        /* \"#utility.yul\":7631:7637   */\n      dup12\n        /* \"#utility.yul\":7627:7642   */\n      add\n        /* \"#utility.yul\":7613:7642   */\n      swap4\n      pop\n        /* \"#utility.yul\":7660:7661   */\n      0x00\n        /* \"#utility.yul\":7670:7888   */\n    tag_494:\n        /* \"#utility.yul\":7684:7690   */\n      dup2\n        /* \"#utility.yul\":7681:7682   */\n      dup2\n        /* \"#utility.yul\":7678:7691   */\n      lt\n        /* \"#utility.yul\":7670:7888   */\n      iszero\n      tag_496\n      jumpi\n        /* \"#utility.yul\":7749:7762   */\n      dup5\n      mload\n      sub(shl(0xa0, 0x01), 0x01)\n        /* \"#utility.yul\":7745:7807   */\n      and\n        /* \"#utility.yul\":7733:7808   */\n      dup4\n      mstore\n        /* \"#utility.yul\":7863:7878   */\n      swap4\n      dup4\n      add\n      swap4\n        /* \"#utility.yul\":7828:7840   */\n      swap2\n      dup4\n      add\n      swap2\n        /* \"#utility.yul\":7706:7707   */\n      0x01\n        /* \"#utility.yul\":7699:7708   */\n      add\n        /* \"#utility.yul\":7670:7888   */\n      jump(tag_494)\n    tag_496:\n        /* \"#utility.yul\":7674:7677   */\n      pop\n      pop\n        /* \"#utility.yul\":7924:7930   */\n      dup9\n        /* \"#utility.yul\":7919:7921   */\n      0x40\n        /* \"#utility.yul\":7908:7917   */\n      dup7\n        /* \"#utility.yul\":7904:7922   */\n      add\n        /* \"#utility.yul\":7897:7931   */\n      mstore\n        /* \"#utility.yul\":7940:7983   */\n      tag_497\n        /* \"#utility.yul\":7979:7981   */\n      0x60\n        /* \"#utility.yul\":7968:7977   */\n      dup7\n        /* \"#utility.yul\":7964:7982   */\n      add\n        /* \"#utility.yul\":7956:7962   */\n      dup10\n        /* \"#utility.yul\":658:671   */\n      iszero\n        /* \"#utility.yul\":651:672   */\n      iszero\n        /* \"#utility.yul\":639:673   */\n      swap1\n      mstore\n        /* \"#utility.yul\":588:679   */\n      jump\n        /* \"#utility.yul\":7940:7983   */\n    tag_497:\n        /* \"#utility.yul\":8029:8038   */\n      dup5\n        /* \"#utility.yul\":8024:8027   */\n      dup2\n        /* \"#utility.yul\":8020:8039   */\n      sub\n        /* \"#utility.yul\":8014:8017   */\n      0x80\n        /* \"#utility.yul\":8003:8012   */\n      dup7\n        /* \"#utility.yul\":7999:8018   */\n      add\n        /* \"#utility.yul\":7992:8040   */\n      mstore\n        /* \"#utility.yul\":8063:8093   */\n      tag_498\n        /* \"#utility.yul\":8089:8092   */\n      dup2\n        /* \"#utility.yul\":8081:8087   */\n      dup9\n        /* \"#utility.yul\":8063:8093   */\n      tag_416\n      jump\t// in\n    tag_498:\n        /* \"#utility.yul\":8049:8093   */\n      swap3\n      pop\n      pop\n      pop\n        /* \"#utility.yul\":8142:8151   */\n      dup3\n        /* \"#utility.yul\":8134:8140   */\n      dup2\n        /* \"#utility.yul\":8130:8152   */\n      sub\n        /* \"#utility.yul\":8124:8127   */\n      0xa0\n        /* \"#utility.yul\":8113:8122   */\n      dup5\n        /* \"#utility.yul\":8109:8128   */\n      add\n        /* \"#utility.yul\":8102:8153   */\n      mstore\n        /* \"#utility.yul\":8170:8213   */\n      tag_499\n        /* \"#utility.yul\":8206:8212   */\n      dup2\n        /* \"#utility.yul\":8198:8204   */\n      dup6\n        /* \"#utility.yul\":8170:8213   */\n      tag_417\n      jump\t// in\n    tag_499:\n        /* \"#utility.yul\":8162:8213   */\n      swap10\n        /* \"#utility.yul\":6953:8219   */\n      swap9\n      pop\n      pop\n      pop\n      pop\n      pop\n      pop\n      pop\n      pop\n      pop\n      jump\t// out\n        /* \"#utility.yul\":8224:8351   */\n    tag_418:\n        /* \"#utility.yul\":8285:8295   */\n      0x4e487b71\n        /* \"#utility.yul\":8280:8283   */\n      0xe0\n        /* \"#utility.yul\":8276:8296   */\n      shl\n        /* \"#utility.yul\":8273:8274   */\n      0x00\n        /* \"#utility.yul\":8266:8297   */\n      mstore\n        /* \"#utility.yul\":8316:8320   */\n      0x11\n        /* \"#utility.yul\":8313:8314   */\n      0x04\n        /* \"#utility.yul\":8306:8321   */\n      mstore\n        /* \"#utility.yul\":8340:8344   */\n      0x24\n        /* \"#utility.yul\":8337:8338   */\n      0x00\n        /* \"#utility.yul\":8330:8345   */\n      revert\n        /* \"#utility.yul\":8356:8484   */\n    tag_106:\n        /* \"#utility.yul\":8423:8432   */\n      dup2\n      dup2\n      sub\n        /* \"#utility.yul\":8444:8455   */\n      dup2\n      dup2\n      gt\n        /* \"#utility.yul\":8441:8478   */\n      iszero\n      tag_122\n      jumpi\n        /* \"#utility.yul\":8458:8476   */\n      tag_122\n      tag_418\n      jump\t// in\n        /* \"#utility.yul\":9239:9619   */\n    tag_178:\n        /* \"#utility.yul\":9318:9319   */\n      0x01\n        /* \"#utility.yul\":9314:9326   */\n      dup2\n      dup2\n      shr\n      swap1\n        /* \"#utility.yul\":9361:9373   */\n      dup3\n      and\n      dup1\n        /* \"#utility.yul\":9382:9443   */\n      tag_507\n      jumpi\n        /* \"#utility.yul\":9436:9440   */\n      0x7f\n        /* \"#utility.yul\":9428:9434   */\n      dup3\n        /* \"#utility.yul\":9424:9441   */\n      and\n        /* \"#utility.yul\":9414:9441   */\n      swap2\n      pop\n        /* \"#utility.yul\":9382:9443   */\n    tag_507:\n        /* \"#utility.yul\":9489:9491   */\n      0x20\n        /* \"#utility.yul\":9481:9487   */\n      dup3\n        /* \"#utility.yul\":9478:9492   */\n      lt\n        /* \"#utility.yul\":9458:9476   */\n      dup2\n        /* \"#utility.yul\":9455:9493   */\n      sub\n        /* \"#utility.yul\":9452:9613   */\n      tag_508\n      jumpi\n        /* \"#utility.yul\":9535:9545   */\n      0x4e487b71\n        /* \"#utility.yul\":9530:9533   */\n      0xe0\n        /* \"#utility.yul\":9526:9546   */\n      shl\n        /* \"#utility.yul\":9523:9524   */\n      0x00\n        /* \"#utility.yul\":9516:9547   */\n      mstore\n        /* \"#utility.yul\":9570:9574   */\n      0x22\n        /* \"#utility.yul\":9567:9568   */\n      0x04\n        /* \"#utility.yul\":9560:9575   */\n      mstore\n        /* \"#utility.yul\":9598:9602   */\n      0x24\n        /* \"#utility.yul\":9595:9596   */\n      0x00\n        /* \"#utility.yul\":9588:9603   */\n      revert\n        /* \"#utility.yul\":9452:9613   */\n    tag_508:\n      pop\n        /* \"#utility.yul\":9239:9619   */\n      swap2\n      swap1\n      pop\n      jump\t// out\n        /* \"#utility.yul\":9750:10295   */\n    tag_420:\n        /* \"#utility.yul\":9852:9854   */\n      0x1f\n        /* \"#utility.yul\":9847:9850   */\n      dup3\n        /* \"#utility.yul\":9844:9855   */\n      gt\n        /* \"#utility.yul\":9841:10289   */\n      iszero\n      tag_140\n      jumpi\n        /* \"#utility.yul\":9888:9889   */\n      0x00\n        /* \"#utility.yul\":9913:9918   */\n      dup2\n        /* \"#utility.yul\":9909:9911   */\n      dup2\n        /* \"#utility.yul\":9902:9919   */\n      mstore\n        /* \"#utility.yul\":9958:9962   */\n      0x20\n        /* \"#utility.yul\":9954:9956   */\n      dup2\n        /* \"#utility.yul\":9944:9963   */\n      keccak256\n        /* \"#utility.yul\":10028:10030   */\n      0x1f\n        /* \"#utility.yul\":10016:10026   */\n      dup6\n        /* \"#utility.yul\":10012:10031   */\n      add\n        /* \"#utility.yul\":10009:10010   */\n      0x05\n        /* \"#utility.yul\":10005:10032   */\n      shr\n        /* \"#utility.yul\":9999:10003   */\n      dup2\n        /* \"#utility.yul\":9995:10033   */\n      add\n        /* \"#utility.yul\":10064:10068   */\n      0x20\n        /* \"#utility.yul\":10052:10062   */\n      dup7\n        /* \"#utility.yul\":10049:10069   */\n      lt\n        /* \"#utility.yul\":10046:10093   */\n      iszero\n      tag_512\n      jumpi\n      pop\n        /* \"#utility.yul\":10087:10091   */\n      dup1\n        /* \"#utility.yul\":10046:10093   */\n    tag_512:\n        /* \"#utility.yul\":10142:10144   */\n      0x1f\n        /* \"#utility.yul\":10137:10140   */\n      dup6\n        /* \"#utility.yul\":10133:10145   */\n      add\n        /* \"#utility.yul\":10130:10131   */\n      0x05\n        /* \"#utility.yul\":10126:10146   */\n      shr\n        /* \"#utility.yul\":10120:10124   */\n      dup3\n        /* \"#utility.yul\":10116:10147   */\n      add\n        /* \"#utility.yul\":10106:10147   */\n      swap2\n      pop\n        /* \"#utility.yul\":10197:10279   */\n    tag_513:\n        /* \"#utility.yul\":10215:10217   */\n      dup2\n        /* \"#utility.yul\":10208:10213   */\n      dup2\n        /* \"#utility.yul\":10205:10218   */\n      lt\n        /* \"#utility.yul\":10197:10279   */\n      iszero\n      tag_515\n      jumpi\n        /* \"#utility.yul\":10260:10277   */\n      dup3\n      dup2\n      sstore\n        /* \"#utility.yul\":10241:10242   */\n      0x01\n        /* \"#utility.yul\":10230:10243   */\n      add\n        /* \"#utility.yul\":10197:10279   */\n      jump(tag_513)\n    tag_515:\n        /* \"#utility.yul\":10201:10204   */\n      pop\n      pop\n      pop\n        /* \"#utility.yul\":9750:10295   */\n      pop\n      pop\n      pop\n      jump\t// out\n        /* \"#utility.yul\":10471:11823   */\n    tag_125:\n        /* \"#utility.yul\":10597:10600   */\n      dup2\n        /* \"#utility.yul\":10591:10601   */\n      mload\n        /* \"#utility.yul\":10624:10642   */\n      0xffffffffffffffff\n        /* \"#utility.yul\":10616:10622   */\n      dup2\n        /* \"#utility.yul\":10613:10643   */\n      gt\n        /* \"#utility.yul\":10610:10666   */\n      iszero\n      tag_519\n      jumpi\n        /* \"#utility.yul\":10646:10664   */\n      tag_519\n      tag_152\n      jump\t// in\n    tag_519:\n        /* \"#utility.yul\":10675:10772   */\n      tag_520\n        /* \"#utility.yul\":10765:10771   */\n      dup2\n        /* \"#utility.yul\":10725:10763   */\n      tag_521\n        /* \"#utility.yul\":10757:10761   */\n      dup5\n        /* \"#utility.yul\":10751:10762   */\n      sload\n        /* \"#utility.yul\":10725:10763   */\n      tag_178\n      jump\t// in\n    tag_521:\n        /* \"#utility.yul\":10719:10723   */\n      dup5\n        /* \"#utility.yul\":10675:10772   */\n      tag_420\n      jump\t// in\n    tag_520:\n        /* \"#utility.yul\":10827:10831   */\n      0x20\n      dup1\n        /* \"#utility.yul\":10891:10893   */\n      0x1f\n        /* \"#utility.yul\":10880:10894   */\n      dup4\n      gt\n        /* \"#utility.yul\":10908:10909   */\n      0x01\n        /* \"#utility.yul\":10903:11566   */\n      dup2\n      eq\n      tag_523\n      jumpi\n        /* \"#utility.yul\":11610:11611   */\n      0x00\n        /* \"#utility.yul\":11627:11633   */\n      dup5\n        /* \"#utility.yul\":11624:11713   */\n      iszero\n      tag_524\n      jumpi\n      pop\n        /* \"#utility.yul\":11679:11698   */\n      dup6\n      dup4\n      add\n        /* \"#utility.yul\":11673:11699   */\n      mload\n        /* \"#utility.yul\":11624:11713   */\n    tag_524:\n      not(0x00)\n        /* \"#utility.yul\":10428:10429   */\n      0x03\n        /* \"#utility.yul\":10424:10435   */\n      dup7\n      swap1\n      shl\n        /* \"#utility.yul\":10420:10444   */\n      shr\n        /* \"#utility.yul\":10416:10445   */\n      not\n        /* \"#utility.yul\":10406:10446   */\n      and\n        /* \"#utility.yul\":10452:10453   */\n      0x01\n        /* \"#utility.yul\":10448:10459   */\n      dup6\n      swap1\n      shl\n        /* \"#utility.yul\":10403:10460   */\n      or\n        /* \"#utility.yul\":11726:11807   */\n      dup6\n      sstore\n        /* \"#utility.yul\":10873:11817   */\n      jump(tag_515)\n        /* \"#utility.yul\":10903:11566   */\n    tag_523:\n        /* \"#utility.yul\":9697:9698   */\n      0x00\n        /* \"#utility.yul\":9690:9704   */\n      dup6\n      dup2\n      mstore\n        /* \"#utility.yul\":9734:9738   */\n      0x20\n        /* \"#utility.yul\":9721:9739   */\n      dup2\n      keccak256\n      not(0x1f)\n        /* \"#utility.yul\":10939:10959   */\n      dup7\n      and\n      swap2\n        /* \"#utility.yul\":11057:11293   */\n    tag_527:\n        /* \"#utility.yul\":11071:11078   */\n      dup3\n        /* \"#utility.yul\":11068:11069   */\n      dup2\n        /* \"#utility.yul\":11065:11079   */\n      lt\n        /* \"#utility.yul\":11057:11293   */\n      iszero\n      tag_529\n      jumpi\n        /* \"#utility.yul\":11160:11179   */\n      dup9\n      dup7\n      add\n        /* \"#utility.yul\":11154:11180   */\n      mload\n        /* \"#utility.yul\":11139:11181   */\n      dup3\n      sstore\n        /* \"#utility.yul\":11252:11279   */\n      swap5\n      dup5\n      add\n      swap5\n        /* \"#utility.yul\":11220:11221   */\n      0x01\n        /* \"#utility.yul\":11208:11222   */\n      swap1\n      swap2\n      add\n      swap1\n        /* \"#utility.yul\":11087:11106   */\n      dup5\n      add\n        /* \"#utility.yul\":11057:11293   */\n      jump(tag_527)\n    tag_529:\n        /* \"#utility.yul\":11061:11064   */\n      pop\n        /* \"#utility.yul\":11321:11327   */\n      dup6\n        /* \"#utility.yul\":11312:11319   */\n      dup3\n        /* \"#utility.yul\":11309:11328   */\n      lt\n        /* \"#utility.yul\":11306:11507   */\n      iszero\n      tag_530\n      jumpi\n        /* \"#utility.yul\":11382:11401   */\n      dup8\n      dup6\n      add\n        /* \"#utility.yul\":11376:11402   */\n      mload\n      not(0x00)\n        /* \"#utility.yul\":11465:11466   */\n      0x03\n        /* \"#utility.yul\":11461:11475   */\n      dup9\n      swap1\n      shl\n        /* \"#utility.yul\":11477:11480   */\n      0xf8\n        /* \"#utility.yul\":11457:11481   */\n      and\n        /* \"#utility.yul\":11453:11490   */\n      shr\n        /* \"#utility.yul\":11449:11491   */\n      not\n        /* \"#utility.yul\":11434:11492   */\n      and\n        /* \"#utility.yul\":11419:11493   */\n      dup2\n      sstore\n        /* \"#utility.yul\":11306:11507   */\n    tag_530:\n      pop\n      pop\n      pop\n      pop\n      pop\n        /* \"#utility.yul\":11553:11554   */\n      0x01\n        /* \"#utility.yul\":11537:11551   */\n      swap1\n      dup2\n      shl\n        /* \"#utility.yul\":11533:11555   */\n      add\n        /* \"#utility.yul\":11520:11556   */\n      swap1\n      sstore\n      pop\n        /* \"#utility.yul\":10471:11823   */\n      jump\t// out\n        /* \"#utility.yul\":12540:12667   */\n    tag_144:\n        /* \"#utility.yul\":12601:12611   */\n      0x4e487b71\n        /* \"#utility.yul\":12596:12599   */\n      0xe0\n        /* \"#utility.yul\":12592:12612   */\n      shl\n        /* \"#utility.yul\":12589:12590   */\n      0x00\n        /* \"#utility.yul\":12582:12613   */\n      mstore\n        /* \"#utility.yul\":12632:12636   */\n      0x32\n        /* \"#utility.yul\":12629:12630   */\n      0x04\n        /* \"#utility.yul\":12622:12637   */\n      mstore\n        /* \"#utility.yul\":12656:12660   */\n      0x24\n        /* \"#utility.yul\":12653:12654   */\n      0x00\n        /* \"#utility.yul\":12646:12661   */\n      revert\n        /* \"#utility.yul\":13027:13162   */\n    tag_160:\n        /* \"#utility.yul\":13066:13069   */\n      0x00\n        /* \"#utility.yul\":13087:13104   */\n      0x01\n      dup3\n      add\n        /* \"#utility.yul\":13084:13127   */\n      tag_537\n      jumpi\n        /* \"#utility.yul\":13107:13125   */\n      tag_537\n      tag_418\n      jump\t// in\n    tag_537:\n      pop\n        /* \"#utility.yul\":13154:13155   */\n      0x01\n        /* \"#utility.yul\":13143:13156   */\n      add\n      swap1\n        /* \"#utility.yul\":13027:13162   */\n      jump\t// out\n        /* \"#utility.yul\":13517:13806   */\n    tag_196:\n        /* \"#utility.yul\":13648:13651   */\n      0x00\n        /* \"#utility.yul\":13686:13692   */\n      dup3\n        /* \"#utility.yul\":13680:13693   */\n      mload\n        /* \"#utility.yul\":13702:13768   */\n      tag_540\n        /* \"#utility.yul\":13761:13767   */\n      dup2\n        /* \"#utility.yul\":13756:13759   */\n      dup5\n        /* \"#utility.yul\":13749:13753   */\n      0x20\n        /* \"#utility.yul\":13741:13747   */\n      dup8\n        /* \"#utility.yul\":13737:13754   */\n      add\n        /* \"#utility.yul\":13702:13768   */\n      tag_415\n      jump\t// in\n    tag_540:\n        /* \"#utility.yul\":13784:13800   */\n      swap2\n      swap1\n      swap2\n      add\n      swap3\n        /* \"#utility.yul\":13517:13806   */\n      swap2\n      pop\n      pop\n      jump\t// out\n        /* \"#utility.yul\":13811:14653   */\n    tag_201:\n        /* \"#utility.yul\":13939:13942   */\n      0x00\n        /* \"#utility.yul\":13968:13969   */\n      dup1\n        /* \"#utility.yul\":14001:14007   */\n      dup4\n        /* \"#utility.yul\":13995:14008   */\n      sload\n        /* \"#utility.yul\":14031:14067   */\n      tag_542\n        /* \"#utility.yul\":14057:14066   */\n      dup2\n        /* \"#utility.yul\":14031:14067   */\n      tag_178\n      jump\t// in\n    tag_542:\n        /* \"#utility.yul\":14086:14087   */\n      0x01\n        /* \"#utility.yul\":14103:14121   */\n      dup3\n      dup2\n      and\n        /* \"#utility.yul\":14130:14263   */\n      dup1\n      iszero\n      tag_544\n      jumpi\n        /* \"#utility.yul\":14277:14278   */\n      0x01\n        /* \"#utility.yul\":14272:14628   */\n      dup2\n      eq\n      tag_545\n      jumpi\n        /* \"#utility.yul\":14096:14628   */\n      jump(tag_543)\n        /* \"#utility.yul\":14130:14263   */\n    tag_544:\n      not(0xff)\n        /* \"#utility.yul\":14163:14187   */\n      dup5\n      and\n        /* \"#utility.yul\":14151:14188   */\n      dup8\n      mstore\n        /* \"#utility.yul\":14236:14250   */\n      dup3\n      iszero\n        /* \"#utility.yul\":14229:14251   */\n      iszero\n        /* \"#utility.yul\":14217:14252   */\n      dup4\n      mul\n        /* \"#utility.yul\":14208:14253   */\n      dup8\n      add\n      swap5\n      pop\n        /* \"#utility.yul\":14130:14263   */\n      jump(tag_543)\n        /* \"#utility.yul\":14272:14628   */\n    tag_545:\n        /* \"#utility.yul\":14303:14309   */\n      dup8\n        /* \"#utility.yul\":14300:14301   */\n      0x00\n        /* \"#utility.yul\":14293:14310   */\n      mstore\n        /* \"#utility.yul\":14333:14337   */\n      0x20\n        /* \"#utility.yul\":14378:14380   */\n      dup1\n        /* \"#utility.yul\":14375:14376   */\n      0x00\n        /* \"#utility.yul\":14365:14381   */\n      keccak256\n        /* \"#utility.yul\":14403:14404   */\n      0x00\n        /* \"#utility.yul\":14417:14582   */\n    tag_546:\n        /* \"#utility.yul\":14431:14437   */\n      dup6\n        /* \"#utility.yul\":14428:14429   */\n      dup2\n        /* \"#utility.yul\":14425:14438   */\n      lt\n        /* \"#utility.yul\":14417:14582   */\n      iszero\n      tag_548\n      jumpi\n        /* \"#utility.yul\":14509:14523   */\n      dup2\n      sload\n        /* \"#utility.yul\":14496:14507   */\n      dup11\n      dup3\n      add\n        /* \"#utility.yul\":14489:14524   */\n      mstore\n        /* \"#utility.yul\":14552:14568   */\n      swap1\n      dup5\n      add\n      swap1\n        /* \"#utility.yul\":14446:14456   */\n      dup3\n      add\n        /* \"#utility.yul\":14417:14582   */\n      jump(tag_546)\n    tag_548:\n        /* \"#utility.yul\":14421:14424   */\n      pop\n      pop\n      pop\n        /* \"#utility.yul\":14611:14617   */\n      dup3\n        /* \"#utility.yul\":14606:14609   */\n      dup8\n        /* \"#utility.yul\":14602:14618   */\n      add\n        /* \"#utility.yul\":14595:14618   */\n      swap5\n      pop\n        /* \"#utility.yul\":14096:14628   */\n    tag_543:\n      pop\n        /* \"#utility.yul\":14644:14647   */\n      swap3\n      swap7\n        /* \"#utility.yul\":13811:14653   */\n      swap6\n      pop\n      pop\n      pop\n      pop\n      pop\n      pop\n      jump\t// out\n        /* \"#utility.yul\":14658:16093   */\n    tag_211:\n        /* \"#utility.yul\":14777:14780   */\n      dup2\n        /* \"#utility.yul\":14771:14775   */\n      dup2\n        /* \"#utility.yul\":14768:14781   */\n      sub\n        /* \"#utility.yul\":14765:14791   */\n      tag_550\n      jumpi\n        /* \"#utility.yul\":14784:14789   */\n      pop\n      pop\n        /* \"#utility.yul\":14658:16093   */\n      jump\t// out\n        /* \"#utility.yul\":14765:14791   */\n    tag_550:\n        /* \"#utility.yul\":14814:14851   */\n      tag_551\n        /* \"#utility.yul\":14846:14849   */\n      dup3\n        /* \"#utility.yul\":14840:14850   */\n      sload\n        /* \"#utility.yul\":14814:14851   */\n      tag_178\n      jump\t// in\n    tag_551:\n        /* \"#utility.yul\":14874:14892   */\n      0xffffffffffffffff\n        /* \"#utility.yul\":14866:14872   */\n      dup2\n        /* \"#utility.yul\":14863:14893   */\n      gt\n        /* \"#utility.yul\":14860:14916   */\n      iszero\n      tag_553\n      jumpi\n        /* \"#utility.yul\":14896:14914   */\n      tag_553\n      tag_152\n      jump\t// in\n    tag_553:\n        /* \"#utility.yul\":14925:15022   */\n      tag_554\n        /* \"#utility.yul\":15015:15021   */\n      dup2\n        /* \"#utility.yul\":14975:15013   */\n      tag_521\n        /* \"#utility.yul\":15007:15011   */\n      dup5\n        /* \"#utility.yul\":15001:15012   */\n      sload\n        /* \"#utility.yul\":14975:15013   */\n      tag_178\n      jump\t// in\n        /* \"#utility.yul\":14925:15022   */\n    tag_554:\n        /* \"#utility.yul\":15048:15049   */\n      0x00\n        /* \"#utility.yul\":15076:15078   */\n      0x1f\n        /* \"#utility.yul\":15068:15074   */\n      dup3\n        /* \"#utility.yul\":15065:15079   */\n      gt\n        /* \"#utility.yul\":15093:15094   */\n      0x01\n        /* \"#utility.yul\":15088:15836   */\n      dup2\n      eq\n      tag_557\n      jumpi\n        /* \"#utility.yul\":15880:15881   */\n      0x00\n        /* \"#utility.yul\":15897:15903   */\n      dup4\n        /* \"#utility.yul\":15894:15983   */\n      iszero\n      tag_558\n      jumpi\n      pop\n        /* \"#utility.yul\":15949:15968   */\n      dup5\n      dup3\n      add\n        /* \"#utility.yul\":15943:15969   */\n      sload\n        /* \"#utility.yul\":15894:15983   */\n    tag_558:\n      not(0x00)\n        /* \"#utility.yul\":10428:10429   */\n      0x03\n        /* \"#utility.yul\":10424:10435   */\n      dup6\n      swap1\n      shl\n        /* \"#utility.yul\":10420:10444   */\n      shr\n        /* \"#utility.yul\":10416:10445   */\n      not\n        /* \"#utility.yul\":10406:10446   */\n      and\n        /* \"#utility.yul\":10452:10453   */\n      0x01\n        /* \"#utility.yul\":10448:10459   */\n      dup5\n      swap1\n      shl\n        /* \"#utility.yul\":10403:10460   */\n      or\n        /* \"#utility.yul\":15996:16077   */\n      dup5\n      sstore\n        /* \"#utility.yul\":15058:16087   */\n      jump(tag_556)\n        /* \"#utility.yul\":15088:15836   */\n    tag_557:\n        /* \"#utility.yul\":9697:9698   */\n      0x00\n        /* \"#utility.yul\":9690:9704   */\n      dup6\n      dup2\n      mstore\n        /* \"#utility.yul\":9734:9738   */\n      0x20\n        /* \"#utility.yul\":9721:9739   */\n      swap1\n      keccak256\n      not(0x1f)\n        /* \"#utility.yul\":15124:15144   */\n      dup5\n      and\n      swap1\n        /* \"#utility.yul\":9697:9698   */\n      0x00\n        /* \"#utility.yul\":9690:9704   */\n      dup7\n      dup2\n      mstore\n        /* \"#utility.yul\":9734:9738   */\n      0x20\n        /* \"#utility.yul\":9721:9739   */\n      swap1\n      keccak256\n        /* \"#utility.yul\":15288:15297   */\n      dup5\n        /* \"#utility.yul\":15310:15561   */\n    tag_562:\n        /* \"#utility.yul\":15324:15331   */\n      dup4\n        /* \"#utility.yul\":15321:15322   */\n      dup2\n        /* \"#utility.yul\":15318:15332   */\n      lt\n        /* \"#utility.yul\":15310:15561   */\n      iszero\n      tag_564\n      jumpi\n        /* \"#utility.yul\":15406:15427   */\n      dup3\n      dup7\n      add\n        /* \"#utility.yul\":15400:15428   */\n      sload\n        /* \"#utility.yul\":15385:15429   */\n      dup3\n      sstore\n        /* \"#utility.yul\":15456:15457   */\n      0x01\n        /* \"#utility.yul\":15529:15547   */\n      swap6\n      dup7\n      add\n      swap6\n        /* \"#utility.yul\":15484:15499   */\n      swap1\n      swap2\n      add\n      swap1\n        /* \"#utility.yul\":15347:15351   */\n      0x20\n        /* \"#utility.yul\":15340:15352   */\n      add\n        /* \"#utility.yul\":15310:15561   */\n      jump(tag_562)\n    tag_564:\n        /* \"#utility.yul\":15314:15317   */\n      pop\n        /* \"#utility.yul\":15589:15595   */\n      dup6\n        /* \"#utility.yul\":15580:15587   */\n      dup4\n        /* \"#utility.yul\":15577:15596   */\n      lt\n        /* \"#utility.yul\":15574:15777   */\n      iszero\n      tag_565\n      jumpi\n        /* \"#utility.yul\":15650:15671   */\n      dup2\n      dup6\n      add\n        /* \"#utility.yul\":15644:15672   */\n      sload\n      not(0x00)\n        /* \"#utility.yul\":15735:15736   */\n      0x03\n        /* \"#utility.yul\":15731:15745   */\n      dup9\n      swap1\n      shl\n        /* \"#utility.yul\":15747:15750   */\n      0xf8\n        /* \"#utility.yul\":15727:15751   */\n      and\n        /* \"#utility.yul\":15723:15760   */\n      shr\n        /* \"#utility.yul\":15719:15761   */\n      not\n        /* \"#utility.yul\":15704:15762   */\n      and\n        /* \"#utility.yul\":15689:15763   */\n      dup2\n      sstore\n        /* \"#utility.yul\":15574:15777   */\n    tag_565:\n      pop\n      pop\n      pop\n        /* \"#utility.yul\":15823:15824   */\n      0x01\n        /* \"#utility.yul\":15814:15820   */\n      dup4\n        /* \"#utility.yul\":15811:15812   */\n      0x01\n        /* \"#utility.yul\":15807:15821   */\n      shl\n        /* \"#utility.yul\":15803:15825   */\n      add\n        /* \"#utility.yul\":15797:15801   */\n      dup5\n        /* \"#utility.yul\":15790:15826   */\n      sstore\n        /* \"#utility.yul\":15058:16087   */\n    tag_556:\n      pop\n      pop\n      pop\n        /* \"#utility.yul\":14658:16093   */\n      pop\n      pop\n      jump\t// out\n        /* \"#utility.yul\":16098:16225   */\n    tag_214:\n        /* \"#utility.yul\":16159:16169   */\n      0x4e487b71\n        /* \"#utility.yul\":16154:16157   */\n      0xe0\n        /* \"#utility.yul\":16150:16170   */\n      shl\n        /* \"#utility.yul\":16147:16148   */\n      0x00\n        /* \"#utility.yul\":16140:16171   */\n      mstore\n        /* \"#utility.yul\":16190:16194   */\n      0x31\n        /* \"#utility.yul\":16187:16188   */\n      0x04\n        /* \"#utility.yul\":16180:16195   */\n      mstore\n        /* \"#utility.yul\":16214:16218   */\n      0x24\n        /* \"#utility.yul\":16211:16212   */\n      0x00\n        /* \"#utility.yul\":16204:16219   */\n      revert\n        /* \"#utility.yul\":18791:18916   */\n    tag_391:\n        /* \"#utility.yul\":18856:18865   */\n      dup1\n      dup3\n      add\n        /* \"#utility.yul\":18877:18887   */\n      dup1\n      dup3\n      gt\n        /* \"#utility.yul\":18874:18910   */\n      iszero\n      tag_122\n      jumpi\n        /* \"#utility.yul\":18890:18908   */\n      tag_122\n      tag_418\n      jump\t// in\n\n    auxdata: 0xa2646970667358221220c88d9431dab4a4fbe3b12a39d3f4694367148f54876a451db1bb2f3fea4051a064736f6c63430008110033\n}\n",
    "bytecode": {
      "linkReferences": {},
      "object": "608060405234801561001057600080fd5b506128f8806100206000396000f3fe608060405234801561001057600080fd5b50600436106101515760003560e01c806387c63714116100cd578063cd9c936211610081578063df78bc5411610066578063df78bc54146102b2578063e9e6630a146102d2578063f892cb36146102f757600080fd5b8063cd9c936214610297578063d0e2892c1461029f57600080fd5b8063a98d22bc116100b2578063a98d22bc1461024e578063b83f480514610261578063b944559d1461028457600080fd5b806387c63714146102285780638d5492e41461023b57600080fd5b8063196ba7ef11610124578063590411da11610109578063590411da146101e257806359633a1c146101f55780636d7697171461020857600080fd5b8063196ba7ef146101c55780633dea2f84146101cf57600080fd5b806301e2b33f14610156578063072039a21461017c57806307a8b7671461019f578063096e27d9146101b2575b600080fd5b6101696101643660046120fb565b61030a565b6040519081526020015b60405180910390f35b61018f61018a3660046120fb565b6103f8565b6040519015158152602001610173565b61018f6101ad3660046120fb565b61048c565b61018f6101c0366004612116565b61051c565b6101cd61054e565b005b6101cd6101dd366004612200565b6105b0565b6101cd6101f036600461225e565b61068b565b6101cd6102033660046120fb565b6108db565b61021b6102163660046120fb565b610a29565b6040516101739190612323565b6101cd610236366004612336565b610afe565b6101cd6102493660046120fb565b610da0565b6101cd61025c3660046120fb565b610ed6565b61027461026f366004612116565b610f8f565b6040516101739493929190612384565b6101cd610292366004612336565b611146565b6101cd6111b1565b6101cd6102ad3660046123b7565b6113bf565b6102c56102c0366004612116565b611698565b60405161017391906124e2565b6102e56102e03660046120fb565b611885565b604051610173969594939291906124f5565b61021b610305366004612116565b611d14565b6001600160a01b038116600090815260208190526040812060030154819061033290426125a2565b6001600160a01b038416600081815260208181526040918290206002810154600390910154835191825291810185905242928101929092526060820152919250907f74a7c0c2e8065fcdbfca5ae9f6cf0233e47e9e75b6fcf75674dd4b7e3f9b81839060800160405180910390a26001600160a01b03831660009081526020819052604090206002015481116103ee576001600160a01b0383166000908152602081905260409020600201546103e99082906125a2565b6103f1565b60005b9392505050565b60006104038261048c565b15610465576001600160a01b038216600090815260208190526040902060030154156104655760006104348361030a565b905060008111610463576001600160a01b0383166000908152602081905260409020600401805461ff00191690555b505b506001600160a01b0316600090815260208190526040902060040154610100900460ff1690565b6001600160a01b03811660009081526020819052604081205460ff166104f95760405162461bcd60e51b815260206004820152601960248201527f42656e65666163746f7220646f6573206e6f742065786973740000000000000060448201526064015b60405180910390fd5b506001600160a01b031660009081526020819052604090206004015460ff161590565b6001600160a01b03808316600090815260208181526040808320938516835260019093019052205460ff165b92915050565b33600081815260208181526040808320805460ff1916600117815562093a80600282015560048101805461010161ffff199091161790556003810184905581518084019092528382529383529190526005909101906105ad908261263d565b50565b6105ba838361051c565b6106065760405162461bcd60e51b815260206004820181905260248201527f42656e65666963696172792f42656e65666163746f72206e6f7420666f756e6460448201526064016104f0565b6001600160a01b038084166000908152602081815260408083209386168352600190930190522060020161063a828261263d565b50816001600160a01b0316836001600160a01b03167f69ccea10852ac51b01745414774b5af302217e774786d2068296650b57ba03f28360405161067e9190612323565b60405180910390a3505050565b3360009081526020819052604090205460ff1680156106c1575033600090815260208190526040902060040154610100900460ff165b6107065760405162461bcd60e51b81526020600482015260166024820152752737ba1030903b30b634b2103132b732b330b1ba37b960511b60448201526064016104f0565b60005b818110156108d6576000838383818110610725576107256126fd565b905060200201602081019061073a91906120fb565b9050610746338261051c565b156107935760405162461bcd60e51b815260206004820152601a60248201527f42656e656669636961727920616c72656164792065786973747300000000000060448201526064016104f0565b604080516060810182526001815281516000808252602082810190945291928301916107cf565b60608152602001906001900390816107ba5790505b50815260408051602080820183526000808352938101919091523383528281528183206001600160a01b038616845260019081018252919092208351815460ff1916901515178155838301518051919361082e93850192910190612004565b5060408201516002820190610843908261263d565b505033600081815260016020818152604080842080549384018155845290832090910180547fffffffffffffffffffffffff0000000000000000000000000000000000000000166001600160a01b03871690811790915590519093507fbb39c36a7502b7256e1a687254146a9a2ea7b146c77cb9e40eb0e2b8793781e19190a350806108ce81612713565b915050610709565b505050565b3360009081526020819052604090205460ff168015610911575033600090815260208190526040902060040154610100900460ff165b6109565760405162461bcd60e51b81526020600482015260166024820152752737ba1030903b30b634b2103132b732b330b1ba37b960511b60448201526064016104f0565b610960338261051c565b6109a45760405162461bcd60e51b815260206004820152601560248201527410995b99599a58da585c9e481b9bdd08199bdd5b99605a1b60448201526064016104f0565b336000908152602081815260408083206001600160a01b038516845260019081019092528220805460ff1916815591906109e09083018261205a565b6109ee600283016000612078565b50506040516001600160a01b0382169033907f1a6590bd0cabbfcc7c86bef99e1034054e179905cfcc294598fcd426c092244290600090a350565b6060610a35823361051c565b15610ae5576001600160a01b03821660009081526020819052604090206005018054610a60906125b5565b80601f0160208091040260200160405190810160405280929190818152602001828054610a8c906125b5565b8015610ad95780601f10610aae57610100808354040283529160200191610ad9565b820191906000526020600020905b815481529060010190602001808311610abc57829003601f168201915b50505050509050919050565b505060408051602081019091526000815290565b919050565b3360009081526020819052604090205460ff168015610b34575033600090815260208190526040902060040154610100900460ff165b610b795760405162461bcd60e51b81526020600482015260166024820152752737ba1030903b30b634b2103132b732b330b1ba37b960511b60448201526064016104f0565b610b83338361051c565b610bc75760405162461bcd60e51b815260206004820152601560248201527410995b99599a58da585c9e481b9bdd08199bdd5b99605a1b60448201526064016104f0565b336000908152602081815260408083206001600160a01b03861684526001908101909252822001905b8154811015610d4b5782604051602001610c0a919061272c565b60405160208183030381529060405280519060200120828281548110610c3257610c326126fd565b90600052602060002001604051602001610c4c9190612748565b6040516020818303038152906040528051906020012003610d395781548290610c77906001906125a2565b81548110610c8757610c876126fd565b90600052602060002001828281548110610ca357610ca36126fd565b906000526020600020019081610cb991906127be565b5081805480610cca57610cca612899565b600190038181906000526020600020016000610ce69190612078565b9055836001600160a01b0316336001600160a01b03167f4c13211ce3b2d0cb3e02a662cc071d6be555042ca58d4d812b7b90e80d3250ac85604051610d2b9190612323565b60405180910390a350505050565b80610d4381612713565b915050610bf0565b5060405162461bcd60e51b8152602060048201526024808201527f434944206e6f742061737369676e656420746f20746869732062656e656669636044820152636961727960e01b60648201526084016104f0565b6001600160a01b03811660009081526020818152604080832033845260010190915290205460ff16610e145760405162461bcd60e51b815260206004820152601760248201527f4e6f7420612076616c69642062656e656669636961727900000000000000000060448201526064016104f0565b6001600160a01b03811660009081526020819052604090206004015460ff16610e705760405133906001600160a01b038316907f67c4731bdc193862f421e091d18f46df876bfe1b8b9aa97504f1d50d425b239d90600090a350565b6001600160a01b0381166000818152602081815260409182902060048101805460ff191690554260038201556002015491519182523392917f82595752291d0261dfb9b4b0c2307021c29c34e22fe0697b4840b529dc351bc3910160405180910390a350565b3360009081526020819052604090205460ff16610f355760405162461bcd60e51b815260206004820152601960248201527f42656e65666163746f72206e6f7420726567697374657265640000000000000060448201526064016104f0565b33600090815260208190526040808220805460ff199081169091556001600160a01b038416835290822080549091168155600281018290556003810182905560048101805461ffff19169055906108d66005830182612078565b6001600160a01b0382166000908152602081905260408120548190819060609060ff16610ffe5760405162461bcd60e51b815260206004820152601960248201527f42656e65666163746f7220646f6573206e6f742065786973740000000000000060448201526064016104f0565b6001600160a01b03861660009081526020819052604090206004015460ff161593508361102e576000925061103a565b6110378661030a565b92505b6001600160a01b038681166000908152602081815260408083206004810154948a1684526001019091529020600201805461010090920460ff16935090611080906125b5565b80601f01602080910402602001604051908101604052809291908181526020018280546110ac906125b5565b80156110f95780601f106110ce576101008083540402835291602001916110f9565b820191906000526020600020905b8154815290600101906020018083116110dc57829003601f168201915b505050505090507f0e092c8eab045fa06eb05fe062c2d0a1721905a7ad6acb7eed9c804d956ea9fd848484846040516111359493929190612384565b60405180910390a192959194509250565b6001600160a01b038216600090815260208190526040902060050161116b828261263d565b50816001600160a01b03167ff20d3ea0a54b197ec507921ed526707368e27ad44b86bf2d4b11888b7009de6b826040516111a59190612323565b60405180910390a25050565b3360009081526020819052604090205460ff1680156111e7575033600090815260208190526040902060040154610100900460ff165b61122c5760405162461bcd60e51b81526020600482015260166024820152752737ba1030903b30b634b2103132b732b330b1ba37b960511b60448201526064016104f0565b33600090815260208190526040902060030154156113565761124d336103f8565b156112e357336001600160a01b03167f793324a6f079e577f4a4646c7ec753efd3beddc2f4ce07bfae5f105c449ac3566040516112bb9060208082526013908201527f42656e65666163746f7220697320616c69766500000000000000000000000000604082015260600190565b60405180910390a26112cb611df4565b33600090815260208190526040902042600390910155565b336001600160a01b03167f5a68fa7d6b655a3e592d5d99ac82863424750e9d262c902f30f9e56655e7a85660405161134c9060208082526012908201527f42656e65666163746f7220697320646561640000000000000000000000000000604082015260600190565b60405180910390a2565b336001600160a01b03167f793324a6f079e577f4a4646c7ec753efd3beddc2f4ce07bfae5f105c449ac3566040516112bb9060208082526013908201527f42656e65666163746f7220697320616c69766500000000000000000000000000604082015260600190565b3360009081526020819052604090205460ff1680156113f5575033600090815260208190526040902060040154610100900460ff165b61143a5760405162461bcd60e51b81526020600482015260166024820152752737ba1030903b30b634b2103132b732b330b1ba37b960511b60448201526064016104f0565b611444338361051c565b6114885760405162461bcd60e51b815260206004820152601560248201527410995b99599a58da585c9e481b9bdd08199bdd5b99605a1b60448201526064016104f0565b336000908152602081815260408083206001600160a01b03861684526001908101909252822001905b8251811015611692576000805b8354811015611569578483815181106114d9576114d96126fd565b60200260200101516040516020016114f1919061272c565b60405160208183030381529060405280519060200120848281548110611519576115196126fd565b906000526020600020016040516020016115339190612748565b60405160208183030381529060405280519060200120036115575760019150611569565b8061156181612713565b9150506114be565b5080156115de5760405162461bcd60e51b815260206004820152602860248201527f43494420616c72656164792061737369676e656420746f20746869732062656e60448201527f656669636961727900000000000000000000000000000000000000000000000060648201526084016104f0565b828483815181106115f1576115f16126fd565b6020908102919091018101518254600181018455600093845291909220019061161a908261263d565b50846001600160a01b0316336001600160a01b03167fa1bb52b874769d5c17cde30e708e8f7180bb949f70e77caf0da68d25f9a1a510868581518110611662576116626126fd565b60200260200101516040516116779190612323565b60405180910390a3508061168a81612713565b9150506114b1565b50505050565b60606116a4838361051c565b6116e85760405162461bcd60e51b815260206004820152601560248201527410995b99599a58da585c9e481b9bdd08199bdd5b99605a1b60448201526064016104f0565b6001600160a01b03831660009081526020818152604080832033845260010190915290205460ff16801561173d57506001600160a01b038316600090815260208190526040902060040154610100900460ff16155b6117895760405162461bcd60e51b815260206004820152601160248201527f4e6f2061636365737320746f204349447300000000000000000000000000000060448201526064016104f0565b6001600160a01b0380841660009081526020818152604080832093861683526001938401825280832090930180548451818402810184019095528085529092909184015b828210156118795783829060005260206000200180546117ec906125b5565b80601f0160208091040260200160405190810160405280929190818152602001828054611818906125b5565b80156118655780601f1061183a57610100808354040283529160200191611865565b820191906000526020600020905b81548152906001019060200180831161184857829003601f168201915b5050505050815260200190600101906117cd565b50505050905092915050565b6001600160a01b038116600090815260208190526040812054606090829081908390819060ff166118f85760405162461bcd60e51b815260206004820152601960248201527f42656e65666163746f7220646f6573206e6f742065786973740000000000000060448201526064016104f0565b6001600160a01b0387166000908152602081815260408083206004015460019092529091205460ff90911615965067ffffffffffffffff81111561193e5761193e612149565b604051908082528060200260200182016040528015611967578160200160208202803683370190505b509450600061197588611f14565b90508067ffffffffffffffff81111561199057611990612149565b6040519080825280602002602001820160405280156119c357816020015b60608152602001906001900390816119ae5790505b5091506000806119e88a6001600160a01b031660009081526001602052604090205490565b905060005b81811015611bd4576001600160a01b038b166000908152600160205260408120805483908110611a1f57611a1f6126fd565b60009182526020808320909101546001600160a01b038f811684528383526040808520919092168085526001919091019092529091205490915060ff1615611bc1576001600160a01b03808d1660009081526020818152604080832093851683526001938401825280832090930180548451818402810184019095528085529293929091849084015b82821015611b54578382906000526020600020018054611ac7906125b5565b80601f0160208091040260200160405190810160405280929190818152602001828054611af3906125b5565b8015611b405780601f10611b1557610100808354040283529160200191611b40565b820191906000526020600020905b815481529060010190602001808311611b2357829003601f168201915b505050505081526020019060010190611aa8565b50505050905060005b8151811015611bbe57818181518110611b7857611b786126fd565b6020026020010151888781518110611b9257611b926126fd565b60200260200101819052508580611ba890612713565b9650508080611bb690612713565b915050611b5d565b50505b5080611bcc81612713565b9150506119ed565b506001600160a01b038a1660009081526020819052604090206004015460ff1615611c025760009650611c0e565b611c0b8a61030a565b96505b6001600160a01b038a16600090815260208190526040902060048101546005909101805461010090920460ff16975090611c47906125b5565b80601f0160208091040260200160405190810160405280929190818152602001828054611c73906125b5565b8015611cc05780601f10611c9557610100808354040283529160200191611cc0565b820191906000526020600020905b815481529060010190602001808311611ca357829003601f168201915b505050505094507f4bc4f0d667f981d69e9500f47d56b517891311c1b6816bb75e9f46b3f680692c898989898989604051611d00969594939291906124f5565b60405180910390a150505091939550919395565b6060611d20838361051c565b15611ddf576001600160a01b03808416600090815260208181526040808320938616835260019093019052206002018054611d5a906125b5565b80601f0160208091040260200160405190810160405280929190818152602001828054611d86906125b5565b8015611dd35780601f10611da857610100808354040283529160200191611dd3565b820191906000526020600020905b815481529060010190602001808311611db657829003601f168201915b50505050509050610548565b50604080516020810190915260008152610548565b3360009081526020819052604090205460ff168015611e2a575033600090815260208190526040902060040154610100900460ff165b611e6f5760405162461bcd60e51b81526020600482015260166024820152752737ba1030903b30b634b2103132b732b330b1ba37b960511b60448201526064016104f0565b3360009081526020819052604090206004015460ff1615611eb957604051339081907f439c5aaf7691cb4808dbd2a240323ce9ec0d04d66ddf65ffd5f88ebd60fa745b90600090a3565b3360008181526020819052604090819020600401805460ff191660011790555181907f9baa855d20de9b1a4db454f55b09d1db5f42f0871bbea3b0c699146ade17162590611f0a9042815260200190565b60405180910390a3565b60008080611f37846001600160a01b031660009081526001602052604090205490565b905060005b81811015611ffb576001600160a01b0385166000908152600160205260408120805483908110611f6e57611f6e6126fd565b60009182526020808320909101546001600160a01b0389811684528383526040808520919092168085526001919091019092529091205490915060ff1615611fe8576001600160a01b038087166000908152602081815260408083209385168352600193840190915290200154611fe590856128af565b93505b5080611ff381612713565b915050611f3c565b50909392505050565b82805482825590600052602060002090810192821561204a579160200282015b8281111561204a578251829061203a908261263d565b5091602001919060010190612024565b506120569291506120b2565b5090565b50805460008255906000526020600020908101906105ad91906120b2565b508054612084906125b5565b6000825580601f10612094575050565b601f0160209004906000526020600020908101906105ad91906120cf565b808211156120565760006120c68282612078565b506001016120b2565b5b8082111561205657600081556001016120d0565b80356001600160a01b0381168114610af957600080fd5b60006020828403121561210d57600080fd5b6103f1826120e4565b6000806040838503121561212957600080fd5b612132836120e4565b9150612140602084016120e4565b90509250929050565b634e487b7160e01b600052604160045260246000fd5b604051601f8201601f1916810167ffffffffffffffff8111828210171561218857612188612149565b604052919050565b600082601f8301126121a157600080fd5b813567ffffffffffffffff8111156121bb576121bb612149565b6121ce601f8201601f191660200161215f565b8181528460208386010111156121e357600080fd5b816020850160208301376000918101602001919091529392505050565b60008060006060848603121561221557600080fd5b61221e846120e4565b925061222c602085016120e4565b9150604084013567ffffffffffffffff81111561224857600080fd5b61225486828701612190565b9150509250925092565b6000806020838503121561227157600080fd5b823567ffffffffffffffff8082111561228957600080fd5b818501915085601f83011261229d57600080fd5b8135818111156122ac57600080fd5b8660208260051b85010111156122c157600080fd5b60209290920196919550909350505050565b60005b838110156122ee5781810151838201526020016122d6565b50506000910152565b6000815180845261230f8160208601602086016122d3565b601f01601f19169290920160200192915050565b6020815260006103f160208301846122f7565b6000806040838503121561234957600080fd5b612352836120e4565b9150602083013567ffffffffffffffff81111561236e57600080fd5b61237a85828601612190565b9150509250929050565b841515815283602082015282151560408201526080606082015260006123ad60808301846122f7565b9695505050505050565b600080604083850312156123ca57600080fd5b6123d3836120e4565b915060208084013567ffffffffffffffff808211156123f157600080fd5b818601915086601f83011261240557600080fd5b81358181111561241757612417612149565b8060051b61242685820161215f565b918252838101850191858101908a84111561244057600080fd5b86860192505b8383101561247c5782358581111561245e5760008081fd5b61246c8c89838a0101612190565b8352509186019190860190612446565b809750505050505050509250929050565b600081518084526020808501808196508360051b8101915082860160005b858110156124d55782840389526124c38483516122f7565b988501989350908401906001016124ab565b5091979650505050505050565b6020815260006103f1602083018461248d565b600060c082018815158352602060c08185015281895180845260e086019150828b01935060005b818110156125415784516001600160a01b03168352938301939183019160010161251c565b5050886040860152612557606086018915159052565b848103608086015261256981886122f7565b9250505082810360a084015261257f818561248d565b9998505050505050505050565b634e487b7160e01b600052601160045260246000fd5b818103818111156105485761054861258c565b600181811c908216806125c957607f821691505b6020821081036125e957634e487b7160e01b600052602260045260246000fd5b50919050565b601f8211156108d657600081815260208120601f850160051c810160208610156126165750805b601f850160051c820191505b8181101561263557828155600101612622565b505050505050565b815167ffffffffffffffff81111561265757612657612149565b61266b8161266584546125b5565b846125ef565b602080601f8311600181146126a057600084156126885750858301515b600019600386901b1c1916600185901b178555612635565b600085815260208120601f198616915b828110156126cf578886015182559484019460019091019084016126b0565b50858210156126ed5787850151600019600388901b60f8161c191681555b5050505050600190811b01905550565b634e487b7160e01b600052603260045260246000fd5b6000600182016127255761272561258c565b5060010190565b6000825161273e8184602087016122d3565b9190910192915050565b6000808354612756816125b5565b6001828116801561276e5760018114612783576127b2565b60ff19841687528215158302870194506127b2565b8760005260208060002060005b858110156127a95781548a820152908401908201612790565b50505082870194505b50929695505050505050565b8181036127c9575050565b6127d382546125b5565b67ffffffffffffffff8111156127eb576127eb612149565b6127f98161266584546125b5565b6000601f82116001811461282d57600083156128155750848201545b600019600385901b1c1916600184901b178455612892565b600085815260209020601f19841690600086815260209020845b838110156128675782860154825560019586019590910190602001612847565b50858310156128855781850154600019600388901b60f8161c191681555b50505060018360011b0184555b5050505050565b634e487b7160e01b600052603160045260246000fd5b808201808211156105485761054861258c56fea2646970667358221220c88d9431dab4a4fbe3b12a39d3f4694367148f54876a451db1bb2f3fea4051a064736f6c63430008110033",
      "opcodes": "PUSH1 0x80 PUSH1 0x40 MSTORE CALLVALUE DUP1 ISZERO PUSH2 0x10 JUMPI PUSH1 0x0 DUP1 REVERT JUMPDEST POP PUSH2 0x28F8 DUP1 PUSH2 0x20 PUSH1 0x0 CODECOPY PUSH1 0x0 RETURN INVALID PUSH1 0x80 PUSH1 0x40 MSTORE CALLVALUE DUP1 ISZERO PUSH2 0x10 JUMPI PUSH1 0x0 DUP1 REVERT JUMPDEST POP PUSH1 0x4 CALLDATASIZE LT PUSH2 0x151 JUMPI PUSH1 0x0 CALLDATALOAD PUSH1 0xE0 SHR DUP1 PUSH4 0x87C63714 GT PUSH2 0xCD JUMPI DUP1 PUSH4 0xCD9C9362 GT PUSH2 0x81 JUMPI DUP1 PUSH4 0xDF78BC54 GT PUSH2 0x66 JUMPI DUP1 PUSH4 0xDF78BC54 EQ PUSH2 0x2B2 JUMPI DUP1 PUSH4 0xE9E6630A EQ PUSH2 0x2D2 JUMPI DUP1 PUSH4 0xF892CB36 EQ PUSH2 0x2F7 JUMPI PUSH1 0x0 DUP1 REVERT JUMPDEST DUP1 PUSH4 0xCD9C9362 EQ PUSH2 0x297 JUMPI DUP1 PUSH4 0xD0E2892C EQ PUSH2 0x29F JUMPI PUSH1 0x0 DUP1 REVERT JUMPDEST DUP1 PUSH4 0xA98D22BC GT PUSH2 0xB2 JUMPI DUP1 PUSH4 0xA98D22BC EQ PUSH2 0x24E JUMPI DUP1 PUSH4 0xB83F4805 EQ PUSH2 0x261 JUMPI DUP1 PUSH4 0xB944559D EQ PUSH2 0x284 JUMPI PUSH1 0x0 DUP1 REVERT JUMPDEST DUP1 PUSH4 0x87C63714 EQ PUSH2 0x228 JUMPI DUP1 PUSH4 0x8D5492E4 EQ PUSH2 0x23B JUMPI PUSH1 0x0 DUP1 REVERT JUMPDEST DUP1 PUSH4 0x196BA7EF GT PUSH2 0x124 JUMPI DUP1 PUSH4 0x590411DA GT PUSH2 0x109 JUMPI DUP1 PUSH4 0x590411DA EQ PUSH2 0x1E2 JUMPI DUP1 PUSH4 0x59633A1C EQ PUSH2 0x1F5 JUMPI DUP1 PUSH4 0x6D769717 EQ PUSH2 0x208 JUMPI PUSH1 0x0 DUP1 REVERT JUMPDEST DUP1 PUSH4 0x196BA7EF EQ PUSH2 0x1C5 JUMPI DUP1 PUSH4 0x3DEA2F84 EQ PUSH2 0x1CF JUMPI PUSH1 0x0 DUP1 REVERT JUMPDEST DUP1 PUSH4 0x1E2B33F EQ PUSH2 0x156 JUMPI DUP1 PUSH4 0x72039A2 EQ PUSH2 0x17C JUMPI DUP1 PUSH4 0x7A8B767 EQ PUSH2 0x19F JUMPI DUP1 PUSH4 0x96E27D9 EQ PUSH2 0x1B2 JUMPI JUMPDEST PUSH1 0x0 DUP1 REVERT JUMPDEST PUSH2 0x169 PUSH2 0x164 CALLDATASIZE PUSH1 0x4 PUSH2 0x20FB JUMP JUMPDEST PUSH2 0x30A JUMP JUMPDEST PUSH1 0x40 MLOAD SWAP1 DUP2 MSTORE PUSH1 0x20 ADD JUMPDEST PUSH1 0x40 MLOAD DUP1 SWAP2 SUB SWAP1 RETURN JUMPDEST PUSH2 0x18F PUSH2 0x18A CALLDATASIZE PUSH1 0x4 PUSH2 0x20FB JUMP JUMPDEST PUSH2 0x3F8 JUMP JUMPDEST PUSH1 0x40 MLOAD SWAP1 ISZERO ISZERO DUP2 MSTORE PUSH1 0x20 ADD PUSH2 0x173 JUMP JUMPDEST PUSH2 0x18F PUSH2 0x1AD CALLDATASIZE PUSH1 0x4 PUSH2 0x20FB JUMP JUMPDEST PUSH2 0x48C JUMP JUMPDEST PUSH2 0x18F PUSH2 0x1C0 CALLDATASIZE PUSH1 0x4 PUSH2 0x2116 JUMP JUMPDEST PUSH2 0x51C JUMP JUMPDEST PUSH2 0x1CD PUSH2 0x54E JUMP JUMPDEST STOP JUMPDEST PUSH2 0x1CD PUSH2 0x1DD CALLDATASIZE PUSH1 0x4 PUSH2 0x2200 JUMP JUMPDEST PUSH2 0x5B0 JUMP JUMPDEST PUSH2 0x1CD PUSH2 0x1F0 CALLDATASIZE PUSH1 0x4 PUSH2 0x225E JUMP JUMPDEST PUSH2 0x68B JUMP JUMPDEST PUSH2 0x1CD PUSH2 0x203 CALLDATASIZE PUSH1 0x4 PUSH2 0x20FB JUMP JUMPDEST PUSH2 0x8DB JUMP JUMPDEST PUSH2 0x21B PUSH2 0x216 CALLDATASIZE PUSH1 0x4 PUSH2 0x20FB JUMP JUMPDEST PUSH2 0xA29 JUMP JUMPDEST PUSH1 0x40 MLOAD PUSH2 0x173 SWAP2 SWAP1 PUSH2 0x2323 JUMP JUMPDEST PUSH2 0x1CD PUSH2 0x236 CALLDATASIZE PUSH1 0x4 PUSH2 0x2336 JUMP JUMPDEST PUSH2 0xAFE JUMP JUMPDEST PUSH2 0x1CD PUSH2 0x249 CALLDATASIZE PUSH1 0x4 PUSH2 0x20FB JUMP JUMPDEST PUSH2 0xDA0 JUMP JUMPDEST PUSH2 0x1CD PUSH2 0x25C CALLDATASIZE PUSH1 0x4 PUSH2 0x20FB JUMP JUMPDEST PUSH2 0xED6 JUMP JUMPDEST PUSH2 0x274 PUSH2 0x26F CALLDATASIZE PUSH1 0x4 PUSH2 0x2116 JUMP JUMPDEST PUSH2 0xF8F JUMP JUMPDEST PUSH1 0x40 MLOAD PUSH2 0x173 SWAP5 SWAP4 SWAP3 SWAP2 SWAP1 PUSH2 0x2384 JUMP JUMPDEST PUSH2 0x1CD PUSH2 0x292 CALLDATASIZE PUSH1 0x4 PUSH2 0x2336 JUMP JUMPDEST PUSH2 0x1146 JUMP JUMPDEST PUSH2 0x1CD PUSH2 0x11B1 JUMP JUMPDEST PUSH2 0x1CD PUSH2 0x2AD CALLDATASIZE PUSH1 0x4 PUSH2 0x23B7 JUMP JUMPDEST PUSH2 0x13BF JUMP JUMPDEST PUSH2 0x2C5 PUSH2 0x2C0 CALLDATASIZE PUSH1 0x4 PUSH2 0x2116 JUMP JUMPDEST PUSH2 0x1698 JUMP JUMPDEST PUSH1 0x40 MLOAD PUSH2 0x173 SWAP2 SWAP1 PUSH2 0x24E2 JUMP JUMPDEST PUSH2 0x2E5 PUSH2 0x2E0 CALLDATASIZE PUSH1 0x4 PUSH2 0x20FB JUMP JUMPDEST PUSH2 0x1885 JUMP JUMPDEST PUSH1 0x40 MLOAD PUSH2 0x173 SWAP7 SWAP6 SWAP5 SWAP4 SWAP3 SWAP2 SWAP1 PUSH2 0x24F5 JUMP JUMPDEST PUSH2 0x21B PUSH2 0x305 CALLDATASIZE PUSH1 0x4 PUSH2 0x2116 JUMP JUMPDEST PUSH2 0x1D14 JUMP JUMPDEST PUSH1 0x1 PUSH1 0x1 PUSH1 0xA0 SHL SUB DUP2 AND PUSH1 0x0 SWAP1 DUP2 MSTORE PUSH1 0x20 DUP2 SWAP1 MSTORE PUSH1 0x40 DUP2 KECCAK256 PUSH1 0x3 ADD SLOAD DUP2 SWAP1 PUSH2 0x332 SWAP1 TIMESTAMP PUSH2 0x25A2 JUMP JUMPDEST PUSH1 0x1 PUSH1 0x1 PUSH1 0xA0 SHL SUB DUP5 AND PUSH1 0x0 DUP2 DUP2 MSTORE PUSH1 0x20 DUP2 DUP2 MSTORE PUSH1 0x40 SWAP2 DUP3 SWAP1 KECCAK256 PUSH1 0x2 DUP2 ADD SLOAD PUSH1 0x3 SWAP1 SWAP2 ADD SLOAD DUP4 MLOAD SWAP2 DUP3 MSTORE SWAP2 DUP2 ADD DUP6 SWAP1 MSTORE TIMESTAMP SWAP3 DUP2 ADD SWAP3 SWAP1 SWAP3 MSTORE PUSH1 0x60 DUP3 ADD MSTORE SWAP2 SWAP3 POP SWAP1 PUSH32 0x74A7C0C2E8065FCDBFCA5AE9F6CF0233E47E9E75B6FCF75674DD4B7E3F9B8183 SWAP1 PUSH1 0x80 ADD PUSH1 0x40 MLOAD DUP1 SWAP2 SUB SWAP1 LOG2 PUSH1 0x1 PUSH1 0x1 PUSH1 0xA0 SHL SUB DUP4 AND PUSH1 0x0 SWAP1 DUP2 MSTORE PUSH1 0x20 DUP2 SWAP1 MSTORE PUSH1 0x40 SWAP1 KECCAK256 PUSH1 0x2 ADD SLOAD DUP2 GT PUSH2 0x3EE JUMPI PUSH1 0x1 PUSH1 0x1 PUSH1 0xA0 SHL SUB DUP4 AND PUSH1 0x0 SWAP1 DUP2 MSTORE PUSH1 0x20 DUP2 SWAP1 MSTORE PUSH1 0x40 SWAP1 KECCAK256 PUSH1 0x2 ADD SLOAD PUSH2 0x3E9 SWAP1 DUP3 SWAP1 PUSH2 0x25A2 JUMP JUMPDEST PUSH2 0x3F1 JUMP JUMPDEST PUSH1 0x0 JUMPDEST SWAP4 SWAP3 POP POP POP JUMP JUMPDEST PUSH1 0x0 PUSH2 0x403 DUP3 PUSH2 0x48C JUMP JUMPDEST ISZERO PUSH2 0x465 JUMPI PUSH1 0x1 PUSH1 0x1 PUSH1 0xA0 SHL SUB DUP3 AND PUSH1 0x0 SWAP1 DUP2 MSTORE PUSH1 0x20 DUP2 SWAP1 MSTORE PUSH1 0x40 SWAP1 KECCAK256 PUSH1 0x3 ADD SLOAD ISZERO PUSH2 0x465 JUMPI PUSH1 0x0 PUSH2 0x434 DUP4 PUSH2 0x30A JUMP JUMPDEST SWAP1 POP PUSH1 0x0 DUP2 GT PUSH2 0x463 JUMPI PUSH1 0x1 PUSH1 0x1 PUSH1 0xA0 SHL SUB DUP4 AND PUSH1 0x0 SWAP1 DUP2 MSTORE PUSH1 0x20 DUP2 SWAP1 MSTORE PUSH1 0x40 SWAP1 KECCAK256 PUSH1 0x4 ADD DUP1 SLOAD PUSH2 0xFF00 NOT AND SWAP1 SSTORE JUMPDEST POP JUMPDEST POP PUSH1 0x1 PUSH1 0x1 PUSH1 0xA0 SHL SUB AND PUSH1 0x0 SWAP1 DUP2 MSTORE PUSH1 0x20 DUP2 SWAP1 MSTORE PUSH1 0x40 SWAP1 KECCAK256 PUSH1 0x4 ADD SLOAD PUSH2 0x100 SWAP1 DIV PUSH1 0xFF AND SWAP1 JUMP JUMPDEST PUSH1 0x1 PUSH1 0x1 PUSH1 0xA0 SHL SUB DUP2 AND PUSH1 0x0 SWAP1 DUP2 MSTORE PUSH1 0x20 DUP2 SWAP1 MSTORE PUSH1 0x40 DUP2 KECCAK256 SLOAD PUSH1 0xFF AND PUSH2 0x4F9 JUMPI PUSH1 0x40 MLOAD PUSH3 0x461BCD PUSH1 0xE5 SHL DUP2 MSTORE PUSH1 0x20 PUSH1 0x4 DUP3 ADD MSTORE PUSH1 0x19 PUSH1 0x24 DUP3 ADD MSTORE PUSH32 0x42656E65666163746F7220646F6573206E6F7420657869737400000000000000 PUSH1 0x44 DUP3 ADD MSTORE PUSH1 0x64 ADD JUMPDEST PUSH1 0x40 MLOAD DUP1 SWAP2 SUB SWAP1 REVERT JUMPDEST POP PUSH1 0x1 PUSH1 0x1 PUSH1 0xA0 SHL SUB AND PUSH1 0x0 SWAP1 DUP2 MSTORE PUSH1 0x20 DUP2 SWAP1 MSTORE PUSH1 0x40 SWAP1 KECCAK256 PUSH1 0x4 ADD SLOAD PUSH1 0xFF AND ISZERO SWAP1 JUMP JUMPDEST PUSH1 0x1 PUSH1 0x1 PUSH1 0xA0 SHL SUB DUP1 DUP4 AND PUSH1 0x0 SWAP1 DUP2 MSTORE PUSH1 0x20 DUP2 DUP2 MSTORE PUSH1 0x40 DUP1 DUP4 KECCAK256 SWAP4 DUP6 AND DUP4 MSTORE PUSH1 0x1 SWAP1 SWAP4 ADD SWAP1 MSTORE KECCAK256 SLOAD PUSH1 0xFF AND JUMPDEST SWAP3 SWAP2 POP POP JUMP JUMPDEST CALLER PUSH1 0x0 DUP2 DUP2 MSTORE PUSH1 0x20 DUP2 DUP2 MSTORE PUSH1 0x40 DUP1 DUP4 KECCAK256 DUP1 SLOAD PUSH1 0xFF NOT AND PUSH1 0x1 OR DUP2 SSTORE PUSH3 0x93A80 PUSH1 0x2 DUP3 ADD SSTORE PUSH1 0x4 DUP2 ADD DUP1 SLOAD PUSH2 0x101 PUSH2 0xFFFF NOT SWAP1 SWAP2 AND OR SWAP1 SSTORE PUSH1 0x3 DUP2 ADD DUP5 SWAP1 SSTORE DUP2 MLOAD DUP1 DUP5 ADD SWAP1 SWAP3 MSTORE DUP4 DUP3 MSTORE SWAP4 DUP4 MSTORE SWAP2 SWAP1 MSTORE PUSH1 0x5 SWAP1 SWAP2 ADD SWAP1 PUSH2 0x5AD SWAP1 DUP3 PUSH2 0x263D JUMP JUMPDEST POP JUMP JUMPDEST PUSH2 0x5BA DUP4 DUP4 PUSH2 0x51C JUMP JUMPDEST PUSH2 0x606 JUMPI PUSH1 0x40 MLOAD PUSH3 0x461BCD PUSH1 0xE5 SHL DUP2 MSTORE PUSH1 0x20 PUSH1 0x4 DUP3 ADD DUP2 SWAP1 MSTORE PUSH1 0x24 DUP3 ADD MSTORE PUSH32 0x42656E65666963696172792F42656E65666163746F72206E6F7420666F756E64 PUSH1 0x44 DUP3 ADD MSTORE PUSH1 0x64 ADD PUSH2 0x4F0 JUMP JUMPDEST PUSH1 0x1 PUSH1 0x1 PUSH1 0xA0 SHL SUB DUP1 DUP5 AND PUSH1 0x0 SWAP1 DUP2 MSTORE PUSH1 0x20 DUP2 DUP2 MSTORE PUSH1 0x40 DUP1 DUP4 KECCAK256 SWAP4 DUP7 AND DUP4 MSTORE PUSH1 0x1 SWAP1 SWAP4 ADD SWAP1 MSTORE KECCAK256 PUSH1 0x2 ADD PUSH2 0x63A DUP3 DUP3 PUSH2 0x263D JUMP JUMPDEST POP DUP2 PUSH1 0x1 PUSH1 0x1 PUSH1 0xA0 SHL SUB AND DUP4 PUSH1 0x1 PUSH1 0x1 PUSH1 0xA0 SHL SUB AND PUSH32 0x69CCEA10852AC51B01745414774B5AF302217E774786D2068296650B57BA03F2 DUP4 PUSH1 0x40 MLOAD PUSH2 0x67E SWAP2 SWAP1 PUSH2 0x2323 JUMP JUMPDEST PUSH1 0x40 MLOAD DUP1 SWAP2 SUB SWAP1 LOG3 POP POP POP JUMP JUMPDEST CALLER PUSH1 0x0 SWAP1 DUP2 MSTORE PUSH1 0x20 DUP2 SWAP1 MSTORE PUSH1 0x40 SWAP1 KECCAK256 SLOAD PUSH1 0xFF AND DUP1 ISZERO PUSH2 0x6C1 JUMPI POP CALLER PUSH1 0x0 SWAP1 DUP2 MSTORE PUSH1 0x20 DUP2 SWAP1 MSTORE PUSH1 0x40 SWAP1 KECCAK256 PUSH1 0x4 ADD SLOAD PUSH2 0x100 SWAP1 DIV PUSH1 0xFF AND JUMPDEST PUSH2 0x706 JUMPI PUSH1 0x40 MLOAD PUSH3 0x461BCD PUSH1 0xE5 SHL DUP2 MSTORE PUSH1 0x20 PUSH1 0x4 DUP3 ADD MSTORE PUSH1 0x16 PUSH1 0x24 DUP3 ADD MSTORE PUSH22 0x2737BA1030903B30B634B2103132B732B330B1BA37B9 PUSH1 0x51 SHL PUSH1 0x44 DUP3 ADD MSTORE PUSH1 0x64 ADD PUSH2 0x4F0 JUMP JUMPDEST PUSH1 0x0 JUMPDEST DUP2 DUP2 LT ISZERO PUSH2 0x8D6 JUMPI PUSH1 0x0 DUP4 DUP4 DUP4 DUP2 DUP2 LT PUSH2 0x725 JUMPI PUSH2 0x725 PUSH2 0x26FD JUMP JUMPDEST SWAP1 POP PUSH1 0x20 MUL ADD PUSH1 0x20 DUP2 ADD SWAP1 PUSH2 0x73A SWAP2 SWAP1 PUSH2 0x20FB JUMP JUMPDEST SWAP1 POP PUSH2 0x746 CALLER DUP3 PUSH2 0x51C JUMP JUMPDEST ISZERO PUSH2 0x793 JUMPI PUSH1 0x40 MLOAD PUSH3 0x461BCD PUSH1 0xE5 SHL DUP2 MSTORE PUSH1 0x20 PUSH1 0x4 DUP3 ADD MSTORE PUSH1 0x1A PUSH1 0x24 DUP3 ADD MSTORE PUSH32 0x42656E656669636961727920616C726561647920657869737473000000000000 PUSH1 0x44 DUP3 ADD MSTORE PUSH1 0x64 ADD PUSH2 0x4F0 JUMP JUMPDEST PUSH1 0x40 DUP1 MLOAD PUSH1 0x60 DUP2 ADD DUP3 MSTORE PUSH1 0x1 DUP2 MSTORE DUP2 MLOAD PUSH1 0x0 DUP1 DUP3 MSTORE PUSH1 0x20 DUP3 DUP2 ADD SWAP1 SWAP5 MSTORE SWAP2 SWAP3 DUP4 ADD SWAP2 PUSH2 0x7CF JUMP JUMPDEST PUSH1 0x60 DUP2 MSTORE PUSH1 0x20 ADD SWAP1 PUSH1 0x1 SWAP1 SUB SWAP1 DUP2 PUSH2 0x7BA JUMPI SWAP1 POP JUMPDEST POP DUP2 MSTORE PUSH1 0x40 DUP1 MLOAD PUSH1 0x20 DUP1 DUP3 ADD DUP4 MSTORE PUSH1 0x0 DUP1 DUP4 MSTORE SWAP4 DUP2 ADD SWAP2 SWAP1 SWAP2 MSTORE CALLER DUP4 MSTORE DUP3 DUP2 MSTORE DUP2 DUP4 KECCAK256 PUSH1 0x1 PUSH1 0x1 PUSH1 0xA0 SHL SUB DUP7 AND DUP5 MSTORE PUSH1 0x1 SWAP1 DUP2 ADD DUP3 MSTORE SWAP2 SWAP1 SWAP3 KECCAK256 DUP4 MLOAD DUP2 SLOAD PUSH1 0xFF NOT AND SWAP1 ISZERO ISZERO OR DUP2 SSTORE DUP4 DUP4 ADD MLOAD DUP1 MLOAD SWAP2 SWAP4 PUSH2 0x82E SWAP4 DUP6 ADD SWAP3 SWAP2 ADD SWAP1 PUSH2 0x2004 JUMP JUMPDEST POP PUSH1 0x40 DUP3 ADD MLOAD PUSH1 0x2 DUP3 ADD SWAP1 PUSH2 0x843 SWAP1 DUP3 PUSH2 0x263D JUMP JUMPDEST POP POP CALLER PUSH1 0x0 DUP2 DUP2 MSTORE PUSH1 0x1 PUSH1 0x20 DUP2 DUP2 MSTORE PUSH1 0x40 DUP1 DUP5 KECCAK256 DUP1 SLOAD SWAP4 DUP5 ADD DUP2 SSTORE DUP5 MSTORE SWAP1 DUP4 KECCAK256 SWAP1 SWAP2 ADD DUP1 SLOAD PUSH32 0xFFFFFFFFFFFFFFFFFFFFFFFF0000000000000000000000000000000000000000 AND PUSH1 0x1 PUSH1 0x1 PUSH1 0xA0 SHL SUB DUP8 AND SWAP1 DUP2 OR SWAP1 SWAP2 SSTORE SWAP1 MLOAD SWAP1 SWAP4 POP PUSH32 0xBB39C36A7502B7256E1A687254146A9A2EA7B146C77CB9E40EB0E2B8793781E1 SWAP2 SWAP1 LOG3 POP DUP1 PUSH2 0x8CE DUP2 PUSH2 0x2713 JUMP JUMPDEST SWAP2 POP POP PUSH2 0x709 JUMP JUMPDEST POP POP POP JUMP JUMPDEST CALLER PUSH1 0x0 SWAP1 DUP2 MSTORE PUSH1 0x20 DUP2 SWAP1 MSTORE PUSH1 0x40 SWAP1 KECCAK256 SLOAD PUSH1 0xFF AND DUP1 ISZERO PUSH2 0x911 JUMPI POP CALLER PUSH1 0x0 SWAP1 DUP2 MSTORE PUSH1 0x20 DUP2 SWAP1 MSTORE PUSH1 0x40 SWAP1 KECCAK256 PUSH1 0x4 ADD SLOAD PUSH2 0x100 SWAP1 DIV PUSH1 0xFF AND JUMPDEST PUSH2 0x956 JUMPI PUSH1 0x40 MLOAD PUSH3 0x461BCD PUSH1 0xE5 SHL DUP2 MSTORE PUSH1 0x20 PUSH1 0x4 DUP3 ADD MSTORE PUSH1 0x16 PUSH1 0x24 DUP3 ADD MSTORE PUSH22 0x2737BA1030903B30B634B2103132B732B330B1BA37B9 PUSH1 0x51 SHL PUSH1 0x44 DUP3 ADD MSTORE PUSH1 0x64 ADD PUSH2 0x4F0 JUMP JUMPDEST PUSH2 0x960 CALLER DUP3 PUSH2 0x51C JUMP JUMPDEST PUSH2 0x9A4 JUMPI PUSH1 0x40 MLOAD PUSH3 0x461BCD PUSH1 0xE5 SHL DUP2 MSTORE PUSH1 0x20 PUSH1 0x4 DUP3 ADD MSTORE PUSH1 0x15 PUSH1 0x24 DUP3 ADD MSTORE PUSH21 0x10995B99599A58DA585C9E481B9BDD08199BDD5B99 PUSH1 0x5A SHL PUSH1 0x44 DUP3 ADD MSTORE PUSH1 0x64 ADD PUSH2 0x4F0 JUMP JUMPDEST CALLER PUSH1 0x0 SWAP1 DUP2 MSTORE PUSH1 0x20 DUP2 DUP2 MSTORE PUSH1 0x40 DUP1 DUP4 KECCAK256 PUSH1 0x1 PUSH1 0x1 PUSH1 0xA0 SHL SUB DUP6 AND DUP5 MSTORE PUSH1 0x1 SWAP1 DUP2 ADD SWAP1 SWAP3 MSTORE DUP3 KECCAK256 DUP1 SLOAD PUSH1 0xFF NOT AND DUP2 SSTORE SWAP2 SWAP1 PUSH2 0x9E0 SWAP1 DUP4 ADD DUP3 PUSH2 0x205A JUMP JUMPDEST PUSH2 0x9EE PUSH1 0x2 DUP4 ADD PUSH1 0x0 PUSH2 0x2078 JUMP JUMPDEST POP POP PUSH1 0x40 MLOAD PUSH1 0x1 PUSH1 0x1 PUSH1 0xA0 SHL SUB DUP3 AND SWAP1 CALLER SWAP1 PUSH32 0x1A6590BD0CABBFCC7C86BEF99E1034054E179905CFCC294598FCD426C0922442 SWAP1 PUSH1 0x0 SWAP1 LOG3 POP JUMP JUMPDEST PUSH1 0x60 PUSH2 0xA35 DUP3 CALLER PUSH2 0x51C JUMP JUMPDEST ISZERO PUSH2 0xAE5 JUMPI PUSH1 0x1 PUSH1 0x1 PUSH1 0xA0 SHL SUB DUP3 AND PUSH1 0x0 SWAP1 DUP2 MSTORE PUSH1 0x20 DUP2 SWAP1 MSTORE PUSH1 0x40 SWAP1 KECCAK256 PUSH1 0x5 ADD DUP1 SLOAD PUSH2 0xA60 SWAP1 PUSH2 0x25B5 JUMP JUMPDEST DUP1 PUSH1 0x1F ADD PUSH1 0x20 DUP1 SWAP2 DIV MUL PUSH1 0x20 ADD PUSH1 0x40 MLOAD SWAP1 DUP2 ADD PUSH1 0x40 MSTORE DUP1 SWAP3 SWAP2 SWAP1 DUP2 DUP2 MSTORE PUSH1 0x20 ADD DUP3 DUP1 SLOAD PUSH2 0xA8C SWAP1 PUSH2 0x25B5 JUMP JUMPDEST DUP1 ISZERO PUSH2 0xAD9 JUMPI DUP1 PUSH1 0x1F LT PUSH2 0xAAE JUMPI PUSH2 0x100 DUP1 DUP4 SLOAD DIV MUL DUP4 MSTORE SWAP2 PUSH1 0x20 ADD SWAP2 PUSH2 0xAD9 JUMP JUMPDEST DUP3 ADD SWAP2 SWAP1 PUSH1 0x0 MSTORE PUSH1 0x20 PUSH1 0x0 KECCAK256 SWAP1 JUMPDEST DUP2 SLOAD DUP2 MSTORE SWAP1 PUSH1 0x1 ADD SWAP1 PUSH1 0x20 ADD DUP1 DUP4 GT PUSH2 0xABC JUMPI DUP3 SWAP1 SUB PUSH1 0x1F AND DUP3 ADD SWAP2 JUMPDEST POP POP POP POP POP SWAP1 POP SWAP2 SWAP1 POP JUMP JUMPDEST POP POP PUSH1 0x40 DUP1 MLOAD PUSH1 0x20 DUP2 ADD SWAP1 SWAP2 MSTORE PUSH1 0x0 DUP2 MSTORE SWAP1 JUMP JUMPDEST SWAP2 SWAP1 POP JUMP JUMPDEST CALLER PUSH1 0x0 SWAP1 DUP2 MSTORE PUSH1 0x20 DUP2 SWAP1 MSTORE PUSH1 0x40 SWAP1 KECCAK256 SLOAD PUSH1 0xFF AND DUP1 ISZERO PUSH2 0xB34 JUMPI POP CALLER PUSH1 0x0 SWAP1 DUP2 MSTORE PUSH1 0x20 DUP2 SWAP1 MSTORE PUSH1 0x40 SWAP1 KECCAK256 PUSH1 0x4 ADD SLOAD PUSH2 0x100 SWAP1 DIV PUSH1 0xFF AND JUMPDEST PUSH2 0xB79 JUMPI PUSH1 0x40 MLOAD PUSH3 0x461BCD PUSH1 0xE5 SHL DUP2 MSTORE PUSH1 0x20 PUSH1 0x4 DUP3 ADD MSTORE PUSH1 0x16 PUSH1 0x24 DUP3 ADD MSTORE PUSH22 0x2737BA1030903B30B634B2103132B732B330B1BA37B9 PUSH1 0x51 SHL PUSH1 0x44 DUP3 ADD MSTORE PUSH1 0x64 ADD PUSH2 0x4F0 JUMP JUMPDEST PUSH2 0xB83 CALLER DUP4 PUSH2 0x51C JUMP JUMPDEST PUSH2 0xBC7 JUMPI PUSH1 0x40 MLOAD PUSH3 0x461BCD PUSH1 0xE5 SHL DUP2 MSTORE PUSH1 0x20 PUSH1 0x4 DUP3 ADD MSTORE PUSH1 0x15 PUSH1 0x24 DUP3 ADD MSTORE PUSH21 0x10995B99599A58DA585C9E481B9BDD08199BDD5B99 PUSH1 0x5A SHL PUSH1 0x44 DUP3 ADD MSTORE PUSH1 0x64 ADD PUSH2 0x4F0 JUMP JUMPDEST CALLER PUSH1 0x0 SWAP1 DUP2 MSTORE PUSH1 0x20 DUP2 DUP2 MSTORE PUSH1 0x40 DUP1 DUP4 KECCAK256 PUSH1 0x1 PUSH1 0x1 PUSH1 0xA0 SHL SUB DUP7 AND DUP5 MSTORE PUSH1 0x1 SWAP1 DUP2 ADD SWAP1 SWAP3 MSTORE DUP3 KECCAK256 ADD SWAP1 JUMPDEST DUP2 SLOAD DUP2 LT ISZERO PUSH2 0xD4B JUMPI DUP3 PUSH1 0x40 MLOAD PUSH1 0x20 ADD PUSH2 0xC0A SWAP2 SWAP1 PUSH2 0x272C JUMP JUMPDEST PUSH1 0x40 MLOAD PUSH1 0x20 DUP2 DUP4 SUB SUB DUP2 MSTORE SWAP1 PUSH1 0x40 MSTORE DUP1 MLOAD SWAP1 PUSH1 0x20 ADD KECCAK256 DUP3 DUP3 DUP2 SLOAD DUP2 LT PUSH2 0xC32 JUMPI PUSH2 0xC32 PUSH2 0x26FD JUMP JUMPDEST SWAP1 PUSH1 0x0 MSTORE PUSH1 0x20 PUSH1 0x0 KECCAK256 ADD PUSH1 0x40 MLOAD PUSH1 0x20 ADD PUSH2 0xC4C SWAP2 SWAP1 PUSH2 0x2748 JUMP JUMPDEST PUSH1 0x40 MLOAD PUSH1 0x20 DUP2 DUP4 SUB SUB DUP2 MSTORE SWAP1 PUSH1 0x40 MSTORE DUP1 MLOAD SWAP1 PUSH1 0x20 ADD KECCAK256 SUB PUSH2 0xD39 JUMPI DUP2 SLOAD DUP3 SWAP1 PUSH2 0xC77 SWAP1 PUSH1 0x1 SWAP1 PUSH2 0x25A2 JUMP JUMPDEST DUP2 SLOAD DUP2 LT PUSH2 0xC87 JUMPI PUSH2 0xC87 PUSH2 0x26FD JUMP JUMPDEST SWAP1 PUSH1 0x0 MSTORE PUSH1 0x20 PUSH1 0x0 KECCAK256 ADD DUP3 DUP3 DUP2 SLOAD DUP2 LT PUSH2 0xCA3 JUMPI PUSH2 0xCA3 PUSH2 0x26FD JUMP JUMPDEST SWAP1 PUSH1 0x0 MSTORE PUSH1 0x20 PUSH1 0x0 KECCAK256 ADD SWAP1 DUP2 PUSH2 0xCB9 SWAP2 SWAP1 PUSH2 0x27BE JUMP JUMPDEST POP DUP2 DUP1 SLOAD DUP1 PUSH2 0xCCA JUMPI PUSH2 0xCCA PUSH2 0x2899 JUMP JUMPDEST PUSH1 0x1 SWAP1 SUB DUP2 DUP2 SWAP1 PUSH1 0x0 MSTORE PUSH1 0x20 PUSH1 0x0 KECCAK256 ADD PUSH1 0x0 PUSH2 0xCE6 SWAP2 SWAP1 PUSH2 0x2078 JUMP JUMPDEST SWAP1 SSTORE DUP4 PUSH1 0x1 PUSH1 0x1 PUSH1 0xA0 SHL SUB AND CALLER PUSH1 0x1 PUSH1 0x1 PUSH1 0xA0 SHL SUB AND PUSH32 0x4C13211CE3B2D0CB3E02A662CC071D6BE555042CA58D4D812B7B90E80D3250AC DUP6 PUSH1 0x40 MLOAD PUSH2 0xD2B SWAP2 SWAP1 PUSH2 0x2323 JUMP JUMPDEST PUSH1 0x40 MLOAD DUP1 SWAP2 SUB SWAP1 LOG3 POP POP POP POP JUMP JUMPDEST DUP1 PUSH2 0xD43 DUP2 PUSH2 0x2713 JUMP JUMPDEST SWAP2 POP POP PUSH2 0xBF0 JUMP JUMPDEST POP PUSH1 0x40 MLOAD PUSH3 0x461BCD PUSH1 0xE5 SHL DUP2 MSTORE PUSH1 0x20 PUSH1 0x4 DUP3 ADD MSTORE PUSH1 0x24 DUP1 DUP3 ADD MSTORE PUSH32 0x434944206E6F742061737369676E656420746F20746869732062656E65666963 PUSH1 0x44 DUP3 ADD MSTORE PUSH4 0x69617279 PUSH1 0xE0 SHL PUSH1 0x64 DUP3 ADD MSTORE PUSH1 0x84 ADD PUSH2 0x4F0 JUMP JUMPDEST PUSH1 0x1 PUSH1 0x1 PUSH1 0xA0 SHL SUB DUP2 AND PUSH1 0x0 SWAP1 DUP2 MSTORE PUSH1 0x20 DUP2 DUP2 MSTORE PUSH1 0x40 DUP1 DUP4 KECCAK256 CALLER DUP5 MSTORE PUSH1 0x1 ADD SWAP1 SWAP2 MSTORE SWAP1 KECCAK256 SLOAD PUSH1 0xFF AND PUSH2 0xE14 JUMPI PUSH1 0x40 MLOAD PUSH3 0x461BCD PUSH1 0xE5 SHL DUP2 MSTORE PUSH1 0x20 PUSH1 0x4 DUP3 ADD MSTORE PUSH1 0x17 PUSH1 0x24 DUP3 ADD MSTORE PUSH32 0x4E6F7420612076616C69642062656E6566696369617279000000000000000000 PUSH1 0x44 DUP3 ADD MSTORE PUSH1 0x64 ADD PUSH2 0x4F0 JUMP JUMPDEST PUSH1 0x1 PUSH1 0x1 PUSH1 0xA0 SHL SUB DUP2 AND PUSH1 0x0 SWAP1 DUP2 MSTORE PUSH1 0x20 DUP2 SWAP1 MSTORE PUSH1 0x40 SWAP1 KECCAK256 PUSH1 0x4 ADD SLOAD PUSH1 0xFF AND PUSH2 0xE70 JUMPI PUSH1 0x40 MLOAD CALLER SWAP1 PUSH1 0x1 PUSH1 0x1 PUSH1 0xA0 SHL SUB DUP4 AND SWAP1 PUSH32 0x67C4731BDC193862F421E091D18F46DF876BFE1B8B9AA97504F1D50D425B239D SWAP1 PUSH1 0x0 SWAP1 LOG3 POP JUMP JUMPDEST PUSH1 0x1 PUSH1 0x1 PUSH1 0xA0 SHL SUB DUP2 AND PUSH1 0x0 DUP2 DUP2 MSTORE PUSH1 0x20 DUP2 DUP2 MSTORE PUSH1 0x40 SWAP2 DUP3 SWAP1 KECCAK256 PUSH1 0x4 DUP2 ADD DUP1 SLOAD PUSH1 0xFF NOT AND SWAP1 SSTORE TIMESTAMP PUSH1 0x3 DUP3 ADD SSTORE PUSH1 0x2 ADD SLOAD SWAP2 MLOAD SWAP2 DUP3 MSTORE CALLER SWAP3 SWAP2 PUSH32 0x82595752291D0261DFB9B4B0C2307021C29C34E22FE0697B4840B529DC351BC3 SWAP2 ADD PUSH1 0x40 MLOAD DUP1 SWAP2 SUB SWAP1 LOG3 POP JUMP JUMPDEST CALLER PUSH1 0x0 SWAP1 DUP2 MSTORE PUSH1 0x20 DUP2 SWAP1 MSTORE PUSH1 0x40 SWAP1 KECCAK256 SLOAD PUSH1 0xFF AND PUSH2 0xF35 JUMPI PUSH1 0x40 MLOAD PUSH3 0x461BCD PUSH1 0xE5 SHL DUP2 MSTORE PUSH1 0x20 PUSH1 0x4 DUP3 ADD MSTORE PUSH1 0x19 PUSH1 0x24 DUP3 ADD MSTORE PUSH32 0x42656E65666163746F72206E6F74207265676973746572656400000000000000 PUSH1 0x44 DUP3 ADD MSTORE PUSH1 0x64 ADD PUSH2 0x4F0 JUMP JUMPDEST CALLER PUSH1 0x0 SWAP1 DUP2 MSTORE PUSH1 0x20 DUP2 SWAP1 MSTORE PUSH1 0x40 DUP1 DUP3 KECCAK256 DUP1 SLOAD PUSH1 0xFF NOT SWAP1 DUP2 AND SWAP1 SWAP2 SSTORE PUSH1 0x1 PUSH1 0x1 PUSH1 0xA0 SHL SUB DUP5 AND DUP4 MSTORE SWAP1 DUP3 KECCAK256 DUP1 SLOAD SWAP1 SWAP2 AND DUP2 SSTORE PUSH1 0x2 DUP2 ADD DUP3 SWAP1 SSTORE PUSH1 0x3 DUP2 ADD DUP3 SWAP1 SSTORE PUSH1 0x4 DUP2 ADD DUP1 SLOAD PUSH2 0xFFFF NOT AND SWAP1 SSTORE SWAP1 PUSH2 0x8D6 PUSH1 0x5 DUP4 ADD DUP3 PUSH2 0x2078 JUMP JUMPDEST PUSH1 0x1 PUSH1 0x1 PUSH1 0xA0 SHL SUB DUP3 AND PUSH1 0x0 SWAP1 DUP2 MSTORE PUSH1 0x20 DUP2 SWAP1 MSTORE PUSH1 0x40 DUP2 KECCAK256 SLOAD DUP2 SWAP1 DUP2 SWAP1 PUSH1 0x60 SWAP1 PUSH1 0xFF AND PUSH2 0xFFE JUMPI PUSH1 0x40 MLOAD PUSH3 0x461BCD PUSH1 0xE5 SHL DUP2 MSTORE PUSH1 0x20 PUSH1 0x4 DUP3 ADD MSTORE PUSH1 0x19 PUSH1 0x24 DUP3 ADD MSTORE PUSH32 0x42656E65666163746F7220646F6573206E6F7420657869737400000000000000 PUSH1 0x44 DUP3 ADD MSTORE PUSH1 0x64 ADD PUSH2 0x4F0 JUMP JUMPDEST PUSH1 0x1 PUSH1 0x1 PUSH1 0xA0 SHL SUB DUP7 AND PUSH1 0x0 SWAP1 DUP2 MSTORE PUSH1 0x20 DUP2 SWAP1 MSTORE PUSH1 0x40 SWAP1 KECCAK256 PUSH1 0x4 ADD SLOAD PUSH1 0xFF AND ISZERO SWAP4 POP DUP4 PUSH2 0x102E JUMPI PUSH1 0x0 SWAP3 POP PUSH2 0x103A JUMP JUMPDEST PUSH2 0x1037 DUP7 PUSH2 0x30A JUMP JUMPDEST SWAP3 POP JUMPDEST PUSH1 0x1 PUSH1 0x1 PUSH1 0xA0 SHL SUB DUP7 DUP2 AND PUSH1 0x0 SWAP1 DUP2 MSTORE PUSH1 0x20 DUP2 DUP2 MSTORE PUSH1 0x40 DUP1 DUP4 KECCAK256 PUSH1 0x4 DUP2 ADD SLOAD SWAP5 DUP11 AND DUP5 MSTORE PUSH1 0x1 ADD SWAP1 SWAP2 MSTORE SWAP1 KECCAK256 PUSH1 0x2 ADD DUP1 SLOAD PUSH2 0x100 SWAP1 SWAP3 DIV PUSH1 0xFF AND SWAP4 POP SWAP1 PUSH2 0x1080 SWAP1 PUSH2 0x25B5 JUMP JUMPDEST DUP1 PUSH1 0x1F ADD PUSH1 0x20 DUP1 SWAP2 DIV MUL PUSH1 0x20 ADD PUSH1 0x40 MLOAD SWAP1 DUP2 ADD PUSH1 0x40 MSTORE DUP1 SWAP3 SWAP2 SWAP1 DUP2 DUP2 MSTORE PUSH1 0x20 ADD DUP3 DUP1 SLOAD PUSH2 0x10AC SWAP1 PUSH2 0x25B5 JUMP JUMPDEST DUP1 ISZERO PUSH2 0x10F9 JUMPI DUP1 PUSH1 0x1F LT PUSH2 0x10CE JUMPI PUSH2 0x100 DUP1 DUP4 SLOAD DIV MUL DUP4 MSTORE SWAP2 PUSH1 0x20 ADD SWAP2 PUSH2 0x10F9 JUMP JUMPDEST DUP3 ADD SWAP2 SWAP1 PUSH1 0x0 MSTORE PUSH1 0x20 PUSH1 0x0 KECCAK256 SWAP1 JUMPDEST DUP2 SLOAD DUP2 MSTORE SWAP1 PUSH1 0x1 ADD SWAP1 PUSH1 0x20 ADD DUP1 DUP4 GT PUSH2 0x10DC JUMPI DUP3 SWAP1 SUB PUSH1 0x1F AND DUP3 ADD SWAP2 JUMPDEST POP POP POP POP POP SWAP1 POP PUSH32 0xE092C8EAB045FA06EB05FE062C2D0A1721905A7AD6ACB7EED9C804D956EA9FD DUP5 DUP5 DUP5 DUP5 PUSH1 0x40 MLOAD PUSH2 0x1135 SWAP5 SWAP4 SWAP3 SWAP2 SWAP1 PUSH2 0x2384 JUMP JUMPDEST PUSH1 0x40 MLOAD DUP1 SWAP2 SUB SWAP1 LOG1 SWAP3 SWAP6 SWAP2 SWAP5 POP SWAP3 POP JUMP JUMPDEST PUSH1 0x1 PUSH1 0x1 PUSH1 0xA0 SHL SUB DUP3 AND PUSH1 0x0 SWAP1 DUP2 MSTORE PUSH1 0x20 DUP2 SWAP1 MSTORE PUSH1 0x40 SWAP1 KECCAK256 PUSH1 0x5 ADD PUSH2 0x116B DUP3 DUP3 PUSH2 0x263D JUMP JUMPDEST POP DUP2 PUSH1 0x1 PUSH1 0x1 PUSH1 0xA0 SHL SUB AND PUSH32 0xF20D3EA0A54B197EC507921ED526707368E27AD44B86BF2D4B11888B7009DE6B DUP3 PUSH1 0x40 MLOAD PUSH2 0x11A5 SWAP2 SWAP1 PUSH2 0x2323 JUMP JUMPDEST PUSH1 0x40 MLOAD DUP1 SWAP2 SUB SWAP1 LOG2 POP POP JUMP JUMPDEST CALLER PUSH1 0x0 SWAP1 DUP2 MSTORE PUSH1 0x20 DUP2 SWAP1 MSTORE PUSH1 0x40 SWAP1 KECCAK256 SLOAD PUSH1 0xFF AND DUP1 ISZERO PUSH2 0x11E7 JUMPI POP CALLER PUSH1 0x0 SWAP1 DUP2 MSTORE PUSH1 0x20 DUP2 SWAP1 MSTORE PUSH1 0x40 SWAP1 KECCAK256 PUSH1 0x4 ADD SLOAD PUSH2 0x100 SWAP1 DIV PUSH1 0xFF AND JUMPDEST PUSH2 0x122C JUMPI PUSH1 0x40 MLOAD PUSH3 0x461BCD PUSH1 0xE5 SHL DUP2 MSTORE PUSH1 0x20 PUSH1 0x4 DUP3 ADD MSTORE PUSH1 0x16 PUSH1 0x24 DUP3 ADD MSTORE PUSH22 0x2737BA1030903B30B634B2103132B732B330B1BA37B9 PUSH1 0x51 SHL PUSH1 0x44 DUP3 ADD MSTORE PUSH1 0x64 ADD PUSH2 0x4F0 JUMP JUMPDEST CALLER PUSH1 0x0 SWAP1 DUP2 MSTORE PUSH1 0x20 DUP2 SWAP1 MSTORE PUSH1 0x40 SWAP1 KECCAK256 PUSH1 0x3 ADD SLOAD ISZERO PUSH2 0x1356 JUMPI PUSH2 0x124D CALLER PUSH2 0x3F8 JUMP JUMPDEST ISZERO PUSH2 0x12E3 JUMPI CALLER PUSH1 0x1 PUSH1 0x1 PUSH1 0xA0 SHL SUB AND PUSH32 0x793324A6F079E577F4A4646C7EC753EFD3BEDDC2F4CE07BFAE5F105C449AC356 PUSH1 0x40 MLOAD PUSH2 0x12BB SWAP1 PUSH1 0x20 DUP1 DUP3 MSTORE PUSH1 0x13 SWAP1 DUP3 ADD MSTORE PUSH32 0x42656E65666163746F7220697320616C69766500000000000000000000000000 PUSH1 0x40 DUP3 ADD MSTORE PUSH1 0x60 ADD SWAP1 JUMP JUMPDEST PUSH1 0x40 MLOAD DUP1 SWAP2 SUB SWAP1 LOG2 PUSH2 0x12CB PUSH2 0x1DF4 JUMP JUMPDEST CALLER PUSH1 0x0 SWAP1 DUP2 MSTORE PUSH1 0x20 DUP2 SWAP1 MSTORE PUSH1 0x40 SWAP1 KECCAK256 TIMESTAMP PUSH1 0x3 SWAP1 SWAP2 ADD SSTORE JUMP JUMPDEST CALLER PUSH1 0x1 PUSH1 0x1 PUSH1 0xA0 SHL SUB AND PUSH32 0x5A68FA7D6B655A3E592D5D99AC82863424750E9D262C902F30F9E56655E7A856 PUSH1 0x40 MLOAD PUSH2 0x134C SWAP1 PUSH1 0x20 DUP1 DUP3 MSTORE PUSH1 0x12 SWAP1 DUP3 ADD MSTORE PUSH32 0x42656E65666163746F7220697320646561640000000000000000000000000000 PUSH1 0x40 DUP3 ADD MSTORE PUSH1 0x60 ADD SWAP1 JUMP JUMPDEST PUSH1 0x40 MLOAD DUP1 SWAP2 SUB SWAP1 LOG2 JUMP JUMPDEST CALLER PUSH1 0x1 PUSH1 0x1 PUSH1 0xA0 SHL SUB AND PUSH32 0x793324A6F079E577F4A4646C7EC753EFD3BEDDC2F4CE07BFAE5F105C449AC356 PUSH1 0x40 MLOAD PUSH2 0x12BB SWAP1 PUSH1 0x20 DUP1 DUP3 MSTORE PUSH1 0x13 SWAP1 DUP3 ADD MSTORE PUSH32 0x42656E65666163746F7220697320616C69766500000000000000000000000000 PUSH1 0x40 DUP3 ADD MSTORE PUSH1 0x60 ADD SWAP1 JUMP JUMPDEST CALLER PUSH1 0x0 SWAP1 DUP2 MSTORE PUSH1 0x20 DUP2 SWAP1 MSTORE PUSH1 0x40 SWAP1 KECCAK256 SLOAD PUSH1 0xFF AND DUP1 ISZERO PUSH2 0x13F5 JUMPI POP CALLER PUSH1 0x0 SWAP1 DUP2 MSTORE PUSH1 0x20 DUP2 SWAP1 MSTORE PUSH1 0x40 SWAP1 KECCAK256 PUSH1 0x4 ADD SLOAD PUSH2 0x100 SWAP1 DIV PUSH1 0xFF AND JUMPDEST PUSH2 0x143A JUMPI PUSH1 0x40 MLOAD PUSH3 0x461BCD PUSH1 0xE5 SHL DUP2 MSTORE PUSH1 0x20 PUSH1 0x4 DUP3 ADD MSTORE PUSH1 0x16 PUSH1 0x24 DUP3 ADD MSTORE PUSH22 0x2737BA1030903B30B634B2103132B732B330B1BA37B9 PUSH1 0x51 SHL PUSH1 0x44 DUP3 ADD MSTORE PUSH1 0x64 ADD PUSH2 0x4F0 JUMP JUMPDEST PUSH2 0x1444 CALLER DUP4 PUSH2 0x51C JUMP JUMPDEST PUSH2 0x1488 JUMPI PUSH1 0x40 MLOAD PUSH3 0x461BCD PUSH1 0xE5 SHL DUP2 MSTORE PUSH1 0x20 PUSH1 0x4 DUP3 ADD MSTORE PUSH1 0x15 PUSH1 0x24 DUP3 ADD MSTORE PUSH21 0x10995B99599A58DA585C9E481B9BDD08199BDD5B99 PUSH1 0x5A SHL PUSH1 0x44 DUP3 ADD MSTORE PUSH1 0x64 ADD PUSH2 0x4F0 JUMP JUMPDEST CALLER PUSH1 0x0 SWAP1 DUP2 MSTORE PUSH1 0x20 DUP2 DUP2 MSTORE PUSH1 0x40 DUP1 DUP4 KECCAK256 PUSH1 0x1 PUSH1 0x1 PUSH1 0xA0 SHL SUB DUP7 AND DUP5 MSTORE PUSH1 0x1 SWAP1 DUP2 ADD SWAP1 SWAP3 MSTORE DUP3 KECCAK256 ADD SWAP1 JUMPDEST DUP3 MLOAD DUP2 LT ISZERO PUSH2 0x1692 JUMPI PUSH1 0x0 DUP1 JUMPDEST DUP4 SLOAD DUP2 LT ISZERO PUSH2 0x1569 JUMPI DUP5 DUP4 DUP2 MLOAD DUP2 LT PUSH2 0x14D9 JUMPI PUSH2 0x14D9 PUSH2 0x26FD JUMP JUMPDEST PUSH1 0x20 MUL PUSH1 0x20 ADD ADD MLOAD PUSH1 0x40 MLOAD PUSH1 0x20 ADD PUSH2 0x14F1 SWAP2 SWAP1 PUSH2 0x272C JUMP JUMPDEST PUSH1 0x40 MLOAD PUSH1 0x20 DUP2 DUP4 SUB SUB DUP2 MSTORE SWAP1 PUSH1 0x40 MSTORE DUP1 MLOAD SWAP1 PUSH1 0x20 ADD KECCAK256 DUP5 DUP3 DUP2 SLOAD DUP2 LT PUSH2 0x1519 JUMPI PUSH2 0x1519 PUSH2 0x26FD JUMP JUMPDEST SWAP1 PUSH1 0x0 MSTORE PUSH1 0x20 PUSH1 0x0 KECCAK256 ADD PUSH1 0x40 MLOAD PUSH1 0x20 ADD PUSH2 0x1533 SWAP2 SWAP1 PUSH2 0x2748 JUMP JUMPDEST PUSH1 0x40 MLOAD PUSH1 0x20 DUP2 DUP4 SUB SUB DUP2 MSTORE SWAP1 PUSH1 0x40 MSTORE DUP1 MLOAD SWAP1 PUSH1 0x20 ADD KECCAK256 SUB PUSH2 0x1557 JUMPI PUSH1 0x1 SWAP2 POP PUSH2 0x1569 JUMP JUMPDEST DUP1 PUSH2 0x1561 DUP2 PUSH2 0x2713 JUMP JUMPDEST SWAP2 POP POP PUSH2 0x14BE JUMP JUMPDEST POP DUP1 ISZERO PUSH2 0x15DE JUMPI PUSH1 0x40 MLOAD PUSH3 0x461BCD PUSH1 0xE5 SHL DUP2 MSTORE PUSH1 0x20 PUSH1 0x4 DUP3 ADD MSTORE PUSH1 0x28 PUSH1 0x24 DUP3 ADD MSTORE PUSH32 0x43494420616C72656164792061737369676E656420746F20746869732062656E PUSH1 0x44 DUP3 ADD MSTORE PUSH32 0x6566696369617279000000000000000000000000000000000000000000000000 PUSH1 0x64 DUP3 ADD MSTORE PUSH1 0x84 ADD PUSH2 0x4F0 JUMP JUMPDEST DUP3 DUP5 DUP4 DUP2 MLOAD DUP2 LT PUSH2 0x15F1 JUMPI PUSH2 0x15F1 PUSH2 0x26FD JUMP JUMPDEST PUSH1 0x20 SWAP1 DUP2 MUL SWAP2 SWAP1 SWAP2 ADD DUP2 ADD MLOAD DUP3 SLOAD PUSH1 0x1 DUP2 ADD DUP5 SSTORE PUSH1 0x0 SWAP4 DUP5 MSTORE SWAP2 SWAP1 SWAP3 KECCAK256 ADD SWAP1 PUSH2 0x161A SWAP1 DUP3 PUSH2 0x263D JUMP JUMPDEST POP DUP5 PUSH1 0x1 PUSH1 0x1 PUSH1 0xA0 SHL SUB AND CALLER PUSH1 0x1 PUSH1 0x1 PUSH1 0xA0 SHL SUB AND PUSH32 0xA1BB52B874769D5C17CDE30E708E8F7180BB949F70E77CAF0DA68D25F9A1A510 DUP7 DUP6 DUP2 MLOAD DUP2 LT PUSH2 0x1662 JUMPI PUSH2 0x1662 PUSH2 0x26FD JUMP JUMPDEST PUSH1 0x20 MUL PUSH1 0x20 ADD ADD MLOAD PUSH1 0x40 MLOAD PUSH2 0x1677 SWAP2 SWAP1 PUSH2 0x2323 JUMP JUMPDEST PUSH1 0x40 MLOAD DUP1 SWAP2 SUB SWAP1 LOG3 POP DUP1 PUSH2 0x168A DUP2 PUSH2 0x2713 JUMP JUMPDEST SWAP2 POP POP PUSH2 0x14B1 JUMP JUMPDEST POP POP POP POP JUMP JUMPDEST PUSH1 0x60 PUSH2 0x16A4 DUP4 DUP4 PUSH2 0x51C JUMP JUMPDEST PUSH2 0x16E8 JUMPI PUSH1 0x40 MLOAD PUSH3 0x461BCD PUSH1 0xE5 SHL DUP2 MSTORE PUSH1 0x20 PUSH1 0x4 DUP3 ADD MSTORE PUSH1 0x15 PUSH1 0x24 DUP3 ADD MSTORE PUSH21 0x10995B99599A58DA585C9E481B9BDD08199BDD5B99 PUSH1 0x5A SHL PUSH1 0x44 DUP3 ADD MSTORE PUSH1 0x64 ADD PUSH2 0x4F0 JUMP JUMPDEST PUSH1 0x1 PUSH1 0x1 PUSH1 0xA0 SHL SUB DUP4 AND PUSH1 0x0 SWAP1 DUP2 MSTORE PUSH1 0x20 DUP2 DUP2 MSTORE PUSH1 0x40 DUP1 DUP4 KECCAK256 CALLER DUP5 MSTORE PUSH1 0x1 ADD SWAP1 SWAP2 MSTORE SWAP1 KECCAK256 SLOAD PUSH1 0xFF AND DUP1 ISZERO PUSH2 0x173D JUMPI POP PUSH1 0x1 PUSH1 0x1 PUSH1 0xA0 SHL SUB DUP4 AND PUSH1 0x0 SWAP1 DUP2 MSTORE PUSH1 0x20 DUP2 SWAP1 MSTORE PUSH1 0x40 SWAP1 KECCAK256 PUSH1 0x4 ADD SLOAD PUSH2 0x100 SWAP1 DIV PUSH1 0xFF AND ISZERO JUMPDEST PUSH2 0x1789 JUMPI PUSH1 0x40 MLOAD PUSH3 0x461BCD PUSH1 0xE5 SHL DUP2 MSTORE PUSH1 0x20 PUSH1 0x4 DUP3 ADD MSTORE PUSH1 0x11 PUSH1 0x24 DUP3 ADD MSTORE PUSH32 0x4E6F2061636365737320746F2043494473000000000000000000000000000000 PUSH1 0x44 DUP3 ADD MSTORE PUSH1 0x64 ADD PUSH2 0x4F0 JUMP JUMPDEST PUSH1 0x1 PUSH1 0x1 PUSH1 0xA0 SHL SUB DUP1 DUP5 AND PUSH1 0x0 SWAP1 DUP2 MSTORE PUSH1 0x20 DUP2 DUP2 MSTORE PUSH1 0x40 DUP1 DUP4 KECCAK256 SWAP4 DUP7 AND DUP4 MSTORE PUSH1 0x1 SWAP4 DUP5 ADD DUP3 MSTORE DUP1 DUP4 KECCAK256 SWAP1 SWAP4 ADD DUP1 SLOAD DUP5 MLOAD DUP2 DUP5 MUL DUP2 ADD DUP5 ADD SWAP1 SWAP6 MSTORE DUP1 DUP6 MSTORE SWAP1 SWAP3 SWAP1 SWAP2 DUP5 ADD JUMPDEST DUP3 DUP3 LT ISZERO PUSH2 0x1879 JUMPI DUP4 DUP3 SWAP1 PUSH1 0x0 MSTORE PUSH1 0x20 PUSH1 0x0 KECCAK256 ADD DUP1 SLOAD PUSH2 0x17EC SWAP1 PUSH2 0x25B5 JUMP JUMPDEST DUP1 PUSH1 0x1F ADD PUSH1 0x20 DUP1 SWAP2 DIV MUL PUSH1 0x20 ADD PUSH1 0x40 MLOAD SWAP1 DUP2 ADD PUSH1 0x40 MSTORE DUP1 SWAP3 SWAP2 SWAP1 DUP2 DUP2 MSTORE PUSH1 0x20 ADD DUP3 DUP1 SLOAD PUSH2 0x1818 SWAP1 PUSH2 0x25B5 JUMP JUMPDEST DUP1 ISZERO PUSH2 0x1865 JUMPI DUP1 PUSH1 0x1F LT PUSH2 0x183A JUMPI PUSH2 0x100 DUP1 DUP4 SLOAD DIV MUL DUP4 MSTORE SWAP2 PUSH1 0x20 ADD SWAP2 PUSH2 0x1865 JUMP JUMPDEST DUP3 ADD SWAP2 SWAP1 PUSH1 0x0 MSTORE PUSH1 0x20 PUSH1 0x0 KECCAK256 SWAP1 JUMPDEST DUP2 SLOAD DUP2 MSTORE SWAP1 PUSH1 0x1 ADD SWAP1 PUSH1 0x20 ADD DUP1 DUP4 GT PUSH2 0x1848 JUMPI DUP3 SWAP1 SUB PUSH1 0x1F AND DUP3 ADD SWAP2 JUMPDEST POP POP POP POP POP DUP2 MSTORE PUSH1 0x20 ADD SWAP1 PUSH1 0x1 ADD SWAP1 PUSH2 0x17CD JUMP JUMPDEST POP POP POP POP SWAP1 POP SWAP3 SWAP2 POP POP JUMP JUMPDEST PUSH1 0x1 PUSH1 0x1 PUSH1 0xA0 SHL SUB DUP2 AND PUSH1 0x0 SWAP1 DUP2 MSTORE PUSH1 0x20 DUP2 SWAP1 MSTORE PUSH1 0x40 DUP2 KECCAK256 SLOAD PUSH1 0x60 SWAP1 DUP3 SWAP1 DUP2 SWAP1 DUP4 SWAP1 DUP2 SWAP1 PUSH1 0xFF AND PUSH2 0x18F8 JUMPI PUSH1 0x40 MLOAD PUSH3 0x461BCD PUSH1 0xE5 SHL DUP2 MSTORE PUSH1 0x20 PUSH1 0x4 DUP3 ADD MSTORE PUSH1 0x19 PUSH1 0x24 DUP3 ADD MSTORE PUSH32 0x42656E65666163746F7220646F6573206E6F7420657869737400000000000000 PUSH1 0x44 DUP3 ADD MSTORE PUSH1 0x64 ADD PUSH2 0x4F0 JUMP JUMPDEST PUSH1 0x1 PUSH1 0x1 PUSH1 0xA0 SHL SUB DUP8 AND PUSH1 0x0 SWAP1 DUP2 MSTORE PUSH1 0x20 DUP2 DUP2 MSTORE PUSH1 0x40 DUP1 DUP4 KECCAK256 PUSH1 0x4 ADD SLOAD PUSH1 0x1 SWAP1 SWAP3 MSTORE SWAP1 SWAP2 KECCAK256 SLOAD PUSH1 0xFF SWAP1 SWAP2 AND ISZERO SWAP7 POP PUSH8 0xFFFFFFFFFFFFFFFF DUP2 GT ISZERO PUSH2 0x193E JUMPI PUSH2 0x193E PUSH2 0x2149 JUMP JUMPDEST PUSH1 0x40 MLOAD SWAP1 DUP1 DUP3 MSTORE DUP1 PUSH1 0x20 MUL PUSH1 0x20 ADD DUP3 ADD PUSH1 0x40 MSTORE DUP1 ISZERO PUSH2 0x1967 JUMPI DUP2 PUSH1 0x20 ADD PUSH1 0x20 DUP3 MUL DUP1 CALLDATASIZE DUP4 CALLDATACOPY ADD SWAP1 POP JUMPDEST POP SWAP5 POP PUSH1 0x0 PUSH2 0x1975 DUP9 PUSH2 0x1F14 JUMP JUMPDEST SWAP1 POP DUP1 PUSH8 0xFFFFFFFFFFFFFFFF DUP2 GT ISZERO PUSH2 0x1990 JUMPI PUSH2 0x1990 PUSH2 0x2149 JUMP JUMPDEST PUSH1 0x40 MLOAD SWAP1 DUP1 DUP3 MSTORE DUP1 PUSH1 0x20 MUL PUSH1 0x20 ADD DUP3 ADD PUSH1 0x40 MSTORE DUP1 ISZERO PUSH2 0x19C3 JUMPI DUP2 PUSH1 0x20 ADD JUMPDEST PUSH1 0x60 DUP2 MSTORE PUSH1 0x20 ADD SWAP1 PUSH1 0x1 SWAP1 SUB SWAP1 DUP2 PUSH2 0x19AE JUMPI SWAP1 POP JUMPDEST POP SWAP2 POP PUSH1 0x0 DUP1 PUSH2 0x19E8 DUP11 PUSH1 0x1 PUSH1 0x1 PUSH1 0xA0 SHL SUB AND PUSH1 0x0 SWAP1 DUP2 MSTORE PUSH1 0x1 PUSH1 0x20 MSTORE PUSH1 0x40 SWAP1 KECCAK256 SLOAD SWAP1 JUMP JUMPDEST SWAP1 POP PUSH1 0x0 JUMPDEST DUP2 DUP2 LT ISZERO PUSH2 0x1BD4 JUMPI PUSH1 0x1 PUSH1 0x1 PUSH1 0xA0 SHL SUB DUP12 AND PUSH1 0x0 SWAP1 DUP2 MSTORE PUSH1 0x1 PUSH1 0x20 MSTORE PUSH1 0x40 DUP2 KECCAK256 DUP1 SLOAD DUP4 SWAP1 DUP2 LT PUSH2 0x1A1F JUMPI PUSH2 0x1A1F PUSH2 0x26FD JUMP JUMPDEST PUSH1 0x0 SWAP2 DUP3 MSTORE PUSH1 0x20 DUP1 DUP4 KECCAK256 SWAP1 SWAP2 ADD SLOAD PUSH1 0x1 PUSH1 0x1 PUSH1 0xA0 SHL SUB DUP16 DUP2 AND DUP5 MSTORE DUP4 DUP4 MSTORE PUSH1 0x40 DUP1 DUP6 KECCAK256 SWAP2 SWAP1 SWAP3 AND DUP1 DUP6 MSTORE PUSH1 0x1 SWAP2 SWAP1 SWAP2 ADD SWAP1 SWAP3 MSTORE SWAP1 SWAP2 KECCAK256 SLOAD SWAP1 SWAP2 POP PUSH1 0xFF AND ISZERO PUSH2 0x1BC1 JUMPI PUSH1 0x1 PUSH1 0x1 PUSH1 0xA0 SHL SUB DUP1 DUP14 AND PUSH1 0x0 SWAP1 DUP2 MSTORE PUSH1 0x20 DUP2 DUP2 MSTORE PUSH1 0x40 DUP1 DUP4 KECCAK256 SWAP4 DUP6 AND DUP4 MSTORE PUSH1 0x1 SWAP4 DUP5 ADD DUP3 MSTORE DUP1 DUP4 KECCAK256 SWAP1 SWAP4 ADD DUP1 SLOAD DUP5 MLOAD DUP2 DUP5 MUL DUP2 ADD DUP5 ADD SWAP1 SWAP6 MSTORE DUP1 DUP6 MSTORE SWAP3 SWAP4 SWAP3 SWAP1 SWAP2 DUP5 SWAP1 DUP5 ADD JUMPDEST DUP3 DUP3 LT ISZERO PUSH2 0x1B54 JUMPI DUP4 DUP3 SWAP1 PUSH1 0x0 MSTORE PUSH1 0x20 PUSH1 0x0 KECCAK256 ADD DUP1 SLOAD PUSH2 0x1AC7 SWAP1 PUSH2 0x25B5 JUMP JUMPDEST DUP1 PUSH1 0x1F ADD PUSH1 0x20 DUP1 SWAP2 DIV MUL PUSH1 0x20 ADD PUSH1 0x40 MLOAD SWAP1 DUP2 ADD PUSH1 0x40 MSTORE DUP1 SWAP3 SWAP2 SWAP1 DUP2 DUP2 MSTORE PUSH1 0x20 ADD DUP3 DUP1 SLOAD PUSH2 0x1AF3 SWAP1 PUSH2 0x25B5 JUMP JUMPDEST DUP1 ISZERO PUSH2 0x1B40 JUMPI DUP1 PUSH1 0x1F LT PUSH2 0x1B15 JUMPI PUSH2 0x100 DUP1 DUP4 SLOAD DIV MUL DUP4 MSTORE SWAP2 PUSH1 0x20 ADD SWAP2 PUSH2 0x1B40 JUMP JUMPDEST DUP3 ADD SWAP2 SWAP1 PUSH1 0x0 MSTORE PUSH1 0x20 PUSH1 0x0 KECCAK256 SWAP1 JUMPDEST DUP2 SLOAD DUP2 MSTORE SWAP1 PUSH1 0x1 ADD SWAP1 PUSH1 0x20 ADD DUP1 DUP4 GT PUSH2 0x1B23 JUMPI DUP3 SWAP1 SUB PUSH1 0x1F AND DUP3 ADD SWAP2 JUMPDEST POP POP POP POP POP DUP2 MSTORE PUSH1 0x20 ADD SWAP1 PUSH1 0x1 ADD SWAP1 PUSH2 0x1AA8 JUMP JUMPDEST POP POP POP POP SWAP1 POP PUSH1 0x0 JUMPDEST DUP2 MLOAD DUP2 LT ISZERO PUSH2 0x1BBE JUMPI DUP2 DUP2 DUP2 MLOAD DUP2 LT PUSH2 0x1B78 JUMPI PUSH2 0x1B78 PUSH2 0x26FD JUMP JUMPDEST PUSH1 0x20 MUL PUSH1 0x20 ADD ADD MLOAD DUP9 DUP8 DUP2 MLOAD DUP2 LT PUSH2 0x1B92 JUMPI PUSH2 0x1B92 PUSH2 0x26FD JUMP JUMPDEST PUSH1 0x20 MUL PUSH1 0x20 ADD ADD DUP2 SWAP1 MSTORE POP DUP6 DUP1 PUSH2 0x1BA8 SWAP1 PUSH2 0x2713 JUMP JUMPDEST SWAP7 POP POP DUP1 DUP1 PUSH2 0x1BB6 SWAP1 PUSH2 0x2713 JUMP JUMPDEST SWAP2 POP POP PUSH2 0x1B5D JUMP JUMPDEST POP POP JUMPDEST POP DUP1 PUSH2 0x1BCC DUP2 PUSH2 0x2713 JUMP JUMPDEST SWAP2 POP POP PUSH2 0x19ED JUMP JUMPDEST POP PUSH1 0x1 PUSH1 0x1 PUSH1 0xA0 SHL SUB DUP11 AND PUSH1 0x0 SWAP1 DUP2 MSTORE PUSH1 0x20 DUP2 SWAP1 MSTORE PUSH1 0x40 SWAP1 KECCAK256 PUSH1 0x4 ADD SLOAD PUSH1 0xFF AND ISZERO PUSH2 0x1C02 JUMPI PUSH1 0x0 SWAP7 POP PUSH2 0x1C0E JUMP JUMPDEST PUSH2 0x1C0B DUP11 PUSH2 0x30A JUMP JUMPDEST SWAP7 POP JUMPDEST PUSH1 0x1 PUSH1 0x1 PUSH1 0xA0 SHL SUB DUP11 AND PUSH1 0x0 SWAP1 DUP2 MSTORE PUSH1 0x20 DUP2 SWAP1 MSTORE PUSH1 0x40 SWAP1 KECCAK256 PUSH1 0x4 DUP2 ADD SLOAD PUSH1 0x5 SWAP1 SWAP2 ADD DUP1 SLOAD PUSH2 0x100 SWAP1 SWAP3 DIV PUSH1 0xFF AND SWAP8 POP SWAP1 PUSH2 0x1C47 SWAP1 PUSH2 0x25B5 JUMP JUMPDEST DUP1 PUSH1 0x1F ADD PUSH1 0x20 DUP1 SWAP2 DIV MUL PUSH1 0x20 ADD PUSH1 0x40 MLOAD SWAP1 DUP2 ADD PUSH1 0x40 MSTORE DUP1 SWAP3 SWAP2 SWAP1 DUP2 DUP2 MSTORE PUSH1 0x20 ADD DUP3 DUP1 SLOAD PUSH2 0x1C73 SWAP1 PUSH2 0x25B5 JUMP JUMPDEST DUP1 ISZERO PUSH2 0x1CC0 JUMPI DUP1 PUSH1 0x1F LT PUSH2 0x1C95 JUMPI PUSH2 0x100 DUP1 DUP4 SLOAD DIV MUL DUP4 MSTORE SWAP2 PUSH1 0x20 ADD SWAP2 PUSH2 0x1CC0 JUMP JUMPDEST DUP3 ADD SWAP2 SWAP1 PUSH1 0x0 MSTORE PUSH1 0x20 PUSH1 0x0 KECCAK256 SWAP1 JUMPDEST DUP2 SLOAD DUP2 MSTORE SWAP1 PUSH1 0x1 ADD SWAP1 PUSH1 0x20 ADD DUP1 DUP4 GT PUSH2 0x1CA3 JUMPI DUP3 SWAP1 SUB PUSH1 0x1F AND DUP3 ADD SWAP2 JUMPDEST POP POP POP POP POP SWAP5 POP PUSH32 0x4BC4F0D667F981D69E9500F47D56B517891311C1B6816BB75E9F46B3F680692C DUP10 DUP10 DUP10 DUP10 DUP10 DUP10 PUSH1 0x40 MLOAD PUSH2 0x1D00 SWAP7 SWAP6 SWAP5 SWAP4 SWAP3 SWAP2 SWAP1 PUSH2 0x24F5 JUMP JUMPDEST PUSH1 0x40 MLOAD DUP1 SWAP2 SUB SWAP1 LOG1 POP POP POP SWAP2 SWAP4 SWAP6 POP SWAP2 SWAP4 SWAP6 JUMP JUMPDEST PUSH1 0x60 PUSH2 0x1D20 DUP4 DUP4 PUSH2 0x51C JUMP JUMPDEST ISZERO PUSH2 0x1DDF JUMPI PUSH1 0x1 PUSH1 0x1 PUSH1 0xA0 SHL SUB DUP1 DUP5 AND PUSH1 0x0 SWAP1 DUP2 MSTORE PUSH1 0x20 DUP2 DUP2 MSTORE PUSH1 0x40 DUP1 DUP4 KECCAK256 SWAP4 DUP7 AND DUP4 MSTORE PUSH1 0x1 SWAP1 SWAP4 ADD SWAP1 MSTORE KECCAK256 PUSH1 0x2 ADD DUP1 SLOAD PUSH2 0x1D5A SWAP1 PUSH2 0x25B5 JUMP JUMPDEST DUP1 PUSH1 0x1F ADD PUSH1 0x20 DUP1 SWAP2 DIV MUL PUSH1 0x20 ADD PUSH1 0x40 MLOAD SWAP1 DUP2 ADD PUSH1 0x40 MSTORE DUP1 SWAP3 SWAP2 SWAP1 DUP2 DUP2 MSTORE PUSH1 0x20 ADD DUP3 DUP1 SLOAD PUSH2 0x1D86 SWAP1 PUSH2 0x25B5 JUMP JUMPDEST DUP1 ISZERO PUSH2 0x1DD3 JUMPI DUP1 PUSH1 0x1F LT PUSH2 0x1DA8 JUMPI PUSH2 0x100 DUP1 DUP4 SLOAD DIV MUL DUP4 MSTORE SWAP2 PUSH1 0x20 ADD SWAP2 PUSH2 0x1DD3 JUMP JUMPDEST DUP3 ADD SWAP2 SWAP1 PUSH1 0x0 MSTORE PUSH1 0x20 PUSH1 0x0 KECCAK256 SWAP1 JUMPDEST DUP2 SLOAD DUP2 MSTORE SWAP1 PUSH1 0x1 ADD SWAP1 PUSH1 0x20 ADD DUP1 DUP4 GT PUSH2 0x1DB6 JUMPI DUP3 SWAP1 SUB PUSH1 0x1F AND DUP3 ADD SWAP2 JUMPDEST POP POP POP POP POP SWAP1 POP PUSH2 0x548 JUMP JUMPDEST POP PUSH1 0x40 DUP1 MLOAD PUSH1 0x20 DUP2 ADD SWAP1 SWAP2 MSTORE PUSH1 0x0 DUP2 MSTORE PUSH2 0x548 JUMP JUMPDEST CALLER PUSH1 0x0 SWAP1 DUP2 MSTORE PUSH1 0x20 DUP2 SWAP1 MSTORE PUSH1 0x40 SWAP1 KECCAK256 SLOAD PUSH1 0xFF AND DUP1 ISZERO PUSH2 0x1E2A JUMPI POP CALLER PUSH1 0x0 SWAP1 DUP2 MSTORE PUSH1 0x20 DUP2 SWAP1 MSTORE PUSH1 0x40 SWAP1 KECCAK256 PUSH1 0x4 ADD SLOAD PUSH2 0x100 SWAP1 DIV PUSH1 0xFF AND JUMPDEST PUSH2 0x1E6F JUMPI PUSH1 0x40 MLOAD PUSH3 0x461BCD PUSH1 0xE5 SHL DUP2 MSTORE PUSH1 0x20 PUSH1 0x4 DUP3 ADD MSTORE PUSH1 0x16 PUSH1 0x24 DUP3 ADD MSTORE PUSH22 0x2737BA1030903B30B634B2103132B732B330B1BA37B9 PUSH1 0x51 SHL PUSH1 0x44 DUP3 ADD MSTORE PUSH1 0x64 ADD PUSH2 0x4F0 JUMP JUMPDEST CALLER PUSH1 0x0 SWAP1 DUP2 MSTORE PUSH1 0x20 DUP2 SWAP1 MSTORE PUSH1 0x40 SWAP1 KECCAK256 PUSH1 0x4 ADD SLOAD PUSH1 0xFF AND ISZERO PUSH2 0x1EB9 JUMPI PUSH1 0x40 MLOAD CALLER SWAP1 DUP2 SWAP1 PUSH32 0x439C5AAF7691CB4808DBD2A240323CE9EC0D04D66DDF65FFD5F88EBD60FA745B SWAP1 PUSH1 0x0 SWAP1 LOG3 JUMP JUMPDEST CALLER PUSH1 0x0 DUP2 DUP2 MSTORE PUSH1 0x20 DUP2 SWAP1 MSTORE PUSH1 0x40 SWAP1 DUP2 SWAP1 KECCAK256 PUSH1 0x4 ADD DUP1 SLOAD PUSH1 0xFF NOT AND PUSH1 0x1 OR SWAP1 SSTORE MLOAD DUP2 SWAP1 PUSH32 0x9BAA855D20DE9B1A4DB454F55B09D1DB5F42F0871BBEA3B0C699146ADE171625 SWAP1 PUSH2 0x1F0A SWAP1 TIMESTAMP DUP2 MSTORE PUSH1 0x20 ADD SWAP1 JUMP JUMPDEST PUSH1 0x40 MLOAD DUP1 SWAP2 SUB SWAP1 LOG3 JUMP JUMPDEST PUSH1 0x0 DUP1 DUP1 PUSH2 0x1F37 DUP5 PUSH1 0x1 PUSH1 0x1 PUSH1 0xA0 SHL SUB AND PUSH1 0x0 SWAP1 DUP2 MSTORE PUSH1 0x1 PUSH1 0x20 MSTORE PUSH1 0x40 SWAP1 KECCAK256 SLOAD SWAP1 JUMP JUMPDEST SWAP1 POP PUSH1 0x0 JUMPDEST DUP2 DUP2 LT ISZERO PUSH2 0x1FFB JUMPI PUSH1 0x1 PUSH1 0x1 PUSH1 0xA0 SHL SUB DUP6 AND PUSH1 0x0 SWAP1 DUP2 MSTORE PUSH1 0x1 PUSH1 0x20 MSTORE PUSH1 0x40 DUP2 KECCAK256 DUP1 SLOAD DUP4 SWAP1 DUP2 LT PUSH2 0x1F6E JUMPI PUSH2 0x1F6E PUSH2 0x26FD JUMP JUMPDEST PUSH1 0x0 SWAP2 DUP3 MSTORE PUSH1 0x20 DUP1 DUP4 KECCAK256 SWAP1 SWAP2 ADD SLOAD PUSH1 0x1 PUSH1 0x1 PUSH1 0xA0 SHL SUB DUP10 DUP2 AND DUP5 MSTORE DUP4 DUP4 MSTORE PUSH1 0x40 DUP1 DUP6 KECCAK256 SWAP2 SWAP1 SWAP3 AND DUP1 DUP6 MSTORE PUSH1 0x1 SWAP2 SWAP1 SWAP2 ADD SWAP1 SWAP3 MSTORE SWAP1 SWAP2 KECCAK256 SLOAD SWAP1 SWAP2 POP PUSH1 0xFF AND ISZERO PUSH2 0x1FE8 JUMPI PUSH1 0x1 PUSH1 0x1 PUSH1 0xA0 SHL SUB DUP1 DUP8 AND PUSH1 0x0 SWAP1 DUP2 MSTORE PUSH1 0x20 DUP2 DUP2 MSTORE PUSH1 0x40 DUP1 DUP4 KECCAK256 SWAP4 DUP6 AND DUP4 MSTORE PUSH1 0x1 SWAP4 DUP5 ADD SWAP1 SWAP2 MSTORE SWAP1 KECCAK256 ADD SLOAD PUSH2 0x1FE5 SWAP1 DUP6 PUSH2 0x28AF JUMP JUMPDEST SWAP4 POP JUMPDEST POP DUP1 PUSH2 0x1FF3 DUP2 PUSH2 0x2713 JUMP JUMPDEST SWAP2 POP POP PUSH2 0x1F3C JUMP JUMPDEST POP SWAP1 SWAP4 SWAP3 POP POP POP JUMP JUMPDEST DUP3 DUP1 SLOAD DUP3 DUP3 SSTORE SWAP1 PUSH1 0x0 MSTORE PUSH1 0x20 PUSH1 0x0 KECCAK256 SWAP1 DUP2 ADD SWAP3 DUP3 ISZERO PUSH2 0x204A JUMPI SWAP2 PUSH1 0x20 MUL DUP3 ADD JUMPDEST DUP3 DUP2 GT ISZERO PUSH2 0x204A JUMPI DUP3 MLOAD DUP3 SWAP1 PUSH2 0x203A SWAP1 DUP3 PUSH2 0x263D JUMP JUMPDEST POP SWAP2 PUSH1 0x20 ADD SWAP2 SWAP1 PUSH1 0x1 ADD SWAP1 PUSH2 0x2024 JUMP JUMPDEST POP PUSH2 0x2056 SWAP3 SWAP2 POP PUSH2 0x20B2 JUMP JUMPDEST POP SWAP1 JUMP JUMPDEST POP DUP1 SLOAD PUSH1 0x0 DUP3 SSTORE SWAP1 PUSH1 0x0 MSTORE PUSH1 0x20 PUSH1 0x0 KECCAK256 SWAP1 DUP2 ADD SWAP1 PUSH2 0x5AD SWAP2 SWAP1 PUSH2 0x20B2 JUMP JUMPDEST POP DUP1 SLOAD PUSH2 0x2084 SWAP1 PUSH2 0x25B5 JUMP JUMPDEST PUSH1 0x0 DUP3 SSTORE DUP1 PUSH1 0x1F LT PUSH2 0x2094 JUMPI POP POP JUMP JUMPDEST PUSH1 0x1F ADD PUSH1 0x20 SWAP1 DIV SWAP1 PUSH1 0x0 MSTORE PUSH1 0x20 PUSH1 0x0 KECCAK256 SWAP1 DUP2 ADD SWAP1 PUSH2 0x5AD SWAP2 SWAP1 PUSH2 0x20CF JUMP JUMPDEST DUP1 DUP3 GT ISZERO PUSH2 0x2056 JUMPI PUSH1 0x0 PUSH2 0x20C6 DUP3 DUP3 PUSH2 0x2078 JUMP JUMPDEST POP PUSH1 0x1 ADD PUSH2 0x20B2 JUMP JUMPDEST JUMPDEST DUP1 DUP3 GT ISZERO PUSH2 0x2056 JUMPI PUSH1 0x0 DUP2 SSTORE PUSH1 0x1 ADD PUSH2 0x20D0 JUMP JUMPDEST DUP1 CALLDATALOAD PUSH1 0x1 PUSH1 0x1 PUSH1 0xA0 SHL SUB DUP2 AND DUP2 EQ PUSH2 0xAF9 JUMPI PUSH1 0x0 DUP1 REVERT JUMPDEST PUSH1 0x0 PUSH1 0x20 DUP3 DUP5 SUB SLT ISZERO PUSH2 0x210D JUMPI PUSH1 0x0 DUP1 REVERT JUMPDEST PUSH2 0x3F1 DUP3 PUSH2 0x20E4 JUMP JUMPDEST PUSH1 0x0 DUP1 PUSH1 0x40 DUP4 DUP6 SUB SLT ISZERO PUSH2 0x2129 JUMPI PUSH1 0x0 DUP1 REVERT JUMPDEST PUSH2 0x2132 DUP4 PUSH2 0x20E4 JUMP JUMPDEST SWAP2 POP PUSH2 0x2140 PUSH1 0x20 DUP5 ADD PUSH2 0x20E4 JUMP JUMPDEST SWAP1 POP SWAP3 POP SWAP3 SWAP1 POP JUMP JUMPDEST PUSH4 0x4E487B71 PUSH1 0xE0 SHL PUSH1 0x0 MSTORE PUSH1 0x41 PUSH1 0x4 MSTORE PUSH1 0x24 PUSH1 0x0 REVERT JUMPDEST PUSH1 0x40 MLOAD PUSH1 0x1F DUP3 ADD PUSH1 0x1F NOT AND DUP2 ADD PUSH8 0xFFFFFFFFFFFFFFFF DUP2 GT DUP3 DUP3 LT OR ISZERO PUSH2 0x2188 JUMPI PUSH2 0x2188 PUSH2 0x2149 JUMP JUMPDEST PUSH1 0x40 MSTORE SWAP2 SWAP1 POP JUMP JUMPDEST PUSH1 0x0 DUP3 PUSH1 0x1F DUP4 ADD SLT PUSH2 0x21A1 JUMPI PUSH1 0x0 DUP1 REVERT JUMPDEST DUP2 CALLDATALOAD PUSH8 0xFFFFFFFFFFFFFFFF DUP2 GT ISZERO PUSH2 0x21BB JUMPI PUSH2 0x21BB PUSH2 0x2149 JUMP JUMPDEST PUSH2 0x21CE PUSH1 0x1F DUP3 ADD PUSH1 0x1F NOT AND PUSH1 0x20 ADD PUSH2 0x215F JUMP JUMPDEST DUP2 DUP2 MSTORE DUP5 PUSH1 0x20 DUP4 DUP7 ADD ADD GT ISZERO PUSH2 0x21E3 JUMPI PUSH1 0x0 DUP1 REVERT JUMPDEST DUP2 PUSH1 0x20 DUP6 ADD PUSH1 0x20 DUP4 ADD CALLDATACOPY PUSH1 0x0 SWAP2 DUP2 ADD PUSH1 0x20 ADD SWAP2 SWAP1 SWAP2 MSTORE SWAP4 SWAP3 POP POP POP JUMP JUMPDEST PUSH1 0x0 DUP1 PUSH1 0x0 PUSH1 0x60 DUP5 DUP7 SUB SLT ISZERO PUSH2 0x2215 JUMPI PUSH1 0x0 DUP1 REVERT JUMPDEST PUSH2 0x221E DUP5 PUSH2 0x20E4 JUMP JUMPDEST SWAP3 POP PUSH2 0x222C PUSH1 0x20 DUP6 ADD PUSH2 0x20E4 JUMP JUMPDEST SWAP2 POP PUSH1 0x40 DUP5 ADD CALLDATALOAD PUSH8 0xFFFFFFFFFFFFFFFF DUP2 GT ISZERO PUSH2 0x2248 JUMPI PUSH1 0x0 DUP1 REVERT JUMPDEST PUSH2 0x2254 DUP7 DUP3 DUP8 ADD PUSH2 0x2190 JUMP JUMPDEST SWAP2 POP POP SWAP3 POP SWAP3 POP SWAP3 JUMP JUMPDEST PUSH1 0x0 DUP1 PUSH1 0x20 DUP4 DUP6 SUB SLT ISZERO PUSH2 0x2271 JUMPI PUSH1 0x0 DUP1 REVERT JUMPDEST DUP3 CALLDATALOAD PUSH8 0xFFFFFFFFFFFFFFFF DUP1 DUP3 GT ISZERO PUSH2 0x2289 JUMPI PUSH1 0x0 DUP1 REVERT JUMPDEST DUP2 DUP6 ADD SWAP2 POP DUP6 PUSH1 0x1F DUP4 ADD SLT PUSH2 0x229D JUMPI PUSH1 0x0 DUP1 REVERT JUMPDEST DUP2 CALLDATALOAD DUP2 DUP2 GT ISZERO PUSH2 0x22AC JUMPI PUSH1 0x0 DUP1 REVERT JUMPDEST DUP7 PUSH1 0x20 DUP3 PUSH1 0x5 SHL DUP6 ADD ADD GT ISZERO PUSH2 0x22C1 JUMPI PUSH1 0x0 DUP1 REVERT JUMPDEST PUSH1 0x20 SWAP3 SWAP1 SWAP3 ADD SWAP7 SWAP2 SWAP6 POP SWAP1 SWAP4 POP POP POP POP JUMP JUMPDEST PUSH1 0x0 JUMPDEST DUP4 DUP2 LT ISZERO PUSH2 0x22EE JUMPI DUP2 DUP2 ADD MLOAD DUP4 DUP3 ADD MSTORE PUSH1 0x20 ADD PUSH2 0x22D6 JUMP JUMPDEST POP POP PUSH1 0x0 SWAP2 ADD MSTORE JUMP JUMPDEST PUSH1 0x0 DUP2 MLOAD DUP1 DUP5 MSTORE PUSH2 0x230F DUP2 PUSH1 0x20 DUP7 ADD PUSH1 0x20 DUP7 ADD PUSH2 0x22D3 JUMP JUMPDEST PUSH1 0x1F ADD PUSH1 0x1F NOT AND SWAP3 SWAP1 SWAP3 ADD PUSH1 0x20 ADD SWAP3 SWAP2 POP POP JUMP JUMPDEST PUSH1 0x20 DUP2 MSTORE PUSH1 0x0 PUSH2 0x3F1 PUSH1 0x20 DUP4 ADD DUP5 PUSH2 0x22F7 JUMP JUMPDEST PUSH1 0x0 DUP1 PUSH1 0x40 DUP4 DUP6 SUB SLT ISZERO PUSH2 0x2349 JUMPI PUSH1 0x0 DUP1 REVERT JUMPDEST PUSH2 0x2352 DUP4 PUSH2 0x20E4 JUMP JUMPDEST SWAP2 POP PUSH1 0x20 DUP4 ADD CALLDATALOAD PUSH8 0xFFFFFFFFFFFFFFFF DUP2 GT ISZERO PUSH2 0x236E JUMPI PUSH1 0x0 DUP1 REVERT JUMPDEST PUSH2 0x237A DUP6 DUP3 DUP7 ADD PUSH2 0x2190 JUMP JUMPDEST SWAP2 POP POP SWAP3 POP SWAP3 SWAP1 POP JUMP JUMPDEST DUP5 ISZERO ISZERO DUP2 MSTORE DUP4 PUSH1 0x20 DUP3 ADD MSTORE DUP3 ISZERO ISZERO PUSH1 0x40 DUP3 ADD MSTORE PUSH1 0x80 PUSH1 0x60 DUP3 ADD MSTORE PUSH1 0x0 PUSH2 0x23AD PUSH1 0x80 DUP4 ADD DUP5 PUSH2 0x22F7 JUMP JUMPDEST SWAP7 SWAP6 POP POP POP POP POP POP JUMP JUMPDEST PUSH1 0x0 DUP1 PUSH1 0x40 DUP4 DUP6 SUB SLT ISZERO PUSH2 0x23CA JUMPI PUSH1 0x0 DUP1 REVERT JUMPDEST PUSH2 0x23D3 DUP4 PUSH2 0x20E4 JUMP JUMPDEST SWAP2 POP PUSH1 0x20 DUP1 DUP5 ADD CALLDATALOAD PUSH8 0xFFFFFFFFFFFFFFFF DUP1 DUP3 GT ISZERO PUSH2 0x23F1 JUMPI PUSH1 0x0 DUP1 REVERT JUMPDEST DUP2 DUP7 ADD SWAP2 POP DUP7 PUSH1 0x1F DUP4 ADD SLT PUSH2 0x2405 JUMPI PUSH1 0x0 DUP1 REVERT JUMPDEST DUP2 CALLDATALOAD DUP2 DUP2 GT ISZERO PUSH2 0x2417 JUMPI PUSH2 0x2417 PUSH2 0x2149 JUMP JUMPDEST DUP1 PUSH1 0x5 SHL PUSH2 0x2426 DUP6 DUP3 ADD PUSH2 0x215F JUMP JUMPDEST SWAP2 DUP3 MSTORE DUP4 DUP2 ADD DUP6 ADD SWAP2 DUP6 DUP2 ADD SWAP1 DUP11 DUP5 GT ISZERO PUSH2 0x2440 JUMPI PUSH1 0x0 DUP1 REVERT JUMPDEST DUP7 DUP7 ADD SWAP3 POP JUMPDEST DUP4 DUP4 LT ISZERO PUSH2 0x247C JUMPI DUP3 CALLDATALOAD DUP6 DUP2 GT ISZERO PUSH2 0x245E JUMPI PUSH1 0x0 DUP1 DUP2 REVERT JUMPDEST PUSH2 0x246C DUP13 DUP10 DUP4 DUP11 ADD ADD PUSH2 0x2190 JUMP JUMPDEST DUP4 MSTORE POP SWAP2 DUP7 ADD SWAP2 SWAP1 DUP7 ADD SWAP1 PUSH2 0x2446 JUMP JUMPDEST DUP1 SWAP8 POP POP POP POP POP POP POP POP SWAP3 POP SWAP3 SWAP1 POP JUMP JUMPDEST PUSH1 0x0 DUP2 MLOAD DUP1 DUP5 MSTORE PUSH1 0x20 DUP1 DUP6 ADD DUP1 DUP2 SWAP7 POP DUP4 PUSH1 0x5 SHL DUP2 ADD SWAP2 POP DUP3 DUP7 ADD PUSH1 0x0 JUMPDEST DUP6 DUP2 LT ISZERO PUSH2 0x24D5 JUMPI DUP3 DUP5 SUB DUP10 MSTORE PUSH2 0x24C3 DUP5 DUP4 MLOAD PUSH2 0x22F7 JUMP JUMPDEST SWAP9 DUP6 ADD SWAP9 SWAP4 POP SWAP1 DUP5 ADD SWAP1 PUSH1 0x1 ADD PUSH2 0x24AB JUMP JUMPDEST POP SWAP2 SWAP8 SWAP7 POP POP POP POP POP POP POP JUMP JUMPDEST PUSH1 0x20 DUP2 MSTORE PUSH1 0x0 PUSH2 0x3F1 PUSH1 0x20 DUP4 ADD DUP5 PUSH2 0x248D JUMP JUMPDEST PUSH1 0x0 PUSH1 0xC0 DUP3 ADD DUP9 ISZERO ISZERO DUP4 MSTORE PUSH1 0x20 PUSH1 0xC0 DUP2 DUP6 ADD MSTORE DUP2 DUP10 MLOAD DUP1 DUP5 MSTORE PUSH1 0xE0 DUP7 ADD SWAP2 POP DUP3 DUP12 ADD SWAP4 POP PUSH1 0x0 JUMPDEST DUP2 DUP2 LT ISZERO PUSH2 0x2541 JUMPI DUP5 MLOAD PUSH1 0x1 PUSH1 0x1 PUSH1 0xA0 SHL SUB AND DUP4 MSTORE SWAP4 DUP4 ADD SWAP4 SWAP2 DUP4 ADD SWAP2 PUSH1 0x1 ADD PUSH2 0x251C JUMP JUMPDEST POP POP DUP9 PUSH1 0x40 DUP7 ADD MSTORE PUSH2 0x2557 PUSH1 0x60 DUP7 ADD DUP10 ISZERO ISZERO SWAP1 MSTORE JUMP JUMPDEST DUP5 DUP2 SUB PUSH1 0x80 DUP7 ADD MSTORE PUSH2 0x2569 DUP2 DUP9 PUSH2 0x22F7 JUMP JUMPDEST SWAP3 POP POP POP DUP3 DUP2 SUB PUSH1 0xA0 DUP5 ADD MSTORE PUSH2 0x257F DUP2 DUP6 PUSH2 0x248D JUMP JUMPDEST SWAP10 SWAP9 POP POP POP POP POP POP POP POP POP JUMP JUMPDEST PUSH4 0x4E487B71 PUSH1 0xE0 SHL PUSH1 0x0 MSTORE PUSH1 0x11 PUSH1 0x4 MSTORE PUSH1 0x24 PUSH1 0x0 REVERT JUMPDEST DUP2 DUP2 SUB DUP2 DUP2 GT ISZERO PUSH2 0x548 JUMPI PUSH2 0x548 PUSH2 0x258C JUMP JUMPDEST PUSH1 0x1 DUP2 DUP2 SHR SWAP1 DUP3 AND DUP1 PUSH2 0x25C9 JUMPI PUSH1 0x7F DUP3 AND SWAP2 POP JUMPDEST PUSH1 0x20 DUP3 LT DUP2 SUB PUSH2 0x25E9 JUMPI PUSH4 0x4E487B71 PUSH1 0xE0 SHL PUSH1 0x0 MSTORE PUSH1 0x22 PUSH1 0x4 MSTORE PUSH1 0x24 PUSH1 0x0 REVERT JUMPDEST POP SWAP2 SWAP1 POP JUMP JUMPDEST PUSH1 0x1F DUP3 GT ISZERO PUSH2 0x8D6 JUMPI PUSH1 0x0 DUP2 DUP2 MSTORE PUSH1 0x20 DUP2 KECCAK256 PUSH1 0x1F DUP6 ADD PUSH1 0x5 SHR DUP2 ADD PUSH1 0x20 DUP7 LT ISZERO PUSH2 0x2616 JUMPI POP DUP1 JUMPDEST PUSH1 0x1F DUP6 ADD PUSH1 0x5 SHR DUP3 ADD SWAP2 POP JUMPDEST DUP2 DUP2 LT ISZERO PUSH2 0x2635 JUMPI DUP3 DUP2 SSTORE PUSH1 0x1 ADD PUSH2 0x2622 JUMP JUMPDEST POP POP POP POP POP POP JUMP JUMPDEST DUP2 MLOAD PUSH8 0xFFFFFFFFFFFFFFFF DUP2 GT ISZERO PUSH2 0x2657 JUMPI PUSH2 0x2657 PUSH2 0x2149 JUMP JUMPDEST PUSH2 0x266B DUP2 PUSH2 0x2665 DUP5 SLOAD PUSH2 0x25B5 JUMP JUMPDEST DUP5 PUSH2 0x25EF JUMP JUMPDEST PUSH1 0x20 DUP1 PUSH1 0x1F DUP4 GT PUSH1 0x1 DUP2 EQ PUSH2 0x26A0 JUMPI PUSH1 0x0 DUP5 ISZERO PUSH2 0x2688 JUMPI POP DUP6 DUP4 ADD MLOAD JUMPDEST PUSH1 0x0 NOT PUSH1 0x3 DUP7 SWAP1 SHL SHR NOT AND PUSH1 0x1 DUP6 SWAP1 SHL OR DUP6 SSTORE PUSH2 0x2635 JUMP JUMPDEST PUSH1 0x0 DUP6 DUP2 MSTORE PUSH1 0x20 DUP2 KECCAK256 PUSH1 0x1F NOT DUP7 AND SWAP2 JUMPDEST DUP3 DUP2 LT ISZERO PUSH2 0x26CF JUMPI DUP9 DUP7 ADD MLOAD DUP3 SSTORE SWAP5 DUP5 ADD SWAP5 PUSH1 0x1 SWAP1 SWAP2 ADD SWAP1 DUP5 ADD PUSH2 0x26B0 JUMP JUMPDEST POP DUP6 DUP3 LT ISZERO PUSH2 0x26ED JUMPI DUP8 DUP6 ADD MLOAD PUSH1 0x0 NOT PUSH1 0x3 DUP9 SWAP1 SHL PUSH1 0xF8 AND SHR NOT AND DUP2 SSTORE JUMPDEST POP POP POP POP POP PUSH1 0x1 SWAP1 DUP2 SHL ADD SWAP1 SSTORE POP JUMP JUMPDEST PUSH4 0x4E487B71 PUSH1 0xE0 SHL PUSH1 0x0 MSTORE PUSH1 0x32 PUSH1 0x4 MSTORE PUSH1 0x24 PUSH1 0x0 REVERT JUMPDEST PUSH1 0x0 PUSH1 0x1 DUP3 ADD PUSH2 0x2725 JUMPI PUSH2 0x2725 PUSH2 0x258C JUMP JUMPDEST POP PUSH1 0x1 ADD SWAP1 JUMP JUMPDEST PUSH1 0x0 DUP3 MLOAD PUSH2 0x273E DUP2 DUP5 PUSH1 0x20 DUP8 ADD PUSH2 0x22D3 JUMP JUMPDEST SWAP2 SWAP1 SWAP2 ADD SWAP3 SWAP2 POP POP JUMP JUMPDEST PUSH1 0x0 DUP1 DUP4 SLOAD PUSH2 0x2756 DUP2 PUSH2 0x25B5 JUMP JUMPDEST PUSH1 0x1 DUP3 DUP2 AND DUP1 ISZERO PUSH2 0x276E JUMPI PUSH1 0x1 DUP2 EQ PUSH2 0x2783 JUMPI PUSH2 0x27B2 JUMP JUMPDEST PUSH1 0xFF NOT DUP5 AND DUP8 MSTORE DUP3 ISZERO ISZERO DUP4 MUL DUP8 ADD SWAP5 POP PUSH2 0x27B2 JUMP JUMPDEST DUP8 PUSH1 0x0 MSTORE PUSH1 0x20 DUP1 PUSH1 0x0 KECCAK256 PUSH1 0x0 JUMPDEST DUP6 DUP2 LT ISZERO PUSH2 0x27A9 JUMPI DUP2 SLOAD DUP11 DUP3 ADD MSTORE SWAP1 DUP5 ADD SWAP1 DUP3 ADD PUSH2 0x2790 JUMP JUMPDEST POP POP POP DUP3 DUP8 ADD SWAP5 POP JUMPDEST POP SWAP3 SWAP7 SWAP6 POP POP POP POP POP POP JUMP JUMPDEST DUP2 DUP2 SUB PUSH2 0x27C9 JUMPI POP POP JUMP JUMPDEST PUSH2 0x27D3 DUP3 SLOAD PUSH2 0x25B5 JUMP JUMPDEST PUSH8 0xFFFFFFFFFFFFFFFF DUP2 GT ISZERO PUSH2 0x27EB JUMPI PUSH2 0x27EB PUSH2 0x2149 JUMP JUMPDEST PUSH2 0x27F9 DUP2 PUSH2 0x2665 DUP5 SLOAD PUSH2 0x25B5 JUMP JUMPDEST PUSH1 0x0 PUSH1 0x1F DUP3 GT PUSH1 0x1 DUP2 EQ PUSH2 0x282D JUMPI PUSH1 0x0 DUP4 ISZERO PUSH2 0x2815 JUMPI POP DUP5 DUP3 ADD SLOAD JUMPDEST PUSH1 0x0 NOT PUSH1 0x3 DUP6 SWAP1 SHL SHR NOT AND PUSH1 0x1 DUP5 SWAP1 SHL OR DUP5 SSTORE PUSH2 0x2892 JUMP JUMPDEST PUSH1 0x0 DUP6 DUP2 MSTORE PUSH1 0x20 SWAP1 KECCAK256 PUSH1 0x1F NOT DUP5 AND SWAP1 PUSH1 0x0 DUP7 DUP2 MSTORE PUSH1 0x20 SWAP1 KECCAK256 DUP5 JUMPDEST DUP4 DUP2 LT ISZERO PUSH2 0x2867 JUMPI DUP3 DUP7 ADD SLOAD DUP3 SSTORE PUSH1 0x1 SWAP6 DUP7 ADD SWAP6 SWAP1 SWAP2 ADD SWAP1 PUSH1 0x20 ADD PUSH2 0x2847 JUMP JUMPDEST POP DUP6 DUP4 LT ISZERO PUSH2 0x2885 JUMPI DUP2 DUP6 ADD SLOAD PUSH1 0x0 NOT PUSH1 0x3 DUP9 SWAP1 SHL PUSH1 0xF8 AND SHR NOT AND DUP2 SSTORE JUMPDEST POP POP POP PUSH1 0x1 DUP4 PUSH1 0x1 SHL ADD DUP5 SSTORE JUMPDEST POP POP POP POP POP JUMP JUMPDEST PUSH4 0x4E487B71 PUSH1 0xE0 SHL PUSH1 0x0 MSTORE PUSH1 0x31 PUSH1 0x4 MSTORE PUSH1 0x24 PUSH1 0x0 REVERT JUMPDEST DUP1 DUP3 ADD DUP1 DUP3 GT ISZERO PUSH2 0x548 JUMPI PUSH2 0x548 PUSH2 0x258C JUMP INVALID LOG2 PUSH5 0x6970667358 0x22 SLT KECCAK256 0xC8 DUP14 SWAP5 BALANCE 0xDA 0xB4 LOG4 0xFB 0xE3 0xB1 0x2A CODECOPY 0xD3 DELEGATECALL PUSH10 0x4367148F54876A451DB1 0xBB 0x2F EXTCODEHASH 0xEA BLOCKHASH MLOAD LOG0 PUSH5 0x736F6C6343 STOP ADDMOD GT STOP CALLER "
    },
    "gasEstimates": {
      "creation": {
        "codeDepositCost": "2097600",
        "executionCost": "2229",
        "totalCost": "2099829"
      },
      "external": {
        "addBenefactorPublicKey(address,string)": "infinite",
        "addBeneficiaries(address[])": "infinite",
        "addBeneficiaryPublicKey(address,address,string)": "infinite",
        "addIpfsCIDs(address,string[])": "infinite",
        "checkAliveStatus(address)": "infinite",
        "enableSwitch(address)": "55227",
        "getBenefactorData(address)": "infinite",
        "getBenefactorPublicKey(address)": "infinite",
        "getBeneficiaryData(address,address)": "infinite",
        "getBeneficiaryPublicKey(address,address)": "infinite",
        "getCIDs(address,address)": "infinite",
        "getRemainingCountdownTime(address)": "infinite",
        "getSwitchStatus(address)": "4856",
        "isBeneficiary(address,address)": "infinite",
        "removeBenefactor(address)": "infinite",
        "removeBeneficiary(address)": "infinite",
        "removeIpfsCID(address,string)": "infinite",
        "respondToSwitch()": "infinite",
        "setBenefactor()": "infinite"
      },
      "internal": {
        "disableSwitch()": "infinite",
        "getBeneficiariesCount(address)": "infinite",
        "getTotalBeneficiaryCIDsCount(address)": "infinite"
      }
    },
    "methodIdentifiers": {
      "addBenefactorPublicKey(address,string)": "b944559d",
      "addBeneficiaries(address[])": "590411da",
      "addBeneficiaryPublicKey(address,address,string)": "3dea2f84",
      "addIpfsCIDs(address,string[])": "d0e2892c",
      "checkAliveStatus(address)": "072039a2",
      "enableSwitch(address)": "8d5492e4",
      "getBenefactorData(address)": "e9e6630a",
      "getBenefactorPublicKey(address)": "6d769717",
      "getBeneficiaryData(address,address)": "b83f4805",
      "getBeneficiaryPublicKey(address,address)": "f892cb36",
      "getCIDs(address,address)": "df78bc54",
      "getRemainingCountdownTime(address)": "01e2b33f",
      "getSwitchStatus(address)": "07a8b767",
      "isBeneficiary(address,address)": "096e27d9",
      "removeBenefactor(address)": "a98d22bc",
      "removeBeneficiary(address)": "59633a1c",
      "removeIpfsCID(address,string)": "87c63714",
      "respondToSwitch()": "cd9c9362",
      "setBenefactor()": "196ba7ef"
    }
  },
  "storageLayout": {
    "storage": [
      {
        "astId": 33,
        "contract": "DeadMansSwitch.sol:BenefactorsDeadManSwitch",
        "label": "benefactors",
        "offset": 0,
        "slot": "0",
        "type": "t_mapping(t_address,t_struct(BenefactorInfo)28_storage)"
      },
      {
        "astId": 38,
        "contract": "DeadMansSwitch.sol:BenefactorsDeadManSwitch",
        "label": "beneficiaryKeys",
        "offset": 0,
        "slot": "1",
        "type": "t_mapping(t_address,t_array(t_address)dyn_storage)"
      }
    ],
    "types": {
      "t_address": {
        "encoding": "inplace",
        "label": "address",
        "numberOfBytes": "20"
      },
      "t_array(t_address)dyn_storage": {
        "base": "t_address",
        "encoding": "dynamic_array",
        "label": "address[]",
        "numberOfBytes": "32"
      },
      "t_array(t_string_storage)dyn_storage": {
        "base": "t_string_storage",
        "encoding": "dynamic_array",
        "label": "string[]",
        "numberOfBytes": "32"
      },
      "t_bool": {
        "encoding": "inplace",
        "label": "bool",
        "numberOfBytes": "1"
      },
      "t_mapping(t_address,t_array(t_address)dyn_storage)": {
        "encoding": "mapping",
        "key": "t_address",
        "label": "mapping(address => address[])",
        "numberOfBytes": "32",
        "value": "t_array(t_address)dyn_storage"
      },
      "t_mapping(t_address,t_struct(BenefactorInfo)28_storage)": {
        "encoding": "mapping",
        "key": "t_address",
        "label": "mapping(address => struct BenefactorsDeadManSwitch.BenefactorInfo)",
        "numberOfBytes": "32",
        "value": "t_struct(BenefactorInfo)28_storage"
      },
      "t_mapping(t_address,t_struct(Beneficiary)10_storage)": {
        "encoding": "mapping",
        "key": "t_address",
        "label": "mapping(address => struct BenefactorsDeadManSwitch.Beneficiary)",
        "numberOfBytes": "32",
        "value": "t_struct(Beneficiary)10_storage"
      },
      "t_string_storage": {
        "encoding": "bytes",
        "label": "string",
        "numberOfBytes": "32"
      },
      "t_struct(BenefactorInfo)28_storage": {
        "encoding": "inplace",
        "label": "struct BenefactorsDeadManSwitch.BenefactorInfo",
        "members": [
          {
            "astId": 12,
            "contract": "DeadMansSwitch.sol:BenefactorsDeadManSwitch",
            "label": "exists",
            "offset": 0,
            "slot": "0",
            "type": "t_bool"
          },
          {
            "astId": 17,
            "contract": "DeadMansSwitch.sol:BenefactorsDeadManSwitch",
            "label": "beneficiaries",
            "offset": 0,
            "slot": "1",
            "type": "t_mapping(t_address,t_struct(Beneficiary)10_storage)"
          },
          {
            "astId": 19,
            "contract": "DeadMansSwitch.sol:BenefactorsDeadManSwitch",
            "label": "countdownDuration",
            "offset": 0,
            "slot": "2",
            "type": "t_uint256"
          },
          {
            "astId": 21,
            "contract": "DeadMansSwitch.sol:BenefactorsDeadManSwitch",
            "label": "lastBenefactorResponseTime",
            "offset": 0,
            "slot": "3",
            "type": "t_uint256"
          },
          {
            "astId": 23,
            "contract": "DeadMansSwitch.sol:BenefactorsDeadManSwitch",
            "label": "isSwitchedOff",
            "offset": 0,
            "slot": "4",
            "type": "t_bool"
          },
          {
            "astId": 25,
            "contract": "DeadMansSwitch.sol:BenefactorsDeadManSwitch",
            "label": "isAlive",
            "offset": 1,
            "slot": "4",
            "type": "t_bool"
          },
          {
            "astId": 27,
            "contract": "DeadMansSwitch.sol:BenefactorsDeadManSwitch",
            "label": "benefactorPublicKey",
            "offset": 0,
            "slot": "5",
            "type": "t_string_storage"
          }
        ],
        "numberOfBytes": "192"
      },
      "t_struct(Beneficiary)10_storage": {
        "encoding": "inplace",
        "label": "struct BenefactorsDeadManSwitch.Beneficiary",
        "members": [
          {
            "astId": 4,
            "contract": "DeadMansSwitch.sol:BenefactorsDeadManSwitch",
            "label": "exists",
            "offset": 0,
            "slot": "0",
            "type": "t_bool"
          },
          {
            "astId": 7,
            "contract": "DeadMansSwitch.sol:BenefactorsDeadManSwitch",
            "label": "ipfsCIDs",
            "offset": 0,
            "slot": "1",
            "type": "t_array(t_string_storage)dyn_storage"
          },
          {
            "astId": 9,
            "contract": "DeadMansSwitch.sol:BenefactorsDeadManSwitch",
            "label": "beneficiaryPublicKey",
            "offset": 0,
            "slot": "2",
            "type": "t_string_storage"
          }
        ],
        "numberOfBytes": "96"
      },
      "t_uint256": {
        "encoding": "inplace",
        "label": "uint256",
        "numberOfBytes": "32"
      }
    }
  },
  "userdoc": {
    "kind": "user",
    "methods": {},
    "version": 1
  }
}